{
  "contractName": "Amaranthus",
  "abi": [
    {
      "inputs": [],
      "stateMutability": "nonpayable",
      "type": "constructor"
    },
    {
      "anonymous": false,
      "inputs": [
        {
          "indexed": true,
          "internalType": "address",
          "name": "owner",
          "type": "address"
        },
        {
          "indexed": true,
          "internalType": "address",
          "name": "spender",
          "type": "address"
        },
        {
          "indexed": false,
          "internalType": "uint256",
          "name": "value",
          "type": "uint256"
        }
      ],
      "name": "Approval",
      "type": "event"
    },
    {
      "anonymous": false,
      "inputs": [
        {
          "indexed": true,
          "internalType": "address",
          "name": "from",
          "type": "address"
        },
        {
          "indexed": true,
          "internalType": "address",
          "name": "to",
          "type": "address"
        },
        {
          "indexed": false,
          "internalType": "uint256",
          "name": "value",
          "type": "uint256"
        }
      ],
      "name": "Transfer",
      "type": "event"
    },
    {
      "inputs": [
        {
          "internalType": "uint256",
          "name": "",
          "type": "uint256"
        }
      ],
      "name": "_AddrList",
      "outputs": [
        {
          "internalType": "uint256",
          "name": "timePeriod",
          "type": "uint256"
        },
        {
          "internalType": "address",
          "name": "BlockedAddress",
          "type": "address"
        }
      ],
      "stateMutability": "view",
      "type": "function"
    },
    {
      "inputs": [
        {
          "internalType": "uint256",
          "name": "",
          "type": "uint256"
        }
      ],
      "name": "_playerList",
      "outputs": [
        {
          "internalType": "uint256",
          "name": "timePeriod",
          "type": "uint256"
        },
        {
          "internalType": "address",
          "name": "BlockedAddress",
          "type": "address"
        }
      ],
      "stateMutability": "view",
      "type": "function"
    },
    {
      "inputs": [
        {
          "internalType": "address",
          "name": "owner",
          "type": "address"
        },
        {
          "internalType": "address",
          "name": "spender",
          "type": "address"
        }
      ],
      "name": "allowance",
      "outputs": [
        {
          "internalType": "uint256",
          "name": "",
          "type": "uint256"
        }
      ],
      "stateMutability": "view",
      "type": "function"
    },
    {
      "inputs": [
        {
          "internalType": "address",
          "name": "spender",
          "type": "address"
        },
        {
          "internalType": "uint256",
          "name": "amount",
          "type": "uint256"
        }
      ],
      "name": "approve",
      "outputs": [
        {
          "internalType": "bool",
          "name": "",
          "type": "bool"
        }
      ],
      "stateMutability": "nonpayable",
      "type": "function"
    },
    {
      "inputs": [
        {
          "internalType": "address",
          "name": "account",
          "type": "address"
        }
      ],
      "name": "balanceOf",
      "outputs": [
        {
          "internalType": "uint256",
          "name": "",
          "type": "uint256"
        }
      ],
      "stateMutability": "view",
      "type": "function"
    },
    {
      "inputs": [],
      "name": "decimals",
      "outputs": [
        {
          "internalType": "uint8",
          "name": "",
          "type": "uint8"
        }
      ],
      "stateMutability": "view",
      "type": "function"
    },
    {
      "inputs": [
        {
          "internalType": "address",
          "name": "spender",
          "type": "address"
        },
        {
          "internalType": "uint256",
          "name": "subtractedValue",
          "type": "uint256"
        }
      ],
      "name": "decreaseAllowance",
      "outputs": [
        {
          "internalType": "bool",
          "name": "",
          "type": "bool"
        }
      ],
      "stateMutability": "nonpayable",
      "type": "function"
    },
    {
      "inputs": [
        {
          "internalType": "address",
          "name": "spender",
          "type": "address"
        },
        {
          "internalType": "uint256",
          "name": "addedValue",
          "type": "uint256"
        }
      ],
      "name": "increaseAllowance",
      "outputs": [
        {
          "internalType": "bool",
          "name": "",
          "type": "bool"
        }
      ],
      "stateMutability": "nonpayable",
      "type": "function"
    },
    {
      "inputs": [],
      "name": "initialTimestamp",
      "outputs": [
        {
          "internalType": "uint256",
          "name": "",
          "type": "uint256"
        }
      ],
      "stateMutability": "view",
      "type": "function"
    },
    {
      "inputs": [],
      "name": "name",
      "outputs": [
        {
          "internalType": "string",
          "name": "",
          "type": "string"
        }
      ],
      "stateMutability": "view",
      "type": "function"
    },
    {
      "inputs": [],
      "name": "player",
      "outputs": [
        {
          "internalType": "uint256",
          "name": "",
          "type": "uint256"
        }
      ],
      "stateMutability": "view",
      "type": "function"
    },
    {
      "inputs": [],
      "name": "symbol",
      "outputs": [
        {
          "internalType": "string",
          "name": "",
          "type": "string"
        }
      ],
      "stateMutability": "view",
      "type": "function"
    },
    {
      "inputs": [],
      "name": "timePeriod",
      "outputs": [
        {
          "internalType": "uint256",
          "name": "",
          "type": "uint256"
        }
      ],
      "stateMutability": "view",
      "type": "function"
    },
    {
      "inputs": [],
      "name": "timestampSet",
      "outputs": [
        {
          "internalType": "bool",
          "name": "",
          "type": "bool"
        }
      ],
      "stateMutability": "view",
      "type": "function"
    },
    {
      "inputs": [],
      "name": "totalSupply",
      "outputs": [
        {
          "internalType": "uint256",
          "name": "",
          "type": "uint256"
        }
      ],
      "stateMutability": "view",
      "type": "function"
    },
    {
      "inputs": [
        {
          "internalType": "address",
          "name": "to",
          "type": "address"
        },
        {
          "internalType": "uint256",
          "name": "amount",
          "type": "uint256"
        }
      ],
      "name": "transfer",
      "outputs": [
        {
          "internalType": "bool",
          "name": "",
          "type": "bool"
        }
      ],
      "stateMutability": "nonpayable",
      "type": "function"
    },
    {
      "inputs": [
        {
          "internalType": "address",
          "name": "from",
          "type": "address"
        },
        {
          "internalType": "address",
          "name": "to",
          "type": "address"
        },
        {
          "internalType": "uint256",
          "name": "amount",
          "type": "uint256"
        }
      ],
      "name": "transferFrom",
      "outputs": [
        {
          "internalType": "bool",
          "name": "",
          "type": "bool"
        }
      ],
      "stateMutability": "nonpayable",
      "type": "function"
    },
    {
      "inputs": [],
      "name": "setlockAddress",
      "outputs": [],
      "stateMutability": "nonpayable",
      "type": "function"
    },
    {
      "inputs": [
        {
          "internalType": "uint256",
          "name": "index",
          "type": "uint256"
        }
      ],
      "name": "isAddrLocked",
      "outputs": [
        {
          "internalType": "uint256",
          "name": "",
          "type": "uint256"
        }
      ],
      "stateMutability": "view",
      "type": "function"
    },
    {
      "inputs": [
        {
          "internalType": "uint256",
          "name": "_timePeriodInSeconds",
          "type": "uint256"
        }
      ],
      "name": "setAddrTimestamp",
      "outputs": [],
      "stateMutability": "nonpayable",
      "type": "function"
    },
    {
      "inputs": [
        {
          "internalType": "address",
          "name": "to",
          "type": "address"
        },
        {
          "internalType": "uint256",
          "name": "amount",
          "type": "uint256"
        },
        {
          "internalType": "uint256",
          "name": "index",
          "type": "uint256"
        }
      ],
      "name": "transferTimeLockedTokensAfterTimePeriod",
      "outputs": [],
      "stateMutability": "nonpayable",
      "type": "function"
    }
  ],
  "bytecode": "0x60806040526404a817c800600755600b80549050600c553480156200002357600080fd5b506040518060400160405280600a81526020017f416d6172616e74687573000000000000000000000000000000000000000000008152506040518060400160405280600381526020017f41415300000000000000000000000000000000000000000000000000000000008152508160039080519060200190620000a892919062000340565b508060049080519060200190620000c192919062000340565b5050506200010533620000d9620001b560201b60201c565b60ff16600a620000ea91906200057d565b600754620000f99190620005ce565b620001be60201b60201c565b600b6040518060400160405280600081526020013373ffffffffffffffffffffffffffffffffffffffff1681525090806001815401808255809150506001900390600052602060002090600202016000909190919091506000820151816000015560208201518160010160006101000a81548173ffffffffffffffffffffffffffffffffffffffff021916908373ffffffffffffffffffffffffffffffffffffffff1602179055505050620007a1565b60006012905090565b600073ffffffffffffffffffffffffffffffffffffffff168273ffffffffffffffffffffffffffffffffffffffff160362000230576040517f08c379a0000000000000000000000000000000000000000000000000000000008152600401620002279062000690565b60405180910390fd5b62000244600083836200033660201b60201c565b8060026000828254620002589190620006b2565b92505081905550806000808473ffffffffffffffffffffffffffffffffffffffff1673ffffffffffffffffffffffffffffffffffffffff1681526020019081526020016000206000828254620002af9190620006b2565b925050819055508173ffffffffffffffffffffffffffffffffffffffff16600073ffffffffffffffffffffffffffffffffffffffff167fddf252ad1be2c89b69c2b068fc378daa952ba7f163c4a11628f55a4df523b3ef8360405162000316919062000720565b60405180910390a362000332600083836200033b60201b60201c565b5050565b505050565b505050565b8280546200034e906200076c565b90600052602060002090601f016020900481019282620003725760008555620003be565b82601f106200038d57805160ff1916838001178555620003be565b82800160010185558215620003be579182015b82811115620003bd578251825591602001919060010190620003a0565b5b509050620003cd9190620003d1565b5090565b5b80821115620003ec576000816000905550600101620003d2565b5090565b7f4e487b7100000000000000000000000000000000000000000000000000000000600052601160045260246000fd5b60008160011c9050919050565b6000808291508390505b60018511156200047e57808604811115620004565762000455620003f0565b5b6001851615620004665780820291505b808102905062000476856200041f565b945062000436565b94509492505050565b6000826200049957600190506200056c565b81620004a957600090506200056c565b8160018114620004c25760028114620004cd5762000503565b60019150506200056c565b60ff841115620004e257620004e1620003f0565b5b8360020a915084821115620004fc57620004fb620003f0565b5b506200056c565b5060208310610133831016604e8410600b84101617156200053d5782820a905083811115620005375762000536620003f0565b5b6200056c565b6200054c84848460016200042c565b92509050818404811115620005665762000565620003f0565b5b81810290505b9392505050565b6000819050919050565b60006200058a8262000573565b9150620005978362000573565b9250620005c67fffffffffffffffffffffffffffffffffffffffffffffffffffffffffffffffff848462000487565b905092915050565b6000620005db8262000573565b9150620005e88362000573565b9250817fffffffffffffffffffffffffffffffffffffffffffffffffffffffffffffffff0483118215151615620006245762000623620003f0565b5b828202905092915050565b600082825260208201905092915050565b7f45524332303a206d696e7420746f20746865207a65726f206164647265737300600082015250565b600062000678601f836200062f565b9150620006858262000640565b602082019050919050565b60006020820190508181036000830152620006ab8162000669565b9050919050565b6000620006bf8262000573565b9150620006cc8362000573565b9250827fffffffffffffffffffffffffffffffffffffffffffffffffffffffffffffffff03821115620007045762000703620003f0565b5b828201905092915050565b6200071a8162000573565b82525050565b60006020820190506200073760008301846200070f565b92915050565b7f4e487b7100000000000000000000000000000000000000000000000000000000600052602260045260246000fd5b600060028204905060018216806200078557607f821691505b6020821081036200079b576200079a6200073d565b5b50919050565b611a7080620007b16000396000f3fe608060405234801561001057600080fd5b50600436106101375760003560e01c806370a08231116100b8578063b3eb80c21161007c578063b3eb80c214610369578063d6d1417114610399578063dd62ed3e146103b7578063e24ef7c0146103e7578063efcec4a314610403578063fb81359d1461043457610137565b806370a082311461029d57806395d89b41146102cd5780639b69279a146102eb578063a457c2d714610309578063a9059cbb1461033957610137565b806339509351116100ff57806339509351146101f65780633e79d1e114610226578063481f4dc21461024457806348db5f89146102755780634966bccb1461029357610137565b806306fdde031461013c578063095ea7b31461015a57806318160ddd1461018a57806323b872dd146101a8578063313ce567146101d8575b600080fd5b610144610450565b604051610151919061114f565b60405180910390f35b610174600480360381019061016f919061120a565b6104e2565b6040516101819190611265565b60405180910390f35b610192610505565b60405161019f919061128f565b60405180910390f35b6101c260048036038101906101bd91906112aa565b61050f565b6040516101cf9190611265565b60405180910390f35b6101e061053e565b6040516101ed9190611319565b60405180910390f35b610210600480360381019061020b919061120a565b610547565b60405161021d9190611265565b60405180910390f35b61022e61057e565b60405161023b919061128f565b60405180910390f35b61025e60048036038101906102599190611334565b610584565b60405161026c929190611370565b60405180910390f35b61027d6105c8565b60405161028a919061128f565b60405180910390f35b61029b6105ce565b005b6102b760048036038101906102b29190611399565b610683565b6040516102c4919061128f565b60405180910390f35b6102d56106cb565b6040516102e2919061114f565b60405180910390f35b6102f361075d565b6040516103009190611265565b60405180910390f35b610323600480360381019061031e919061120a565b610770565b6040516103309190611265565b60405180910390f35b610353600480360381019061034e919061120a565b6107e7565b6040516103609190611265565b60405180910390f35b610383600480360381019061037e9190611334565b61080a565b604051610390919061128f565b60405180910390f35b6103a161089d565b6040516103ae919061128f565b60405180910390f35b6103d160048036038101906103cc91906113c6565b6108a3565b6040516103de919061128f565b60405180910390f35b61040160048036038101906103fc9190611334565b61092a565b005b61041d60048036038101906104189190611334565b610a00565b60405161042b929190611370565b60405180910390f35b61044e60048036038101906104499190611406565b610a54565b005b60606003805461045f90611488565b80601f016020809104026020016040519081016040528092919081815260200182805461048b90611488565b80156104d85780601f106104ad576101008083540402835291602001916104d8565b820191906000526020600020905b8154815290600101906020018083116104bb57829003601f168201915b5050505050905090565b6000806104ed610b96565b90506104fa818585610b9e565b600191505092915050565b6000600254905090565b60008061051a610b96565b9050610527858285610d67565b610532858585610df3565b60019150509392505050565b60006012905090565b600080610552610b96565b905061057381858561056485896108a3565b61056e91906114e8565b610b9e565b600191505092915050565b600a5481565b60066020528060005260406000206000915090508060000154908060010160009054906101000a900473ffffffffffffffffffffffffffffffffffffffff16905082565b600c5481565b60006040518060400160405280600a5481526020013373ffffffffffffffffffffffffffffffffffffffff168152509050600061060b6005611072565b90506106176005611080565b81600660008381526020019081526020016000206000820151816000015560208201518160010160006101000a81548173ffffffffffffffffffffffffffffffffffffffff021916908373ffffffffffffffffffffffffffffffffffffffff1602179055509050505050565b60008060008373ffffffffffffffffffffffffffffffffffffffff1673ffffffffffffffffffffffffffffffffffffffff168152602001908152602001600020549050919050565b6060600480546106da90611488565b80601f016020809104026020016040519081016040528092919081815260200182805461070690611488565b80156107535780601f1061072857610100808354040283529160200191610753565b820191906000526020600020905b81548152906001019060200180831161073657829003601f168201915b5050505050905090565b600960009054906101000a900460ff1681565b60008061077b610b96565b9050600061078982866108a3565b9050838110156107ce576040517f08c379a00000000000000000000000000000000000000000000000000000000081526004016107c5906115b0565b60405180910390fd5b6107db8286868403610b9e565b60019250505092915050565b6000806107f2610b96565b90506107ff818585610df3565b600191505092915050565b60003373ffffffffffffffffffffffffffffffffffffffff166006600084815260200190815260200160002060010160009054906101000a900473ffffffffffffffffffffffffffffffffffffffff1673ffffffffffffffffffffffffffffffffffffffff16036108935760066000838152602001908152602001600020600001549050610898565b600090505b919050565b60085481565b6000600160008473ffffffffffffffffffffffffffffffffffffffff1673ffffffffffffffffffffffffffffffffffffffff16815260200190815260200160002060008373ffffffffffffffffffffffffffffffffffffffff1673ffffffffffffffffffffffffffffffffffffffff16815260200190815260200160002054905092915050565b426008819055506109468160085461109690919063ffffffff16565b600a819055506000339050600b6040518060400160405280600a5481526020018373ffffffffffffffffffffffffffffffffffffffff1681525090806001815401808255809150506001900390600052602060002090600202016000909190919091506000820151816000015560208201518160010160006101000a81548173ffffffffffffffffffffffffffffffffffffffff021916908373ffffffffffffffffffffffffffffffffffffffff16021790555050505050565b600b8181548110610a1057600080fd5b90600052602060002090600202016000915090508060000154908060010160009054906101000a900473ffffffffffffffffffffffffffffffffffffffff16905082565b600073ffffffffffffffffffffffffffffffffffffffff168373ffffffffffffffffffffffffffffffffffffffff1603610ac3576040517f08c379a0000000000000000000000000000000000000000000000000000000008152600401610aba90611642565b60405180910390fd5b3373ffffffffffffffffffffffffffffffffffffffff168373ffffffffffffffffffffffffffffffffffffffff1603610b31576040517f08c379a0000000000000000000000000000000000000000000000000000000008152600401610b28906116d4565b60405180910390fd5b610b3a8161080a565b421015610b7c576040517f08c379a0000000000000000000000000000000000000000000000000000000008152600401610b7390611766565b60405180910390fd5b610b8683836107e7565b50610b9160f061092a565b505050565b600033905090565b600073ffffffffffffffffffffffffffffffffffffffff168373ffffffffffffffffffffffffffffffffffffffff1603610c0d576040517f08c379a0000000000000000000000000000000000000000000000000000000008152600401610c04906117f8565b60405180910390fd5b600073ffffffffffffffffffffffffffffffffffffffff168273ffffffffffffffffffffffffffffffffffffffff1603610c7c576040517f08c379a0000000000000000000000000000000000000000000000000000000008152600401610c739061188a565b60405180910390fd5b80600160008573ffffffffffffffffffffffffffffffffffffffff1673ffffffffffffffffffffffffffffffffffffffff16815260200190815260200160002060008473ffffffffffffffffffffffffffffffffffffffff1673ffffffffffffffffffffffffffffffffffffffff168152602001908152602001600020819055508173ffffffffffffffffffffffffffffffffffffffff168373ffffffffffffffffffffffffffffffffffffffff167f8c5be1e5ebec7d5bd14f71427d1e84f3dd0314c0f7b2291e5b200ac8c7c3b92583604051610d5a919061128f565b60405180910390a3505050565b6000610d7384846108a3565b90507fffffffffffffffffffffffffffffffffffffffffffffffffffffffffffffffff8114610ded5781811015610ddf576040517f08c379a0000000000000000000000000000000000000000000000000000000008152600401610dd6906118f6565b60405180910390fd5b610dec8484848403610b9e565b5b50505050565b600073ffffffffffffffffffffffffffffffffffffffff168373ffffffffffffffffffffffffffffffffffffffff1603610e62576040517f08c379a0000000000000000000000000000000000000000000000000000000008152600401610e5990611988565b60405180910390fd5b600073ffffffffffffffffffffffffffffffffffffffff168273ffffffffffffffffffffffffffffffffffffffff1603610ed1576040517f08c379a0000000000000000000000000000000000000000000000000000000008152600401610ec890611642565b60405180910390fd5b610edc8383836110ac565b60008060008573ffffffffffffffffffffffffffffffffffffffff1673ffffffffffffffffffffffffffffffffffffffff16815260200190815260200160002054905081811015610f62576040517f08c379a0000000000000000000000000000000000000000000000000000000008152600401610f5990611a1a565b60405180910390fd5b8181036000808673ffffffffffffffffffffffffffffffffffffffff1673ffffffffffffffffffffffffffffffffffffffff16815260200190815260200160002081905550816000808573ffffffffffffffffffffffffffffffffffffffff1673ffffffffffffffffffffffffffffffffffffffff1681526020019081526020016000206000828254610ff591906114e8565b925050819055508273ffffffffffffffffffffffffffffffffffffffff168473ffffffffffffffffffffffffffffffffffffffff167fddf252ad1be2c89b69c2b068fc378daa952ba7f163c4a11628f55a4df523b3ef84604051611059919061128f565b60405180910390a361106c8484846110b1565b50505050565b600081600001549050919050565b6001816000016000828254019250508190555050565b600081836110a491906114e8565b905092915050565b505050565b505050565b600081519050919050565b600082825260208201905092915050565b60005b838110156110f05780820151818401526020810190506110d5565b838111156110ff576000848401525b50505050565b6000601f19601f8301169050919050565b6000611121826110b6565b61112b81856110c1565b935061113b8185602086016110d2565b61114481611105565b840191505092915050565b600060208201905081810360008301526111698184611116565b905092915050565b600080fd5b600073ffffffffffffffffffffffffffffffffffffffff82169050919050565b60006111a182611176565b9050919050565b6111b181611196565b81146111bc57600080fd5b50565b6000813590506111ce816111a8565b92915050565b6000819050919050565b6111e7816111d4565b81146111f257600080fd5b50565b600081359050611204816111de565b92915050565b6000806040838503121561122157611220611171565b5b600061122f858286016111bf565b9250506020611240858286016111f5565b9150509250929050565b60008115159050919050565b61125f8161124a565b82525050565b600060208201905061127a6000830184611256565b92915050565b611289816111d4565b82525050565b60006020820190506112a46000830184611280565b92915050565b6000806000606084860312156112c3576112c2611171565b5b60006112d1868287016111bf565b93505060206112e2868287016111bf565b92505060406112f3868287016111f5565b9150509250925092565b600060ff82169050919050565b611313816112fd565b82525050565b600060208201905061132e600083018461130a565b92915050565b60006020828403121561134a57611349611171565b5b6000611358848285016111f5565b91505092915050565b61136a81611196565b82525050565b60006040820190506113856000830185611280565b6113926020830184611361565b9392505050565b6000602082840312156113af576113ae611171565b5b60006113bd848285016111bf565b91505092915050565b600080604083850312156113dd576113dc611171565b5b60006113eb858286016111bf565b92505060206113fc858286016111bf565b9150509250929050565b60008060006060848603121561141f5761141e611171565b5b600061142d868287016111bf565b935050602061143e868287016111f5565b925050604061144f868287016111f5565b9150509250925092565b7f4e487b7100000000000000000000000000000000000000000000000000000000600052602260045260246000fd5b600060028204905060018216806114a057607f821691505b6020821081036114b3576114b2611459565b5b50919050565b7f4e487b7100000000000000000000000000000000000000000000000000000000600052601160045260246000fd5b60006114f3826111d4565b91506114fe836111d4565b9250827fffffffffffffffffffffffffffffffffffffffffffffffffffffffffffffffff03821115611533576115326114b9565b5b828201905092915050565b7f45524332303a2064656372656173656420616c6c6f77616e63652062656c6f7760008201527f207a65726f000000000000000000000000000000000000000000000000000000602082015250565b600061159a6025836110c1565b91506115a58261153e565b604082019050919050565b600060208201905081810360008301526115c98161158d565b9050919050565b7f45524332303a207472616e7366657220746f20746865207a65726f206164647260008201527f6573730000000000000000000000000000000000000000000000000000000000602082015250565b600061162c6023836110c1565b9150611637826115d0565b604082019050919050565b6000602082019050818103600083015261165b8161161f565b9050919050565b7f4974277320796f7572204e465420796f752063616e6e6f74206769766520796f60008201527f7520746f6b656e20000000000000000000000000000000000000000000000000602082015250565b60006116be6028836110c1565b91506116c982611662565b604082019050919050565b600060208201905081810360008301526116ed816116b1565b9050919050565b7f546f6b656e7320617265206f6e6c7920617661696c61626c652061667465722060008201527f636f72726563742074696d6520706572696f642068617320656c617073656400602082015250565b6000611750603f836110c1565b915061175b826116f4565b604082019050919050565b6000602082019050818103600083015261177f81611743565b9050919050565b7f45524332303a20617070726f76652066726f6d20746865207a65726f2061646460008201527f7265737300000000000000000000000000000000000000000000000000000000602082015250565b60006117e26024836110c1565b91506117ed82611786565b604082019050919050565b60006020820190508181036000830152611811816117d5565b9050919050565b7f45524332303a20617070726f766520746f20746865207a65726f20616464726560008201527f7373000000000000000000000000000000000000000000000000000000000000602082015250565b60006118746022836110c1565b915061187f82611818565b604082019050919050565b600060208201905081810360008301526118a381611867565b9050919050565b7f45524332303a20696e73756666696369656e7420616c6c6f77616e6365000000600082015250565b60006118e0601d836110c1565b91506118eb826118aa565b602082019050919050565b6000602082019050818103600083015261190f816118d3565b9050919050565b7f45524332303a207472616e736665722066726f6d20746865207a65726f20616460008201527f6472657373000000000000000000000000000000000000000000000000000000602082015250565b60006119726025836110c1565b915061197d82611916565b604082019050919050565b600060208201905081810360008301526119a181611965565b9050919050565b7f45524332303a207472616e7366657220616d6f756e742065786365656473206260008201527f616c616e63650000000000000000000000000000000000000000000000000000602082015250565b6000611a046026836110c1565b9150611a0f826119a8565b604082019050919050565b60006020820190508181036000830152611a33816119f7565b905091905056fea2646970667358221220d2bf9c66c8ab9b03d05ad8d04fd6a7ff7260b517b2f91e80a06e99f869f3cec864736f6c634300080e0033",
  "immutableReferences": {},
  "source": "// SPDX-License-Identifier: MIT\npragma solidity ^0.8.13;\n\nimport \"./token/ERC20/utils/SafeERC20.sol\";\nimport \"./token/ERC20/ERC20.sol\";\nimport \"./utils/math/SafeMath.sol\";\nimport \"./utils/Counters.sol\";\n\n\ncontract Amaranthus is ERC20{\n        using Counters for Counters.Counter;\n\n    Counters.Counter private _playerCounter;\n\n\n\n   using SafeMath for uint256;\n   using SafeERC20 for IERC20;\n\n\n\n    struct AddrInfo {\n        uint256 timePeriod;                     // Uploaded time\n        address BlockedAddress;                 //BlockedAddr \n    }    \n    mapping (uint256 => AddrInfo) public _playerList;\n\n\n    uint256 private MAX_TOKEN_COUNT = 20000000000;   //   \n    uint256 public initialTimestamp;\n    bool public timestampSet;\n    uint256 public timePeriod; \n\n    AddrInfo[] public _AddrList;//  \n    uint public player=_AddrList.length;\n\n    constructor() ERC20(\"Amaranthus\", \"AAS\") {\n        // Mint 100 tokens to msg.sender\n        // Similar to how\n        // 1 dollar = 100 cents\n        // 1 token = 1 * (10 ** decimals)\n        _mint(msg.sender, MAX_TOKEN_COUNT * 10**uint(decimals()));\n        _AddrList.push(AddrInfo(0,msg.sender));\n    }\n\n     function setlockAddress() public\n    {\n        AddrInfo memory newAddrInfo = AddrInfo({\n            timePeriod:timePeriod,\n            BlockedAddress:msg.sender\n        });\n\n        uint256 playercount = _playerCounter.current();\n        _playerCounter.increment();\n\n        _playerList[playercount]=newAddrInfo;\n      \n    }\n\n//      int i=0          \n    function isAddrLocked(uint256 index) public view returns( uint256)\n    {\n        if( _playerList[index].BlockedAddress==msg.sender)\n        {\n            return\n            _playerList[index].timePeriod;\n        }\n        else\n        {\n            return 0;\n        }\n  \n    }\n\n\n    function setAddrTimestamp(uint256 _timePeriodInSeconds) public {\n        initialTimestamp = block.timestamp;\n        timePeriod = initialTimestamp.add(_timePeriodInSeconds);\n\n        address BlockedAddress=msg.sender;\n        _AddrList.push(AddrInfo(timePeriod,BlockedAddress));\n    }\n\n\n    \n\n\n    function transferTimeLockedTokensAfterTimePeriod( address to, uint256 amount,uint index) public  \n    {      \n        require(to != address(0), \"ERC20: transfer to the zero address\");\n        require(to != msg.sender, \"It's your NFT you cannot give you token \");\n        // require(msg.sender == to, \"Only the token recipient can perform the unlock\");\n\n\n        require(block.timestamp>=isAddrLocked(index),\"Tokens are only available after correct time period has elapsed\");\n            transfer(to, amount);   \n            setAddrTimestamp(240);        \n    }\n\n   \n\n    \n    //tokenid    nft  tokenid  \n    // tokenid        timeperiod tokenid   .\n    // to  token . \n    // timstamp  transfer . \n    //tokenid        \n    // timeperiod    \n    // timelock  require  else      \n    //    amaranth  1    .\n    //index storage   .\n    //exists    \n\n}",
  "sourcePath": "/Users/gujaeug/Desktop/capstonpro/truffle/contracts/Amaranthus.sol",
  "compiler": {
    "name": "solc",
    "version": "0.8.14+commit.80d49f37.Emscripten.clang"
  },
  "schemaVersion": "3.4.13",
  "updatedAt": "2023-05-12T01:11:08.992Z",
  "devdoc": {
    "kind": "dev",
    "methods": {
      "allowance(address,address)": {
        "details": "See {IERC20-allowance}."
      },
      "approve(address,uint256)": {
        "details": "See {IERC20-approve}. NOTE: If `amount` is the maximum `uint256`, the allowance is not updated on `transferFrom`. This is semantically equivalent to an infinite approval. Requirements: - `spender` cannot be the zero address."
      },
      "balanceOf(address)": {
        "details": "See {IERC20-balanceOf}."
      },
      "decimals()": {
        "details": "Returns the number of decimals used to get its user representation. For example, if `decimals` equals `2`, a balance of `505` tokens should be displayed to a user as `5.05` (`505 / 10 ** 2`). Tokens usually opt for a value of 18, imitating the relationship between Ether and Wei. This is the value {ERC20} uses, unless this function is overridden; NOTE: This information is only used for _display_ purposes: it in no way affects any of the arithmetic of the contract, including {IERC20-balanceOf} and {IERC20-transfer}."
      },
      "decreaseAllowance(address,uint256)": {
        "details": "Atomically decreases the allowance granted to `spender` by the caller. This is an alternative to {approve} that can be used as a mitigation for problems described in {IERC20-approve}. Emits an {Approval} event indicating the updated allowance. Requirements: - `spender` cannot be the zero address. - `spender` must have allowance for the caller of at least `subtractedValue`."
      },
      "increaseAllowance(address,uint256)": {
        "details": "Atomically increases the allowance granted to `spender` by the caller. This is an alternative to {approve} that can be used as a mitigation for problems described in {IERC20-approve}. Emits an {Approval} event indicating the updated allowance. Requirements: - `spender` cannot be the zero address."
      },
      "name()": {
        "details": "Returns the name of the token."
      },
      "symbol()": {
        "details": "Returns the symbol of the token, usually a shorter version of the name."
      },
      "totalSupply()": {
        "details": "See {IERC20-totalSupply}."
      },
      "transfer(address,uint256)": {
        "details": "See {IERC20-transfer}. Requirements: - `to` cannot be the zero address. - the caller must have a balance of at least `amount`."
      },
      "transferFrom(address,address,uint256)": {
        "details": "See {IERC20-transferFrom}. Emits an {Approval} event indicating the updated allowance. This is not required by the EIP. See the note at the beginning of {ERC20}. NOTE: Does not update the allowance if the current allowance is the maximum `uint256`. Requirements: - `from` and `to` cannot be the zero address. - `from` must have a balance of at least `amount`. - the caller must have allowance for ``from``'s tokens of at least `amount`."
      }
    },
    "version": 1
  },
  "userdoc": {
    "kind": "user",
    "methods": {},
    "version": 1
  }
}