{
  "contractName": "ArtGrowNFT",
  "abi": [
    {
      "inputs": [],
      "stateMutability": "nonpayable",
      "type": "constructor"
    },
    {
      "anonymous": false,
      "inputs": [
        {
          "indexed": true,
          "internalType": "address",
          "name": "owner",
          "type": "address"
        },
        {
          "indexed": true,
          "internalType": "address",
          "name": "approved",
          "type": "address"
        },
        {
          "indexed": true,
          "internalType": "uint256",
          "name": "tokenId",
          "type": "uint256"
        }
      ],
      "name": "Approval",
      "type": "event"
    },
    {
      "anonymous": false,
      "inputs": [
        {
          "indexed": true,
          "internalType": "address",
          "name": "owner",
          "type": "address"
        },
        {
          "indexed": true,
          "internalType": "address",
          "name": "operator",
          "type": "address"
        },
        {
          "indexed": false,
          "internalType": "bool",
          "name": "approved",
          "type": "bool"
        }
      ],
      "name": "ApprovalForAll",
      "type": "event"
    },
    {
      "anonymous": false,
      "inputs": [
        {
          "indexed": true,
          "internalType": "address",
          "name": "previousOwner",
          "type": "address"
        },
        {
          "indexed": true,
          "internalType": "address",
          "name": "newOwner",
          "type": "address"
        }
      ],
      "name": "OwnershipTransferred",
      "type": "event"
    },
    {
      "anonymous": false,
      "inputs": [
        {
          "indexed": true,
          "internalType": "address",
          "name": "from",
          "type": "address"
        },
        {
          "indexed": true,
          "internalType": "address",
          "name": "to",
          "type": "address"
        },
        {
          "indexed": true,
          "internalType": "uint256",
          "name": "tokenId",
          "type": "uint256"
        }
      ],
      "name": "Transfer",
      "type": "event"
    },
    {
      "inputs": [
        {
          "internalType": "uint256",
          "name": "",
          "type": "uint256"
        }
      ],
      "name": "_tokenInfo",
      "outputs": [
        {
          "internalType": "uint256",
          "name": "listenCount",
          "type": "uint256"
        },
        {
          "internalType": "uint256",
          "name": "tokenId",
          "type": "uint256"
        },
        {
          "internalType": "address",
          "name": "owner",
          "type": "address"
        }
      ],
      "stateMutability": "view",
      "type": "function"
    },
    {
      "inputs": [
        {
          "internalType": "uint256",
          "name": "",
          "type": "uint256"
        }
      ],
      "name": "_tokenInfoList",
      "outputs": [
        {
          "internalType": "uint256",
          "name": "listenCount",
          "type": "uint256"
        },
        {
          "internalType": "uint256",
          "name": "tokenId",
          "type": "uint256"
        },
        {
          "internalType": "address",
          "name": "owner",
          "type": "address"
        }
      ],
      "stateMutability": "view",
      "type": "function"
    },
    {
      "inputs": [
        {
          "internalType": "address",
          "name": "to",
          "type": "address"
        },
        {
          "internalType": "uint256",
          "name": "tokenId",
          "type": "uint256"
        }
      ],
      "name": "approve",
      "outputs": [],
      "stateMutability": "nonpayable",
      "type": "function"
    },
    {
      "inputs": [
        {
          "internalType": "address",
          "name": "owner",
          "type": "address"
        }
      ],
      "name": "balanceOf",
      "outputs": [
        {
          "internalType": "uint256",
          "name": "",
          "type": "uint256"
        }
      ],
      "stateMutability": "view",
      "type": "function"
    },
    {
      "inputs": [
        {
          "internalType": "uint256",
          "name": "tokenId",
          "type": "uint256"
        }
      ],
      "name": "burn",
      "outputs": [],
      "stateMutability": "nonpayable",
      "type": "function"
    },
    {
      "inputs": [
        {
          "internalType": "uint256",
          "name": "tokenId",
          "type": "uint256"
        }
      ],
      "name": "getApproved",
      "outputs": [
        {
          "internalType": "address",
          "name": "",
          "type": "address"
        }
      ],
      "stateMutability": "view",
      "type": "function"
    },
    {
      "inputs": [
        {
          "internalType": "address",
          "name": "owner",
          "type": "address"
        },
        {
          "internalType": "address",
          "name": "operator",
          "type": "address"
        }
      ],
      "name": "isApprovedForAll",
      "outputs": [
        {
          "internalType": "bool",
          "name": "",
          "type": "bool"
        }
      ],
      "stateMutability": "view",
      "type": "function"
    },
    {
      "inputs": [],
      "name": "name",
      "outputs": [
        {
          "internalType": "string",
          "name": "",
          "type": "string"
        }
      ],
      "stateMutability": "view",
      "type": "function"
    },
    {
      "inputs": [
        {
          "internalType": "uint256",
          "name": "tokenId",
          "type": "uint256"
        }
      ],
      "name": "ownerOf",
      "outputs": [
        {
          "internalType": "address",
          "name": "",
          "type": "address"
        }
      ],
      "stateMutability": "view",
      "type": "function"
    },
    {
      "inputs": [],
      "name": "renounceOwnership",
      "outputs": [],
      "stateMutability": "nonpayable",
      "type": "function"
    },
    {
      "inputs": [
        {
          "internalType": "address",
          "name": "from",
          "type": "address"
        },
        {
          "internalType": "address",
          "name": "to",
          "type": "address"
        },
        {
          "internalType": "uint256",
          "name": "tokenId",
          "type": "uint256"
        }
      ],
      "name": "safeTransferFrom",
      "outputs": [],
      "stateMutability": "nonpayable",
      "type": "function"
    },
    {
      "inputs": [
        {
          "internalType": "address",
          "name": "from",
          "type": "address"
        },
        {
          "internalType": "address",
          "name": "to",
          "type": "address"
        },
        {
          "internalType": "uint256",
          "name": "tokenId",
          "type": "uint256"
        },
        {
          "internalType": "bytes",
          "name": "data",
          "type": "bytes"
        }
      ],
      "name": "safeTransferFrom",
      "outputs": [],
      "stateMutability": "nonpayable",
      "type": "function"
    },
    {
      "inputs": [
        {
          "internalType": "address",
          "name": "operator",
          "type": "address"
        },
        {
          "internalType": "bool",
          "name": "approved",
          "type": "bool"
        }
      ],
      "name": "setApprovalForAll",
      "outputs": [],
      "stateMutability": "nonpayable",
      "type": "function"
    },
    {
      "inputs": [],
      "name": "symbol",
      "outputs": [
        {
          "internalType": "string",
          "name": "",
          "type": "string"
        }
      ],
      "stateMutability": "view",
      "type": "function"
    },
    {
      "inputs": [
        {
          "internalType": "uint256",
          "name": "index",
          "type": "uint256"
        }
      ],
      "name": "tokenByIndex",
      "outputs": [
        {
          "internalType": "uint256",
          "name": "",
          "type": "uint256"
        }
      ],
      "stateMutability": "view",
      "type": "function"
    },
    {
      "inputs": [
        {
          "internalType": "address",
          "name": "owner",
          "type": "address"
        },
        {
          "internalType": "uint256",
          "name": "index",
          "type": "uint256"
        }
      ],
      "name": "tokenOfOwnerByIndex",
      "outputs": [
        {
          "internalType": "uint256",
          "name": "",
          "type": "uint256"
        }
      ],
      "stateMutability": "view",
      "type": "function"
    },
    {
      "inputs": [],
      "name": "totalSupply",
      "outputs": [
        {
          "internalType": "uint256",
          "name": "",
          "type": "uint256"
        }
      ],
      "stateMutability": "view",
      "type": "function"
    },
    {
      "inputs": [
        {
          "internalType": "address",
          "name": "from",
          "type": "address"
        },
        {
          "internalType": "address",
          "name": "to",
          "type": "address"
        },
        {
          "internalType": "uint256",
          "name": "tokenId",
          "type": "uint256"
        }
      ],
      "name": "transferFrom",
      "outputs": [],
      "stateMutability": "nonpayable",
      "type": "function"
    },
    {
      "inputs": [
        {
          "internalType": "address",
          "name": "newOwner",
          "type": "address"
        }
      ],
      "name": "transferOwnership",
      "outputs": [],
      "stateMutability": "nonpayable",
      "type": "function"
    },
    {
      "inputs": [
        {
          "internalType": "address",
          "name": "to",
          "type": "address"
        },
        {
          "internalType": "string",
          "name": "uri",
          "type": "string"
        }
      ],
      "name": "safeMint",
      "outputs": [],
      "stateMutability": "nonpayable",
      "type": "function"
    },
    {
      "inputs": [
        {
          "internalType": "uint256",
          "name": "_tokenId",
          "type": "uint256"
        }
      ],
      "name": "listen",
      "outputs": [],
      "stateMutability": "nonpayable",
      "type": "function"
    },
    {
      "inputs": [
        {
          "internalType": "uint256",
          "name": "_tokenId",
          "type": "uint256"
        }
      ],
      "name": "howmanyListen",
      "outputs": [
        {
          "internalType": "uint256",
          "name": "",
          "type": "uint256"
        }
      ],
      "stateMutability": "view",
      "type": "function"
    },
    {
      "inputs": [],
      "name": "owner",
      "outputs": [
        {
          "internalType": "address",
          "name": "",
          "type": "address"
        }
      ],
      "stateMutability": "view",
      "type": "function"
    },
    {
      "inputs": [
        {
          "internalType": "uint256",
          "name": "_tokenId",
          "type": "uint256"
        }
      ],
      "name": "owner",
      "outputs": [
        {
          "internalType": "address",
          "name": "",
          "type": "address"
        }
      ],
      "stateMutability": "view",
      "type": "function"
    },
    {
      "inputs": [
        {
          "internalType": "uint256",
          "name": "tokenId",
          "type": "uint256"
        }
      ],
      "name": "tokenURI",
      "outputs": [
        {
          "internalType": "string",
          "name": "",
          "type": "string"
        }
      ],
      "stateMutability": "view",
      "type": "function"
    },
    {
      "inputs": [
        {
          "internalType": "bytes4",
          "name": "interfaceId",
          "type": "bytes4"
        }
      ],
      "name": "supportsInterface",
      "outputs": [
        {
          "internalType": "bool",
          "name": "",
          "type": "bool"
        }
      ],
      "stateMutability": "view",
      "type": "function"
    }
  ],
  "bytecode": "0x60806040523480156200001157600080fd5b506040518060400160405280600781526020017f41727447726f77000000000000000000000000000000000000000000000000008152506040518060400160405280600381526020017f4152470000000000000000000000000000000000000000000000000000000000815250816000908051906020019062000096929190620001a6565b508060019080519060200190620000af929190620001a6565b505050620000d2620000c6620000d860201b60201c565b620000e060201b60201c565b620002ba565b600033905090565b6000600b60009054906101000a900473ffffffffffffffffffffffffffffffffffffffff16905081600b60006101000a81548173ffffffffffffffffffffffffffffffffffffffff021916908373ffffffffffffffffffffffffffffffffffffffff1602179055508173ffffffffffffffffffffffffffffffffffffffff168173ffffffffffffffffffffffffffffffffffffffff167f8be0079c531659141344cd1fd0a4f28419497f9722a3daafe3b4186f6b6457e060405160405180910390a35050565b828054620001b49062000285565b90600052602060002090601f016020900481019282620001d8576000855562000224565b82601f10620001f357805160ff191683800117855562000224565b8280016001018555821562000224579182015b828111156200022357825182559160200191906001019062000206565b5b50905062000233919062000237565b5090565b5b808211156200025257600081600090555060010162000238565b5090565b7f4e487b7100000000000000000000000000000000000000000000000000000000600052602260045260246000fd5b600060028204905060018216806200029e57607f821691505b602082108103620002b457620002b362000256565b5b50919050565b6139c280620002ca6000396000f3fe608060405234801561001057600080fd5b506004361061018e5760003560e01c806370a08231116100de578063a22cb46511610097578063d204c45e11610071578063d204c45e146104bd578063df738ee2146104d9578063e985e9c514610509578063f2fde38b146105395761018e565b8063a22cb46514610455578063b88d4fde14610471578063c87b56dd1461048d5761018e565b806370a082311461037d578063715018a6146103ad5780638da5cb5b146103b75780638e29c1a7146103d557806395d89b4114610407578063a123c33e146104255761018e565b806323b872dd1161014b57806342966c681161012557806342966c68146102cf5780634bb8456c146102eb5780634f6ccce71461031d5780636352211e1461034d5761018e565b806323b872dd146102675780632f745c591461028357806342842e0e146102b35761018e565b806301ffc9a71461019357806306fdde03146101c3578063081812fc146101e1578063095ea7b31461021157806318160ddd1461022d5780631e5f7e721461024b575b600080fd5b6101ad60048036038101906101a8919061270c565b610555565b6040516101ba9190612754565b60405180910390f35b6101cb610567565b6040516101d89190612808565b60405180910390f35b6101fb60048036038101906101f69190612860565b6105f9565b60405161020891906128ce565b60405180910390f35b61022b60048036038101906102269190612915565b61063f565b005b610235610756565b6040516102429190612964565b60405180910390f35b61026560048036038101906102609190612860565b610763565b005b610281600480360381019061027c919061297f565b610794565b005b61029d60048036038101906102989190612915565b6107f4565b6040516102aa9190612964565b60405180910390f35b6102cd60048036038101906102c8919061297f565b610899565b005b6102e960048036038101906102e49190612860565b6108b9565b005b61030560048036038101906103009190612860565b610915565b604051610314939291906129d2565b60405180910390f35b61033760048036038101906103329190612860565b61096f565b6040516103449190612964565b60405180910390f35b61036760048036038101906103629190612860565b6109e0565b60405161037491906128ce565b60405180910390f35b61039760048036038101906103929190612a09565b610a91565b6040516103a49190612964565b60405180910390f35b6103b5610b48565b005b6103bf610b5c565b6040516103cc91906128ce565b60405180910390f35b6103ef60048036038101906103ea9190612860565b610b86565b6040516103fe939291906129d2565b60405180910390f35b61040f610bd0565b60405161041c9190612808565b60405180910390f35b61043f600480360381019061043a9190612860565b610c62565b60405161044c91906128ce565b60405180910390f35b61046f600480360381019061046a9190612a62565b610ca2565b005b61048b60048036038101906104869190612bd7565b610cb8565b005b6104a760048036038101906104a29190612860565b610d1a565b6040516104b49190612808565b60405180910390f35b6104d760048036038101906104d29190612cfb565b610d2c565b005b6104f360048036038101906104ee9190612860565b610e0e565b6040516105009190612964565b60405180910390f35b610523600480360381019061051e9190612d57565b610e2e565b6040516105309190612754565b60405180910390f35b610553600480360381019061054e9190612a09565b610ec2565b005b600061056082610f45565b9050919050565b60606000805461057690612dc6565b80601f01602080910402602001604051908101604052809291908181526020018280546105a290612dc6565b80156105ef5780601f106105c4576101008083540402835291602001916105ef565b820191906000526020600020905b8154815290600101906020018083116105d257829003601f168201915b5050505050905090565b600061060482610fbf565b6004600083815260200190815260200160002060009054906101000a900473ffffffffffffffffffffffffffffffffffffffff169050919050565b600061064a826109e0565b90508073ffffffffffffffffffffffffffffffffffffffff168373ffffffffffffffffffffffffffffffffffffffff16036106ba576040517f08c379a00000000000000000000000000000000000000000000000000000000081526004016106b190612e69565b60405180910390fd5b8073ffffffffffffffffffffffffffffffffffffffff166106d961100a565b73ffffffffffffffffffffffffffffffffffffffff16148061070857506107078161070261100a565b610e2e565b5b610747576040517f08c379a000000000000000000000000000000000000000000000000000000000815260040161073e90612efb565b60405180910390fd5b6107518383611012565b505050565b6000600880549050905090565b6001600d6000838152602001908152602001600020600001600082825461078a9190612f4a565b9250508190555050565b6107a561079f61100a565b826110cb565b6107e4576040517f08c379a00000000000000000000000000000000000000000000000000000000081526004016107db90613012565b60405180910390fd5b6107ef838383611160565b505050565b60006107ff83610a91565b8210610840576040517f08c379a0000000000000000000000000000000000000000000000000000000008152600401610837906130a4565b60405180910390fd5b600660008473ffffffffffffffffffffffffffffffffffffffff1673ffffffffffffffffffffffffffffffffffffffff168152602001908152602001600020600083815260200190815260200160002054905092915050565b6108b483838360405180602001604052806000815250610cb8565b505050565b6108ca6108c461100a565b826110cb565b610909576040517f08c379a000000000000000000000000000000000000000000000000000000000815260040161090090613012565b60405180910390fd5b610912816113c6565b50565b600e818154811061092557600080fd5b90600052602060002090600302016000915090508060000154908060010154908060020160009054906101000a900473ffffffffffffffffffffffffffffffffffffffff16905083565b6000610979610756565b82106109ba576040517f08c379a00000000000000000000000000000000000000000000000000000000081526004016109b190613136565b60405180910390fd5b600882815481106109ce576109cd613156565b5b90600052602060002001549050919050565b6000806002600084815260200190815260200160002060009054906101000a900473ffffffffffffffffffffffffffffffffffffffff169050600073ffffffffffffffffffffffffffffffffffffffff168173ffffffffffffffffffffffffffffffffffffffff1603610a88576040517f08c379a0000000000000000000000000000000000000000000000000000000008152600401610a7f906131d1565b60405180910390fd5b80915050919050565b60008073ffffffffffffffffffffffffffffffffffffffff168273ffffffffffffffffffffffffffffffffffffffff1603610b01576040517f08c379a0000000000000000000000000000000000000000000000000000000008152600401610af890613263565b60405180910390fd5b600360008373ffffffffffffffffffffffffffffffffffffffff1673ffffffffffffffffffffffffffffffffffffffff168152602001908152602001600020549050919050565b610b506113d2565b610b5a6000611450565b565b6000600b60009054906101000a900473ffffffffffffffffffffffffffffffffffffffff16905090565b600d6020528060005260406000206000915090508060000154908060010154908060020160009054906101000a900473ffffffffffffffffffffffffffffffffffffffff16905083565b606060018054610bdf90612dc6565b80601f0160208091040260200160405190810160405280929190818152602001828054610c0b90612dc6565b8015610c585780601f10610c2d57610100808354040283529160200191610c58565b820191906000526020600020905b815481529060010190602001808311610c3b57829003601f168201915b5050505050905090565b6000600d600083815260200190815260200160002060020160009054906101000a900473ffffffffffffffffffffffffffffffffffffffff169050919050565b610cb4610cad61100a565b8383611516565b5050565b610cc9610cc361100a565b836110cb565b610d08576040517f08c379a0000000000000000000000000000000000000000000000000000000008152600401610cff90613012565b60405180910390fd5b610d1484848484611682565b50505050565b6060610d25826116de565b9050919050565b610d346113d2565b6000610d40600c6117f0565b9050610d4c600c6117fe565b610d568382611814565b610d608183611832565b60006040518060600160405280600081526020018381526020013373ffffffffffffffffffffffffffffffffffffffff16815250905080600d6000848152602001908152602001600020600082015181600001556020820151816001015560408201518160020160006101000a81548173ffffffffffffffffffffffffffffffffffffffff021916908373ffffffffffffffffffffffffffffffffffffffff16021790555090505050505050565b6000600d6000838152602001908152602001600020600001549050919050565b6000600560008473ffffffffffffffffffffffffffffffffffffffff1673ffffffffffffffffffffffffffffffffffffffff16815260200190815260200160002060008373ffffffffffffffffffffffffffffffffffffffff1673ffffffffffffffffffffffffffffffffffffffff16815260200190815260200160002060009054906101000a900460ff16905092915050565b610eca6113d2565b600073ffffffffffffffffffffffffffffffffffffffff168173ffffffffffffffffffffffffffffffffffffffff1603610f39576040517f08c379a0000000000000000000000000000000000000000000000000000000008152600401610f30906132f5565b60405180910390fd5b610f4281611450565b50565b60007f780e9d63000000000000000000000000000000000000000000000000000000007bffffffffffffffffffffffffffffffffffffffffffffffffffffffff1916827bffffffffffffffffffffffffffffffffffffffffffffffffffffffff19161480610fb85750610fb7826118a6565b5b9050919050565b610fc881611988565b611007576040517f08c379a0000000000000000000000000000000000000000000000000000000008152600401610ffe906131d1565b60405180910390fd5b50565b600033905090565b816004600083815260200190815260200160002060006101000a81548173ffffffffffffffffffffffffffffffffffffffff021916908373ffffffffffffffffffffffffffffffffffffffff160217905550808273ffffffffffffffffffffffffffffffffffffffff16611085836109e0565b73ffffffffffffffffffffffffffffffffffffffff167f8c5be1e5ebec7d5bd14f71427d1e84f3dd0314c0f7b2291e5b200ac8c7c3b92560405160405180910390a45050565b6000806110d7836109e0565b90508073ffffffffffffffffffffffffffffffffffffffff168473ffffffffffffffffffffffffffffffffffffffff16148061111957506111188185610e2e565b5b8061115757508373ffffffffffffffffffffffffffffffffffffffff1661113f846105f9565b73ffffffffffffffffffffffffffffffffffffffff16145b91505092915050565b8273ffffffffffffffffffffffffffffffffffffffff16611180826109e0565b73ffffffffffffffffffffffffffffffffffffffff16146111d6576040517f08c379a00000000000000000000000000000000000000000000000000000000081526004016111cd90613387565b60405180910390fd5b600073ffffffffffffffffffffffffffffffffffffffff168273ffffffffffffffffffffffffffffffffffffffff1603611245576040517f08c379a000000000000000000000000000000000000000000000000000000000815260040161123c90613419565b60405180910390fd5b6112508383836119f4565b61125b600082611012565b6001600360008573ffffffffffffffffffffffffffffffffffffffff1673ffffffffffffffffffffffffffffffffffffffff16815260200190815260200160002060008282546112ab9190613439565b925050819055506001600360008473ffffffffffffffffffffffffffffffffffffffff1673ffffffffffffffffffffffffffffffffffffffff16815260200190815260200160002060008282546113029190612f4a565b92505081905550816002600083815260200190815260200160002060006101000a81548173ffffffffffffffffffffffffffffffffffffffff021916908373ffffffffffffffffffffffffffffffffffffffff160217905550808273ffffffffffffffffffffffffffffffffffffffff168473ffffffffffffffffffffffffffffffffffffffff167fddf252ad1be2c89b69c2b068fc378daa952ba7f163c4a11628f55a4df523b3ef60405160405180910390a46113c1838383611a04565b505050565b6113cf81611a09565b50565b6113da61100a565b73ffffffffffffffffffffffffffffffffffffffff166113f8610b5c565b73ffffffffffffffffffffffffffffffffffffffff161461144e576040517f08c379a0000000000000000000000000000000000000000000000000000000008152600401611445906134b9565b60405180910390fd5b565b6000600b60009054906101000a900473ffffffffffffffffffffffffffffffffffffffff16905081600b60006101000a81548173ffffffffffffffffffffffffffffffffffffffff021916908373ffffffffffffffffffffffffffffffffffffffff1602179055508173ffffffffffffffffffffffffffffffffffffffff168173ffffffffffffffffffffffffffffffffffffffff167f8be0079c531659141344cd1fd0a4f28419497f9722a3daafe3b4186f6b6457e060405160405180910390a35050565b8173ffffffffffffffffffffffffffffffffffffffff168373ffffffffffffffffffffffffffffffffffffffff1603611584576040517f08c379a000000000000000000000000000000000000000000000000000000000815260040161157b90613525565b60405180910390fd5b80600560008573ffffffffffffffffffffffffffffffffffffffff1673ffffffffffffffffffffffffffffffffffffffff16815260200190815260200160002060008473ffffffffffffffffffffffffffffffffffffffff1673ffffffffffffffffffffffffffffffffffffffff16815260200190815260200160002060006101000a81548160ff0219169083151502179055508173ffffffffffffffffffffffffffffffffffffffff168373ffffffffffffffffffffffffffffffffffffffff167f17307eab39ab6107e8899845ad3d59bd9653f200f220920489ca2b5937696c31836040516116759190612754565b60405180910390a3505050565b61168d848484611160565b61169984848484611a5c565b6116d8576040517f08c379a00000000000000000000000000000000000000000000000000000000081526004016116cf906135b7565b60405180910390fd5b50505050565b60606116e982610fbf565b6000600a6000848152602001908152602001600020805461170990612dc6565b80601f016020809104026020016040519081016040528092919081815260200182805461173590612dc6565b80156117825780601f1061175757610100808354040283529160200191611782565b820191906000526020600020905b81548152906001019060200180831161176557829003601f168201915b505050505090506000611793611be3565b905060008151036117a85781925050506117eb565b6000825111156117dd5780826040516020016117c5929190613613565b604051602081830303815290604052925050506117eb565b6117e684611bfa565b925050505b919050565b600081600001549050919050565b6001816000016000828254019250508190555050565b61182e828260405180602001604052806000815250611c62565b5050565b61183b82611988565b61187a576040517f08c379a0000000000000000000000000000000000000000000000000000000008152600401611871906136a9565b60405180910390fd5b80600a600084815260200190815260200160002090805190602001906118a19291906125bd565b505050565b60007f80ac58cd000000000000000000000000000000000000000000000000000000007bffffffffffffffffffffffffffffffffffffffffffffffffffffffff1916827bffffffffffffffffffffffffffffffffffffffffffffffffffffffff1916148061197157507f5b5e139f000000000000000000000000000000000000000000000000000000007bffffffffffffffffffffffffffffffffffffffffffffffffffffffff1916827bffffffffffffffffffffffffffffffffffffffffffffffffffffffff1916145b80611981575061198082611cbd565b5b9050919050565b60008073ffffffffffffffffffffffffffffffffffffffff166002600084815260200190815260200160002060009054906101000a900473ffffffffffffffffffffffffffffffffffffffff1673ffffffffffffffffffffffffffffffffffffffff1614159050919050565b6119ff838383611d27565b505050565b505050565b611a1281611e39565b6000600a60008381526020019081526020016000208054611a3290612dc6565b905014611a5957600a60008281526020019081526020016000206000611a589190612643565b5b50565b6000611a7d8473ffffffffffffffffffffffffffffffffffffffff16611f56565b15611bd6578373ffffffffffffffffffffffffffffffffffffffff1663150b7a02611aa661100a565b8786866040518563ffffffff1660e01b8152600401611ac8949392919061371e565b6020604051808303816000875af1925050508015611b0457506040513d601f19601f82011682018060405250810190611b01919061377f565b60015b611b86573d8060008114611b34576040519150601f19603f3d011682016040523d82523d6000602084013e611b39565b606091505b506000815103611b7e576040517f08c379a0000000000000000000000000000000000000000000000000000000008152600401611b75906135b7565b60405180910390fd5b805181602001fd5b63150b7a0260e01b7bffffffffffffffffffffffffffffffffffffffffffffffffffffffff1916817bffffffffffffffffffffffffffffffffffffffffffffffffffffffff191614915050611bdb565b600190505b949350505050565b606060405180602001604052806000815250905090565b6060611c0582610fbf565b6000611c0f611be3565b90506000815111611c2f5760405180602001604052806000815250611c5a565b80611c3984611f79565b604051602001611c4a929190613613565b6040516020818303038152906040525b915050919050565b611c6c83836120d9565b611c796000848484611a5c565b611cb8576040517f08c379a0000000000000000000000000000000000000000000000000000000008152600401611caf906135b7565b60405180910390fd5b505050565b60007f01ffc9a7000000000000000000000000000000000000000000000000000000007bffffffffffffffffffffffffffffffffffffffffffffffffffffffff1916827bffffffffffffffffffffffffffffffffffffffffffffffffffffffff1916149050919050565b611d328383836122b2565b600073ffffffffffffffffffffffffffffffffffffffff168373ffffffffffffffffffffffffffffffffffffffff1603611d7457611d6f816122b7565b611db3565b8173ffffffffffffffffffffffffffffffffffffffff168373ffffffffffffffffffffffffffffffffffffffff1614611db257611db18382612300565b5b5b600073ffffffffffffffffffffffffffffffffffffffff168273ffffffffffffffffffffffffffffffffffffffff1603611df557611df08161246d565b611e34565b8273ffffffffffffffffffffffffffffffffffffffff168273ffffffffffffffffffffffffffffffffffffffff1614611e3357611e32828261253e565b5b5b505050565b6000611e44826109e0565b9050611e52816000846119f4565b611e5d600083611012565b6001600360008373ffffffffffffffffffffffffffffffffffffffff1673ffffffffffffffffffffffffffffffffffffffff1681526020019081526020016000206000828254611ead9190613439565b925050819055506002600083815260200190815260200160002060006101000a81549073ffffffffffffffffffffffffffffffffffffffff021916905581600073ffffffffffffffffffffffffffffffffffffffff168273ffffffffffffffffffffffffffffffffffffffff167fddf252ad1be2c89b69c2b068fc378daa952ba7f163c4a11628f55a4df523b3ef60405160405180910390a4611f5281600084611a04565b5050565b6000808273ffffffffffffffffffffffffffffffffffffffff163b119050919050565b606060008203611fc0576040518060400160405280600181526020017f300000000000000000000000000000000000000000000000000000000000000081525090506120d4565b600082905060005b60008214611ff2578080611fdb906137ac565b915050600a82611feb9190613823565b9150611fc8565b60008167ffffffffffffffff81111561200e5761200d612aac565b5b6040519080825280601f01601f1916602001820160405280156120405781602001600182028036833780820191505090505b5090505b600085146120cd576001826120599190613439565b9150600a856120689190613854565b60306120749190612f4a565b60f81b81838151811061208a57612089613156565b5b60200101907effffffffffffffffffffffffffffffffffffffffffffffffffffffffffffff1916908160001a905350600a856120c69190613823565b9450612044565b8093505050505b919050565b600073ffffffffffffffffffffffffffffffffffffffff168273ffffffffffffffffffffffffffffffffffffffff1603612148576040517f08c379a000000000000000000000000000000000000000000000000000000000815260040161213f906138d1565b60405180910390fd5b61215181611988565b15612191576040517f08c379a00000000000000000000000000000000000000000000000000000000081526004016121889061393d565b60405180910390fd5b61219d600083836119f4565b6001600360008473ffffffffffffffffffffffffffffffffffffffff1673ffffffffffffffffffffffffffffffffffffffff16815260200190815260200160002060008282546121ed9190612f4a565b92505081905550816002600083815260200190815260200160002060006101000a81548173ffffffffffffffffffffffffffffffffffffffff021916908373ffffffffffffffffffffffffffffffffffffffff160217905550808273ffffffffffffffffffffffffffffffffffffffff16600073ffffffffffffffffffffffffffffffffffffffff167fddf252ad1be2c89b69c2b068fc378daa952ba7f163c4a11628f55a4df523b3ef60405160405180910390a46122ae60008383611a04565b5050565b505050565b6008805490506009600083815260200190815260200160002081905550600881908060018154018082558091505060019003906000526020600020016000909190919091505550565b6000600161230d84610a91565b6123179190613439565b90506000600760008481526020019081526020016000205490508181146123fc576000600660008673ffffffffffffffffffffffffffffffffffffffff1673ffffffffffffffffffffffffffffffffffffffff168152602001908152602001600020600084815260200190815260200160002054905080600660008773ffffffffffffffffffffffffffffffffffffffff1673ffffffffffffffffffffffffffffffffffffffff168152602001908152602001600020600084815260200190815260200160002081905550816007600083815260200190815260200160002081905550505b6007600084815260200190815260200160002060009055600660008573ffffffffffffffffffffffffffffffffffffffff1673ffffffffffffffffffffffffffffffffffffffff16815260200190815260200160002060008381526020019081526020016000206000905550505050565b600060016008805490506124819190613439565b90506000600960008481526020019081526020016000205490506000600883815481106124b1576124b0613156565b5b9060005260206000200154905080600883815481106124d3576124d2613156565b5b9060005260206000200181905550816009600083815260200190815260200160002081905550600960008581526020019081526020016000206000905560088054806125225761252161395d565b5b6001900381819060005260206000200160009055905550505050565b600061254983610a91565b905081600660008573ffffffffffffffffffffffffffffffffffffffff1673ffffffffffffffffffffffffffffffffffffffff168152602001908152602001600020600083815260200190815260200160002081905550806007600084815260200190815260200160002081905550505050565b8280546125c990612dc6565b90600052602060002090601f0160209004810192826125eb5760008555612632565b82601f1061260457805160ff1916838001178555612632565b82800160010185558215612632579182015b82811115612631578251825591602001919060010190612616565b5b50905061263f9190612683565b5090565b50805461264f90612dc6565b6000825580601f106126615750612680565b601f01602090049060005260206000209081019061267f9190612683565b5b50565b5b8082111561269c576000816000905550600101612684565b5090565b6000604051905090565b600080fd5b600080fd5b60007fffffffff0000000000000000000000000000000000000000000000000000000082169050919050565b6126e9816126b4565b81146126f457600080fd5b50565b600081359050612706816126e0565b92915050565b600060208284031215612722576127216126aa565b5b6000612730848285016126f7565b91505092915050565b60008115159050919050565b61274e81612739565b82525050565b60006020820190506127696000830184612745565b92915050565b600081519050919050565b600082825260208201905092915050565b60005b838110156127a957808201518184015260208101905061278e565b838111156127b8576000848401525b50505050565b6000601f19601f8301169050919050565b60006127da8261276f565b6127e4818561277a565b93506127f481856020860161278b565b6127fd816127be565b840191505092915050565b6000602082019050818103600083015261282281846127cf565b905092915050565b6000819050919050565b61283d8161282a565b811461284857600080fd5b50565b60008135905061285a81612834565b92915050565b600060208284031215612876576128756126aa565b5b60006128848482850161284b565b91505092915050565b600073ffffffffffffffffffffffffffffffffffffffff82169050919050565b60006128b88261288d565b9050919050565b6128c8816128ad565b82525050565b60006020820190506128e360008301846128bf565b92915050565b6128f2816128ad565b81146128fd57600080fd5b50565b60008135905061290f816128e9565b92915050565b6000806040838503121561292c5761292b6126aa565b5b600061293a85828601612900565b925050602061294b8582860161284b565b9150509250929050565b61295e8161282a565b82525050565b60006020820190506129796000830184612955565b92915050565b600080600060608486031215612998576129976126aa565b5b60006129a686828701612900565b93505060206129b786828701612900565b92505060406129c88682870161284b565b9150509250925092565b60006060820190506129e76000830186612955565b6129f46020830185612955565b612a0160408301846128bf565b949350505050565b600060208284031215612a1f57612a1e6126aa565b5b6000612a2d84828501612900565b91505092915050565b612a3f81612739565b8114612a4a57600080fd5b50565b600081359050612a5c81612a36565b92915050565b60008060408385031215612a7957612a786126aa565b5b6000612a8785828601612900565b9250506020612a9885828601612a4d565b9150509250929050565b600080fd5b600080fd5b7f4e487b7100000000000000000000000000000000000000000000000000000000600052604160045260246000fd5b612ae4826127be565b810181811067ffffffffffffffff82111715612b0357612b02612aac565b5b80604052505050565b6000612b166126a0565b9050612b228282612adb565b919050565b600067ffffffffffffffff821115612b4257612b41612aac565b5b612b4b826127be565b9050602081019050919050565b82818337600083830152505050565b6000612b7a612b7584612b27565b612b0c565b905082815260208101848484011115612b9657612b95612aa7565b5b612ba1848285612b58565b509392505050565b600082601f830112612bbe57612bbd612aa2565b5b8135612bce848260208601612b67565b91505092915050565b60008060008060808587031215612bf157612bf06126aa565b5b6000612bff87828801612900565b9450506020612c1087828801612900565b9350506040612c218782880161284b565b925050606085013567ffffffffffffffff811115612c4257612c416126af565b5b612c4e87828801612ba9565b91505092959194509250565b600067ffffffffffffffff821115612c7557612c74612aac565b5b612c7e826127be565b9050602081019050919050565b6000612c9e612c9984612c5a565b612b0c565b905082815260208101848484011115612cba57612cb9612aa7565b5b612cc5848285612b58565b509392505050565b600082601f830112612ce257612ce1612aa2565b5b8135612cf2848260208601612c8b565b91505092915050565b60008060408385031215612d1257612d116126aa565b5b6000612d2085828601612900565b925050602083013567ffffffffffffffff811115612d4157612d406126af565b5b612d4d85828601612ccd565b9150509250929050565b60008060408385031215612d6e57612d6d6126aa565b5b6000612d7c85828601612900565b9250506020612d8d85828601612900565b9150509250929050565b7f4e487b7100000000000000000000000000000000000000000000000000000000600052602260045260246000fd5b60006002820490506001821680612dde57607f821691505b602082108103612df157612df0612d97565b5b50919050565b7f4552433732313a20617070726f76616c20746f2063757272656e74206f776e6560008201527f7200000000000000000000000000000000000000000000000000000000000000602082015250565b6000612e5360218361277a565b9150612e5e82612df7565b604082019050919050565b60006020820190508181036000830152612e8281612e46565b9050919050565b7f4552433732313a20617070726f76652063616c6c6572206973206e6f7420746f60008201527f6b656e206f776e6572206e6f7220617070726f76656420666f7220616c6c0000602082015250565b6000612ee5603e8361277a565b9150612ef082612e89565b604082019050919050565b60006020820190508181036000830152612f1481612ed8565b9050919050565b7f4e487b7100000000000000000000000000000000000000000000000000000000600052601160045260246000fd5b6000612f558261282a565b9150612f608361282a565b9250827fffffffffffffffffffffffffffffffffffffffffffffffffffffffffffffffff03821115612f9557612f94612f1b565b5b828201905092915050565b7f4552433732313a2063616c6c6572206973206e6f7420746f6b656e206f776e6560008201527f72206e6f7220617070726f766564000000000000000000000000000000000000602082015250565b6000612ffc602e8361277a565b915061300782612fa0565b604082019050919050565b6000602082019050818103600083015261302b81612fef565b9050919050565b7f455243373231456e756d657261626c653a206f776e657220696e646578206f7560008201527f74206f6620626f756e6473000000000000000000000000000000000000000000602082015250565b600061308e602b8361277a565b915061309982613032565b604082019050919050565b600060208201905081810360008301526130bd81613081565b9050919050565b7f455243373231456e756d657261626c653a20676c6f62616c20696e646578206f60008201527f7574206f6620626f756e64730000000000000000000000000000000000000000602082015250565b6000613120602c8361277a565b915061312b826130c4565b604082019050919050565b6000602082019050818103600083015261314f81613113565b9050919050565b7f4e487b7100000000000000000000000000000000000000000000000000000000600052603260045260246000fd5b7f4552433732313a20696e76616c696420746f6b656e2049440000000000000000600082015250565b60006131bb60188361277a565b91506131c682613185565b602082019050919050565b600060208201905081810360008301526131ea816131ae565b9050919050565b7f4552433732313a2061646472657373207a65726f206973206e6f74206120766160008201527f6c6964206f776e65720000000000000000000000000000000000000000000000602082015250565b600061324d60298361277a565b9150613258826131f1565b604082019050919050565b6000602082019050818103600083015261327c81613240565b9050919050565b7f4f776e61626c653a206e6577206f776e657220697320746865207a65726f206160008201527f6464726573730000000000000000000000000000000000000000000000000000602082015250565b60006132df60268361277a565b91506132ea82613283565b604082019050919050565b6000602082019050818103600083015261330e816132d2565b9050919050565b7f4552433732313a207472616e736665722066726f6d20696e636f72726563742060008201527f6f776e6572000000000000000000000000000000000000000000000000000000602082015250565b600061337160258361277a565b915061337c82613315565b604082019050919050565b600060208201905081810360008301526133a081613364565b9050919050565b7f4552433732313a207472616e7366657220746f20746865207a65726f2061646460008201527f7265737300000000000000000000000000000000000000000000000000000000602082015250565b600061340360248361277a565b915061340e826133a7565b604082019050919050565b60006020820190508181036000830152613432816133f6565b9050919050565b60006134448261282a565b915061344f8361282a565b92508282101561346257613461612f1b565b5b828203905092915050565b7f4f776e61626c653a2063616c6c6572206973206e6f7420746865206f776e6572600082015250565b60006134a360208361277a565b91506134ae8261346d565b602082019050919050565b600060208201905081810360008301526134d281613496565b9050919050565b7f4552433732313a20617070726f766520746f2063616c6c657200000000000000600082015250565b600061350f60198361277a565b915061351a826134d9565b602082019050919050565b6000602082019050818103600083015261353e81613502565b9050919050565b7f4552433732313a207472616e7366657220746f206e6f6e20455243373231526560008201527f63656976657220696d706c656d656e7465720000000000000000000000000000602082015250565b60006135a160328361277a565b91506135ac82613545565b604082019050919050565b600060208201905081810360008301526135d081613594565b9050919050565b600081905092915050565b60006135ed8261276f565b6135f781856135d7565b935061360781856020860161278b565b80840191505092915050565b600061361f82856135e2565b915061362b82846135e2565b91508190509392505050565b7f45524337323155524953746f726167653a2055524920736574206f66206e6f6e60008201527f6578697374656e7420746f6b656e000000000000000000000000000000000000602082015250565b6000613693602e8361277a565b915061369e82613637565b604082019050919050565b600060208201905081810360008301526136c281613686565b9050919050565b600081519050919050565b600082825260208201905092915050565b60006136f0826136c9565b6136fa81856136d4565b935061370a81856020860161278b565b613713816127be565b840191505092915050565b600060808201905061373360008301876128bf565b61374060208301866128bf565b61374d6040830185612955565b818103606083015261375f81846136e5565b905095945050505050565b600081519050613779816126e0565b92915050565b600060208284031215613795576137946126aa565b5b60006137a38482850161376a565b91505092915050565b60006137b78261282a565b91507fffffffffffffffffffffffffffffffffffffffffffffffffffffffffffffffff82036137e9576137e8612f1b565b5b600182019050919050565b7f4e487b7100000000000000000000000000000000000000000000000000000000600052601260045260246000fd5b600061382e8261282a565b91506138398361282a565b925082613849576138486137f4565b5b828204905092915050565b600061385f8261282a565b915061386a8361282a565b92508261387a576138796137f4565b5b828206905092915050565b7f4552433732313a206d696e7420746f20746865207a65726f2061646472657373600082015250565b60006138bb60208361277a565b91506138c682613885565b602082019050919050565b600060208201905081810360008301526138ea816138ae565b9050919050565b7f4552433732313a20746f6b656e20616c7265616479206d696e74656400000000600082015250565b6000613927601c8361277a565b9150613932826138f1565b602082019050919050565b600060208201905081810360008301526139568161391a565b9050919050565b7f4e487b7100000000000000000000000000000000000000000000000000000000600052603160045260246000fdfea264697066735822122078c8786f2413ffdff2ec72f092584ef60ad1da7eddeea7f11aaf3f938cd60a8064736f6c634300080e0033",
  "immutableReferences": {},
  "source": "// SPDX-License-Identifier:MIT\npragma solidity ^0.8.4;\n\nimport \"./token/ERC721/ERC721.sol\";\nimport \"./token/ERC721/extensions/ERC721Enumerable.sol\";\nimport \"./token/ERC721/extensions/ERC721URIStorage.sol\";\nimport \"./token/ERC721/extensions/ERC721Burnable.sol\";\nimport \"./access/Ownable.sol\";\nimport \"./utils/Counters.sol\";\n\ncontract ArtGrowNFT is ERC721, ERC721Enumerable, ERC721URIStorage, ERC721Burnable, Ownable {\n    using Counters for Counters.Counter;\n\n    Counters.Counter private _tokenIdCounter;\n\n    struct tokenInfo{\n        uint256 listenCount;\n        uint256 tokenId; \n        address owner;\n\n    }\n\n\n    mapping(uint256=>tokenInfo) public _tokenInfoList;\n    tokenInfo[] public _tokenInfo;//  \n    \n\n\n    constructor() ERC721(\"ArtGrow\", \"ARG\") {}\n\n\n    function safeMint(address to, string memory uri) public onlyOwner {\n        uint256 tokenId = _tokenIdCounter.current();\n        _tokenIdCounter.increment();\n        _safeMint(to, tokenId);\n        _setTokenURI(tokenId, uri);\n\n        tokenInfo memory newtokenInfo = tokenInfo({\n            listenCount:0,\n            tokenId:tokenId,\n            owner:msg.sender\n        });\n     _tokenInfoList[tokenId]= newtokenInfo;   \n    }\n\n    // The following functions are overrides required by Solidity.\n\n    function listen(uint256 _tokenId) public{\n        _tokenInfoList[_tokenId].listenCount+=1;\n    }\n\n    function howmanyListen(uint256 _tokenId) public view returns(uint256){\n        return _tokenInfoList[_tokenId].listenCount;\n    }\n\n    function owner(uint256 _tokenId)public view returns(address)\n    {\n        return _tokenInfoList[_tokenId].owner;\n    }\n\n\n\n    function _beforeTokenTransfer(address from, address to, uint256 tokenId)\n        internal\n        override(ERC721, ERC721Enumerable)\n    {\n        super._beforeTokenTransfer(from, to, tokenId);\n    }\n\n    function _burn(uint256 tokenId) internal override(ERC721, ERC721URIStorage) {\n        super._burn(tokenId);\n    }\n\n    function tokenURI(uint256 tokenId)\n        public\n        view\n        override(ERC721, ERC721URIStorage)\n        returns (string memory)\n    {\n        return super.tokenURI(tokenId);\n    }\n\n    function supportsInterface(bytes4 interfaceId)\n        public\n        view\n        override(ERC721, ERC721Enumerable)\n        returns (bool)\n    {\n        return super.supportsInterface(interfaceId);\n    }\n}",
  "sourcePath": "C:\\Users\\paete\\CapstonPro\\truffle\\contracts\\ArtGrowNFT.sol",
  "compiler": {
    "name": "solc",
    "version": "0.8.14+commit.80d49f37.Emscripten.clang"
  },
  "schemaVersion": "3.4.13",
  "updatedAt": "2023-05-02T15:03:30.385Z",
  "devdoc": {
    "kind": "dev",
    "methods": {
      "approve(address,uint256)": {
        "details": "See {IERC721-approve}."
      },
      "balanceOf(address)": {
        "details": "See {IERC721-balanceOf}."
      },
      "burn(uint256)": {
        "details": "Burns `tokenId`. See {ERC721-_burn}. Requirements: - The caller must own `tokenId` or be an approved operator."
      },
      "getApproved(uint256)": {
        "details": "See {IERC721-getApproved}."
      },
      "isApprovedForAll(address,address)": {
        "details": "See {IERC721-isApprovedForAll}."
      },
      "name()": {
        "details": "See {IERC721Metadata-name}."
      },
      "owner()": {
        "details": "Returns the address of the current owner."
      },
      "ownerOf(uint256)": {
        "details": "See {IERC721-ownerOf}."
      },
      "renounceOwnership()": {
        "details": "Leaves the contract without owner. It will not be possible to call `onlyOwner` functions anymore. Can only be called by the current owner. NOTE: Renouncing ownership will leave the contract without an owner, thereby removing any functionality that is only available to the owner."
      },
      "safeTransferFrom(address,address,uint256)": {
        "details": "See {IERC721-safeTransferFrom}."
      },
      "safeTransferFrom(address,address,uint256,bytes)": {
        "details": "See {IERC721-safeTransferFrom}."
      },
      "setApprovalForAll(address,bool)": {
        "details": "See {IERC721-setApprovalForAll}."
      },
      "symbol()": {
        "details": "See {IERC721Metadata-symbol}."
      },
      "tokenByIndex(uint256)": {
        "details": "See {IERC721Enumerable-tokenByIndex}."
      },
      "tokenOfOwnerByIndex(address,uint256)": {
        "details": "See {IERC721Enumerable-tokenOfOwnerByIndex}."
      },
      "totalSupply()": {
        "details": "See {IERC721Enumerable-totalSupply}."
      },
      "transferFrom(address,address,uint256)": {
        "details": "See {IERC721-transferFrom}."
      },
      "transferOwnership(address)": {
        "details": "Transfers ownership of the contract to a new account (`newOwner`). Can only be called by the current owner."
      }
    },
    "version": 1
  },
  "userdoc": {
    "kind": "user",
    "methods": {},
    "version": 1
  }
}