{
  "contractName": "ERC1155PresetMinterPauser",
  "abi": [
    {
      "inputs": [
        {
          "internalType": "string",
          "name": "uri",
          "type": "string"
        }
      ],
      "stateMutability": "nonpayable",
      "type": "constructor"
    },
    {
      "anonymous": false,
      "inputs": [
        {
          "indexed": true,
          "internalType": "address",
          "name": "account",
          "type": "address"
        },
        {
          "indexed": true,
          "internalType": "address",
          "name": "operator",
          "type": "address"
        },
        {
          "indexed": false,
          "internalType": "bool",
          "name": "approved",
          "type": "bool"
        }
      ],
      "name": "ApprovalForAll",
      "type": "event"
    },
    {
      "anonymous": false,
      "inputs": [
        {
          "indexed": false,
          "internalType": "address",
          "name": "account",
          "type": "address"
        }
      ],
      "name": "Paused",
      "type": "event"
    },
    {
      "anonymous": false,
      "inputs": [
        {
          "indexed": true,
          "internalType": "bytes32",
          "name": "role",
          "type": "bytes32"
        },
        {
          "indexed": true,
          "internalType": "bytes32",
          "name": "previousAdminRole",
          "type": "bytes32"
        },
        {
          "indexed": true,
          "internalType": "bytes32",
          "name": "newAdminRole",
          "type": "bytes32"
        }
      ],
      "name": "RoleAdminChanged",
      "type": "event"
    },
    {
      "anonymous": false,
      "inputs": [
        {
          "indexed": true,
          "internalType": "bytes32",
          "name": "role",
          "type": "bytes32"
        },
        {
          "indexed": true,
          "internalType": "address",
          "name": "account",
          "type": "address"
        },
        {
          "indexed": true,
          "internalType": "address",
          "name": "sender",
          "type": "address"
        }
      ],
      "name": "RoleGranted",
      "type": "event"
    },
    {
      "anonymous": false,
      "inputs": [
        {
          "indexed": true,
          "internalType": "bytes32",
          "name": "role",
          "type": "bytes32"
        },
        {
          "indexed": true,
          "internalType": "address",
          "name": "account",
          "type": "address"
        },
        {
          "indexed": true,
          "internalType": "address",
          "name": "sender",
          "type": "address"
        }
      ],
      "name": "RoleRevoked",
      "type": "event"
    },
    {
      "anonymous": false,
      "inputs": [
        {
          "indexed": true,
          "internalType": "address",
          "name": "operator",
          "type": "address"
        },
        {
          "indexed": true,
          "internalType": "address",
          "name": "from",
          "type": "address"
        },
        {
          "indexed": true,
          "internalType": "address",
          "name": "to",
          "type": "address"
        },
        {
          "indexed": false,
          "internalType": "uint256[]",
          "name": "ids",
          "type": "uint256[]"
        },
        {
          "indexed": false,
          "internalType": "uint256[]",
          "name": "values",
          "type": "uint256[]"
        }
      ],
      "name": "TransferBatch",
      "type": "event"
    },
    {
      "anonymous": false,
      "inputs": [
        {
          "indexed": true,
          "internalType": "address",
          "name": "operator",
          "type": "address"
        },
        {
          "indexed": true,
          "internalType": "address",
          "name": "from",
          "type": "address"
        },
        {
          "indexed": true,
          "internalType": "address",
          "name": "to",
          "type": "address"
        },
        {
          "indexed": false,
          "internalType": "uint256",
          "name": "id",
          "type": "uint256"
        },
        {
          "indexed": false,
          "internalType": "uint256",
          "name": "value",
          "type": "uint256"
        }
      ],
      "name": "TransferSingle",
      "type": "event"
    },
    {
      "anonymous": false,
      "inputs": [
        {
          "indexed": false,
          "internalType": "string",
          "name": "value",
          "type": "string"
        },
        {
          "indexed": true,
          "internalType": "uint256",
          "name": "id",
          "type": "uint256"
        }
      ],
      "name": "URI",
      "type": "event"
    },
    {
      "anonymous": false,
      "inputs": [
        {
          "indexed": false,
          "internalType": "address",
          "name": "account",
          "type": "address"
        }
      ],
      "name": "Unpaused",
      "type": "event"
    },
    {
      "inputs": [],
      "name": "DEFAULT_ADMIN_ROLE",
      "outputs": [
        {
          "internalType": "bytes32",
          "name": "",
          "type": "bytes32"
        }
      ],
      "stateMutability": "view",
      "type": "function"
    },
    {
      "inputs": [],
      "name": "MINTER_ROLE",
      "outputs": [
        {
          "internalType": "bytes32",
          "name": "",
          "type": "bytes32"
        }
      ],
      "stateMutability": "view",
      "type": "function"
    },
    {
      "inputs": [],
      "name": "PAUSER_ROLE",
      "outputs": [
        {
          "internalType": "bytes32",
          "name": "",
          "type": "bytes32"
        }
      ],
      "stateMutability": "view",
      "type": "function"
    },
    {
      "inputs": [
        {
          "internalType": "address",
          "name": "account",
          "type": "address"
        },
        {
          "internalType": "uint256",
          "name": "id",
          "type": "uint256"
        }
      ],
      "name": "balanceOf",
      "outputs": [
        {
          "internalType": "uint256",
          "name": "",
          "type": "uint256"
        }
      ],
      "stateMutability": "view",
      "type": "function"
    },
    {
      "inputs": [
        {
          "internalType": "address[]",
          "name": "accounts",
          "type": "address[]"
        },
        {
          "internalType": "uint256[]",
          "name": "ids",
          "type": "uint256[]"
        }
      ],
      "name": "balanceOfBatch",
      "outputs": [
        {
          "internalType": "uint256[]",
          "name": "",
          "type": "uint256[]"
        }
      ],
      "stateMutability": "view",
      "type": "function"
    },
    {
      "inputs": [
        {
          "internalType": "address",
          "name": "account",
          "type": "address"
        },
        {
          "internalType": "uint256",
          "name": "id",
          "type": "uint256"
        },
        {
          "internalType": "uint256",
          "name": "value",
          "type": "uint256"
        }
      ],
      "name": "burn",
      "outputs": [],
      "stateMutability": "nonpayable",
      "type": "function"
    },
    {
      "inputs": [
        {
          "internalType": "address",
          "name": "account",
          "type": "address"
        },
        {
          "internalType": "uint256[]",
          "name": "ids",
          "type": "uint256[]"
        },
        {
          "internalType": "uint256[]",
          "name": "values",
          "type": "uint256[]"
        }
      ],
      "name": "burnBatch",
      "outputs": [],
      "stateMutability": "nonpayable",
      "type": "function"
    },
    {
      "inputs": [
        {
          "internalType": "bytes32",
          "name": "role",
          "type": "bytes32"
        }
      ],
      "name": "getRoleAdmin",
      "outputs": [
        {
          "internalType": "bytes32",
          "name": "",
          "type": "bytes32"
        }
      ],
      "stateMutability": "view",
      "type": "function"
    },
    {
      "inputs": [
        {
          "internalType": "bytes32",
          "name": "role",
          "type": "bytes32"
        },
        {
          "internalType": "uint256",
          "name": "index",
          "type": "uint256"
        }
      ],
      "name": "getRoleMember",
      "outputs": [
        {
          "internalType": "address",
          "name": "",
          "type": "address"
        }
      ],
      "stateMutability": "view",
      "type": "function"
    },
    {
      "inputs": [
        {
          "internalType": "bytes32",
          "name": "role",
          "type": "bytes32"
        }
      ],
      "name": "getRoleMemberCount",
      "outputs": [
        {
          "internalType": "uint256",
          "name": "",
          "type": "uint256"
        }
      ],
      "stateMutability": "view",
      "type": "function"
    },
    {
      "inputs": [
        {
          "internalType": "bytes32",
          "name": "role",
          "type": "bytes32"
        },
        {
          "internalType": "address",
          "name": "account",
          "type": "address"
        }
      ],
      "name": "grantRole",
      "outputs": [],
      "stateMutability": "nonpayable",
      "type": "function"
    },
    {
      "inputs": [
        {
          "internalType": "bytes32",
          "name": "role",
          "type": "bytes32"
        },
        {
          "internalType": "address",
          "name": "account",
          "type": "address"
        }
      ],
      "name": "hasRole",
      "outputs": [
        {
          "internalType": "bool",
          "name": "",
          "type": "bool"
        }
      ],
      "stateMutability": "view",
      "type": "function"
    },
    {
      "inputs": [
        {
          "internalType": "address",
          "name": "account",
          "type": "address"
        },
        {
          "internalType": "address",
          "name": "operator",
          "type": "address"
        }
      ],
      "name": "isApprovedForAll",
      "outputs": [
        {
          "internalType": "bool",
          "name": "",
          "type": "bool"
        }
      ],
      "stateMutability": "view",
      "type": "function"
    },
    {
      "inputs": [],
      "name": "paused",
      "outputs": [
        {
          "internalType": "bool",
          "name": "",
          "type": "bool"
        }
      ],
      "stateMutability": "view",
      "type": "function"
    },
    {
      "inputs": [
        {
          "internalType": "bytes32",
          "name": "role",
          "type": "bytes32"
        },
        {
          "internalType": "address",
          "name": "account",
          "type": "address"
        }
      ],
      "name": "renounceRole",
      "outputs": [],
      "stateMutability": "nonpayable",
      "type": "function"
    },
    {
      "inputs": [
        {
          "internalType": "bytes32",
          "name": "role",
          "type": "bytes32"
        },
        {
          "internalType": "address",
          "name": "account",
          "type": "address"
        }
      ],
      "name": "revokeRole",
      "outputs": [],
      "stateMutability": "nonpayable",
      "type": "function"
    },
    {
      "inputs": [
        {
          "internalType": "address",
          "name": "from",
          "type": "address"
        },
        {
          "internalType": "address",
          "name": "to",
          "type": "address"
        },
        {
          "internalType": "uint256[]",
          "name": "ids",
          "type": "uint256[]"
        },
        {
          "internalType": "uint256[]",
          "name": "amounts",
          "type": "uint256[]"
        },
        {
          "internalType": "bytes",
          "name": "data",
          "type": "bytes"
        }
      ],
      "name": "safeBatchTransferFrom",
      "outputs": [],
      "stateMutability": "nonpayable",
      "type": "function"
    },
    {
      "inputs": [
        {
          "internalType": "address",
          "name": "from",
          "type": "address"
        },
        {
          "internalType": "address",
          "name": "to",
          "type": "address"
        },
        {
          "internalType": "uint256",
          "name": "id",
          "type": "uint256"
        },
        {
          "internalType": "uint256",
          "name": "amount",
          "type": "uint256"
        },
        {
          "internalType": "bytes",
          "name": "data",
          "type": "bytes"
        }
      ],
      "name": "safeTransferFrom",
      "outputs": [],
      "stateMutability": "nonpayable",
      "type": "function"
    },
    {
      "inputs": [
        {
          "internalType": "address",
          "name": "operator",
          "type": "address"
        },
        {
          "internalType": "bool",
          "name": "approved",
          "type": "bool"
        }
      ],
      "name": "setApprovalForAll",
      "outputs": [],
      "stateMutability": "nonpayable",
      "type": "function"
    },
    {
      "inputs": [
        {
          "internalType": "uint256",
          "name": "",
          "type": "uint256"
        }
      ],
      "name": "uri",
      "outputs": [
        {
          "internalType": "string",
          "name": "",
          "type": "string"
        }
      ],
      "stateMutability": "view",
      "type": "function"
    },
    {
      "inputs": [
        {
          "internalType": "address",
          "name": "to",
          "type": "address"
        },
        {
          "internalType": "uint256",
          "name": "id",
          "type": "uint256"
        },
        {
          "internalType": "uint256",
          "name": "amount",
          "type": "uint256"
        },
        {
          "internalType": "bytes",
          "name": "data",
          "type": "bytes"
        }
      ],
      "name": "mint",
      "outputs": [],
      "stateMutability": "nonpayable",
      "type": "function"
    },
    {
      "inputs": [
        {
          "internalType": "address",
          "name": "to",
          "type": "address"
        },
        {
          "internalType": "uint256[]",
          "name": "ids",
          "type": "uint256[]"
        },
        {
          "internalType": "uint256[]",
          "name": "amounts",
          "type": "uint256[]"
        },
        {
          "internalType": "bytes",
          "name": "data",
          "type": "bytes"
        }
      ],
      "name": "mintBatch",
      "outputs": [],
      "stateMutability": "nonpayable",
      "type": "function"
    },
    {
      "inputs": [],
      "name": "pause",
      "outputs": [],
      "stateMutability": "nonpayable",
      "type": "function"
    },
    {
      "inputs": [],
      "name": "unpause",
      "outputs": [],
      "stateMutability": "nonpayable",
      "type": "function"
    },
    {
      "inputs": [
        {
          "internalType": "bytes4",
          "name": "interfaceId",
          "type": "bytes4"
        }
      ],
      "name": "supportsInterface",
      "outputs": [
        {
          "internalType": "bool",
          "name": "",
          "type": "bool"
        }
      ],
      "stateMutability": "view",
      "type": "function"
    }
  ],
  "bytecode": "0x60806040523480156200001157600080fd5b506040516200529038038062005290833981810160405281019062000037919062000611565b8062000049816200011260201b60201c565b506000600560006101000a81548160ff021916908315150217905550620000896000801b6200007d6200012e60201b60201c565b6200013660201b60201c565b620000ca7f9f2df0fed2c77648de5860a4cc508cd0818c85b8b8a1ab4ceeef8d981c8956a6620000be6200012e60201b60201c565b6200013660201b60201c565b6200010b7f65d7a28e3265b37a6474929f336521b332c1681b933f6cb9f3376673440d862a620000ff6200012e60201b60201c565b6200013660201b60201c565b50620006c6565b80600490805190602001906200012a929190620003c4565b5050565b600033905090565b6200014882826200014c60201b60201c565b5050565b6200016382826200019460201b62000e781760201c565b6200018f81600160008581526020019081526020016000206200028560201b62000f581790919060201c565b505050565b620001a68282620002bd60201b60201c565b6200028157600160008084815260200190815260200160002060000160008373ffffffffffffffffffffffffffffffffffffffff1673ffffffffffffffffffffffffffffffffffffffff16815260200190815260200160002060006101000a81548160ff021916908315150217905550620002266200012e60201b60201c565b73ffffffffffffffffffffffffffffffffffffffff168173ffffffffffffffffffffffffffffffffffffffff16837f2f8788117e7eff1d82e926ec794901d17c78024a50270940304540a733656f0d60405160405180910390a45b5050565b6000620002b5836000018373ffffffffffffffffffffffffffffffffffffffff1660001b6200032760201b60201c565b905092915050565b600080600084815260200190815260200160002060000160008373ffffffffffffffffffffffffffffffffffffffff1673ffffffffffffffffffffffffffffffffffffffff16815260200190815260200160002060009054906101000a900460ff16905092915050565b60006200033b8383620003a160201b60201c565b620003965782600001829080600181540180825580915050600190039060005260206000200160009091909190915055826000018054905083600101600084815260200190815260200160002081905550600190506200039b565b600090505b92915050565b600080836001016000848152602001908152602001600020541415905092915050565b828054620003d29062000691565b90600052602060002090601f016020900481019282620003f6576000855562000442565b82601f106200041157805160ff191683800117855562000442565b8280016001018555821562000442579182015b828111156200044157825182559160200191906001019062000424565b5b50905062000451919062000455565b5090565b5b808211156200047057600081600090555060010162000456565b5090565b6000604051905090565b600080fd5b600080fd5b600080fd5b600080fd5b6000601f19601f8301169050919050565b7f4e487b7100000000000000000000000000000000000000000000000000000000600052604160045260246000fd5b620004dd8262000492565b810181811067ffffffffffffffff82111715620004ff57620004fe620004a3565b5b80604052505050565b60006200051462000474565b9050620005228282620004d2565b919050565b600067ffffffffffffffff821115620005455762000544620004a3565b5b620005508262000492565b9050602081019050919050565b60005b838110156200057d57808201518184015260208101905062000560565b838111156200058d576000848401525b50505050565b6000620005aa620005a48462000527565b62000508565b905082815260208101848484011115620005c957620005c86200048d565b5b620005d68482856200055d565b509392505050565b600082601f830112620005f657620005f562000488565b5b81516200060884826020860162000593565b91505092915050565b6000602082840312156200062a57620006296200047e565b5b600082015167ffffffffffffffff8111156200064b576200064a62000483565b5b6200065984828501620005de565b91505092915050565b7f4e487b7100000000000000000000000000000000000000000000000000000000600052602260045260246000fd5b60006002820490506001821680620006aa57607f821691505b602082108103620006c057620006bf62000662565b5b50919050565b614bba80620006d66000396000f3fe608060405234801561001057600080fd5b50600436106101725760003560e01c8063731133e9116100de578063ca15c87311610097578063e63ab1e911610071578063e63ab1e914610445578063e985e9c514610463578063f242432a14610493578063f5298aca146104af57610172565b8063ca15c873146103db578063d53913931461040b578063d547741f1461042957610172565b8063731133e91461031b5780638456cb59146103375780639010d07c1461034157806391d1485414610371578063a217fddf146103a1578063a22cb465146103bf57610172565b80632f2ff15d116101305780632f2ff15d1461026f57806336568abe1461028b5780633f4ba83a146102a75780634e1273f4146102b15780635c975abb146102e15780636b20c454146102ff57610172565b8062fdd58e1461017757806301ffc9a7146101a75780630e89341c146101d75780631f7fdffa14610207578063248a9ca3146102235780632eb2c2d614610253575b600080fd5b610191600480360381019061018c9190612f3c565b6104cb565b60405161019e9190612f8b565b60405180910390f35b6101c160048036038101906101bc9190612ffe565b610594565b6040516101ce9190613046565b60405180910390f35b6101f160048036038101906101ec9190613061565b6105a6565b6040516101fe9190613127565b60405180910390f35b610221600480360381019061021c9190613346565b61063a565b005b61023d60048036038101906102389190613437565b6106bc565b60405161024a9190613473565b60405180910390f35b61026d6004803603810190610268919061348e565b6106db565b005b6102896004803603810190610284919061355d565b61077c565b005b6102a560048036038101906102a0919061355d565b61079d565b005b6102af610820565b005b6102cb60048036038101906102c69190613660565b61089a565b6040516102d89190613796565b60405180910390f35b6102e96109b3565b6040516102f69190613046565b60405180910390f35b610319600480360381019061031491906137b8565b6109ca565b005b61033560048036038101906103309190613843565b610a67565b005b61033f610ae9565b005b61035b600480360381019061035691906138c6565b610b63565b6040516103689190613915565b60405180910390f35b61038b6004803603810190610386919061355d565b610b92565b6040516103989190613046565b60405180910390f35b6103a9610bfc565b6040516103b69190613473565b60405180910390f35b6103d960048036038101906103d4919061395c565b610c03565b005b6103f560048036038101906103f09190613437565b610c19565b6040516104029190612f8b565b60405180910390f35b610413610c3d565b6040516104209190613473565b60405180910390f35b610443600480360381019061043e919061355d565b610c61565b005b61044d610c82565b60405161045a9190613473565b60405180910390f35b61047d6004803603810190610478919061399c565b610ca6565b60405161048a9190613046565b60405180910390f35b6104ad60048036038101906104a891906139dc565b610d3a565b005b6104c960048036038101906104c49190613a73565b610ddb565b005b60008073ffffffffffffffffffffffffffffffffffffffff168373ffffffffffffffffffffffffffffffffffffffff160361053b576040517f08c379a000000000000000000000000000000000000000000000000000000000815260040161053290613b38565b60405180910390fd5b6002600083815260200190815260200160002060008473ffffffffffffffffffffffffffffffffffffffff1673ffffffffffffffffffffffffffffffffffffffff16815260200190815260200160002054905092915050565b600061059f82610f88565b9050919050565b6060600480546105b590613b87565b80601f01602080910402602001604051908101604052809291908181526020018280546105e190613b87565b801561062e5780601f106106035761010080835404028352916020019161062e565b820191906000526020600020905b81548152906001019060200180831161061157829003601f168201915b50505050509050919050565b61066b7f9f2df0fed2c77648de5860a4cc508cd0818c85b8b8a1ab4ceeef8d981c8956a661066661106a565b610b92565b6106aa576040517f08c379a00000000000000000000000000000000000000000000000000000000081526004016106a190613c2a565b60405180910390fd5b6106b684848484611072565b50505050565b6000806000838152602001908152602001600020600101549050919050565b6106e361106a565b73ffffffffffffffffffffffffffffffffffffffff168573ffffffffffffffffffffffffffffffffffffffff16148061072957506107288561072361106a565b610ca6565b5b610768576040517f08c379a000000000000000000000000000000000000000000000000000000000815260040161075f90613cbc565b60405180910390fd5b610775858585858561129f565b5050505050565b610785826106bc565b61078e816115c3565b61079883836115d7565b505050565b6107a561106a565b73ffffffffffffffffffffffffffffffffffffffff168173ffffffffffffffffffffffffffffffffffffffff1614610812576040517f08c379a000000000000000000000000000000000000000000000000000000000815260040161080990613d4e565b60405180910390fd5b61081c828261160b565b5050565b6108517f65d7a28e3265b37a6474929f336521b332c1681b933f6cb9f3376673440d862a61084c61106a565b610b92565b610890576040517f08c379a000000000000000000000000000000000000000000000000000000000815260040161088790613de0565b60405180910390fd5b61089861163f565b565b606081518351146108e0576040517f08c379a00000000000000000000000000000000000000000000000000000000081526004016108d790613e72565b60405180910390fd5b6000835167ffffffffffffffff8111156108fd576108fc61314e565b5b60405190808252806020026020018201604052801561092b5781602001602082028036833780820191505090505b50905060005b84518110156109a8576109788582815181106109505761094f613e92565b5b602002602001015185838151811061096b5761096a613e92565b5b60200260200101516104cb565b82828151811061098b5761098a613e92565b5b602002602001018181525050806109a190613ef0565b9050610931565b508091505092915050565b6000600560009054906101000a900460ff16905090565b6109d261106a565b73ffffffffffffffffffffffffffffffffffffffff168373ffffffffffffffffffffffffffffffffffffffff161480610a185750610a1783610a1261106a565b610ca6565b5b610a57576040517f08c379a0000000000000000000000000000000000000000000000000000000008152600401610a4e90613cbc565b60405180910390fd5b610a628383836116a2565b505050565b610a987f9f2df0fed2c77648de5860a4cc508cd0818c85b8b8a1ab4ceeef8d981c8956a6610a9361106a565b610b92565b610ad7576040517f08c379a0000000000000000000000000000000000000000000000000000000008152600401610ace90613c2a565b60405180910390fd5b610ae384848484611972565b50505050565b610b1a7f65d7a28e3265b37a6474929f336521b332c1681b933f6cb9f3376673440d862a610b1561106a565b610b92565b610b59576040517f08c379a0000000000000000000000000000000000000000000000000000000008152600401610b5090613faa565b60405180910390fd5b610b61611b23565b565b6000610b8a8260016000868152602001908152602001600020611b8690919063ffffffff16565b905092915050565b600080600084815260200190815260200160002060000160008373ffffffffffffffffffffffffffffffffffffffff1673ffffffffffffffffffffffffffffffffffffffff16815260200190815260200160002060009054906101000a900460ff16905092915050565b6000801b81565b610c15610c0e61106a565b8383611ba0565b5050565b6000610c3660016000848152602001908152602001600020611d0c565b9050919050565b7f9f2df0fed2c77648de5860a4cc508cd0818c85b8b8a1ab4ceeef8d981c8956a681565b610c6a826106bc565b610c73816115c3565b610c7d838361160b565b505050565b7f65d7a28e3265b37a6474929f336521b332c1681b933f6cb9f3376673440d862a81565b6000600360008473ffffffffffffffffffffffffffffffffffffffff1673ffffffffffffffffffffffffffffffffffffffff16815260200190815260200160002060008373ffffffffffffffffffffffffffffffffffffffff1673ffffffffffffffffffffffffffffffffffffffff16815260200190815260200160002060009054906101000a900460ff16905092915050565b610d4261106a565b73ffffffffffffffffffffffffffffffffffffffff168573ffffffffffffffffffffffffffffffffffffffff161480610d885750610d8785610d8261106a565b610ca6565b5b610dc7576040517f08c379a0000000000000000000000000000000000000000000000000000000008152600401610dbe90613cbc565b60405180910390fd5b610dd48585858585611d21565b5050505050565b610de361106a565b73ffffffffffffffffffffffffffffffffffffffff168373ffffffffffffffffffffffffffffffffffffffff161480610e295750610e2883610e2361106a565b610ca6565b5b610e68576040517f08c379a0000000000000000000000000000000000000000000000000000000008152600401610e5f90613cbc565b60405180910390fd5b610e73838383611fbf565b505050565b610e828282610b92565b610f5457600160008084815260200190815260200160002060000160008373ffffffffffffffffffffffffffffffffffffffff1673ffffffffffffffffffffffffffffffffffffffff16815260200190815260200160002060006101000a81548160ff021916908315150217905550610ef961106a565b73ffffffffffffffffffffffffffffffffffffffff168173ffffffffffffffffffffffffffffffffffffffff16837f2f8788117e7eff1d82e926ec794901d17c78024a50270940304540a733656f0d60405160405180910390a45b5050565b6000610f80836000018373ffffffffffffffffffffffffffffffffffffffff1660001b612207565b905092915050565b60007fd9b67a26000000000000000000000000000000000000000000000000000000007bffffffffffffffffffffffffffffffffffffffffffffffffffffffff1916827bffffffffffffffffffffffffffffffffffffffffffffffffffffffff1916148061105357507f0e89341c000000000000000000000000000000000000000000000000000000007bffffffffffffffffffffffffffffffffffffffffffffffffffffffff1916827bffffffffffffffffffffffffffffffffffffffffffffffffffffffff1916145b80611063575061106282612277565b5b9050919050565b600033905090565b600073ffffffffffffffffffffffffffffffffffffffff168473ffffffffffffffffffffffffffffffffffffffff16036110e1576040517f08c379a00000000000000000000000000000000000000000000000000000000081526004016110d89061403c565b60405180910390fd5b8151835114611125576040517f08c379a000000000000000000000000000000000000000000000000000000000815260040161111c906140ce565b60405180910390fd5b600061112f61106a565b9050611140816000878787876122f1565b60005b84518110156111fa5783818151811061115f5761115e613e92565b5b60200260200101516002600087848151811061117e5761117d613e92565b5b6020026020010151815260200190815260200160002060008873ffffffffffffffffffffffffffffffffffffffff1673ffffffffffffffffffffffffffffffffffffffff16815260200190815260200160002060008282546111e091906140ee565b9250508190555080806111f290613ef0565b915050611143565b508473ffffffffffffffffffffffffffffffffffffffff16600073ffffffffffffffffffffffffffffffffffffffff168273ffffffffffffffffffffffffffffffffffffffff167f4a39dc06d4c0dbc64b70af90fd698a233a518aa5d07e595d983b8c0526c8f7fb8787604051611272929190614144565b60405180910390a461128981600087878787612307565b6112988160008787878761230f565b5050505050565b81518351146112e3576040517f08c379a00000000000000000000000000000000000000000000000000000000081526004016112da906140ce565b60405180910390fd5b600073ffffffffffffffffffffffffffffffffffffffff168473ffffffffffffffffffffffffffffffffffffffff1603611352576040517f08c379a0000000000000000000000000000000000000000000000000000000008152600401611349906141ed565b60405180910390fd5b600061135c61106a565b905061136c8187878787876122f1565b60005b845181101561152057600085828151811061138d5761138c613e92565b5b6020026020010151905060008583815181106113ac576113ab613e92565b5b6020026020010151905060006002600084815260200190815260200160002060008b73ffffffffffffffffffffffffffffffffffffffff1673ffffffffffffffffffffffffffffffffffffffff1681526020019081526020016000205490508181101561144e576040517f08c379a00000000000000000000000000000000000000000000000000000000081526004016114459061427f565b60405180910390fd5b8181036002600085815260200190815260200160002060008c73ffffffffffffffffffffffffffffffffffffffff1673ffffffffffffffffffffffffffffffffffffffff16815260200190815260200160002081905550816002600085815260200190815260200160002060008b73ffffffffffffffffffffffffffffffffffffffff1673ffffffffffffffffffffffffffffffffffffffff168152602001908152602001600020600082825461150591906140ee565b925050819055505050508061151990613ef0565b905061136f565b508473ffffffffffffffffffffffffffffffffffffffff168673ffffffffffffffffffffffffffffffffffffffff168273ffffffffffffffffffffffffffffffffffffffff167f4a39dc06d4c0dbc64b70af90fd698a233a518aa5d07e595d983b8c0526c8f7fb8787604051611597929190614144565b60405180910390a46115ad818787878787612307565b6115bb81878787878761230f565b505050505050565b6115d4816115cf61106a565b6124e6565b50565b6115e18282610e78565b6116068160016000858152602001908152602001600020610f5890919063ffffffff16565b505050565b6116158282612583565b61163a816001600085815260200190815260200160002061266490919063ffffffff16565b505050565b611647612694565b6000600560006101000a81548160ff0219169083151502179055507f5db9ee0a495bf2e6ff9c91a7834c1ba4fdd244a5e8aa4e537bd38aeae4b073aa61168b61106a565b6040516116989190613915565b60405180910390a1565b600073ffffffffffffffffffffffffffffffffffffffff168373ffffffffffffffffffffffffffffffffffffffff1603611711576040517f08c379a000000000000000000000000000000000000000000000000000000000815260040161170890614311565b60405180910390fd5b8051825114611755576040517f08c379a000000000000000000000000000000000000000000000000000000000815260040161174c906140ce565b60405180910390fd5b600061175f61106a565b905061177f818560008686604051806020016040528060008152506122f1565b60005b83518110156118ce5760008482815181106117a05761179f613e92565b5b6020026020010151905060008483815181106117bf576117be613e92565b5b6020026020010151905060006002600084815260200190815260200160002060008973ffffffffffffffffffffffffffffffffffffffff1673ffffffffffffffffffffffffffffffffffffffff16815260200190815260200160002054905081811015611861576040517f08c379a0000000000000000000000000000000000000000000000000000000008152600401611858906143a3565b60405180910390fd5b8181036002600085815260200190815260200160002060008a73ffffffffffffffffffffffffffffffffffffffff1673ffffffffffffffffffffffffffffffffffffffff1681526020019081526020016000208190555050505080806118c690613ef0565b915050611782565b50600073ffffffffffffffffffffffffffffffffffffffff168473ffffffffffffffffffffffffffffffffffffffff168273ffffffffffffffffffffffffffffffffffffffff167f4a39dc06d4c0dbc64b70af90fd698a233a518aa5d07e595d983b8c0526c8f7fb8686604051611946929190614144565b60405180910390a461196c81856000868660405180602001604052806000815250612307565b50505050565b600073ffffffffffffffffffffffffffffffffffffffff168473ffffffffffffffffffffffffffffffffffffffff16036119e1576040517f08c379a00000000000000000000000000000000000000000000000000000000081526004016119d89061403c565b60405180910390fd5b60006119eb61106a565b905060006119f8856126dd565b90506000611a05856126dd565b9050611a16836000898585896122f1565b846002600088815260200190815260200160002060008973ffffffffffffffffffffffffffffffffffffffff1673ffffffffffffffffffffffffffffffffffffffff1681526020019081526020016000206000828254611a7691906140ee565b925050819055508673ffffffffffffffffffffffffffffffffffffffff16600073ffffffffffffffffffffffffffffffffffffffff168473ffffffffffffffffffffffffffffffffffffffff167fc3d58168c5ae7397731d063d5bbf3d657854427343f4c083240f7aacaa2d0f628989604051611af49291906143c3565b60405180910390a4611b0b83600089858589612307565b611b1a83600089898989612757565b50505050505050565b611b2b61292e565b6001600560006101000a81548160ff0219169083151502179055507f62e78cea01bee320cd4e420270b5ea74000d11b0c9f74754ebdbfc544b05a258611b6f61106a565b604051611b7c9190613915565b60405180910390a1565b6000611b958360000183612978565b60001c905092915050565b8173ffffffffffffffffffffffffffffffffffffffff168373ffffffffffffffffffffffffffffffffffffffff1603611c0e576040517f08c379a0000000000000000000000000000000000000000000000000000000008152600401611c059061445e565b60405180910390fd5b80600360008573ffffffffffffffffffffffffffffffffffffffff1673ffffffffffffffffffffffffffffffffffffffff16815260200190815260200160002060008473ffffffffffffffffffffffffffffffffffffffff1673ffffffffffffffffffffffffffffffffffffffff16815260200190815260200160002060006101000a81548160ff0219169083151502179055508173ffffffffffffffffffffffffffffffffffffffff168373ffffffffffffffffffffffffffffffffffffffff167f17307eab39ab6107e8899845ad3d59bd9653f200f220920489ca2b5937696c3183604051611cff9190613046565b60405180910390a3505050565b6000611d1a826000016129a3565b9050919050565b600073ffffffffffffffffffffffffffffffffffffffff168473ffffffffffffffffffffffffffffffffffffffff1603611d90576040517f08c379a0000000000000000000000000000000000000000000000000000000008152600401611d87906141ed565b60405180910390fd5b6000611d9a61106a565b90506000611da7856126dd565b90506000611db4856126dd565b9050611dc48389898585896122f1565b60006002600088815260200190815260200160002060008a73ffffffffffffffffffffffffffffffffffffffff1673ffffffffffffffffffffffffffffffffffffffff16815260200190815260200160002054905085811015611e5c576040517f08c379a0000000000000000000000000000000000000000000000000000000008152600401611e539061427f565b60405180910390fd5b8581036002600089815260200190815260200160002060008b73ffffffffffffffffffffffffffffffffffffffff1673ffffffffffffffffffffffffffffffffffffffff16815260200190815260200160002081905550856002600089815260200190815260200160002060008a73ffffffffffffffffffffffffffffffffffffffff1673ffffffffffffffffffffffffffffffffffffffff1681526020019081526020016000206000828254611f1391906140ee565b925050819055508773ffffffffffffffffffffffffffffffffffffffff168973ffffffffffffffffffffffffffffffffffffffff168573ffffffffffffffffffffffffffffffffffffffff167fc3d58168c5ae7397731d063d5bbf3d657854427343f4c083240f7aacaa2d0f628a8a604051611f909291906143c3565b60405180910390a4611fa6848a8a86868a612307565b611fb4848a8a8a8a8a612757565b505050505050505050565b600073ffffffffffffffffffffffffffffffffffffffff168373ffffffffffffffffffffffffffffffffffffffff160361202e576040517f08c379a000000000000000000000000000000000000000000000000000000000815260040161202590614311565b60405180910390fd5b600061203861106a565b90506000612045846126dd565b90506000612052846126dd565b9050612072838760008585604051806020016040528060008152506122f1565b60006002600087815260200190815260200160002060008873ffffffffffffffffffffffffffffffffffffffff1673ffffffffffffffffffffffffffffffffffffffff1681526020019081526020016000205490508481101561210a576040517f08c379a0000000000000000000000000000000000000000000000000000000008152600401612101906143a3565b60405180910390fd5b8481036002600088815260200190815260200160002060008973ffffffffffffffffffffffffffffffffffffffff1673ffffffffffffffffffffffffffffffffffffffff16815260200190815260200160002081905550600073ffffffffffffffffffffffffffffffffffffffff168773ffffffffffffffffffffffffffffffffffffffff168573ffffffffffffffffffffffffffffffffffffffff167fc3d58168c5ae7397731d063d5bbf3d657854427343f4c083240f7aacaa2d0f6289896040516121d89291906143c3565b60405180910390a46121fe84886000868660405180602001604052806000815250612307565b50505050505050565b600061221383836129b4565b61226c578260000182908060018154018082558091505060019003906000526020600020016000909190919091505582600001805490508360010160008481526020019081526020016000208190555060019050612271565b600090505b92915050565b60007f5a05180f000000000000000000000000000000000000000000000000000000007bffffffffffffffffffffffffffffffffffffffffffffffffffffffff1916827bffffffffffffffffffffffffffffffffffffffffffffffffffffffff191614806122ea57506122e9826129d7565b5b9050919050565b6122ff868686868686612a51565b505050505050565b505050505050565b61232e8473ffffffffffffffffffffffffffffffffffffffff16612aaf565b156124de578373ffffffffffffffffffffffffffffffffffffffff1663bc197c8187878686866040518663ffffffff1660e01b81526004016123749594939291906144d3565b6020604051808303816000875af19250505080156123b057506040513d601f19601f820116820180604052508101906123ad9190614550565b60015b612455576123bc61458a565b806308c379a00361241857506123d06145ac565b806123db575061241a565b806040517f08c379a000000000000000000000000000000000000000000000000000000000815260040161240f9190613127565b60405180910390fd5b505b6040517f08c379a000000000000000000000000000000000000000000000000000000000815260040161244c906146ae565b60405180910390fd5b63bc197c8160e01b7bffffffffffffffffffffffffffffffffffffffffffffffffffffffff1916817bffffffffffffffffffffffffffffffffffffffffffffffffffffffff1916146124dc576040517f08c379a00000000000000000000000000000000000000000000000000000000081526004016124d390614740565b60405180910390fd5b505b505050505050565b6124f08282610b92565b61257f576125158173ffffffffffffffffffffffffffffffffffffffff166014612ad2565b6125238360001c6020612ad2565b604051602001612534929190614834565b6040516020818303038152906040526040517f08c379a00000000000000000000000000000000000000000000000000000000081526004016125769190613127565b60405180910390fd5b5050565b61258d8282610b92565b1561266057600080600084815260200190815260200160002060000160008373ffffffffffffffffffffffffffffffffffffffff1673ffffffffffffffffffffffffffffffffffffffff16815260200190815260200160002060006101000a81548160ff02191690831515021790555061260561106a565b73ffffffffffffffffffffffffffffffffffffffff168173ffffffffffffffffffffffffffffffffffffffff16837ff6391f5c32d9c69d2a47ea670b442974b53935d1edc7fd64eb21e047a839171b60405160405180910390a45b5050565b600061268c836000018373ffffffffffffffffffffffffffffffffffffffff1660001b612d0e565b905092915050565b61269c6109b3565b6126db576040517f08c379a00000000000000000000000000000000000000000000000000000000081526004016126d2906148ba565b60405180910390fd5b565b60606000600167ffffffffffffffff8111156126fc576126fb61314e565b5b60405190808252806020026020018201604052801561272a5781602001602082028036833780820191505090505b509050828160008151811061274257612741613e92565b5b60200260200101818152505080915050919050565b6127768473ffffffffffffffffffffffffffffffffffffffff16612aaf565b15612926578373ffffffffffffffffffffffffffffffffffffffff1663f23a6e6187878686866040518663ffffffff1660e01b81526004016127bc9594939291906148da565b6020604051808303816000875af19250505080156127f857506040513d601f19601f820116820180604052508101906127f59190614550565b60015b61289d5761280461458a565b806308c379a00361286057506128186145ac565b806128235750612862565b806040517f08c379a00000000000000000000000000000000000000000000000000000000081526004016128579190613127565b60405180910390fd5b505b6040517f08c379a0000000000000000000000000000000000000000000000000000000008152600401612894906146ae565b60405180910390fd5b63f23a6e6160e01b7bffffffffffffffffffffffffffffffffffffffffffffffffffffffff1916817bffffffffffffffffffffffffffffffffffffffffffffffffffffffff191614612924576040517f08c379a000000000000000000000000000000000000000000000000000000000815260040161291b90614740565b60405180910390fd5b505b505050505050565b6129366109b3565b15612976576040517f08c379a000000000000000000000000000000000000000000000000000000000815260040161296d90614980565b60405180910390fd5b565b60008260000182815481106129905761298f613e92565b5b9060005260206000200154905092915050565b600081600001805490509050919050565b600080836001016000848152602001908152602001600020541415905092915050565b60007f7965db0b000000000000000000000000000000000000000000000000000000007bffffffffffffffffffffffffffffffffffffffffffffffffffffffff1916827bffffffffffffffffffffffffffffffffffffffffffffffffffffffff19161480612a4a5750612a4982612e22565b5b9050919050565b612a5f868686868686612e8c565b612a676109b3565b15612aa7576040517f08c379a0000000000000000000000000000000000000000000000000000000008152600401612a9e90614a12565b60405180910390fd5b505050505050565b6000808273ffffffffffffffffffffffffffffffffffffffff163b119050919050565b606060006002836002612ae59190614a32565b612aef91906140ee565b67ffffffffffffffff811115612b0857612b0761314e565b5b6040519080825280601f01601f191660200182016040528015612b3a5781602001600182028036833780820191505090505b5090507f300000000000000000000000000000000000000000000000000000000000000081600081518110612b7257612b71613e92565b5b60200101907effffffffffffffffffffffffffffffffffffffffffffffffffffffffffffff1916908160001a9053507f780000000000000000000000000000000000000000000000000000000000000081600181518110612bd657612bd5613e92565b5b60200101907effffffffffffffffffffffffffffffffffffffffffffffffffffffffffffff1916908160001a90535060006001846002612c169190614a32565b612c2091906140ee565b90505b6001811115612cc0577f3031323334353637383961626364656600000000000000000000000000000000600f861660108110612c6257612c61613e92565b5b1a60f81b828281518110612c7957612c78613e92565b5b60200101907effffffffffffffffffffffffffffffffffffffffffffffffffffffffffffff1916908160001a905350600485901c945080612cb990614a8c565b9050612c23565b5060008414612d04576040517f08c379a0000000000000000000000000000000000000000000000000000000008152600401612cfb90614b01565b60405180910390fd5b8091505092915050565b60008083600101600084815260200190815260200160002054905060008114612e16576000600182612d409190614b21565b9050600060018660000180549050612d589190614b21565b9050818114612dc7576000866000018281548110612d7957612d78613e92565b5b9060005260206000200154905080876000018481548110612d9d57612d9c613e92565b5b90600052602060002001819055508387600101600083815260200190815260200160002081905550505b85600001805480612ddb57612dda614b55565b5b600190038181906000526020600020016000905590558560010160008681526020019081526020016000206000905560019350505050612e1c565b60009150505b92915050565b60007f01ffc9a7000000000000000000000000000000000000000000000000000000007bffffffffffffffffffffffffffffffffffffffffffffffffffffffff1916827bffffffffffffffffffffffffffffffffffffffffffffffffffffffff1916149050919050565b505050505050565b6000604051905090565b600080fd5b600080fd5b600073ffffffffffffffffffffffffffffffffffffffff82169050919050565b6000612ed382612ea8565b9050919050565b612ee381612ec8565b8114612eee57600080fd5b50565b600081359050612f0081612eda565b92915050565b6000819050919050565b612f1981612f06565b8114612f2457600080fd5b50565b600081359050612f3681612f10565b92915050565b60008060408385031215612f5357612f52612e9e565b5b6000612f6185828601612ef1565b9250506020612f7285828601612f27565b9150509250929050565b612f8581612f06565b82525050565b6000602082019050612fa06000830184612f7c565b92915050565b60007fffffffff0000000000000000000000000000000000000000000000000000000082169050919050565b612fdb81612fa6565b8114612fe657600080fd5b50565b600081359050612ff881612fd2565b92915050565b60006020828403121561301457613013612e9e565b5b600061302284828501612fe9565b91505092915050565b60008115159050919050565b6130408161302b565b82525050565b600060208201905061305b6000830184613037565b92915050565b60006020828403121561307757613076612e9e565b5b600061308584828501612f27565b91505092915050565b600081519050919050565b600082825260208201905092915050565b60005b838110156130c85780820151818401526020810190506130ad565b838111156130d7576000848401525b50505050565b6000601f19601f8301169050919050565b60006130f98261308e565b6131038185613099565b93506131138185602086016130aa565b61311c816130dd565b840191505092915050565b6000602082019050818103600083015261314181846130ee565b905092915050565b600080fd5b7f4e487b7100000000000000000000000000000000000000000000000000000000600052604160045260246000fd5b613186826130dd565b810181811067ffffffffffffffff821117156131a5576131a461314e565b5b80604052505050565b60006131b8612e94565b90506131c4828261317d565b919050565b600067ffffffffffffffff8211156131e4576131e361314e565b5b602082029050602081019050919050565b600080fd5b600061320d613208846131c9565b6131ae565b905080838252602082019050602084028301858111156132305761322f6131f5565b5b835b8181101561325957806132458882612f27565b845260208401935050602081019050613232565b5050509392505050565b600082601f83011261327857613277613149565b5b81356132888482602086016131fa565b91505092915050565b600080fd5b600067ffffffffffffffff8211156132b1576132b061314e565b5b6132ba826130dd565b9050602081019050919050565b82818337600083830152505050565b60006132e96132e484613296565b6131ae565b90508281526020810184848401111561330557613304613291565b5b6133108482856132c7565b509392505050565b600082601f83011261332d5761332c613149565b5b813561333d8482602086016132d6565b91505092915050565b600080600080608085870312156133605761335f612e9e565b5b600061336e87828801612ef1565b945050602085013567ffffffffffffffff81111561338f5761338e612ea3565b5b61339b87828801613263565b935050604085013567ffffffffffffffff8111156133bc576133bb612ea3565b5b6133c887828801613263565b925050606085013567ffffffffffffffff8111156133e9576133e8612ea3565b5b6133f587828801613318565b91505092959194509250565b6000819050919050565b61341481613401565b811461341f57600080fd5b50565b6000813590506134318161340b565b92915050565b60006020828403121561344d5761344c612e9e565b5b600061345b84828501613422565b91505092915050565b61346d81613401565b82525050565b60006020820190506134886000830184613464565b92915050565b600080600080600060a086880312156134aa576134a9612e9e565b5b60006134b888828901612ef1565b95505060206134c988828901612ef1565b945050604086013567ffffffffffffffff8111156134ea576134e9612ea3565b5b6134f688828901613263565b935050606086013567ffffffffffffffff81111561351757613516612ea3565b5b61352388828901613263565b925050608086013567ffffffffffffffff81111561354457613543612ea3565b5b61355088828901613318565b9150509295509295909350565b6000806040838503121561357457613573612e9e565b5b600061358285828601613422565b925050602061359385828601612ef1565b9150509250929050565b600067ffffffffffffffff8211156135b8576135b761314e565b5b602082029050602081019050919050565b60006135dc6135d78461359d565b6131ae565b905080838252602082019050602084028301858111156135ff576135fe6131f5565b5b835b8181101561362857806136148882612ef1565b845260208401935050602081019050613601565b5050509392505050565b600082601f83011261364757613646613149565b5b81356136578482602086016135c9565b91505092915050565b6000806040838503121561367757613676612e9e565b5b600083013567ffffffffffffffff81111561369557613694612ea3565b5b6136a185828601613632565b925050602083013567ffffffffffffffff8111156136c2576136c1612ea3565b5b6136ce85828601613263565b9150509250929050565b600081519050919050565b600082825260208201905092915050565b6000819050602082019050919050565b61370d81612f06565b82525050565b600061371f8383613704565b60208301905092915050565b6000602082019050919050565b6000613743826136d8565b61374d81856136e3565b9350613758836136f4565b8060005b838110156137895781516137708882613713565b975061377b8361372b565b92505060018101905061375c565b5085935050505092915050565b600060208201905081810360008301526137b08184613738565b905092915050565b6000806000606084860312156137d1576137d0612e9e565b5b60006137df86828701612ef1565b935050602084013567ffffffffffffffff811115613800576137ff612ea3565b5b61380c86828701613263565b925050604084013567ffffffffffffffff81111561382d5761382c612ea3565b5b61383986828701613263565b9150509250925092565b6000806000806080858703121561385d5761385c612e9e565b5b600061386b87828801612ef1565b945050602061387c87828801612f27565b935050604061388d87828801612f27565b925050606085013567ffffffffffffffff8111156138ae576138ad612ea3565b5b6138ba87828801613318565b91505092959194509250565b600080604083850312156138dd576138dc612e9e565b5b60006138eb85828601613422565b92505060206138fc85828601612f27565b9150509250929050565b61390f81612ec8565b82525050565b600060208201905061392a6000830184613906565b92915050565b6139398161302b565b811461394457600080fd5b50565b60008135905061395681613930565b92915050565b6000806040838503121561397357613972612e9e565b5b600061398185828601612ef1565b925050602061399285828601613947565b9150509250929050565b600080604083850312156139b3576139b2612e9e565b5b60006139c185828601612ef1565b92505060206139d285828601612ef1565b9150509250929050565b600080600080600060a086880312156139f8576139f7612e9e565b5b6000613a0688828901612ef1565b9550506020613a1788828901612ef1565b9450506040613a2888828901612f27565b9350506060613a3988828901612f27565b925050608086013567ffffffffffffffff811115613a5a57613a59612ea3565b5b613a6688828901613318565b9150509295509295909350565b600080600060608486031215613a8c57613a8b612e9e565b5b6000613a9a86828701612ef1565b9350506020613aab86828701612f27565b9250506040613abc86828701612f27565b9150509250925092565b7f455243313135353a2061646472657373207a65726f206973206e6f742061207660008201527f616c6964206f776e657200000000000000000000000000000000000000000000602082015250565b6000613b22602a83613099565b9150613b2d82613ac6565b604082019050919050565b60006020820190508181036000830152613b5181613b15565b9050919050565b7f4e487b7100000000000000000000000000000000000000000000000000000000600052602260045260246000fd5b60006002820490506001821680613b9f57607f821691505b602082108103613bb257613bb1613b58565b5b50919050565b7f455243313135355072657365744d696e7465725061757365723a206d7573742060008201527f68617665206d696e74657220726f6c6520746f206d696e740000000000000000602082015250565b6000613c14603883613099565b9150613c1f82613bb8565b604082019050919050565b60006020820190508181036000830152613c4381613c07565b9050919050565b7f455243313135353a2063616c6c6572206973206e6f7420746f6b656e206f776e60008201527f6572206e6f7220617070726f7665640000000000000000000000000000000000602082015250565b6000613ca6602f83613099565b9150613cb182613c4a565b604082019050919050565b60006020820190508181036000830152613cd581613c99565b9050919050565b7f416363657373436f6e74726f6c3a2063616e206f6e6c792072656e6f756e636560008201527f20726f6c657320666f722073656c660000000000000000000000000000000000602082015250565b6000613d38602f83613099565b9150613d4382613cdc565b604082019050919050565b60006020820190508181036000830152613d6781613d2b565b9050919050565b7f455243313135355072657365744d696e7465725061757365723a206d7573742060008201527f686176652070617573657220726f6c6520746f20756e70617573650000000000602082015250565b6000613dca603b83613099565b9150613dd582613d6e565b604082019050919050565b60006020820190508181036000830152613df981613dbd565b9050919050565b7f455243313135353a206163636f756e747320616e6420696473206c656e67746860008201527f206d69736d617463680000000000000000000000000000000000000000000000602082015250565b6000613e5c602983613099565b9150613e6782613e00565b604082019050919050565b60006020820190508181036000830152613e8b81613e4f565b9050919050565b7f4e487b7100000000000000000000000000000000000000000000000000000000600052603260045260246000fd5b7f4e487b7100000000000000000000000000000000000000000000000000000000600052601160045260246000fd5b6000613efb82612f06565b91507fffffffffffffffffffffffffffffffffffffffffffffffffffffffffffffffff8203613f2d57613f2c613ec1565b5b600182019050919050565b7f455243313135355072657365744d696e7465725061757365723a206d7573742060008201527f686176652070617573657220726f6c6520746f20706175736500000000000000602082015250565b6000613f94603983613099565b9150613f9f82613f38565b604082019050919050565b60006020820190508181036000830152613fc381613f87565b9050919050565b7f455243313135353a206d696e7420746f20746865207a65726f2061646472657360008201527f7300000000000000000000000000000000000000000000000000000000000000602082015250565b6000614026602183613099565b915061403182613fca565b604082019050919050565b6000602082019050818103600083015261405581614019565b9050919050565b7f455243313135353a2069647320616e6420616d6f756e7473206c656e6774682060008201527f6d69736d61746368000000000000000000000000000000000000000000000000602082015250565b60006140b8602883613099565b91506140c38261405c565b604082019050919050565b600060208201905081810360008301526140e7816140ab565b9050919050565b60006140f982612f06565b915061410483612f06565b9250827fffffffffffffffffffffffffffffffffffffffffffffffffffffffffffffffff0382111561413957614138613ec1565b5b828201905092915050565b6000604082019050818103600083015261415e8185613738565b905081810360208301526141728184613738565b90509392505050565b7f455243313135353a207472616e7366657220746f20746865207a65726f20616460008201527f6472657373000000000000000000000000000000000000000000000000000000602082015250565b60006141d7602583613099565b91506141e28261417b565b604082019050919050565b60006020820190508181036000830152614206816141ca565b9050919050565b7f455243313135353a20696e73756666696369656e742062616c616e636520666f60008201527f72207472616e7366657200000000000000000000000000000000000000000000602082015250565b6000614269602a83613099565b91506142748261420d565b604082019050919050565b600060208201905081810360008301526142988161425c565b9050919050565b7f455243313135353a206275726e2066726f6d20746865207a65726f206164647260008201527f6573730000000000000000000000000000000000000000000000000000000000602082015250565b60006142fb602383613099565b91506143068261429f565b604082019050919050565b6000602082019050818103600083015261432a816142ee565b9050919050565b7f455243313135353a206275726e20616d6f756e7420657863656564732062616c60008201527f616e636500000000000000000000000000000000000000000000000000000000602082015250565b600061438d602483613099565b915061439882614331565b604082019050919050565b600060208201905081810360008301526143bc81614380565b9050919050565b60006040820190506143d86000830185612f7c565b6143e56020830184612f7c565b9392505050565b7f455243313135353a2073657474696e6720617070726f76616c2073746174757360008201527f20666f722073656c660000000000000000000000000000000000000000000000602082015250565b6000614448602983613099565b9150614453826143ec565b604082019050919050565b600060208201905081810360008301526144778161443b565b9050919050565b600081519050919050565b600082825260208201905092915050565b60006144a58261447e565b6144af8185614489565b93506144bf8185602086016130aa565b6144c8816130dd565b840191505092915050565b600060a0820190506144e86000830188613906565b6144f56020830187613906565b81810360408301526145078186613738565b9050818103606083015261451b8185613738565b9050818103608083015261452f818461449a565b90509695505050505050565b60008151905061454a81612fd2565b92915050565b60006020828403121561456657614565612e9e565b5b60006145748482850161453b565b91505092915050565b60008160e01c9050919050565b600060033d11156145a95760046000803e6145a660005161457d565b90505b90565b600060443d10614639576145be612e94565b60043d036004823e80513d602482011167ffffffffffffffff821117156145e6575050614639565b808201805167ffffffffffffffff8111156146045750505050614639565b80602083010160043d038501811115614621575050505050614639565b6146308260200185018661317d565b82955050505050505b90565b7f455243313135353a207472616e7366657220746f206e6f6e204552433131353560008201527f526563656976657220696d706c656d656e746572000000000000000000000000602082015250565b6000614698603483613099565b91506146a38261463c565b604082019050919050565b600060208201905081810360008301526146c78161468b565b9050919050565b7f455243313135353a204552433131353552656365697665722072656a6563746560008201527f6420746f6b656e73000000000000000000000000000000000000000000000000602082015250565b600061472a602883613099565b9150614735826146ce565b604082019050919050565b600060208201905081810360008301526147598161471d565b9050919050565b600081905092915050565b7f416363657373436f6e74726f6c3a206163636f756e7420000000000000000000600082015250565b60006147a1601783614760565b91506147ac8261476b565b601782019050919050565b60006147c28261308e565b6147cc8185614760565b93506147dc8185602086016130aa565b80840191505092915050565b7f206973206d697373696e6720726f6c6520000000000000000000000000000000600082015250565b600061481e601183614760565b9150614829826147e8565b601182019050919050565b600061483f82614794565b915061484b82856147b7565b915061485682614811565b915061486282846147b7565b91508190509392505050565b7f5061757361626c653a206e6f7420706175736564000000000000000000000000600082015250565b60006148a4601483613099565b91506148af8261486e565b602082019050919050565b600060208201905081810360008301526148d381614897565b9050919050565b600060a0820190506148ef6000830188613906565b6148fc6020830187613906565b6149096040830186612f7c565b6149166060830185612f7c565b8181036080830152614928818461449a565b90509695505050505050565b7f5061757361626c653a2070617573656400000000000000000000000000000000600082015250565b600061496a601083613099565b915061497582614934565b602082019050919050565b600060208201905081810360008301526149998161495d565b9050919050565b7f455243313135355061757361626c653a20746f6b656e207472616e736665722060008201527f7768696c65207061757365640000000000000000000000000000000000000000602082015250565b60006149fc602c83613099565b9150614a07826149a0565b604082019050919050565b60006020820190508181036000830152614a2b816149ef565b9050919050565b6000614a3d82612f06565b9150614a4883612f06565b9250817fffffffffffffffffffffffffffffffffffffffffffffffffffffffffffffffff0483118215151615614a8157614a80613ec1565b5b828202905092915050565b6000614a9782612f06565b915060008203614aaa57614aa9613ec1565b5b600182039050919050565b7f537472696e67733a20686578206c656e67746820696e73756666696369656e74600082015250565b6000614aeb602083613099565b9150614af682614ab5565b602082019050919050565b60006020820190508181036000830152614b1a81614ade565b9050919050565b6000614b2c82612f06565b9150614b3783612f06565b925082821015614b4a57614b49613ec1565b5b828203905092915050565b7f4e487b7100000000000000000000000000000000000000000000000000000000600052603160045260246000fdfea26469706673582212208c9f56df8de44697383f37e69a75b9767859e1142818d9b534e1ad4e6823bf3d64736f6c634300080e0033",
  "immutableReferences": {},
  "source": "// SPDX-License-Identifier: MIT\n// OpenZeppelin Contracts (last updated v4.5.0) (token/ERC1155/presets/ERC1155PresetMinterPauser.sol)\n\npragma solidity ^0.8.0;\n\nimport \"../ERC1155.sol\";\nimport \"../extensions/ERC1155Burnable.sol\";\nimport \"../extensions/ERC1155Pausable.sol\";\nimport \"../../../access/AccessControlEnumerable.sol\";\nimport \"../../../utils/Context.sol\";\n\n/**\n * @dev {ERC1155} token, including:\n *\n *  - ability for holders to burn (destroy) their tokens\n *  - a minter role that allows for token minting (creation)\n *  - a pauser role that allows to stop all token transfers\n *\n * This contract uses {AccessControl} to lock permissioned functions using the\n * different roles - head to its documentation for details.\n *\n * The account that deploys the contract will be granted the minter and pauser\n * roles, as well as the default admin role, which will let it grant both minter\n * and pauser roles to other accounts.\n *\n * _Deprecated in favor of https://wizard.openzeppelin.com/[Contracts Wizard]._\n */\ncontract ERC1155PresetMinterPauser is Context, AccessControlEnumerable, ERC1155Burnable, ERC1155Pausable {\n    bytes32 public constant MINTER_ROLE = keccak256(\"MINTER_ROLE\");\n    bytes32 public constant PAUSER_ROLE = keccak256(\"PAUSER_ROLE\");\n\n    /**\n     * @dev Grants `DEFAULT_ADMIN_ROLE`, `MINTER_ROLE`, and `PAUSER_ROLE` to the account that\n     * deploys the contract.\n     */\n    constructor(string memory uri) ERC1155(uri) {\n        _setupRole(DEFAULT_ADMIN_ROLE, _msgSender());\n\n        _setupRole(MINTER_ROLE, _msgSender());\n        _setupRole(PAUSER_ROLE, _msgSender());\n    }\n\n    /**\n     * @dev Creates `amount` new tokens for `to`, of token type `id`.\n     *\n     * See {ERC1155-_mint}.\n     *\n     * Requirements:\n     *\n     * - the caller must have the `MINTER_ROLE`.\n     */\n    function mint(\n        address to,\n        uint256 id,\n        uint256 amount,\n        bytes memory data\n    ) public virtual {\n        require(hasRole(MINTER_ROLE, _msgSender()), \"ERC1155PresetMinterPauser: must have minter role to mint\");\n\n        _mint(to, id, amount, data);\n    }\n\n    /**\n     * @dev xref:ROOT:erc1155.adoc#batch-operations[Batched] variant of {mint}.\n     */\n    function mintBatch(\n        address to,\n        uint256[] memory ids,\n        uint256[] memory amounts,\n        bytes memory data\n    ) public virtual {\n        require(hasRole(MINTER_ROLE, _msgSender()), \"ERC1155PresetMinterPauser: must have minter role to mint\");\n\n        _mintBatch(to, ids, amounts, data);\n    }\n\n    /**\n     * @dev Pauses all token transfers.\n     *\n     * See {ERC1155Pausable} and {Pausable-_pause}.\n     *\n     * Requirements:\n     *\n     * - the caller must have the `PAUSER_ROLE`.\n     */\n    function pause() public virtual {\n        require(hasRole(PAUSER_ROLE, _msgSender()), \"ERC1155PresetMinterPauser: must have pauser role to pause\");\n        _pause();\n    }\n\n    /**\n     * @dev Unpauses all token transfers.\n     *\n     * See {ERC1155Pausable} and {Pausable-_unpause}.\n     *\n     * Requirements:\n     *\n     * - the caller must have the `PAUSER_ROLE`.\n     */\n    function unpause() public virtual {\n        require(hasRole(PAUSER_ROLE, _msgSender()), \"ERC1155PresetMinterPauser: must have pauser role to unpause\");\n        _unpause();\n    }\n\n    /**\n     * @dev See {IERC165-supportsInterface}.\n     */\n    function supportsInterface(bytes4 interfaceId)\n        public\n        view\n        virtual\n        override(AccessControlEnumerable, ERC1155)\n        returns (bool)\n    {\n        return super.supportsInterface(interfaceId);\n    }\n\n    function _beforeTokenTransfer(\n        address operator,\n        address from,\n        address to,\n        uint256[] memory ids,\n        uint256[] memory amounts,\n        bytes memory data\n    ) internal virtual override(ERC1155, ERC1155Pausable) {\n        super._beforeTokenTransfer(operator, from, to, ids, amounts, data);\n    }\n}\n",
  "sourcePath": "/Users/gujaeug/Desktop/capstonpro/truffle/contracts/token/ERC1155/presets/ERC1155PresetMinterPauser.sol",
  "compiler": {
    "name": "solc",
    "version": "0.8.14+commit.80d49f37.Emscripten.clang"
  },
  "schemaVersion": "3.4.13",
  "updatedAt": "2023-05-12T01:11:09.115Z",
  "devdoc": {
    "details": "{ERC1155} token, including:  - ability for holders to burn (destroy) their tokens  - a minter role that allows for token minting (creation)  - a pauser role that allows to stop all token transfers This contract uses {AccessControl} to lock permissioned functions using the different roles - head to its documentation for details. The account that deploys the contract will be granted the minter and pauser roles, as well as the default admin role, which will let it grant both minter and pauser roles to other accounts. _Deprecated in favor of https://wizard.openzeppelin.com/[Contracts Wizard]._",
    "kind": "dev",
    "methods": {
      "balanceOf(address,uint256)": {
        "details": "See {IERC1155-balanceOf}. Requirements: - `account` cannot be the zero address."
      },
      "balanceOfBatch(address[],uint256[])": {
        "details": "See {IERC1155-balanceOfBatch}. Requirements: - `accounts` and `ids` must have the same length."
      },
      "constructor": {
        "details": "Grants `DEFAULT_ADMIN_ROLE`, `MINTER_ROLE`, and `PAUSER_ROLE` to the account that deploys the contract."
      },
      "getRoleAdmin(bytes32)": {
        "details": "Returns the admin role that controls `role`. See {grantRole} and {revokeRole}. To change a role's admin, use {_setRoleAdmin}."
      },
      "getRoleMember(bytes32,uint256)": {
        "details": "Returns one of the accounts that have `role`. `index` must be a value between 0 and {getRoleMemberCount}, non-inclusive. Role bearers are not sorted in any particular way, and their ordering may change at any point. WARNING: When using {getRoleMember} and {getRoleMemberCount}, make sure you perform all queries on the same block. See the following https://forum.openzeppelin.com/t/iterating-over-elements-on-enumerableset-in-openzeppelin-contracts/2296[forum post] for more information."
      },
      "getRoleMemberCount(bytes32)": {
        "details": "Returns the number of accounts that have `role`. Can be used together with {getRoleMember} to enumerate all bearers of a role."
      },
      "grantRole(bytes32,address)": {
        "details": "Grants `role` to `account`. If `account` had not been already granted `role`, emits a {RoleGranted} event. Requirements: - the caller must have ``role``'s admin role. May emit a {RoleGranted} event."
      },
      "hasRole(bytes32,address)": {
        "details": "Returns `true` if `account` has been granted `role`."
      },
      "isApprovedForAll(address,address)": {
        "details": "See {IERC1155-isApprovedForAll}."
      },
      "mint(address,uint256,uint256,bytes)": {
        "details": "Creates `amount` new tokens for `to`, of token type `id`. See {ERC1155-_mint}. Requirements: - the caller must have the `MINTER_ROLE`."
      },
      "mintBatch(address,uint256[],uint256[],bytes)": {
        "details": "xref:ROOT:erc1155.adoc#batch-operations[Batched] variant of {mint}."
      },
      "pause()": {
        "details": "Pauses all token transfers. See {ERC1155Pausable} and {Pausable-_pause}. Requirements: - the caller must have the `PAUSER_ROLE`."
      },
      "paused()": {
        "details": "Returns true if the contract is paused, and false otherwise."
      },
      "renounceRole(bytes32,address)": {
        "details": "Revokes `role` from the calling account. Roles are often managed via {grantRole} and {revokeRole}: this function's purpose is to provide a mechanism for accounts to lose their privileges if they are compromised (such as when a trusted device is misplaced). If the calling account had been revoked `role`, emits a {RoleRevoked} event. Requirements: - the caller must be `account`. May emit a {RoleRevoked} event."
      },
      "revokeRole(bytes32,address)": {
        "details": "Revokes `role` from `account`. If `account` had been granted `role`, emits a {RoleRevoked} event. Requirements: - the caller must have ``role``'s admin role. May emit a {RoleRevoked} event."
      },
      "safeBatchTransferFrom(address,address,uint256[],uint256[],bytes)": {
        "details": "See {IERC1155-safeBatchTransferFrom}."
      },
      "safeTransferFrom(address,address,uint256,uint256,bytes)": {
        "details": "See {IERC1155-safeTransferFrom}."
      },
      "setApprovalForAll(address,bool)": {
        "details": "See {IERC1155-setApprovalForAll}."
      },
      "supportsInterface(bytes4)": {
        "details": "See {IERC165-supportsInterface}."
      },
      "unpause()": {
        "details": "Unpauses all token transfers. See {ERC1155Pausable} and {Pausable-_unpause}. Requirements: - the caller must have the `PAUSER_ROLE`."
      },
      "uri(uint256)": {
        "details": "See {IERC1155MetadataURI-uri}. This implementation returns the same URI for *all* token types. It relies on the token type ID substitution mechanism https://eips.ethereum.org/EIPS/eip-1155#metadata[defined in the EIP]. Clients calling this function must replace the `\\{id\\}` substring with the actual token type ID."
      }
    },
    "version": 1
  },
  "userdoc": {
    "kind": "user",
    "methods": {},
    "version": 1
  }
}