{
  "contractName": "ERC777PresetFixedSupply",
  "abi": [
    {
      "inputs": [
        {
          "internalType": "string",
          "name": "name",
          "type": "string"
        },
        {
          "internalType": "string",
          "name": "symbol",
          "type": "string"
        },
        {
          "internalType": "address[]",
          "name": "defaultOperators",
          "type": "address[]"
        },
        {
          "internalType": "uint256",
          "name": "initialSupply",
          "type": "uint256"
        },
        {
          "internalType": "address",
          "name": "owner",
          "type": "address"
        }
      ],
      "stateMutability": "nonpayable",
      "type": "constructor"
    },
    {
      "anonymous": false,
      "inputs": [
        {
          "indexed": true,
          "internalType": "address",
          "name": "owner",
          "type": "address"
        },
        {
          "indexed": true,
          "internalType": "address",
          "name": "spender",
          "type": "address"
        },
        {
          "indexed": false,
          "internalType": "uint256",
          "name": "value",
          "type": "uint256"
        }
      ],
      "name": "Approval",
      "type": "event"
    },
    {
      "anonymous": false,
      "inputs": [
        {
          "indexed": true,
          "internalType": "address",
          "name": "operator",
          "type": "address"
        },
        {
          "indexed": true,
          "internalType": "address",
          "name": "tokenHolder",
          "type": "address"
        }
      ],
      "name": "AuthorizedOperator",
      "type": "event"
    },
    {
      "anonymous": false,
      "inputs": [
        {
          "indexed": true,
          "internalType": "address",
          "name": "operator",
          "type": "address"
        },
        {
          "indexed": true,
          "internalType": "address",
          "name": "from",
          "type": "address"
        },
        {
          "indexed": false,
          "internalType": "uint256",
          "name": "amount",
          "type": "uint256"
        },
        {
          "indexed": false,
          "internalType": "bytes",
          "name": "data",
          "type": "bytes"
        },
        {
          "indexed": false,
          "internalType": "bytes",
          "name": "operatorData",
          "type": "bytes"
        }
      ],
      "name": "Burned",
      "type": "event"
    },
    {
      "anonymous": false,
      "inputs": [
        {
          "indexed": true,
          "internalType": "address",
          "name": "operator",
          "type": "address"
        },
        {
          "indexed": true,
          "internalType": "address",
          "name": "to",
          "type": "address"
        },
        {
          "indexed": false,
          "internalType": "uint256",
          "name": "amount",
          "type": "uint256"
        },
        {
          "indexed": false,
          "internalType": "bytes",
          "name": "data",
          "type": "bytes"
        },
        {
          "indexed": false,
          "internalType": "bytes",
          "name": "operatorData",
          "type": "bytes"
        }
      ],
      "name": "Minted",
      "type": "event"
    },
    {
      "anonymous": false,
      "inputs": [
        {
          "indexed": true,
          "internalType": "address",
          "name": "operator",
          "type": "address"
        },
        {
          "indexed": true,
          "internalType": "address",
          "name": "tokenHolder",
          "type": "address"
        }
      ],
      "name": "RevokedOperator",
      "type": "event"
    },
    {
      "anonymous": false,
      "inputs": [
        {
          "indexed": true,
          "internalType": "address",
          "name": "operator",
          "type": "address"
        },
        {
          "indexed": true,
          "internalType": "address",
          "name": "from",
          "type": "address"
        },
        {
          "indexed": true,
          "internalType": "address",
          "name": "to",
          "type": "address"
        },
        {
          "indexed": false,
          "internalType": "uint256",
          "name": "amount",
          "type": "uint256"
        },
        {
          "indexed": false,
          "internalType": "bytes",
          "name": "data",
          "type": "bytes"
        },
        {
          "indexed": false,
          "internalType": "bytes",
          "name": "operatorData",
          "type": "bytes"
        }
      ],
      "name": "Sent",
      "type": "event"
    },
    {
      "anonymous": false,
      "inputs": [
        {
          "indexed": true,
          "internalType": "address",
          "name": "from",
          "type": "address"
        },
        {
          "indexed": true,
          "internalType": "address",
          "name": "to",
          "type": "address"
        },
        {
          "indexed": false,
          "internalType": "uint256",
          "name": "value",
          "type": "uint256"
        }
      ],
      "name": "Transfer",
      "type": "event"
    },
    {
      "inputs": [
        {
          "internalType": "address",
          "name": "holder",
          "type": "address"
        },
        {
          "internalType": "address",
          "name": "spender",
          "type": "address"
        }
      ],
      "name": "allowance",
      "outputs": [
        {
          "internalType": "uint256",
          "name": "",
          "type": "uint256"
        }
      ],
      "stateMutability": "view",
      "type": "function"
    },
    {
      "inputs": [
        {
          "internalType": "address",
          "name": "spender",
          "type": "address"
        },
        {
          "internalType": "uint256",
          "name": "value",
          "type": "uint256"
        }
      ],
      "name": "approve",
      "outputs": [
        {
          "internalType": "bool",
          "name": "",
          "type": "bool"
        }
      ],
      "stateMutability": "nonpayable",
      "type": "function"
    },
    {
      "inputs": [
        {
          "internalType": "address",
          "name": "operator",
          "type": "address"
        }
      ],
      "name": "authorizeOperator",
      "outputs": [],
      "stateMutability": "nonpayable",
      "type": "function"
    },
    {
      "inputs": [
        {
          "internalType": "address",
          "name": "tokenHolder",
          "type": "address"
        }
      ],
      "name": "balanceOf",
      "outputs": [
        {
          "internalType": "uint256",
          "name": "",
          "type": "uint256"
        }
      ],
      "stateMutability": "view",
      "type": "function"
    },
    {
      "inputs": [
        {
          "internalType": "uint256",
          "name": "amount",
          "type": "uint256"
        },
        {
          "internalType": "bytes",
          "name": "data",
          "type": "bytes"
        }
      ],
      "name": "burn",
      "outputs": [],
      "stateMutability": "nonpayable",
      "type": "function"
    },
    {
      "inputs": [],
      "name": "decimals",
      "outputs": [
        {
          "internalType": "uint8",
          "name": "",
          "type": "uint8"
        }
      ],
      "stateMutability": "pure",
      "type": "function"
    },
    {
      "inputs": [],
      "name": "defaultOperators",
      "outputs": [
        {
          "internalType": "address[]",
          "name": "",
          "type": "address[]"
        }
      ],
      "stateMutability": "view",
      "type": "function"
    },
    {
      "inputs": [],
      "name": "granularity",
      "outputs": [
        {
          "internalType": "uint256",
          "name": "",
          "type": "uint256"
        }
      ],
      "stateMutability": "view",
      "type": "function"
    },
    {
      "inputs": [
        {
          "internalType": "address",
          "name": "operator",
          "type": "address"
        },
        {
          "internalType": "address",
          "name": "tokenHolder",
          "type": "address"
        }
      ],
      "name": "isOperatorFor",
      "outputs": [
        {
          "internalType": "bool",
          "name": "",
          "type": "bool"
        }
      ],
      "stateMutability": "view",
      "type": "function"
    },
    {
      "inputs": [],
      "name": "name",
      "outputs": [
        {
          "internalType": "string",
          "name": "",
          "type": "string"
        }
      ],
      "stateMutability": "view",
      "type": "function"
    },
    {
      "inputs": [
        {
          "internalType": "address",
          "name": "account",
          "type": "address"
        },
        {
          "internalType": "uint256",
          "name": "amount",
          "type": "uint256"
        },
        {
          "internalType": "bytes",
          "name": "data",
          "type": "bytes"
        },
        {
          "internalType": "bytes",
          "name": "operatorData",
          "type": "bytes"
        }
      ],
      "name": "operatorBurn",
      "outputs": [],
      "stateMutability": "nonpayable",
      "type": "function"
    },
    {
      "inputs": [
        {
          "internalType": "address",
          "name": "sender",
          "type": "address"
        },
        {
          "internalType": "address",
          "name": "recipient",
          "type": "address"
        },
        {
          "internalType": "uint256",
          "name": "amount",
          "type": "uint256"
        },
        {
          "internalType": "bytes",
          "name": "data",
          "type": "bytes"
        },
        {
          "internalType": "bytes",
          "name": "operatorData",
          "type": "bytes"
        }
      ],
      "name": "operatorSend",
      "outputs": [],
      "stateMutability": "nonpayable",
      "type": "function"
    },
    {
      "inputs": [
        {
          "internalType": "address",
          "name": "operator",
          "type": "address"
        }
      ],
      "name": "revokeOperator",
      "outputs": [],
      "stateMutability": "nonpayable",
      "type": "function"
    },
    {
      "inputs": [
        {
          "internalType": "address",
          "name": "recipient",
          "type": "address"
        },
        {
          "internalType": "uint256",
          "name": "amount",
          "type": "uint256"
        },
        {
          "internalType": "bytes",
          "name": "data",
          "type": "bytes"
        }
      ],
      "name": "send",
      "outputs": [],
      "stateMutability": "nonpayable",
      "type": "function"
    },
    {
      "inputs": [],
      "name": "symbol",
      "outputs": [
        {
          "internalType": "string",
          "name": "",
          "type": "string"
        }
      ],
      "stateMutability": "view",
      "type": "function"
    },
    {
      "inputs": [],
      "name": "totalSupply",
      "outputs": [
        {
          "internalType": "uint256",
          "name": "",
          "type": "uint256"
        }
      ],
      "stateMutability": "view",
      "type": "function"
    },
    {
      "inputs": [
        {
          "internalType": "address",
          "name": "recipient",
          "type": "address"
        },
        {
          "internalType": "uint256",
          "name": "amount",
          "type": "uint256"
        }
      ],
      "name": "transfer",
      "outputs": [
        {
          "internalType": "bool",
          "name": "",
          "type": "bool"
        }
      ],
      "stateMutability": "nonpayable",
      "type": "function"
    },
    {
      "inputs": [
        {
          "internalType": "address",
          "name": "holder",
          "type": "address"
        },
        {
          "internalType": "address",
          "name": "recipient",
          "type": "address"
        },
        {
          "internalType": "uint256",
          "name": "amount",
          "type": "uint256"
        }
      ],
      "name": "transferFrom",
      "outputs": [
        {
          "internalType": "bool",
          "name": "",
          "type": "bool"
        }
      ],
      "stateMutability": "nonpayable",
      "type": "function"
    }
  ],
  "bytecode": "0x60806040523480156200001157600080fd5b5060405162003ba238038062003ba2833981810160405281019062000037919062000b3e565b848484826002908051906020019062000052929190620006e7565b5081600390805190602001906200006b929190620006e7565b5080600490805190602001906200008492919062000778565b5060005b81518110156200011d57600160056000848481518110620000ae57620000ad62000c23565b5b602002602001015173ffffffffffffffffffffffffffffffffffffffff1673ffffffffffffffffffffffffffffffffffffffff16815260200190815260200160002060006101000a81548160ff0219169083151502179055508080620001149062000c81565b91505062000088565b50731820a4b7618bde71dce8cdc73aab6c95905fad2473ffffffffffffffffffffffffffffffffffffffff166329965a1d307fac7fbab5f54a3ca8194167523c6753bfeb96a445279294b6125b68cce2177054306040518463ffffffff1660e01b8152600401620001919392919062000cfa565b600060405180830381600087803b158015620001ac57600080fd5b505af1158015620001c1573d6000803e3d6000fd5b50505050731820a4b7618bde71dce8cdc73aab6c95905fad2473ffffffffffffffffffffffffffffffffffffffff166329965a1d307faea199e31a596269b42cdafd93407f14436db6e4cad65417994c2eb37381e05a306040518463ffffffff1660e01b8152600401620002389392919062000cfa565b600060405180830381600087803b1580156200025357600080fd5b505af115801562000268573d6000803e3d6000fd5b50505050505050620002a181836040518060200160405280600081525060405180602001604052806000815250620002ac60201b60201c565b5050505050620010e9565b620002c2848484846001620002c860201b60201c565b50505050565b600073ffffffffffffffffffffffffffffffffffffffff168573ffffffffffffffffffffffffffffffffffffffff16036200033a576040517f08c379a0000000000000000000000000000000000000000000000000000000008152600401620003319062000d98565b60405180910390fd5b60006200034c620004c860201b60201c565b9050620003638160008888620004d060201b60201c565b846001600082825462000377919062000dba565b92505081905550846000808873ffffffffffffffffffffffffffffffffffffffff1673ffffffffffffffffffffffffffffffffffffffff1681526020019081526020016000206000828254620003ce919062000dba565b92505081905550620003ed8160008888888888620004d660201b60201c565b8573ffffffffffffffffffffffffffffffffffffffff168173ffffffffffffffffffffffffffffffffffffffff167f2fe5be0146f74c5bce36c0b80911af6c7d86ff27e89d5cfa61fc681327954e5d878787604051620004509392919062000e85565b60405180910390a38573ffffffffffffffffffffffffffffffffffffffff16600073ffffffffffffffffffffffffffffffffffffffff167fddf252ad1be2c89b69c2b068fc378daa952ba7f163c4a11628f55a4df523b3ef87604051620004b8919062000ed0565b60405180910390a3505050505050565b600033905090565b50505050565b6000731820a4b7618bde71dce8cdc73aab6c95905fad2473ffffffffffffffffffffffffffffffffffffffff1663aabbb8ca877fb281fc8c12954d22544db45de3159a39272895b169a852b314f9cc762e44c53b6040518363ffffffff1660e01b81526004016200054992919062000eed565b602060405180830381865afa15801562000567573d6000803e3d6000fd5b505050506040513d601f19601f820116820180604052508101906200058d919062000f1a565b9050600073ffffffffffffffffffffffffffffffffffffffff168173ffffffffffffffffffffffffffffffffffffffff161462000642578073ffffffffffffffffffffffffffffffffffffffff166223de298989898989896040518763ffffffff1660e01b8152600401620006089695949392919062000f4c565b600060405180830381600087803b1580156200062357600080fd5b505af115801562000638573d6000803e3d6000fd5b50505050620006ba565b8115620006b957620006758673ffffffffffffffffffffffffffffffffffffffff16620006c460201b62000e711760201c565b15620006b8576040517f08c379a0000000000000000000000000000000000000000000000000000000008152600401620006af9062001063565b60405180910390fd5b5b5b5050505050505050565b6000808273ffffffffffffffffffffffffffffffffffffffff163b119050919050565b828054620006f590620010b4565b90600052602060002090601f01602090048101928262000719576000855562000765565b82601f106200073457805160ff191683800117855562000765565b8280016001018555821562000765579182015b828111156200076457825182559160200191906001019062000747565b5b50905062000774919062000807565b5090565b828054828255906000526020600020908101928215620007f4579160200282015b82811115620007f35782518260006101000a81548173ffffffffffffffffffffffffffffffffffffffff021916908373ffffffffffffffffffffffffffffffffffffffff1602179055509160200191906001019062000799565b5b50905062000803919062000807565b5090565b5b808211156200082257600081600090555060010162000808565b5090565b6000604051905090565b600080fd5b600080fd5b600080fd5b600080fd5b6000601f19601f8301169050919050565b7f4e487b7100000000000000000000000000000000000000000000000000000000600052604160045260246000fd5b6200088f8262000844565b810181811067ffffffffffffffff82111715620008b157620008b062000855565b5b80604052505050565b6000620008c662000826565b9050620008d4828262000884565b919050565b600067ffffffffffffffff821115620008f757620008f662000855565b5b620009028262000844565b9050602081019050919050565b60005b838110156200092f57808201518184015260208101905062000912565b838111156200093f576000848401525b50505050565b60006200095c6200095684620008d9565b620008ba565b9050828152602081018484840111156200097b576200097a6200083f565b5b620009888482856200090f565b509392505050565b600082601f830112620009a857620009a76200083a565b5b8151620009ba84826020860162000945565b91505092915050565b600067ffffffffffffffff821115620009e157620009e062000855565b5b602082029050602081019050919050565b600080fd5b600073ffffffffffffffffffffffffffffffffffffffff82169050919050565b600062000a2482620009f7565b9050919050565b62000a368162000a17565b811462000a4257600080fd5b50565b60008151905062000a568162000a2b565b92915050565b600062000a7362000a6d84620009c3565b620008ba565b9050808382526020820190506020840283018581111562000a995762000a98620009f2565b5b835b8181101562000ac6578062000ab1888262000a45565b84526020840193505060208101905062000a9b565b5050509392505050565b600082601f83011262000ae85762000ae76200083a565b5b815162000afa84826020860162000a5c565b91505092915050565b6000819050919050565b62000b188162000b03565b811462000b2457600080fd5b50565b60008151905062000b388162000b0d565b92915050565b600080600080600060a0868803121562000b5d5762000b5c62000830565b5b600086015167ffffffffffffffff81111562000b7e5762000b7d62000835565b5b62000b8c8882890162000990565b955050602086015167ffffffffffffffff81111562000bb05762000baf62000835565b5b62000bbe8882890162000990565b945050604086015167ffffffffffffffff81111562000be25762000be162000835565b5b62000bf08882890162000ad0565b935050606062000c038882890162000b27565b925050608062000c168882890162000a45565b9150509295509295909350565b7f4e487b7100000000000000000000000000000000000000000000000000000000600052603260045260246000fd5b7f4e487b7100000000000000000000000000000000000000000000000000000000600052601160045260246000fd5b600062000c8e8262000b03565b91507fffffffffffffffffffffffffffffffffffffffffffffffffffffffffffffffff820362000cc35762000cc262000c52565b5b600182019050919050565b62000cd98162000a17565b82525050565b6000819050919050565b62000cf48162000cdf565b82525050565b600060608201905062000d11600083018662000cce565b62000d20602083018562000ce9565b62000d2f604083018462000cce565b949350505050565b600082825260208201905092915050565b7f4552433737373a206d696e7420746f20746865207a65726f2061646472657373600082015250565b600062000d8060208362000d37565b915062000d8d8262000d48565b602082019050919050565b6000602082019050818103600083015262000db38162000d71565b9050919050565b600062000dc78262000b03565b915062000dd48362000b03565b9250827fffffffffffffffffffffffffffffffffffffffffffffffffffffffffffffffff0382111562000e0c5762000e0b62000c52565b5b828201905092915050565b62000e228162000b03565b82525050565b600081519050919050565b600082825260208201905092915050565b600062000e518262000e28565b62000e5d818562000e33565b935062000e6f8185602086016200090f565b62000e7a8162000844565b840191505092915050565b600060608201905062000e9c600083018662000e17565b818103602083015262000eb0818562000e44565b9050818103604083015262000ec6818462000e44565b9050949350505050565b600060208201905062000ee7600083018462000e17565b92915050565b600060408201905062000f04600083018562000cce565b62000f13602083018462000ce9565b9392505050565b60006020828403121562000f335762000f3262000830565b5b600062000f438482850162000a45565b91505092915050565b600060c08201905062000f63600083018962000cce565b62000f72602083018862000cce565b62000f81604083018762000cce565b62000f90606083018662000e17565b818103608083015262000fa4818562000e44565b905081810360a083015262000fba818462000e44565b9050979650505050505050565b7f4552433737373a20746f6b656e20726563697069656e7420636f6e747261637460008201527f20686173206e6f20696d706c656d656e74657220666f7220455243373737546f60208201527f6b656e73526563697069656e7400000000000000000000000000000000000000604082015250565b60006200104b604d8362000d37565b9150620010588262000fc7565b606082019050919050565b600060208201905081810360008301526200107e816200103c565b9050919050565b7f4e487b7100000000000000000000000000000000000000000000000000000000600052602260045260246000fd5b60006002820490506001821680620010cd57607f821691505b602082108103620010e357620010e262001085565b5b50919050565b612aa980620010f96000396000f3fe608060405234801561001057600080fd5b50600436106101165760003560e01c8063959b8c3f116100a2578063d95b637111610071578063d95b6371146102e3578063dd62ed3e14610313578063fad8b32a14610343578063fc673c4f1461035f578063fe9d93031461037b57610116565b8063959b8c3f1461025d57806395d89b41146102795780639bd9bbc614610297578063a9059cbb146102b357610116565b806323b872dd116100e957806323b872dd146101a5578063313ce567146101d5578063556f0dc7146101f357806362ad1b831461021157806370a082311461022d57610116565b806306e485381461011b57806306fdde0314610139578063095ea7b31461015757806318160ddd14610187575b600080fd5b610123610397565b6040516101309190611aaa565b60405180910390f35b610141610425565b60405161014e9190611b65565b60405180910390f35b610171600480360381019061016c9190611bfd565b6104b7565b60405161017e9190611c58565b60405180910390f35b61018f6104da565b60405161019c9190611c82565b60405180910390f35b6101bf60048036038101906101ba9190611c9d565b6104e4565b6040516101cc9190611c58565b60405180910390f35b6101dd610535565b6040516101ea9190611d0c565b60405180910390f35b6101fb61053e565b6040516102089190611c82565b60405180910390f35b61022b60048036038101906102269190611e5c565b610547565b005b61024760048036038101906102429190611f0f565b6105ad565b6040516102549190611c82565b60405180910390f35b61027760048036038101906102729190611f0f565b6105f5565b005b610281610855565b60405161028e9190611b65565b60405180910390f35b6102b160048036038101906102ac9190611f3c565b6108e7565b005b6102cd60048036038101906102c89190611bfd565b610911565b6040516102da9190611c58565b60405180910390f35b6102fd60048036038101906102f89190611fab565b610951565b60405161030a9190611c58565b60405180910390f35b61032d60048036038101906103289190611fab565b610b02565b60405161033a9190611c82565b60405180910390f35b61035d60048036038101906103589190611f0f565b610b89565b005b61037960048036038101906103749190611feb565b610de9565b005b6103956004803603810190610390919061208a565b610e4b565b005b6060600480548060200260200160405190810160405280929190818152602001828054801561041b57602002820191906000526020600020905b8160009054906101000a900473ffffffffffffffffffffffffffffffffffffffff1673ffffffffffffffffffffffffffffffffffffffff16815260200190600101908083116103d1575b5050505050905090565b60606002805461043490612115565b80601f016020809104026020016040519081016040528092919081815260200182805461046090612115565b80156104ad5780601f10610482576101008083540402835291602001916104ad565b820191906000526020600020905b81548152906001019060200180831161049057829003601f168201915b5050505050905090565b6000806104c2610e94565b90506104cf818585610e9c565b600191505092915050565b6000600154905090565b6000806104ef610e94565b90506104fc858285611065565b610529858585604051806020016040528060008152506040518060200160405280600081525060006110f1565b60019150509392505050565b60006012905090565b60006001905090565b610558610552610e94565b86610951565b610597576040517f08c379a000000000000000000000000000000000000000000000000000000000815260040161058e906121b8565b60405180910390fd5b6105a6858585858560016110f1565b5050505050565b60008060008373ffffffffffffffffffffffffffffffffffffffff1673ffffffffffffffffffffffffffffffffffffffff168152602001908152602001600020549050919050565b8073ffffffffffffffffffffffffffffffffffffffff16610614610e94565b73ffffffffffffffffffffffffffffffffffffffff160361066a576040517f08c379a00000000000000000000000000000000000000000000000000000000081526004016106619061224a565b60405180910390fd5b600560008273ffffffffffffffffffffffffffffffffffffffff1673ffffffffffffffffffffffffffffffffffffffff16815260200190815260200160002060009054906101000a900460ff161561075457600760006106c8610e94565b73ffffffffffffffffffffffffffffffffffffffff1673ffffffffffffffffffffffffffffffffffffffff16815260200190815260200160002060008273ffffffffffffffffffffffffffffffffffffffff1673ffffffffffffffffffffffffffffffffffffffff16815260200190815260200160002060006101000a81549060ff02191690556107f1565b600160066000610762610e94565b73ffffffffffffffffffffffffffffffffffffffff1673ffffffffffffffffffffffffffffffffffffffff16815260200190815260200160002060008373ffffffffffffffffffffffffffffffffffffffff1673ffffffffffffffffffffffffffffffffffffffff16815260200190815260200160002060006101000a81548160ff0219169083151502179055505b6107f9610e94565b73ffffffffffffffffffffffffffffffffffffffff168173ffffffffffffffffffffffffffffffffffffffff167ff4caeb2d6ca8932a215a353d0703c326ec2d81fc68170f320eb2ab49e9df61f960405160405180910390a350565b60606003805461086490612115565b80601f016020809104026020016040519081016040528092919081815260200182805461089090612115565b80156108dd5780601f106108b2576101008083540402835291602001916108dd565b820191906000526020600020905b8154815290600101906020018083116108c057829003601f168201915b5050505050905090565b61090c6108f2610e94565b8484846040518060200160405280600081525060016110f1565b505050565b600061094761091e610e94565b8484604051806020016040528060008152506040518060200160405280600081525060006110f1565b6001905092915050565b60008173ffffffffffffffffffffffffffffffffffffffff168373ffffffffffffffffffffffffffffffffffffffff161480610a695750600560008473ffffffffffffffffffffffffffffffffffffffff1673ffffffffffffffffffffffffffffffffffffffff16815260200190815260200160002060009054906101000a900460ff168015610a685750600760008373ffffffffffffffffffffffffffffffffffffffff1673ffffffffffffffffffffffffffffffffffffffff16815260200190815260200160002060008473ffffffffffffffffffffffffffffffffffffffff1673ffffffffffffffffffffffffffffffffffffffff16815260200190815260200160002060009054906101000a900460ff16155b5b80610afa5750600660008373ffffffffffffffffffffffffffffffffffffffff1673ffffffffffffffffffffffffffffffffffffffff16815260200190815260200160002060008473ffffffffffffffffffffffffffffffffffffffff1673ffffffffffffffffffffffffffffffffffffffff16815260200190815260200160002060009054906101000a900460ff165b905092915050565b6000600860008473ffffffffffffffffffffffffffffffffffffffff1673ffffffffffffffffffffffffffffffffffffffff16815260200190815260200160002060008373ffffffffffffffffffffffffffffffffffffffff1673ffffffffffffffffffffffffffffffffffffffff16815260200190815260200160002054905092915050565b610b91610e94565b73ffffffffffffffffffffffffffffffffffffffff168173ffffffffffffffffffffffffffffffffffffffff1603610bfe576040517f08c379a0000000000000000000000000000000000000000000000000000000008152600401610bf5906122dc565b60405180910390fd5b600560008273ffffffffffffffffffffffffffffffffffffffff1673ffffffffffffffffffffffffffffffffffffffff16815260200190815260200160002060009054906101000a900460ff1615610cf157600160076000610c5e610e94565b73ffffffffffffffffffffffffffffffffffffffff1673ffffffffffffffffffffffffffffffffffffffff16815260200190815260200160002060008373ffffffffffffffffffffffffffffffffffffffff1673ffffffffffffffffffffffffffffffffffffffff16815260200190815260200160002060006101000a81548160ff021916908315150217905550610d85565b60066000610cfd610e94565b73ffffffffffffffffffffffffffffffffffffffff1673ffffffffffffffffffffffffffffffffffffffff16815260200190815260200160002060008273ffffffffffffffffffffffffffffffffffffffff1673ffffffffffffffffffffffffffffffffffffffff16815260200190815260200160002060006101000a81549060ff02191690555b610d8d610e94565b73ffffffffffffffffffffffffffffffffffffffff168173ffffffffffffffffffffffffffffffffffffffff167f50546e66e5f44d728365dc3908c63bc5cfeeab470722c1677e3073a6ac294aa160405160405180910390a350565b610dfa610df4610e94565b85610951565b610e39576040517f08c379a0000000000000000000000000000000000000000000000000000000008152600401610e30906121b8565b60405180910390fd5b610e458484848461120f565b50505050565b610e6d610e56610e94565b83836040518060200160405280600081525061120f565b5050565b6000808273ffffffffffffffffffffffffffffffffffffffff163b119050919050565b600033905090565b600073ffffffffffffffffffffffffffffffffffffffff168373ffffffffffffffffffffffffffffffffffffffff1603610f0b576040517f08c379a0000000000000000000000000000000000000000000000000000000008152600401610f029061236e565b60405180910390fd5b600073ffffffffffffffffffffffffffffffffffffffff168273ffffffffffffffffffffffffffffffffffffffff1603610f7a576040517f08c379a0000000000000000000000000000000000000000000000000000000008152600401610f7190612400565b60405180910390fd5b80600860008573ffffffffffffffffffffffffffffffffffffffff1673ffffffffffffffffffffffffffffffffffffffff16815260200190815260200160002060008473ffffffffffffffffffffffffffffffffffffffff1673ffffffffffffffffffffffffffffffffffffffff168152602001908152602001600020819055508173ffffffffffffffffffffffffffffffffffffffff168373ffffffffffffffffffffffffffffffffffffffff167f8c5be1e5ebec7d5bd14f71427d1e84f3dd0314c0f7b2291e5b200ac8c7c3b925836040516110589190611c82565b60405180910390a3505050565b60006110718484610b02565b90507fffffffffffffffffffffffffffffffffffffffffffffffffffffffffffffffff81146110eb57818110156110dd576040517f08c379a00000000000000000000000000000000000000000000000000000000081526004016110d49061246c565b60405180910390fd5b6110ea8484848403610e9c565b5b50505050565b600073ffffffffffffffffffffffffffffffffffffffff168673ffffffffffffffffffffffffffffffffffffffff1603611160576040517f08c379a0000000000000000000000000000000000000000000000000000000008152600401611157906124fe565b60405180910390fd5b600073ffffffffffffffffffffffffffffffffffffffff168573ffffffffffffffffffffffffffffffffffffffff16036111cf576040517f08c379a00000000000000000000000000000000000000000000000000000000081526004016111c690612590565b60405180910390fd5b60006111d9610e94565b90506111e9818888888888611461565b6111f78188888888886115c8565b611206818888888888886117e2565b50505050505050565b600073ffffffffffffffffffffffffffffffffffffffff168473ffffffffffffffffffffffffffffffffffffffff160361127e576040517f08c379a000000000000000000000000000000000000000000000000000000000815260040161127590612622565b60405180910390fd5b6000611288610e94565b905061129981866000878787611461565b6112a681866000876119b4565b60008060008773ffffffffffffffffffffffffffffffffffffffff1673ffffffffffffffffffffffffffffffffffffffff1681526020019081526020016000205490508481101561132c576040517f08c379a0000000000000000000000000000000000000000000000000000000008152600401611323906126b4565b60405180910390fd5b8481036000808873ffffffffffffffffffffffffffffffffffffffff1673ffffffffffffffffffffffffffffffffffffffff1681526020019081526020016000208190555084600160008282546113839190612703565b925050819055508573ffffffffffffffffffffffffffffffffffffffff168273ffffffffffffffffffffffffffffffffffffffff167fa78a9be3a7b862d26933ad85fb11d80ef66b8f972d7cbba06621d583943a40988787876040516113eb9392919061278c565b60405180910390a3600073ffffffffffffffffffffffffffffffffffffffff168673ffffffffffffffffffffffffffffffffffffffff167fddf252ad1be2c89b69c2b068fc378daa952ba7f163c4a11628f55a4df523b3ef876040516114519190611c82565b60405180910390a3505050505050565b6000731820a4b7618bde71dce8cdc73aab6c95905fad2473ffffffffffffffffffffffffffffffffffffffff1663aabbb8ca877f29ddb589b1fb5fc7cf394961c1adf5f8c6454761adf795e67fe149f658abe8956040518363ffffffff1660e01b81526004016114d29291906127f9565b602060405180830381865afa1580156114ef573d6000803e3d6000fd5b505050506040513d601f19601f820116820180604052508101906115139190612837565b9050600073ffffffffffffffffffffffffffffffffffffffff168173ffffffffffffffffffffffffffffffffffffffff16146115bf578073ffffffffffffffffffffffffffffffffffffffff166375ab97828888888888886040518763ffffffff1660e01b815260040161158c96959493929190612864565b600060405180830381600087803b1580156115a657600080fd5b505af11580156115ba573d6000803e3d6000fd5b505050505b50505050505050565b6115d4868686866119b4565b60008060008773ffffffffffffffffffffffffffffffffffffffff1673ffffffffffffffffffffffffffffffffffffffff1681526020019081526020016000205490508381101561165a576040517f08c379a000000000000000000000000000000000000000000000000000000000815260040161165190612945565b60405180910390fd5b8381036000808873ffffffffffffffffffffffffffffffffffffffff1673ffffffffffffffffffffffffffffffffffffffff16815260200190815260200160002081905550836000808773ffffffffffffffffffffffffffffffffffffffff1673ffffffffffffffffffffffffffffffffffffffff16815260200190815260200160002060008282546116ed9190612965565b925050819055508473ffffffffffffffffffffffffffffffffffffffff168673ffffffffffffffffffffffffffffffffffffffff168873ffffffffffffffffffffffffffffffffffffffff167f06b541ddaa720db2b10a4d0cdac39b8d360425fc073085fac19bc8261467798787878760405161176c9392919061278c565b60405180910390a48473ffffffffffffffffffffffffffffffffffffffff168673ffffffffffffffffffffffffffffffffffffffff167fddf252ad1be2c89b69c2b068fc378daa952ba7f163c4a11628f55a4df523b3ef866040516117d19190611c82565b60405180910390a350505050505050565b6000731820a4b7618bde71dce8cdc73aab6c95905fad2473ffffffffffffffffffffffffffffffffffffffff1663aabbb8ca877fb281fc8c12954d22544db45de3159a39272895b169a852b314f9cc762e44c53b6040518363ffffffff1660e01b81526004016118539291906127f9565b602060405180830381865afa158015611870573d6000803e3d6000fd5b505050506040513d601f19601f820116820180604052508101906118949190612837565b9050600073ffffffffffffffffffffffffffffffffffffffff168173ffffffffffffffffffffffffffffffffffffffff1614611943578073ffffffffffffffffffffffffffffffffffffffff166223de298989898989896040518763ffffffff1660e01b815260040161190c96959493929190612864565b600060405180830381600087803b15801561192657600080fd5b505af115801561193a573d6000803e3d6000fd5b505050506119aa565b81156119a9576119688673ffffffffffffffffffffffffffffffffffffffff16610e71565b156119a8576040517f08c379a000000000000000000000000000000000000000000000000000000000815260040161199f90612a53565b60405180910390fd5b5b5b5050505050505050565b50505050565b600081519050919050565b600082825260208201905092915050565b6000819050602082019050919050565b600073ffffffffffffffffffffffffffffffffffffffff82169050919050565b6000611a11826119e6565b9050919050565b611a2181611a06565b82525050565b6000611a338383611a18565b60208301905092915050565b6000602082019050919050565b6000611a57826119ba565b611a6181856119c5565b9350611a6c836119d6565b8060005b83811015611a9d578151611a848882611a27565b9750611a8f83611a3f565b925050600181019050611a70565b5085935050505092915050565b60006020820190508181036000830152611ac48184611a4c565b905092915050565b600081519050919050565b600082825260208201905092915050565b60005b83811015611b06578082015181840152602081019050611aeb565b83811115611b15576000848401525b50505050565b6000601f19601f8301169050919050565b6000611b3782611acc565b611b418185611ad7565b9350611b51818560208601611ae8565b611b5a81611b1b565b840191505092915050565b60006020820190508181036000830152611b7f8184611b2c565b905092915050565b6000604051905090565b600080fd5b600080fd5b611ba481611a06565b8114611baf57600080fd5b50565b600081359050611bc181611b9b565b92915050565b6000819050919050565b611bda81611bc7565b8114611be557600080fd5b50565b600081359050611bf781611bd1565b92915050565b60008060408385031215611c1457611c13611b91565b5b6000611c2285828601611bb2565b9250506020611c3385828601611be8565b9150509250929050565b60008115159050919050565b611c5281611c3d565b82525050565b6000602082019050611c6d6000830184611c49565b92915050565b611c7c81611bc7565b82525050565b6000602082019050611c976000830184611c73565b92915050565b600080600060608486031215611cb657611cb5611b91565b5b6000611cc486828701611bb2565b9350506020611cd586828701611bb2565b9250506040611ce686828701611be8565b9150509250925092565b600060ff82169050919050565b611d0681611cf0565b82525050565b6000602082019050611d216000830184611cfd565b92915050565b600080fd5b600080fd5b7f4e487b7100000000000000000000000000000000000000000000000000000000600052604160045260246000fd5b611d6982611b1b565b810181811067ffffffffffffffff82111715611d8857611d87611d31565b5b80604052505050565b6000611d9b611b87565b9050611da78282611d60565b919050565b600067ffffffffffffffff821115611dc757611dc6611d31565b5b611dd082611b1b565b9050602081019050919050565b82818337600083830152505050565b6000611dff611dfa84611dac565b611d91565b905082815260208101848484011115611e1b57611e1a611d2c565b5b611e26848285611ddd565b509392505050565b600082601f830112611e4357611e42611d27565b5b8135611e53848260208601611dec565b91505092915050565b600080600080600060a08688031215611e7857611e77611b91565b5b6000611e8688828901611bb2565b9550506020611e9788828901611bb2565b9450506040611ea888828901611be8565b935050606086013567ffffffffffffffff811115611ec957611ec8611b96565b5b611ed588828901611e2e565b925050608086013567ffffffffffffffff811115611ef657611ef5611b96565b5b611f0288828901611e2e565b9150509295509295909350565b600060208284031215611f2557611f24611b91565b5b6000611f3384828501611bb2565b91505092915050565b600080600060608486031215611f5557611f54611b91565b5b6000611f6386828701611bb2565b9350506020611f7486828701611be8565b925050604084013567ffffffffffffffff811115611f9557611f94611b96565b5b611fa186828701611e2e565b9150509250925092565b60008060408385031215611fc257611fc1611b91565b5b6000611fd085828601611bb2565b9250506020611fe185828601611bb2565b9150509250929050565b6000806000806080858703121561200557612004611b91565b5b600061201387828801611bb2565b945050602061202487828801611be8565b935050604085013567ffffffffffffffff81111561204557612044611b96565b5b61205187828801611e2e565b925050606085013567ffffffffffffffff81111561207257612071611b96565b5b61207e87828801611e2e565b91505092959194509250565b600080604083850312156120a1576120a0611b91565b5b60006120af85828601611be8565b925050602083013567ffffffffffffffff8111156120d0576120cf611b96565b5b6120dc85828601611e2e565b9150509250929050565b7f4e487b7100000000000000000000000000000000000000000000000000000000600052602260045260246000fd5b6000600282049050600182168061212d57607f821691505b6020821081036121405761213f6120e6565b5b50919050565b7f4552433737373a2063616c6c6572206973206e6f7420616e206f70657261746f60008201527f7220666f7220686f6c6465720000000000000000000000000000000000000000602082015250565b60006121a2602c83611ad7565b91506121ad82612146565b604082019050919050565b600060208201905081810360008301526121d181612195565b9050919050565b7f4552433737373a20617574686f72697a696e672073656c66206173206f70657260008201527f61746f7200000000000000000000000000000000000000000000000000000000602082015250565b6000612234602483611ad7565b915061223f826121d8565b604082019050919050565b6000602082019050818103600083015261226381612227565b9050919050565b7f4552433737373a207265766f6b696e672073656c66206173206f70657261746f60008201527f7200000000000000000000000000000000000000000000000000000000000000602082015250565b60006122c6602183611ad7565b91506122d18261226a565b604082019050919050565b600060208201905081810360008301526122f5816122b9565b9050919050565b7f4552433737373a20617070726f76652066726f6d20746865207a65726f20616460008201527f6472657373000000000000000000000000000000000000000000000000000000602082015250565b6000612358602583611ad7565b9150612363826122fc565b604082019050919050565b600060208201905081810360008301526123878161234b565b9050919050565b7f4552433737373a20617070726f766520746f20746865207a65726f206164647260008201527f6573730000000000000000000000000000000000000000000000000000000000602082015250565b60006123ea602383611ad7565b91506123f58261238e565b604082019050919050565b60006020820190508181036000830152612419816123dd565b9050919050565b7f4552433737373a20696e73756666696369656e7420616c6c6f77616e63650000600082015250565b6000612456601e83611ad7565b915061246182612420565b602082019050919050565b6000602082019050818103600083015261248581612449565b9050919050565b7f4552433737373a207472616e736665722066726f6d20746865207a65726f206160008201527f6464726573730000000000000000000000000000000000000000000000000000602082015250565b60006124e8602683611ad7565b91506124f38261248c565b604082019050919050565b60006020820190508181036000830152612517816124db565b9050919050565b7f4552433737373a207472616e7366657220746f20746865207a65726f2061646460008201527f7265737300000000000000000000000000000000000000000000000000000000602082015250565b600061257a602483611ad7565b91506125858261251e565b604082019050919050565b600060208201905081810360008301526125a98161256d565b9050919050565b7f4552433737373a206275726e2066726f6d20746865207a65726f20616464726560008201527f7373000000000000000000000000000000000000000000000000000000000000602082015250565b600061260c602283611ad7565b9150612617826125b0565b604082019050919050565b6000602082019050818103600083015261263b816125ff565b9050919050565b7f4552433737373a206275726e20616d6f756e7420657863656564732062616c6160008201527f6e63650000000000000000000000000000000000000000000000000000000000602082015250565b600061269e602383611ad7565b91506126a982612642565b604082019050919050565b600060208201905081810360008301526126cd81612691565b9050919050565b7f4e487b7100000000000000000000000000000000000000000000000000000000600052601160045260246000fd5b600061270e82611bc7565b915061271983611bc7565b92508282101561272c5761272b6126d4565b5b828203905092915050565b600081519050919050565b600082825260208201905092915050565b600061275e82612737565b6127688185612742565b9350612778818560208601611ae8565b61278181611b1b565b840191505092915050565b60006060820190506127a16000830186611c73565b81810360208301526127b38185612753565b905081810360408301526127c78184612753565b9050949350505050565b6127da81611a06565b82525050565b6000819050919050565b6127f3816127e0565b82525050565b600060408201905061280e60008301856127d1565b61281b60208301846127ea565b9392505050565b60008151905061283181611b9b565b92915050565b60006020828403121561284d5761284c611b91565b5b600061285b84828501612822565b91505092915050565b600060c08201905061287960008301896127d1565b61288660208301886127d1565b61289360408301876127d1565b6128a06060830186611c73565b81810360808301526128b28185612753565b905081810360a08301526128c68184612753565b9050979650505050505050565b7f4552433737373a207472616e7366657220616d6f756e7420657863656564732060008201527f62616c616e636500000000000000000000000000000000000000000000000000602082015250565b600061292f602783611ad7565b915061293a826128d3565b604082019050919050565b6000602082019050818103600083015261295e81612922565b9050919050565b600061297082611bc7565b915061297b83611bc7565b9250827fffffffffffffffffffffffffffffffffffffffffffffffffffffffffffffffff038211156129b0576129af6126d4565b5b828201905092915050565b7f4552433737373a20746f6b656e20726563697069656e7420636f6e747261637460008201527f20686173206e6f20696d706c656d656e74657220666f7220455243373737546f60208201527f6b656e73526563697069656e7400000000000000000000000000000000000000604082015250565b6000612a3d604d83611ad7565b9150612a48826129bb565b606082019050919050565b60006020820190508181036000830152612a6c81612a30565b905091905056fea26469706673582212204439bce05df93c339185c9a4511b3341f8da37eeb02a0c25df85d56c4f9a412664736f6c634300080e0033",
  "immutableReferences": {},
  "source": "// SPDX-License-Identifier: MIT\n// OpenZeppelin Contracts v4.4.1 (token/ERC777/presets/ERC777PresetFixedSupply.sol)\npragma solidity ^0.8.0;\n\nimport \"../ERC777.sol\";\n\n/**\n * @dev {ERC777} token, including:\n *\n *  - Preminted initial supply\n *  - No access control mechanism (for minting/pausing) and hence no governance\n *\n * _Available since v3.4._\n */\ncontract ERC777PresetFixedSupply is ERC777 {\n    /**\n     * @dev Mints `initialSupply` amount of token and transfers them to `owner`.\n     *\n     * See {ERC777-constructor}.\n     */\n    constructor(\n        string memory name,\n        string memory symbol,\n        address[] memory defaultOperators,\n        uint256 initialSupply,\n        address owner\n    ) ERC777(name, symbol, defaultOperators) {\n        _mint(owner, initialSupply, \"\", \"\");\n    }\n}\n",
  "sourcePath": "/Users/gujaeug/Desktop/capstonpro/truffle/contracts/token/ERC777/presets/ERC777PresetFixedSupply.sol",
  "compiler": {
    "name": "solc",
    "version": "0.8.14+commit.80d49f37.Emscripten.clang"
  },
  "schemaVersion": "3.4.13",
  "updatedAt": "2023-05-01T14:50:41.273Z",
  "devdoc": {
    "details": "{ERC777} token, including:  - Preminted initial supply  - No access control mechanism (for minting/pausing) and hence no governance _Available since v3.4._",
    "kind": "dev",
    "methods": {
      "allowance(address,address)": {
        "details": "See {IERC20-allowance}. Note that operator and allowance concepts are orthogonal: operators may not have allowance, and accounts with allowance may not be operators themselves."
      },
      "approve(address,uint256)": {
        "details": "See {IERC20-approve}. NOTE: If `value` is the maximum `uint256`, the allowance is not updated on `transferFrom`. This is semantically equivalent to an infinite approval. Note that accounts cannot have allowance issued by their operators."
      },
      "authorizeOperator(address)": {
        "details": "See {IERC777-authorizeOperator}."
      },
      "balanceOf(address)": {
        "details": "Returns the amount of tokens owned by an account (`tokenHolder`)."
      },
      "burn(uint256,bytes)": {
        "details": "See {IERC777-burn}. Also emits a {IERC20-Transfer} event for ERC20 compatibility."
      },
      "constructor": {
        "details": "Mints `initialSupply` amount of token and transfers them to `owner`. See {ERC777-constructor}."
      },
      "decimals()": {
        "details": "See {ERC20-decimals}. Always returns 18, as per the [ERC777 EIP](https://eips.ethereum.org/EIPS/eip-777#backward-compatibility)."
      },
      "defaultOperators()": {
        "details": "See {IERC777-defaultOperators}."
      },
      "granularity()": {
        "details": "See {IERC777-granularity}. This implementation always returns `1`."
      },
      "isOperatorFor(address,address)": {
        "details": "See {IERC777-isOperatorFor}."
      },
      "name()": {
        "details": "See {IERC777-name}."
      },
      "operatorBurn(address,uint256,bytes,bytes)": {
        "details": "See {IERC777-operatorBurn}. Emits {Burned} and {IERC20-Transfer} events."
      },
      "operatorSend(address,address,uint256,bytes,bytes)": {
        "details": "See {IERC777-operatorSend}. Emits {Sent} and {IERC20-Transfer} events."
      },
      "revokeOperator(address)": {
        "details": "See {IERC777-revokeOperator}."
      },
      "send(address,uint256,bytes)": {
        "details": "See {IERC777-send}. Also emits a {IERC20-Transfer} event for ERC20 compatibility."
      },
      "symbol()": {
        "details": "See {IERC777-symbol}."
      },
      "totalSupply()": {
        "details": "See {IERC777-totalSupply}."
      },
      "transfer(address,uint256)": {
        "details": "See {IERC20-transfer}. Unlike `send`, `recipient` is _not_ required to implement the {IERC777Recipient} interface if it is a contract. Also emits a {Sent} event."
      },
      "transferFrom(address,address,uint256)": {
        "details": "See {IERC20-transferFrom}. NOTE: Does not update the allowance if the current allowance is the maximum `uint256`. Note that operator and allowance concepts are orthogonal: operators cannot call `transferFrom` (unless they have allowance), and accounts with allowance cannot call `operatorSend` (unless they are operators). Emits {Sent}, {IERC20-Transfer} and {IERC20-Approval} events."
      }
    },
    "version": 1
  },
  "userdoc": {
    "kind": "user",
    "methods": {},
    "version": 1
  }
}