{
  "contractName": "RedNotice",
  "abi": [
    {
      "inputs": [],
      "stateMutability": "nonpayable",
      "type": "constructor"
    },
    {
      "anonymous": false,
      "inputs": [
        {
          "indexed": true,
          "internalType": "address",
          "name": "owner",
          "type": "address"
        },
        {
          "indexed": true,
          "internalType": "address",
          "name": "approved",
          "type": "address"
        },
        {
          "indexed": true,
          "internalType": "uint256",
          "name": "tokenId",
          "type": "uint256"
        }
      ],
      "name": "Approval",
      "type": "event"
    },
    {
      "anonymous": false,
      "inputs": [
        {
          "indexed": true,
          "internalType": "address",
          "name": "owner",
          "type": "address"
        },
        {
          "indexed": true,
          "internalType": "address",
          "name": "operator",
          "type": "address"
        },
        {
          "indexed": false,
          "internalType": "bool",
          "name": "approved",
          "type": "bool"
        }
      ],
      "name": "ApprovalForAll",
      "type": "event"
    },
    {
      "anonymous": false,
      "inputs": [
        {
          "indexed": true,
          "internalType": "address",
          "name": "previousOwner",
          "type": "address"
        },
        {
          "indexed": true,
          "internalType": "address",
          "name": "newOwner",
          "type": "address"
        }
      ],
      "name": "OwnershipTransferred",
      "type": "event"
    },
    {
      "anonymous": false,
      "inputs": [
        {
          "indexed": true,
          "internalType": "bytes32",
          "name": "requestId",
          "type": "bytes32"
        }
      ],
      "name": "RedNoticeIssued",
      "type": "event"
    },
    {
      "anonymous": false,
      "inputs": [
        {
          "indexed": true,
          "internalType": "bytes32",
          "name": "requestId",
          "type": "bytes32"
        },
        {
          "indexed": false,
          "internalType": "string",
          "name": "name",
          "type": "string"
        },
        {
          "indexed": false,
          "internalType": "string",
          "name": "nationality",
          "type": "string"
        },
        {
          "indexed": false,
          "internalType": "uint256",
          "name": "age",
          "type": "uint256"
        },
        {
          "indexed": false,
          "internalType": "string",
          "name": "crime",
          "type": "string"
        },
        {
          "indexed": false,
          "internalType": "uint256",
          "name": "amount",
          "type": "uint256"
        }
      ],
      "name": "RequestReceived",
      "type": "event"
    },
    {
      "anonymous": false,
      "inputs": [
        {
          "indexed": true,
          "internalType": "address",
          "name": "from",
          "type": "address"
        },
        {
          "indexed": true,
          "internalType": "address",
          "name": "to",
          "type": "address"
        },
        {
          "indexed": true,
          "internalType": "uint256",
          "name": "tokenId",
          "type": "uint256"
        }
      ],
      "name": "Transfer",
      "type": "event"
    },
    {
      "inputs": [
        {
          "internalType": "uint256",
          "name": "",
          "type": "uint256"
        }
      ],
      "name": "_criminalInfoList",
      "outputs": [
        {
          "internalType": "string",
          "name": "name",
          "type": "string"
        },
        {
          "internalType": "string",
          "name": "nationality",
          "type": "string"
        },
        {
          "internalType": "uint256",
          "name": "age",
          "type": "uint256"
        },
        {
          "internalType": "string",
          "name": "crime",
          "type": "string"
        },
        {
          "internalType": "uint256",
          "name": "amount",
          "type": "uint256"
        },
        {
          "internalType": "bool",
          "name": "redNoticeIssued",
          "type": "bool"
        },
        {
          "internalType": "string",
          "name": "discriptors",
          "type": "string"
        },
        {
          "internalType": "uint256",
          "name": "tokenId",
          "type": "uint256"
        }
      ],
      "stateMutability": "view",
      "type": "function"
    },
    {
      "inputs": [
        {
          "internalType": "address",
          "name": "to",
          "type": "address"
        },
        {
          "internalType": "uint256",
          "name": "tokenId",
          "type": "uint256"
        }
      ],
      "name": "approve",
      "outputs": [],
      "stateMutability": "nonpayable",
      "type": "function"
    },
    {
      "inputs": [
        {
          "internalType": "address",
          "name": "owner",
          "type": "address"
        }
      ],
      "name": "balanceOf",
      "outputs": [
        {
          "internalType": "uint256",
          "name": "",
          "type": "uint256"
        }
      ],
      "stateMutability": "view",
      "type": "function"
    },
    {
      "inputs": [
        {
          "internalType": "uint256",
          "name": "",
          "type": "uint256"
        }
      ],
      "name": "criminalList",
      "outputs": [
        {
          "internalType": "string",
          "name": "name",
          "type": "string"
        },
        {
          "internalType": "string",
          "name": "nationality",
          "type": "string"
        },
        {
          "internalType": "uint256",
          "name": "age",
          "type": "uint256"
        },
        {
          "internalType": "string",
          "name": "crime",
          "type": "string"
        },
        {
          "internalType": "uint256",
          "name": "amount",
          "type": "uint256"
        },
        {
          "internalType": "bool",
          "name": "redNoticeIssued",
          "type": "bool"
        },
        {
          "internalType": "string",
          "name": "discriptors",
          "type": "string"
        },
        {
          "internalType": "uint256",
          "name": "tokenId",
          "type": "uint256"
        }
      ],
      "stateMutability": "view",
      "type": "function"
    },
    {
      "inputs": [
        {
          "internalType": "bytes32",
          "name": "",
          "type": "bytes32"
        }
      ],
      "name": "criminals",
      "outputs": [
        {
          "internalType": "string",
          "name": "name",
          "type": "string"
        },
        {
          "internalType": "string",
          "name": "nationality",
          "type": "string"
        },
        {
          "internalType": "uint256",
          "name": "age",
          "type": "uint256"
        },
        {
          "internalType": "string",
          "name": "crime",
          "type": "string"
        },
        {
          "internalType": "uint256",
          "name": "amount",
          "type": "uint256"
        },
        {
          "internalType": "bool",
          "name": "redNoticeIssued",
          "type": "bool"
        },
        {
          "internalType": "string",
          "name": "discriptors",
          "type": "string"
        },
        {
          "internalType": "uint256",
          "name": "tokenId",
          "type": "uint256"
        }
      ],
      "stateMutability": "view",
      "type": "function"
    },
    {
      "inputs": [
        {
          "internalType": "uint256",
          "name": "tokenId",
          "type": "uint256"
        }
      ],
      "name": "getApproved",
      "outputs": [
        {
          "internalType": "address",
          "name": "",
          "type": "address"
        }
      ],
      "stateMutability": "view",
      "type": "function"
    },
    {
      "inputs": [
        {
          "internalType": "address",
          "name": "owner",
          "type": "address"
        },
        {
          "internalType": "address",
          "name": "operator",
          "type": "address"
        }
      ],
      "name": "isApprovedForAll",
      "outputs": [
        {
          "internalType": "bool",
          "name": "",
          "type": "bool"
        }
      ],
      "stateMutability": "view",
      "type": "function"
    },
    {
      "inputs": [],
      "name": "name",
      "outputs": [
        {
          "internalType": "string",
          "name": "",
          "type": "string"
        }
      ],
      "stateMutability": "view",
      "type": "function"
    },
    {
      "inputs": [],
      "name": "owner",
      "outputs": [
        {
          "internalType": "address",
          "name": "",
          "type": "address"
        }
      ],
      "stateMutability": "view",
      "type": "function"
    },
    {
      "inputs": [
        {
          "internalType": "uint256",
          "name": "tokenId",
          "type": "uint256"
        }
      ],
      "name": "ownerOf",
      "outputs": [
        {
          "internalType": "address",
          "name": "",
          "type": "address"
        }
      ],
      "stateMutability": "view",
      "type": "function"
    },
    {
      "inputs": [],
      "name": "renounceOwnership",
      "outputs": [],
      "stateMutability": "nonpayable",
      "type": "function"
    },
    {
      "inputs": [
        {
          "internalType": "address",
          "name": "from",
          "type": "address"
        },
        {
          "internalType": "address",
          "name": "to",
          "type": "address"
        },
        {
          "internalType": "uint256",
          "name": "tokenId",
          "type": "uint256"
        }
      ],
      "name": "safeTransferFrom",
      "outputs": [],
      "stateMutability": "nonpayable",
      "type": "function"
    },
    {
      "inputs": [
        {
          "internalType": "address",
          "name": "from",
          "type": "address"
        },
        {
          "internalType": "address",
          "name": "to",
          "type": "address"
        },
        {
          "internalType": "uint256",
          "name": "tokenId",
          "type": "uint256"
        },
        {
          "internalType": "bytes",
          "name": "data",
          "type": "bytes"
        }
      ],
      "name": "safeTransferFrom",
      "outputs": [],
      "stateMutability": "nonpayable",
      "type": "function"
    },
    {
      "inputs": [
        {
          "internalType": "address",
          "name": "operator",
          "type": "address"
        },
        {
          "internalType": "bool",
          "name": "approved",
          "type": "bool"
        }
      ],
      "name": "setApprovalForAll",
      "outputs": [],
      "stateMutability": "nonpayable",
      "type": "function"
    },
    {
      "inputs": [
        {
          "internalType": "bytes4",
          "name": "interfaceId",
          "type": "bytes4"
        }
      ],
      "name": "supportsInterface",
      "outputs": [
        {
          "internalType": "bool",
          "name": "",
          "type": "bool"
        }
      ],
      "stateMutability": "view",
      "type": "function"
    },
    {
      "inputs": [],
      "name": "symbol",
      "outputs": [
        {
          "internalType": "string",
          "name": "",
          "type": "string"
        }
      ],
      "stateMutability": "view",
      "type": "function"
    },
    {
      "inputs": [
        {
          "internalType": "uint256",
          "name": "",
          "type": "uint256"
        }
      ],
      "name": "tokenIdToRequest",
      "outputs": [
        {
          "internalType": "bytes32",
          "name": "",
          "type": "bytes32"
        }
      ],
      "stateMutability": "view",
      "type": "function"
    },
    {
      "inputs": [
        {
          "internalType": "uint256",
          "name": "tokenId",
          "type": "uint256"
        }
      ],
      "name": "tokenURI",
      "outputs": [
        {
          "internalType": "string",
          "name": "",
          "type": "string"
        }
      ],
      "stateMutability": "view",
      "type": "function"
    },
    {
      "inputs": [
        {
          "internalType": "address",
          "name": "from",
          "type": "address"
        },
        {
          "internalType": "address",
          "name": "to",
          "type": "address"
        },
        {
          "internalType": "uint256",
          "name": "tokenId",
          "type": "uint256"
        }
      ],
      "name": "transferFrom",
      "outputs": [],
      "stateMutability": "nonpayable",
      "type": "function"
    },
    {
      "inputs": [
        {
          "internalType": "address",
          "name": "newOwner",
          "type": "address"
        }
      ],
      "name": "transferOwnership",
      "outputs": [],
      "stateMutability": "nonpayable",
      "type": "function"
    },
    {
      "inputs": [
        {
          "internalType": "address",
          "name": "user",
          "type": "address"
        }
      ],
      "name": "addAllowedUser",
      "outputs": [],
      "stateMutability": "nonpayable",
      "type": "function"
    },
    {
      "inputs": [
        {
          "internalType": "address",
          "name": "user",
          "type": "address"
        }
      ],
      "name": "removeAllowedUser",
      "outputs": [],
      "stateMutability": "nonpayable",
      "type": "function"
    },
    {
      "inputs": [
        {
          "internalType": "string",
          "name": "name",
          "type": "string"
        },
        {
          "internalType": "string",
          "name": "nationality",
          "type": "string"
        },
        {
          "internalType": "uint256",
          "name": "age",
          "type": "uint256"
        },
        {
          "internalType": "string",
          "name": "crime",
          "type": "string"
        },
        {
          "internalType": "uint256",
          "name": "amount",
          "type": "uint256"
        },
        {
          "internalType": "string",
          "name": "discriptors",
          "type": "string"
        }
      ],
      "name": "processRequest",
      "outputs": [
        {
          "internalType": "bytes32",
          "name": "",
          "type": "bytes32"
        }
      ],
      "stateMutability": "nonpayable",
      "type": "function"
    },
    {
      "inputs": [
        {
          "internalType": "bytes32",
          "name": "requestId",
          "type": "bytes32"
        }
      ],
      "name": "issueRedNotice",
      "outputs": [],
      "stateMutability": "nonpayable",
      "type": "function"
    },
    {
      "inputs": [
        {
          "internalType": "uint256",
          "name": "tokenId",
          "type": "uint256"
        }
      ],
      "name": "getCriminal",
      "outputs": [
        {
          "internalType": "string",
          "name": "",
          "type": "string"
        },
        {
          "internalType": "string",
          "name": "",
          "type": "string"
        },
        {
          "internalType": "uint256",
          "name": "",
          "type": "uint256"
        },
        {
          "internalType": "string",
          "name": "",
          "type": "string"
        },
        {
          "internalType": "bool",
          "name": "",
          "type": "bool"
        },
        {
          "internalType": "string",
          "name": "",
          "type": "string"
        },
        {
          "internalType": "uint256",
          "name": "",
          "type": "uint256"
        }
      ],
      "stateMutability": "view",
      "type": "function"
    },
    {
      "inputs": [
        {
          "internalType": "uint256",
          "name": "tokenId",
          "type": "uint256"
        }
      ],
      "name": "withdrawRedNotice",
      "outputs": [],
      "stateMutability": "nonpayable",
      "type": "function"
    }
  ],
  "bytecode": "0x60806040523480156200001157600080fd5b506040518060400160405280600a81526020017f526564204e6f74696365000000000000000000000000000000000000000000008152506040518060400160405280600281526020017f524e000000000000000000000000000000000000000000000000000000000000815250816000908051906020019062000096929190620001a6565b508060019080519060200190620000af929190620001a6565b505050620000d2620000c6620000d860201b60201c565b620000e060201b60201c565b620002ba565b600033905090565b6000600660009054906101000a900473ffffffffffffffffffffffffffffffffffffffff16905081600660006101000a81548173ffffffffffffffffffffffffffffffffffffffff021916908373ffffffffffffffffffffffffffffffffffffffff1602179055508173ffffffffffffffffffffffffffffffffffffffff168173ffffffffffffffffffffffffffffffffffffffff167f8be0079c531659141344cd1fd0a4f28419497f9722a3daafe3b4186f6b6457e060405160405180910390a35050565b828054620001b49062000285565b90600052602060002090601f016020900481019282620001d8576000855562000224565b82601f10620001f357805160ff191683800117855562000224565b8280016001018555821562000224579182015b828111156200022357825182559160200191906001019062000206565b5b50905062000233919062000237565b5090565b5b808211156200025257600081600090555060010162000238565b5090565b7f4e487b7100000000000000000000000000000000000000000000000000000000600052602260045260246000fd5b600060028204905060018216806200029e57607f821691505b602082108103620002b457620002b362000256565b5b50919050565b614a4280620002ca6000396000f3fe608060405234801561001057600080fd5b506004361061018e5760003560e01c80638da5cb5b116100de578063c57413fe11610097578063cafd890411610071578063cafd8904146104e6578063d663db4114610502578063e985e9c51461051e578063f2fde38b1461054e5761018e565b8063c57413fe1461046a578063c73bdb7f1461049a578063c87b56dd146104b65761018e565b80638da5cb5b1461038857806395d89b41146103a6578063972c98a2146103c4578063a0eea03e146103fb578063a22cb46514610432578063b88d4fde1461044e5761018e565b80633dba9d361161014b5780636352211e116101255780636352211e146102e8578063654c00461461031857806370a082311461034e578063715018a61461037e5761018e565b80633dba9d361461026557806342842e0e1461029557806360aa24c8146102b15761018e565b806301ffc9a71461019357806306fdde03146101c3578063081812fc146101e1578063095ea7b31461021157806321b384ed1461022d57806323b872dd14610249575b600080fd5b6101ad60048036038101906101a89190613420565b61056a565b6040516101ba9190613468565b60405180910390f35b6101cb61064c565b6040516101d8919061351c565b60405180910390f35b6101fb60048036038101906101f69190613574565b6106de565b60405161020891906135e2565b60405180910390f35b61022b60048036038101906102269190613629565b610724565b005b61024760048036038101906102429190613669565b61083b565b005b610263600480360381019061025e9190613696565b61089e565b005b61027f600480360381019061027a919061381e565b6108fe565b60405161028c9190613934565b60405180910390f35b6102af60048036038101906102aa9190613696565b610b1b565b005b6102cb60048036038101906102c69190613574565b610b3b565b6040516102df98979695949392919061395e565b60405180910390f35b61030260048036038101906102fd9190613574565b610db0565b60405161030f91906135e2565b60405180910390f35b610332600480360381019061032d9190613574565b610e61565b60405161034597969594939291906139f8565b60405180910390f35b61036860048036038101906103639190613669565b6111b9565b6040516103759190613a83565b60405180910390f35b610386611270565b005b610390611284565b60405161039d91906135e2565b60405180910390f35b6103ae6112ae565b6040516103bb919061351c565b60405180910390f35b6103de60048036038101906103d99190613aca565b611340565b6040516103f298979695949392919061395e565b60405180910390f35b61041560048036038101906104109190613574565b6115b5565b60405161042998979695949392919061395e565b60405180910390f35b61044c60048036038101906104479190613b23565b61183a565b005b61046860048036038101906104639190613c04565b611850565b005b610484600480360381019061047f9190613574565b6118b2565b6040516104919190613934565b60405180910390f35b6104b460048036038101906104af9190613574565b6118ca565b005b6104d060048036038101906104cb9190613574565b6119ba565b6040516104dd919061351c565b60405180910390f35b61050060048036038101906104fb9190613669565b611a22565b005b61051c60048036038101906105179190613aca565b611a85565b005b61053860048036038101906105339190613c87565b612095565b6040516105459190613468565b60405180910390f35b61056860048036038101906105639190613669565b612129565b005b60007f80ac58cd000000000000000000000000000000000000000000000000000000007bffffffffffffffffffffffffffffffffffffffffffffffffffffffff1916827bffffffffffffffffffffffffffffffffffffffffffffffffffffffff1916148061063557507f5b5e139f000000000000000000000000000000000000000000000000000000007bffffffffffffffffffffffffffffffffffffffffffffffffffffffff1916827bffffffffffffffffffffffffffffffffffffffffffffffffffffffff1916145b806106455750610644826121ac565b5b9050919050565b60606000805461065b90613cf6565b80601f016020809104026020016040519081016040528092919081815260200182805461068790613cf6565b80156106d45780601f106106a9576101008083540402835291602001916106d4565b820191906000526020600020905b8154815290600101906020018083116106b757829003601f168201915b5050505050905090565b60006106e982612216565b6004600083815260200190815260200160002060009054906101000a900473ffffffffffffffffffffffffffffffffffffffff169050919050565b600061072f82610db0565b90508073ffffffffffffffffffffffffffffffffffffffff168373ffffffffffffffffffffffffffffffffffffffff160361079f576040517f08c379a000000000000000000000000000000000000000000000000000000000815260040161079690613d99565b60405180910390fd5b8073ffffffffffffffffffffffffffffffffffffffff166107be612261565b73ffffffffffffffffffffffffffffffffffffffff1614806107ed57506107ec816107e7612261565b612095565b5b61082c576040517f08c379a000000000000000000000000000000000000000000000000000000000815260040161082390613e2b565b60405180910390fd5b6108368383612269565b505050565b610843612322565b6001600a60008373ffffffffffffffffffffffffffffffffffffffff1673ffffffffffffffffffffffffffffffffffffffff16815260200190815260200160002060006101000a81548160ff02191690831515021790555050565b6108af6108a9612261565b826123a0565b6108ee576040517f08c379a00000000000000000000000000000000000000000000000000000000081526004016108e590613ebd565b60405180910390fd5b6108f9838383612435565b505050565b6000600a60003373ffffffffffffffffffffffffffffffffffffffff1673ffffffffffffffffffffffffffffffffffffffff16815260200190815260200160002060009054906101000a900460ff1661098c576040517f08c379a000000000000000000000000000000000000000000000000000000000815260040161098390613f4f565b60405180910390fd5b60008787878787426040516020016109a996959493929190613fcc565b60405160208183030381529060405280519060200120905060006040518061010001604052808a81526020018981526020018881526020018781526020018681526020016000151581526020018581526020016000815250905080600860008481526020019081526020016000206000820151816000019080519060200190610a33929190613311565b506020820151816001019080519060200190610a50929190613311565b50604082015181600201556060820151816003019080519060200190610a77929190613311565b506080820151816004015560a08201518160050160006101000a81548160ff02191690831515021790555060c0820151816006019080519060200190610abe929190613311565b5060e08201518160070155905050817f0c2a3c692a36243fbfb8dbbfcd316f82cb02a0c9788feb351d17e4e44a5dba698a8a8a8a8a604051610b04959493929190614030565b60405180910390a281925050509695505050505050565b610b3683838360405180602001604052806000815250611850565b505050565b600b602052806000526040600020600091509050806000018054610b5e90613cf6565b80601f0160208091040260200160405190810160405280929190818152602001828054610b8a90613cf6565b8015610bd75780601f10610bac57610100808354040283529160200191610bd7565b820191906000526020600020905b815481529060010190602001808311610bba57829003601f168201915b505050505090806001018054610bec90613cf6565b80601f0160208091040260200160405190810160405280929190818152602001828054610c1890613cf6565b8015610c655780601f10610c3a57610100808354040283529160200191610c65565b820191906000526020600020905b815481529060010190602001808311610c4857829003601f168201915b505050505090806002015490806003018054610c8090613cf6565b80601f0160208091040260200160405190810160405280929190818152602001828054610cac90613cf6565b8015610cf95780601f10610cce57610100808354040283529160200191610cf9565b820191906000526020600020905b815481529060010190602001808311610cdc57829003601f168201915b5050505050908060040154908060050160009054906101000a900460ff1690806006018054610d2790613cf6565b80601f0160208091040260200160405190810160405280929190818152602001828054610d5390613cf6565b8015610da05780601f10610d7557610100808354040283529160200191610da0565b820191906000526020600020905b815481529060010190602001808311610d8357829003601f168201915b5050505050908060070154905088565b6000806002600084815260200190815260200160002060009054906101000a900473ffffffffffffffffffffffffffffffffffffffff169050600073ffffffffffffffffffffffffffffffffffffffff168173ffffffffffffffffffffffffffffffffffffffff1603610e58576040517f08c379a0000000000000000000000000000000000000000000000000000000008152600401610e4f906140e4565b60405180910390fd5b80915050919050565b6060806000606060006060600087600b60008a81526020019081526020016000206007015414610ec6576040517f08c379a0000000000000000000000000000000000000000000000000000000008152600401610ebd90614176565b60405180910390fd5b600b6000898152602001908152602001600020600001600b60008a8152602001908152602001600020600101600b60008b815260200190815260200160002060020154600b60008c8152602001908152602001600020600301600b60008d815260200190815260200160002060050160009054906101000a900460ff16600b60008e8152602001908152602001600020600601600b60008f815260200190815260200160002060070154868054610f7c90613cf6565b80601f0160208091040260200160405190810160405280929190818152602001828054610fa890613cf6565b8015610ff55780601f10610fca57610100808354040283529160200191610ff5565b820191906000526020600020905b815481529060010190602001808311610fd857829003601f168201915b5050505050965085805461100890613cf6565b80601f016020809104026020016040519081016040528092919081815260200182805461103490613cf6565b80156110815780601f1061105657610100808354040283529160200191611081565b820191906000526020600020905b81548152906001019060200180831161106457829003601f168201915b5050505050955083805461109490613cf6565b80601f01602080910402602001604051908101604052809291908181526020018280546110c090613cf6565b801561110d5780601f106110e25761010080835404028352916020019161110d565b820191906000526020600020905b8154815290600101906020018083116110f057829003601f168201915b5050505050935081805461112090613cf6565b80601f016020809104026020016040519081016040528092919081815260200182805461114c90613cf6565b80156111995780601f1061116e57610100808354040283529160200191611199565b820191906000526020600020905b81548152906001019060200180831161117c57829003601f168201915b505050505091509650965096509650965096509650919395979092949650565b60008073ffffffffffffffffffffffffffffffffffffffff168273ffffffffffffffffffffffffffffffffffffffff1603611229576040517f08c379a000000000000000000000000000000000000000000000000000000000815260040161122090614208565b60405180910390fd5b600360008373ffffffffffffffffffffffffffffffffffffffff1673ffffffffffffffffffffffffffffffffffffffff168152602001908152602001600020549050919050565b611278612322565b611282600061269b565b565b6000600660009054906101000a900473ffffffffffffffffffffffffffffffffffffffff16905090565b6060600180546112bd90613cf6565b80601f01602080910402602001604051908101604052809291908181526020018280546112e990613cf6565b80156113365780601f1061130b57610100808354040283529160200191611336565b820191906000526020600020905b81548152906001019060200180831161131957829003601f168201915b5050505050905090565b600860205280600052604060002060009150905080600001805461136390613cf6565b80601f016020809104026020016040519081016040528092919081815260200182805461138f90613cf6565b80156113dc5780601f106113b1576101008083540402835291602001916113dc565b820191906000526020600020905b8154815290600101906020018083116113bf57829003601f168201915b5050505050908060010180546113f190613cf6565b80601f016020809104026020016040519081016040528092919081815260200182805461141d90613cf6565b801561146a5780601f1061143f5761010080835404028352916020019161146a565b820191906000526020600020905b81548152906001019060200180831161144d57829003601f168201915b50505050509080600201549080600301805461148590613cf6565b80601f01602080910402602001604051908101604052809291908181526020018280546114b190613cf6565b80156114fe5780601f106114d3576101008083540402835291602001916114fe565b820191906000526020600020905b8154815290600101906020018083116114e157829003601f168201915b5050505050908060040154908060050160009054906101000a900460ff169080600601805461152c90613cf6565b80601f016020809104026020016040519081016040528092919081815260200182805461155890613cf6565b80156115a55780601f1061157a576101008083540402835291602001916115a5565b820191906000526020600020905b81548152906001019060200180831161158857829003601f168201915b5050505050908060070154905088565b600c81815481106115c557600080fd5b90600052602060002090600802016000915090508060000180546115e890613cf6565b80601f016020809104026020016040519081016040528092919081815260200182805461161490613cf6565b80156116615780601f1061163657610100808354040283529160200191611661565b820191906000526020600020905b81548152906001019060200180831161164457829003601f168201915b50505050509080600101805461167690613cf6565b80601f01602080910402602001604051908101604052809291908181526020018280546116a290613cf6565b80156116ef5780601f106116c4576101008083540402835291602001916116ef565b820191906000526020600020905b8154815290600101906020018083116116d257829003601f168201915b50505050509080600201549080600301805461170a90613cf6565b80601f016020809104026020016040519081016040528092919081815260200182805461173690613cf6565b80156117835780601f1061175857610100808354040283529160200191611783565b820191906000526020600020905b81548152906001019060200180831161176657829003601f168201915b5050505050908060040154908060050160009054906101000a900460ff16908060060180546117b190613cf6565b80601f01602080910402602001604051908101604052809291908181526020018280546117dd90613cf6565b801561182a5780601f106117ff5761010080835404028352916020019161182a565b820191906000526020600020905b81548152906001019060200180831161180d57829003601f168201915b5050505050908060070154905088565b61184c611845612261565b8383612761565b5050565b61186161185b612261565b836123a0565b6118a0576040517f08c379a000000000000000000000000000000000000000000000000000000000815260040161189790613ebd565b60405180910390fd5b6118ac848484846128cd565b50505050565b60096020528060005260406000206000915090505481565b600a60003373ffffffffffffffffffffffffffffffffffffffff1673ffffffffffffffffffffffffffffffffffffffff16815260200190815260200160002060009054906101000a900460ff16611956576040517f08c379a000000000000000000000000000000000000000000000000000000000815260040161194d90613f4f565b60405180910390fd5b80600b600083815260200190815260200160002060070154146119ae576040517f08c379a00000000000000000000000000000000000000000000000000000000081526004016119a590614176565b60405180910390fd5b6119b781612929565b50565b60606119c582612216565b60006119cf612a46565b905060008151116119ef5760405180602001604052806000815250611a1a565b806119f984612a5d565b604051602001611a0a929190614228565b6040516020818303038152906040525b915050919050565b611a2a612322565b6000600a60008373ffffffffffffffffffffffffffffffffffffffff1673ffffffffffffffffffffffffffffffffffffffff16815260200190815260200160002060006101000a81548160ff02191690831515021790555050565b600a60003373ffffffffffffffffffffffffffffffffffffffff1673ffffffffffffffffffffffffffffffffffffffff16815260200190815260200160002060009054906101000a900460ff16611b11576040517f08c379a0000000000000000000000000000000000000000000000000000000008152600401611b0890613f4f565b60405180910390fd5b600060086000838152602001908152602001600020905060008160020154118015611b4b57508060050160009054906101000a900460ff16155b611b8a576040517f08c379a0000000000000000000000000000000000000000000000000000000008152600401611b81906142be565b60405180910390fd5b6000611cb8826001018054611b9e90613cf6565b80601f0160208091040260200160405190810160405280929190818152602001828054611bca90613cf6565b8015611c175780601f10611bec57610100808354040283529160200191611c17565b820191906000526020600020905b815481529060010190602001808311611bfa57829003601f168201915b50505050508360020154846003018054611c3090613cf6565b80601f0160208091040260200160405190810160405280929190818152602001828054611c5c90613cf6565b8015611ca95780601f10611c7e57610100808354040283529160200191611ca9565b820191906000526020600020905b815481529060010190602001808311611c8c57829003601f168201915b50505050508560040154612bbd565b905060148111611cfd576040517f08c379a0000000000000000000000000000000000000000000000000000000008152600401611cf490614350565b60405180910390fd5b6000611d096007612e7b565b9050611d156007612e89565b6000604051806101000160405280856000018054611d3290613cf6565b80601f0160208091040260200160405190810160405280929190818152602001828054611d5e90613cf6565b8015611dab5780601f10611d8057610100808354040283529160200191611dab565b820191906000526020600020905b815481529060010190602001808311611d8e57829003601f168201915b50505050508152602001856001018054611dc490613cf6565b80601f0160208091040260200160405190810160405280929190818152602001828054611df090613cf6565b8015611e3d5780601f10611e1257610100808354040283529160200191611e3d565b820191906000526020600020905b815481529060010190602001808311611e2057829003601f168201915b5050505050815260200185600201548152602001856003018054611e6090613cf6565b80601f0160208091040260200160405190810160405280929190818152602001828054611e8c90613cf6565b8015611ed95780601f10611eae57610100808354040283529160200191611ed9565b820191906000526020600020905b815481529060010190602001808311611ebc57829003601f168201915b5050505050815260200185600401548152602001600115158152602001856006018054611f0590613cf6565b80601f0160208091040260200160405190810160405280929190818152602001828054611f3190613cf6565b8015611f7e5780601f10611f5357610100808354040283529160200191611f7e565b820191906000526020600020905b815481529060010190602001808311611f6157829003601f168201915b5050505050815260200183815250905080600b60008481526020019081526020016000206000820151816000019080519060200190611fbe929190613311565b506020820151816001019080519060200190611fdb929190613311565b50604082015181600201556060820151816003019080519060200190612002929190613311565b506080820151816004015560a08201518160050160006101000a81548160ff02191690831515021790555060c0820151816006019080519060200190612049929190613311565b5060e082015181600701559050506120613383612e9f565b847f4da4b094916dab66f9cd7c17d3993e239945c0d845cadff512f5613e1e76b5b660405160405180910390a25050505050565b6000600560008473ffffffffffffffffffffffffffffffffffffffff1673ffffffffffffffffffffffffffffffffffffffff16815260200190815260200160002060008373ffffffffffffffffffffffffffffffffffffffff1673ffffffffffffffffffffffffffffffffffffffff16815260200190815260200160002060009054906101000a900460ff16905092915050565b612131612322565b600073ffffffffffffffffffffffffffffffffffffffff168173ffffffffffffffffffffffffffffffffffffffff16036121a0576040517f08c379a0000000000000000000000000000000000000000000000000000000008152600401612197906143e2565b60405180910390fd5b6121a98161269b565b50565b60007f01ffc9a7000000000000000000000000000000000000000000000000000000007bffffffffffffffffffffffffffffffffffffffffffffffffffffffff1916827bffffffffffffffffffffffffffffffffffffffffffffffffffffffff1916149050919050565b61221f81612ebd565b61225e576040517f08c379a0000000000000000000000000000000000000000000000000000000008152600401612255906140e4565b60405180910390fd5b50565b600033905090565b816004600083815260200190815260200160002060006101000a81548173ffffffffffffffffffffffffffffffffffffffff021916908373ffffffffffffffffffffffffffffffffffffffff160217905550808273ffffffffffffffffffffffffffffffffffffffff166122dc83610db0565b73ffffffffffffffffffffffffffffffffffffffff167f8c5be1e5ebec7d5bd14f71427d1e84f3dd0314c0f7b2291e5b200ac8c7c3b92560405160405180910390a45050565b61232a612261565b73ffffffffffffffffffffffffffffffffffffffff16612348611284565b73ffffffffffffffffffffffffffffffffffffffff161461239e576040517f08c379a00000000000000000000000000000000000000000000000000000000081526004016123959061444e565b60405180910390fd5b565b6000806123ac83610db0565b90508073ffffffffffffffffffffffffffffffffffffffff168473ffffffffffffffffffffffffffffffffffffffff1614806123ee57506123ed8185612095565b5b8061242c57508373ffffffffffffffffffffffffffffffffffffffff16612414846106de565b73ffffffffffffffffffffffffffffffffffffffff16145b91505092915050565b8273ffffffffffffffffffffffffffffffffffffffff1661245582610db0565b73ffffffffffffffffffffffffffffffffffffffff16146124ab576040517f08c379a00000000000000000000000000000000000000000000000000000000081526004016124a2906144e0565b60405180910390fd5b600073ffffffffffffffffffffffffffffffffffffffff168273ffffffffffffffffffffffffffffffffffffffff160361251a576040517f08c379a000000000000000000000000000000000000000000000000000000000815260040161251190614572565b60405180910390fd5b612525838383612f29565b612530600082612269565b6001600360008573ffffffffffffffffffffffffffffffffffffffff1673ffffffffffffffffffffffffffffffffffffffff168152602001908152602001600020600082825461258091906145c1565b925050819055506001600360008473ffffffffffffffffffffffffffffffffffffffff1673ffffffffffffffffffffffffffffffffffffffff16815260200190815260200160002060008282546125d791906145f5565b92505081905550816002600083815260200190815260200160002060006101000a81548173ffffffffffffffffffffffffffffffffffffffff021916908373ffffffffffffffffffffffffffffffffffffffff160217905550808273ffffffffffffffffffffffffffffffffffffffff168473ffffffffffffffffffffffffffffffffffffffff167fddf252ad1be2c89b69c2b068fc378daa952ba7f163c4a11628f55a4df523b3ef60405160405180910390a4612696838383612f2e565b505050565b6000600660009054906101000a900473ffffffffffffffffffffffffffffffffffffffff16905081600660006101000a81548173ffffffffffffffffffffffffffffffffffffffff021916908373ffffffffffffffffffffffffffffffffffffffff1602179055508173ffffffffffffffffffffffffffffffffffffffff168173ffffffffffffffffffffffffffffffffffffffff167f8be0079c531659141344cd1fd0a4f28419497f9722a3daafe3b4186f6b6457e060405160405180910390a35050565b8173ffffffffffffffffffffffffffffffffffffffff168373ffffffffffffffffffffffffffffffffffffffff16036127cf576040517f08c379a00000000000000000000000000000000000000000000000000000000081526004016127c690614697565b60405180910390fd5b80600560008573ffffffffffffffffffffffffffffffffffffffff1673ffffffffffffffffffffffffffffffffffffffff16815260200190815260200160002060008473ffffffffffffffffffffffffffffffffffffffff1673ffffffffffffffffffffffffffffffffffffffff16815260200190815260200160002060006101000a81548160ff0219169083151502179055508173ffffffffffffffffffffffffffffffffffffffff168373ffffffffffffffffffffffffffffffffffffffff167f17307eab39ab6107e8899845ad3d59bd9653f200f220920489ca2b5937696c31836040516128c09190613468565b60405180910390a3505050565b6128d8848484612435565b6128e484848484612f33565b612923576040517f08c379a000000000000000000000000000000000000000000000000000000000815260040161291a90614729565b60405180910390fd5b50505050565b600061293482610db0565b905061294281600084612f29565b61294d600083612269565b6001600360008373ffffffffffffffffffffffffffffffffffffffff1673ffffffffffffffffffffffffffffffffffffffff168152602001908152602001600020600082825461299d91906145c1565b925050819055506002600083815260200190815260200160002060006101000a81549073ffffffffffffffffffffffffffffffffffffffff021916905581600073ffffffffffffffffffffffffffffffffffffffff168273ffffffffffffffffffffffffffffffffffffffff167fddf252ad1be2c89b69c2b068fc378daa952ba7f163c4a11628f55a4df523b3ef60405160405180910390a4612a4281600084612f2e565b5050565b606060405180602001604052806000815250905090565b606060008203612aa4576040518060400160405280600181526020017f30000000000000000000000000000000000000000000000000000000000000008152509050612bb8565b600082905060005b60008214612ad6578080612abf90614749565b915050600a82612acf91906147c0565b9150612aac565b60008167ffffffffffffffff811115612af257612af16136f3565b5b6040519080825280601f01601f191660200182016040528015612b245781602001600182028036833780820191505090505b5090505b60008514612bb157600182612b3d91906145c1565b9150600a85612b4c91906147f1565b6030612b5891906145f5565b60f81b818381518110612b6e57612b6d614822565b5b60200101907effffffffffffffffffffffffffffffffffffffffffffffffffffffffffffff1916908160001a905350600a85612baa91906147c0565b9450612b28565b8093505050505b919050565b6000806040518060400160405280600d81526020017f556e69746564205374617465730000000000000000000000000000000000000081525080519060200120868051906020012003612c135760059050612cc0565b6040518060400160405280600681526020017f527573736961000000000000000000000000000000000000000000000000000081525080519060200120868051906020012003612c6657600a9050612cbf565b6040518060400160405280600581526020017f4368696e6100000000000000000000000000000000000000000000000000000081525080519060200120868051906020012003612cb957600f9050612cbe565b601490505b5b5b60006014861015612cd45760059050612cff565b601e861015612ce657600a9050612cfe565b6028861015612cf857600f9050612cfd565b601490505b5b5b60006040518060400160405280601081526020017f4d6f6e6579204c61756e646572696e670000000000000000000000000000000081525080519060200120868051906020012003612d545760059050612e01565b6040518060400160405280600581526020017f467261756400000000000000000000000000000000000000000000000000000081525080519060200120868051906020012003612da757600a9050612e00565b6040518060400160405280601081526020017f4472756720547261666669636b696e670000000000000000000000000000000081525080519060200120868051906020012003612dfa57600f9050612dff565b601490505b5b5b6000612710861015612e165760059050612e45565b620186a0861015612e2a57600a9050612e44565b620f4240861015612e3e57600f9050612e43565b601490505b5b5b600081838587612e5591906145f5565b612e5f91906145f5565b612e6991906145f5565b90508095505050505050949350505050565b600081600001549050919050565b6001816000016000828254019250508190555050565b612eb98282604051806020016040528060008152506130ba565b5050565b60008073ffffffffffffffffffffffffffffffffffffffff166002600084815260200190815260200160002060009054906101000a900473ffffffffffffffffffffffffffffffffffffffff1673ffffffffffffffffffffffffffffffffffffffff1614159050919050565b505050565b505050565b6000612f548473ffffffffffffffffffffffffffffffffffffffff16613115565b156130ad578373ffffffffffffffffffffffffffffffffffffffff1663150b7a02612f7d612261565b8786866040518563ffffffff1660e01b8152600401612f9f94939291906148a6565b6020604051808303816000875af1925050508015612fdb57506040513d601f19601f82011682018060405250810190612fd89190614907565b60015b61305d573d806000811461300b576040519150601f19603f3d011682016040523d82523d6000602084013e613010565b606091505b506000815103613055576040517f08c379a000000000000000000000000000000000000000000000000000000000815260040161304c90614729565b60405180910390fd5b805181602001fd5b63150b7a0260e01b7bffffffffffffffffffffffffffffffffffffffffffffffffffffffff1916817bffffffffffffffffffffffffffffffffffffffffffffffffffffffff1916149150506130b2565b600190505b949350505050565b6130c48383613138565b6130d16000848484612f33565b613110576040517f08c379a000000000000000000000000000000000000000000000000000000000815260040161310790614729565b60405180910390fd5b505050565b6000808273ffffffffffffffffffffffffffffffffffffffff163b119050919050565b600073ffffffffffffffffffffffffffffffffffffffff168273ffffffffffffffffffffffffffffffffffffffff16036131a7576040517f08c379a000000000000000000000000000000000000000000000000000000000815260040161319e90614980565b60405180910390fd5b6131b081612ebd565b156131f0576040517f08c379a00000000000000000000000000000000000000000000000000000000081526004016131e7906149ec565b60405180910390fd5b6131fc60008383612f29565b6001600360008473ffffffffffffffffffffffffffffffffffffffff1673ffffffffffffffffffffffffffffffffffffffff168152602001908152602001600020600082825461324c91906145f5565b92505081905550816002600083815260200190815260200160002060006101000a81548173ffffffffffffffffffffffffffffffffffffffff021916908373ffffffffffffffffffffffffffffffffffffffff160217905550808273ffffffffffffffffffffffffffffffffffffffff16600073ffffffffffffffffffffffffffffffffffffffff167fddf252ad1be2c89b69c2b068fc378daa952ba7f163c4a11628f55a4df523b3ef60405160405180910390a461330d60008383612f2e565b5050565b82805461331d90613cf6565b90600052602060002090601f01602090048101928261333f5760008555613386565b82601f1061335857805160ff1916838001178555613386565b82800160010185558215613386579182015b8281111561338557825182559160200191906001019061336a565b5b5090506133939190613397565b5090565b5b808211156133b0576000816000905550600101613398565b5090565b6000604051905090565b600080fd5b600080fd5b60007fffffffff0000000000000000000000000000000000000000000000000000000082169050919050565b6133fd816133c8565b811461340857600080fd5b50565b60008135905061341a816133f4565b92915050565b600060208284031215613436576134356133be565b5b60006134448482850161340b565b91505092915050565b60008115159050919050565b6134628161344d565b82525050565b600060208201905061347d6000830184613459565b92915050565b600081519050919050565b600082825260208201905092915050565b60005b838110156134bd5780820151818401526020810190506134a2565b838111156134cc576000848401525b50505050565b6000601f19601f8301169050919050565b60006134ee82613483565b6134f8818561348e565b935061350881856020860161349f565b613511816134d2565b840191505092915050565b6000602082019050818103600083015261353681846134e3565b905092915050565b6000819050919050565b6135518161353e565b811461355c57600080fd5b50565b60008135905061356e81613548565b92915050565b60006020828403121561358a576135896133be565b5b60006135988482850161355f565b91505092915050565b600073ffffffffffffffffffffffffffffffffffffffff82169050919050565b60006135cc826135a1565b9050919050565b6135dc816135c1565b82525050565b60006020820190506135f760008301846135d3565b92915050565b613606816135c1565b811461361157600080fd5b50565b600081359050613623816135fd565b92915050565b600080604083850312156136405761363f6133be565b5b600061364e85828601613614565b925050602061365f8582860161355f565b9150509250929050565b60006020828403121561367f5761367e6133be565b5b600061368d84828501613614565b91505092915050565b6000806000606084860312156136af576136ae6133be565b5b60006136bd86828701613614565b93505060206136ce86828701613614565b92505060406136df8682870161355f565b9150509250925092565b600080fd5b600080fd5b7f4e487b7100000000000000000000000000000000000000000000000000000000600052604160045260246000fd5b61372b826134d2565b810181811067ffffffffffffffff8211171561374a576137496136f3565b5b80604052505050565b600061375d6133b4565b90506137698282613722565b919050565b600067ffffffffffffffff821115613789576137886136f3565b5b613792826134d2565b9050602081019050919050565b82818337600083830152505050565b60006137c16137bc8461376e565b613753565b9050828152602081018484840111156137dd576137dc6136ee565b5b6137e884828561379f565b509392505050565b600082601f830112613805576138046136e9565b5b81356138158482602086016137ae565b91505092915050565b60008060008060008060c0878903121561383b5761383a6133be565b5b600087013567ffffffffffffffff811115613859576138586133c3565b5b61386589828a016137f0565b965050602087013567ffffffffffffffff811115613886576138856133c3565b5b61389289828a016137f0565b95505060406138a389828a0161355f565b945050606087013567ffffffffffffffff8111156138c4576138c36133c3565b5b6138d089828a016137f0565b93505060806138e189828a0161355f565b92505060a087013567ffffffffffffffff811115613902576139016133c3565b5b61390e89828a016137f0565b9150509295509295509295565b6000819050919050565b61392e8161391b565b82525050565b60006020820190506139496000830184613925565b92915050565b6139588161353e565b82525050565b6000610100820190508181036000830152613979818b6134e3565b9050818103602083015261398d818a6134e3565b905061399c604083018961394f565b81810360608301526139ae81886134e3565b90506139bd608083018761394f565b6139ca60a0830186613459565b81810360c08301526139dc81856134e3565b90506139eb60e083018461394f565b9998505050505050505050565b600060e0820190508181036000830152613a12818a6134e3565b90508181036020830152613a2681896134e3565b9050613a35604083018861394f565b8181036060830152613a4781876134e3565b9050613a566080830186613459565b81810360a0830152613a6881856134e3565b9050613a7760c083018461394f565b98975050505050505050565b6000602082019050613a98600083018461394f565b92915050565b613aa78161391b565b8114613ab257600080fd5b50565b600081359050613ac481613a9e565b92915050565b600060208284031215613ae057613adf6133be565b5b6000613aee84828501613ab5565b91505092915050565b613b008161344d565b8114613b0b57600080fd5b50565b600081359050613b1d81613af7565b92915050565b60008060408385031215613b3a57613b396133be565b5b6000613b4885828601613614565b9250506020613b5985828601613b0e565b9150509250929050565b600067ffffffffffffffff821115613b7e57613b7d6136f3565b5b613b87826134d2565b9050602081019050919050565b6000613ba7613ba284613b63565b613753565b905082815260208101848484011115613bc357613bc26136ee565b5b613bce84828561379f565b509392505050565b600082601f830112613beb57613bea6136e9565b5b8135613bfb848260208601613b94565b91505092915050565b60008060008060808587031215613c1e57613c1d6133be565b5b6000613c2c87828801613614565b9450506020613c3d87828801613614565b9350506040613c4e8782880161355f565b925050606085013567ffffffffffffffff811115613c6f57613c6e6133c3565b5b613c7b87828801613bd6565b91505092959194509250565b60008060408385031215613c9e57613c9d6133be565b5b6000613cac85828601613614565b9250506020613cbd85828601613614565b9150509250929050565b7f4e487b7100000000000000000000000000000000000000000000000000000000600052602260045260246000fd5b60006002820490506001821680613d0e57607f821691505b602082108103613d2157613d20613cc7565b5b50919050565b7f4552433732313a20617070726f76616c20746f2063757272656e74206f776e6560008201527f7200000000000000000000000000000000000000000000000000000000000000602082015250565b6000613d8360218361348e565b9150613d8e82613d27565b604082019050919050565b60006020820190508181036000830152613db281613d76565b9050919050565b7f4552433732313a20617070726f76652063616c6c6572206973206e6f7420746f60008201527f6b656e206f776e6572206e6f7220617070726f76656420666f7220616c6c0000602082015250565b6000613e15603e8361348e565b9150613e2082613db9565b604082019050919050565b60006020820190508181036000830152613e4481613e08565b9050919050565b7f4552433732313a2063616c6c6572206973206e6f7420746f6b656e206f776e6560008201527f72206e6f7220617070726f766564000000000000000000000000000000000000602082015250565b6000613ea7602e8361348e565b9150613eb282613e4b565b604082019050919050565b60006020820190508181036000830152613ed681613e9a565b9050919050565b7f4f6e6c7920616c6c6f77656420696e7665737469676174697665206167656e6360008201527f792063616e2063616c6c20746869732066756e6374696f6e0000000000000000602082015250565b6000613f3960388361348e565b9150613f4482613edd565b604082019050919050565b60006020820190508181036000830152613f6881613f2c565b9050919050565b600081905092915050565b6000613f8582613483565b613f8f8185613f6f565b9350613f9f81856020860161349f565b80840191505092915050565b6000819050919050565b613fc6613fc18261353e565b613fab565b82525050565b6000613fd88289613f7a565b9150613fe48288613f7a565b9150613ff08287613fb5565b6020820191506140008286613f7a565b915061400c8285613fb5565b60208201915061401c8284613fb5565b602082019150819050979650505050505050565b600060a082019050818103600083015261404a81886134e3565b9050818103602083015261405e81876134e3565b905061406d604083018661394f565b818103606083015261407f81856134e3565b905061408e608083018461394f565b9695505050505050565b7f4552433732313a20696e76616c696420746f6b656e2049440000000000000000600082015250565b60006140ce60188361348e565b91506140d982614098565b602082019050919050565b600060208201905081810360008301526140fd816140c1565b9050919050565b7f697420646f65736e2774206d6174636820616e79206372696d696e616c20696e60008201527f666f000000000000000000000000000000000000000000000000000000000000602082015250565b600061416060228361348e565b915061416b82614104565b604082019050919050565b6000602082019050818103600083015261418f81614153565b9050919050565b7f4552433732313a2061646472657373207a65726f206973206e6f74206120766160008201527f6c6964206f776e65720000000000000000000000000000000000000000000000602082015250565b60006141f260298361348e565b91506141fd82614196565b604082019050919050565b60006020820190508181036000830152614221816141e5565b9050919050565b60006142348285613f7a565b91506142408284613f7a565b91508190509392505050565b7f496e76616c69642072657175657374204944206f7220726564206e6f7469636560008201527f20616c7265616479206973737565640000000000000000000000000000000000602082015250565b60006142a8602f8361348e565b91506142b38261424c565b604082019050919050565b600060208201905081810360008301526142d78161429b565b9050919050565b7f466c6565696e67207269736b20697320746f6f206c6f7720746f20697373756560008201527f206120726564206e6f7469636500000000000000000000000000000000000000602082015250565b600061433a602d8361348e565b9150614345826142de565b604082019050919050565b600060208201905081810360008301526143698161432d565b9050919050565b7f4f776e61626c653a206e6577206f776e657220697320746865207a65726f206160008201527f6464726573730000000000000000000000000000000000000000000000000000602082015250565b60006143cc60268361348e565b91506143d782614370565b604082019050919050565b600060208201905081810360008301526143fb816143bf565b9050919050565b7f4f776e61626c653a2063616c6c6572206973206e6f7420746865206f776e6572600082015250565b600061443860208361348e565b915061444382614402565b602082019050919050565b600060208201905081810360008301526144678161442b565b9050919050565b7f4552433732313a207472616e736665722066726f6d20696e636f72726563742060008201527f6f776e6572000000000000000000000000000000000000000000000000000000602082015250565b60006144ca60258361348e565b91506144d58261446e565b604082019050919050565b600060208201905081810360008301526144f9816144bd565b9050919050565b7f4552433732313a207472616e7366657220746f20746865207a65726f2061646460008201527f7265737300000000000000000000000000000000000000000000000000000000602082015250565b600061455c60248361348e565b915061456782614500565b604082019050919050565b6000602082019050818103600083015261458b8161454f565b9050919050565b7f4e487b7100000000000000000000000000000000000000000000000000000000600052601160045260246000fd5b60006145cc8261353e565b91506145d78361353e565b9250828210156145ea576145e9614592565b5b828203905092915050565b60006146008261353e565b915061460b8361353e565b9250827fffffffffffffffffffffffffffffffffffffffffffffffffffffffffffffffff038211156146405761463f614592565b5b828201905092915050565b7f4552433732313a20617070726f766520746f2063616c6c657200000000000000600082015250565b600061468160198361348e565b915061468c8261464b565b602082019050919050565b600060208201905081810360008301526146b081614674565b9050919050565b7f4552433732313a207472616e7366657220746f206e6f6e20455243373231526560008201527f63656976657220696d706c656d656e7465720000000000000000000000000000602082015250565b600061471360328361348e565b915061471e826146b7565b604082019050919050565b6000602082019050818103600083015261474281614706565b9050919050565b60006147548261353e565b91507fffffffffffffffffffffffffffffffffffffffffffffffffffffffffffffffff820361478657614785614592565b5b600182019050919050565b7f4e487b7100000000000000000000000000000000000000000000000000000000600052601260045260246000fd5b60006147cb8261353e565b91506147d68361353e565b9250826147e6576147e5614791565b5b828204905092915050565b60006147fc8261353e565b91506148078361353e565b92508261481757614816614791565b5b828206905092915050565b7f4e487b7100000000000000000000000000000000000000000000000000000000600052603260045260246000fd5b600081519050919050565b600082825260208201905092915050565b600061487882614851565b614882818561485c565b935061489281856020860161349f565b61489b816134d2565b840191505092915050565b60006080820190506148bb60008301876135d3565b6148c860208301866135d3565b6148d5604083018561394f565b81810360608301526148e7818461486d565b905095945050505050565b600081519050614901816133f4565b92915050565b60006020828403121561491d5761491c6133be565b5b600061492b848285016148f2565b91505092915050565b7f4552433732313a206d696e7420746f20746865207a65726f2061646472657373600082015250565b600061496a60208361348e565b915061497582614934565b602082019050919050565b600060208201905081810360008301526149998161495d565b9050919050565b7f4552433732313a20746f6b656e20616c7265616479206d696e74656400000000600082015250565b60006149d6601c8361348e565b91506149e1826149a0565b602082019050919050565b60006020820190508181036000830152614a05816149c9565b905091905056fea2646970667358221220ead57ed710114fb2158769deac40798e73c9d6c79655934d3e041c860cea3a0a64736f6c634300080e0033",
  "immutableReferences": {},
  "source": "// SPDX-License-Identifier: MIT\npragma solidity ^0.8.0;\nimport \"./token/ERC721/ERC721.sol\";\nimport \"./access/Ownable.sol\";\nimport \"./utils/Counters.sol\";\n\ncontract RedNotice is ERC721, Ownable {\n    using Counters for Counters.Counter;\n\n    Counters.Counter private _tokenIdCounter;\n\n    //   \n    struct Criminal {\n        string name;\n        string nationality;\n        uint256 age;\n        string crime;\n        uint256 amount;\n        bool redNoticeIssued;\n        string discriptors;\n        uint256 tokenId; // token ID \n    }\n\n    //   \n    mapping(bytes32 => Criminal) public criminals;\n\n    // token ID     ()\n    mapping(uint256 => bytes32) public tokenIdToRequest;\n\n    mapping(address => bool) allowed;\n\n    modifier onlyAllowed() {\n        require(allowed[msg.sender], \"Only allowed investigative agency can call this function\");\n        _;\n    }\n\n    function addAllowedUser(address user) public onlyOwner {\n        allowed[user] = true;\n    }\n\n    function removeAllowedUser(address user) public onlyOwner {\n        allowed[user] = false;\n    }\n\n\n    //   \n    event RequestReceived(\n        bytes32 indexed requestId,\n        string name,\n        string nationality,\n        uint256 age,\n        string crime,\n        uint256 amount\n    );\n\n    //   \n    event RedNoticeIssued(bytes32 indexed requestId);\n\n    constructor() ERC721(\"Red Notice\", \"RN\") {}\n\n    mapping(uint256 => Criminal) public _criminalInfoList;\n    //    ()\n    Criminal[] public criminalList; //  \n\n    //    \n    function processRequest (\n        string memory name,\n        string memory nationality,\n        uint256 age,\n        string memory crime,\n        uint256 amount,\n        string memory discriptors\n    ) public onlyAllowed returns (bytes32) {\n        //  ID \n        bytes32 requestId = keccak256(\n            abi.encodePacked(\n                name,\n                nationality,\n                age,\n                crime,\n                amount,\n                block.timestamp\n            )\n        );\n        //   \n        Criminal memory newCriminal = Criminal(\n            name,\n            nationality,\n            age,\n            crime,\n            amount,\n            false,\n            discriptors,\n            0\n        ); // token ID 0 \n        criminals[requestId] = newCriminal;\n        //  \n        emit RequestReceived(requestId, name, nationality, age, crime, amount);\n        //  ID \n        return requestId;\n    }\n\n    function calculateFleeingRisk(\n        string memory nationality,\n        uint256 age,\n        string memory crime,\n        uint256 amount\n    ) internal pure returns (uint) {\n        //    \n        uint nationalRiskFactor;\n        if (\n            keccak256(bytes(nationality)) == keccak256(bytes(\"United States\"))\n        ) {\n            nationalRiskFactor = 5;\n        } else if (\n            keccak256(bytes(nationality)) == keccak256(bytes(\"Russia\"))\n        ) {\n            nationalRiskFactor = 10;\n        } else if (keccak256(bytes(nationality)) == keccak256(bytes(\"China\"))) {\n            nationalRiskFactor = 15;\n        } else {\n            nationalRiskFactor = 20;\n        }\n\n        //    \n        uint256 ageRiskFactor;\n        if (age < 20) {\n            ageRiskFactor = 5;\n        } else if (age < 30) {\n            ageRiskFactor = 10;\n        } else if (age < 40) {\n            ageRiskFactor = 15;\n        } else {\n            ageRiskFactor = 20;\n        } \n\n        //     \n        uint256 crimeRiskFactor;\n        if (keccak256(bytes(crime)) == keccak256(bytes(\"Money Laundering\"))) {\n            crimeRiskFactor = 5;\n        } else if (keccak256(bytes(crime)) == keccak256(bytes(\"Fraud\"))) {\n            crimeRiskFactor = 10;\n        } else if (\n            keccak256(bytes(crime)) == keccak256(bytes(\"Drug Trafficking\"))\n        ) {\n            crimeRiskFactor = 15;\n        } else {\n            crimeRiskFactor = 20;\n        }\n\n        //     \n        //    \n        uint256 amountRiskFactor;\n        if (amount < 10000) {\n            amountRiskFactor = 5;\n        } else if (amount < 100000) {\n            amountRiskFactor = 10;\n        } else if (amount < 1000000) {\n            amountRiskFactor = 15;\n        } else {\n            amountRiskFactor = 20;\n        }\n\n        //    \n        uint256 totalRisk = nationalRiskFactor +\n            ageRiskFactor +\n            crimeRiskFactor +\n            amountRiskFactor;\n        return totalRisk;\n    }\n\n    //   \n    function issueRedNotice(bytes32 requestId) public onlyAllowed{\n        //     \n        Criminal storage criminal = criminals[requestId];\n        //      \n        require(\n            criminal.age > 0 && !criminal.redNoticeIssued,\n            \"Invalid request ID or red notice already issued\"\n        );\n\n        //   \n        uint256 fleeingRisk = calculateFleeingRisk(\n            criminal.nationality,\n            criminal.age,\n            criminal.crime,\n            criminal.amount\n        );\n        //     \n        require(\n            fleeingRisk > 20,\n            \"Fleeing risk is too low to issue a red notice\"\n        );\n\n        //     \n        uint256 tokenId = _tokenIdCounter.current();\n        _tokenIdCounter.increment();\n\n        Criminal memory newCriminal = Criminal({\n            name: criminal.name,\n            nationality: criminal.nationality,\n            age: criminal.age,\n            crime: criminal.crime,\n            amount: criminal.amount,\n            redNoticeIssued: true,\n            discriptors:criminal.discriptors,\n            tokenId: tokenId\n        }); // token ID 0 \n        // criminals[requestId] = newCriminal;\n        _criminalInfoList[tokenId] = newCriminal;\n        //  \n        _safeMint(msg.sender, tokenId);\n        //  \n        emit RedNoticeIssued(requestId);\n    }\n\n    //  ID    \n    function getCriminal(\n        uint256 tokenId\n    )\n        public view\n        returns (\n            string memory,\n            string memory,\n            uint256,\n            string memory,\n            bool,\n            string memory,\n            uint256\n        )\n    {\n        // tokenId bytes32     \n        // bytes32 requestId = bytes32(tokenId);\n        // Criminal storage criminal = criminals[requestId];\n        require(\n            _criminalInfoList[tokenId].tokenId == tokenId,\n            \"it doesn't match any criminal info\"\n        );\n\n        //   \n        return (\n            _criminalInfoList[tokenId].name,\n            _criminalInfoList[tokenId].nationality,\n            _criminalInfoList[tokenId].age,\n            _criminalInfoList[tokenId].crime,\n            _criminalInfoList[tokenId].redNoticeIssued,\n            _criminalInfoList[tokenId].discriptors,\n            _criminalInfoList[tokenId].tokenId\n        );\n    }\n\n    //   \n    function withdrawRedNotice(uint tokenId) public onlyAllowed{\n        // tokenId bytes32     \n        // bytes32 requestId = bytes32(tokenId);\n        // Criminal storage criminal = criminals[requestId];\n        //     \n        require(\n            _criminalInfoList[tokenId].tokenId == tokenId,\n            \"it doesn't match any criminal info\"\n        );\n\n        //  \n        // criminal.redNoticeIssued = false;\n        //  \n        _burn(tokenId);\n    }\n}\n",
  "sourcePath": "/Users/gujaeug/Desktop/capstonpro/truffle/contracts/RedNotice.sol",
  "compiler": {
    "name": "solc",
    "version": "0.8.14+commit.80d49f37.Emscripten.clang"
  },
  "schemaVersion": "3.4.13",
  "updatedAt": "2023-05-13T13:36:26.247Z",
  "devdoc": {
    "kind": "dev",
    "methods": {
      "approve(address,uint256)": {
        "details": "See {IERC721-approve}."
      },
      "balanceOf(address)": {
        "details": "See {IERC721-balanceOf}."
      },
      "getApproved(uint256)": {
        "details": "See {IERC721-getApproved}."
      },
      "isApprovedForAll(address,address)": {
        "details": "See {IERC721-isApprovedForAll}."
      },
      "name()": {
        "details": "See {IERC721Metadata-name}."
      },
      "owner()": {
        "details": "Returns the address of the current owner."
      },
      "ownerOf(uint256)": {
        "details": "See {IERC721-ownerOf}."
      },
      "renounceOwnership()": {
        "details": "Leaves the contract without owner. It will not be possible to call `onlyOwner` functions anymore. Can only be called by the current owner. NOTE: Renouncing ownership will leave the contract without an owner, thereby removing any functionality that is only available to the owner."
      },
      "safeTransferFrom(address,address,uint256)": {
        "details": "See {IERC721-safeTransferFrom}."
      },
      "safeTransferFrom(address,address,uint256,bytes)": {
        "details": "See {IERC721-safeTransferFrom}."
      },
      "setApprovalForAll(address,bool)": {
        "details": "See {IERC721-setApprovalForAll}."
      },
      "supportsInterface(bytes4)": {
        "details": "See {IERC165-supportsInterface}."
      },
      "symbol()": {
        "details": "See {IERC721Metadata-symbol}."
      },
      "tokenURI(uint256)": {
        "details": "See {IERC721Metadata-tokenURI}."
      },
      "transferFrom(address,address,uint256)": {
        "details": "See {IERC721-transferFrom}."
      },
      "transferOwnership(address)": {
        "details": "Transfers ownership of the contract to a new account (`newOwner`). Can only be called by the current owner."
      }
    },
    "version": 1
  },
  "userdoc": {
    "kind": "user",
    "methods": {},
    "version": 1
  }
}