{
  "contractName": "RedNotice",
  "abi": [
    {
      "inputs": [],
      "stateMutability": "nonpayable",
      "type": "constructor"
    },
    {
      "anonymous": false,
      "inputs": [
        {
          "indexed": true,
          "internalType": "address",
          "name": "owner",
          "type": "address"
        },
        {
          "indexed": true,
          "internalType": "address",
          "name": "approved",
          "type": "address"
        },
        {
          "indexed": true,
          "internalType": "uint256",
          "name": "tokenId",
          "type": "uint256"
        }
      ],
      "name": "Approval",
      "type": "event"
    },
    {
      "anonymous": false,
      "inputs": [
        {
          "indexed": true,
          "internalType": "address",
          "name": "owner",
          "type": "address"
        },
        {
          "indexed": true,
          "internalType": "address",
          "name": "operator",
          "type": "address"
        },
        {
          "indexed": false,
          "internalType": "bool",
          "name": "approved",
          "type": "bool"
        }
      ],
      "name": "ApprovalForAll",
      "type": "event"
    },
    {
      "anonymous": false,
      "inputs": [
        {
          "indexed": true,
          "internalType": "address",
          "name": "previousOwner",
          "type": "address"
        },
        {
          "indexed": true,
          "internalType": "address",
          "name": "newOwner",
          "type": "address"
        }
      ],
      "name": "OwnershipTransferred",
      "type": "event"
    },
    {
      "anonymous": false,
      "inputs": [
        {
          "indexed": true,
          "internalType": "bytes32",
          "name": "requestId",
          "type": "bytes32"
        }
      ],
      "name": "RedNoticeIssued",
      "type": "event"
    },
    {
      "anonymous": false,
      "inputs": [
        {
          "indexed": true,
          "internalType": "bytes32",
          "name": "requestId",
          "type": "bytes32"
        },
        {
          "indexed": false,
          "internalType": "string",
          "name": "name",
          "type": "string"
        },
        {
          "indexed": false,
          "internalType": "string",
          "name": "nationality",
          "type": "string"
        },
        {
          "indexed": false,
          "internalType": "uint256",
          "name": "age",
          "type": "uint256"
        },
        {
          "indexed": false,
          "internalType": "string",
          "name": "crime",
          "type": "string"
        },
        {
          "indexed": false,
          "internalType": "uint256",
          "name": "amount",
          "type": "uint256"
        }
      ],
      "name": "RequestReceived",
      "type": "event"
    },
    {
      "anonymous": false,
      "inputs": [
        {
          "indexed": true,
          "internalType": "address",
          "name": "from",
          "type": "address"
        },
        {
          "indexed": true,
          "internalType": "address",
          "name": "to",
          "type": "address"
        },
        {
          "indexed": true,
          "internalType": "uint256",
          "name": "tokenId",
          "type": "uint256"
        }
      ],
      "name": "Transfer",
      "type": "event"
    },
    {
      "inputs": [
        {
          "internalType": "uint256",
          "name": "",
          "type": "uint256"
        }
      ],
      "name": "_criminalInfoList",
      "outputs": [
        {
          "internalType": "string",
          "name": "name",
          "type": "string"
        },
        {
          "internalType": "string",
          "name": "nationality",
          "type": "string"
        },
        {
          "internalType": "uint256",
          "name": "age",
          "type": "uint256"
        },
        {
          "internalType": "string",
          "name": "crime",
          "type": "string"
        },
        {
          "internalType": "uint256",
          "name": "amount",
          "type": "uint256"
        },
        {
          "internalType": "bool",
          "name": "redNoticeIssued",
          "type": "bool"
        },
        {
          "internalType": "string",
          "name": "discriptors",
          "type": "string"
        },
        {
          "internalType": "uint256",
          "name": "tokenId",
          "type": "uint256"
        }
      ],
      "stateMutability": "view",
      "type": "function"
    },
    {
      "inputs": [
        {
          "internalType": "address",
          "name": "to",
          "type": "address"
        },
        {
          "internalType": "uint256",
          "name": "tokenId",
          "type": "uint256"
        }
      ],
      "name": "approve",
      "outputs": [],
      "stateMutability": "nonpayable",
      "type": "function"
    },
    {
      "inputs": [
        {
          "internalType": "address",
          "name": "owner",
          "type": "address"
        }
      ],
      "name": "balanceOf",
      "outputs": [
        {
          "internalType": "uint256",
          "name": "",
          "type": "uint256"
        }
      ],
      "stateMutability": "view",
      "type": "function"
    },
    {
      "inputs": [
        {
          "internalType": "uint256",
          "name": "",
          "type": "uint256"
        }
      ],
      "name": "criminalList",
      "outputs": [
        {
          "internalType": "string",
          "name": "name",
          "type": "string"
        },
        {
          "internalType": "string",
          "name": "nationality",
          "type": "string"
        },
        {
          "internalType": "uint256",
          "name": "age",
          "type": "uint256"
        },
        {
          "internalType": "string",
          "name": "crime",
          "type": "string"
        },
        {
          "internalType": "uint256",
          "name": "amount",
          "type": "uint256"
        },
        {
          "internalType": "bool",
          "name": "redNoticeIssued",
          "type": "bool"
        },
        {
          "internalType": "string",
          "name": "discriptors",
          "type": "string"
        },
        {
          "internalType": "uint256",
          "name": "tokenId",
          "type": "uint256"
        }
      ],
      "stateMutability": "view",
      "type": "function"
    },
    {
      "inputs": [
        {
          "internalType": "bytes32",
          "name": "",
          "type": "bytes32"
        }
      ],
      "name": "criminals",
      "outputs": [
        {
          "internalType": "string",
          "name": "name",
          "type": "string"
        },
        {
          "internalType": "string",
          "name": "nationality",
          "type": "string"
        },
        {
          "internalType": "uint256",
          "name": "age",
          "type": "uint256"
        },
        {
          "internalType": "string",
          "name": "crime",
          "type": "string"
        },
        {
          "internalType": "uint256",
          "name": "amount",
          "type": "uint256"
        },
        {
          "internalType": "bool",
          "name": "redNoticeIssued",
          "type": "bool"
        },
        {
          "internalType": "string",
          "name": "discriptors",
          "type": "string"
        },
        {
          "internalType": "uint256",
          "name": "tokenId",
          "type": "uint256"
        }
      ],
      "stateMutability": "view",
      "type": "function"
    },
    {
      "inputs": [
        {
          "internalType": "uint256",
          "name": "tokenId",
          "type": "uint256"
        }
      ],
      "name": "getApproved",
      "outputs": [
        {
          "internalType": "address",
          "name": "",
          "type": "address"
        }
      ],
      "stateMutability": "view",
      "type": "function"
    },
    {
      "inputs": [
        {
          "internalType": "address",
          "name": "owner",
          "type": "address"
        },
        {
          "internalType": "address",
          "name": "operator",
          "type": "address"
        }
      ],
      "name": "isApprovedForAll",
      "outputs": [
        {
          "internalType": "bool",
          "name": "",
          "type": "bool"
        }
      ],
      "stateMutability": "view",
      "type": "function"
    },
    {
      "inputs": [],
      "name": "name",
      "outputs": [
        {
          "internalType": "string",
          "name": "",
          "type": "string"
        }
      ],
      "stateMutability": "view",
      "type": "function"
    },
    {
      "inputs": [],
      "name": "owner",
      "outputs": [
        {
          "internalType": "address",
          "name": "",
          "type": "address"
        }
      ],
      "stateMutability": "view",
      "type": "function"
    },
    {
      "inputs": [
        {
          "internalType": "uint256",
          "name": "tokenId",
          "type": "uint256"
        }
      ],
      "name": "ownerOf",
      "outputs": [
        {
          "internalType": "address",
          "name": "",
          "type": "address"
        }
      ],
      "stateMutability": "view",
      "type": "function"
    },
    {
      "inputs": [],
      "name": "renounceOwnership",
      "outputs": [],
      "stateMutability": "nonpayable",
      "type": "function"
    },
    {
      "inputs": [
        {
          "internalType": "address",
          "name": "from",
          "type": "address"
        },
        {
          "internalType": "address",
          "name": "to",
          "type": "address"
        },
        {
          "internalType": "uint256",
          "name": "tokenId",
          "type": "uint256"
        }
      ],
      "name": "safeTransferFrom",
      "outputs": [],
      "stateMutability": "nonpayable",
      "type": "function"
    },
    {
      "inputs": [
        {
          "internalType": "address",
          "name": "from",
          "type": "address"
        },
        {
          "internalType": "address",
          "name": "to",
          "type": "address"
        },
        {
          "internalType": "uint256",
          "name": "tokenId",
          "type": "uint256"
        },
        {
          "internalType": "bytes",
          "name": "data",
          "type": "bytes"
        }
      ],
      "name": "safeTransferFrom",
      "outputs": [],
      "stateMutability": "nonpayable",
      "type": "function"
    },
    {
      "inputs": [
        {
          "internalType": "address",
          "name": "operator",
          "type": "address"
        },
        {
          "internalType": "bool",
          "name": "approved",
          "type": "bool"
        }
      ],
      "name": "setApprovalForAll",
      "outputs": [],
      "stateMutability": "nonpayable",
      "type": "function"
    },
    {
      "inputs": [
        {
          "internalType": "bytes4",
          "name": "interfaceId",
          "type": "bytes4"
        }
      ],
      "name": "supportsInterface",
      "outputs": [
        {
          "internalType": "bool",
          "name": "",
          "type": "bool"
        }
      ],
      "stateMutability": "view",
      "type": "function"
    },
    {
      "inputs": [],
      "name": "symbol",
      "outputs": [
        {
          "internalType": "string",
          "name": "",
          "type": "string"
        }
      ],
      "stateMutability": "view",
      "type": "function"
    },
    {
      "inputs": [
        {
          "internalType": "uint256",
          "name": "",
          "type": "uint256"
        }
      ],
      "name": "tokenIdToRequest",
      "outputs": [
        {
          "internalType": "bytes32",
          "name": "",
          "type": "bytes32"
        }
      ],
      "stateMutability": "view",
      "type": "function"
    },
    {
      "inputs": [
        {
          "internalType": "uint256",
          "name": "tokenId",
          "type": "uint256"
        }
      ],
      "name": "tokenURI",
      "outputs": [
        {
          "internalType": "string",
          "name": "",
          "type": "string"
        }
      ],
      "stateMutability": "view",
      "type": "function"
    },
    {
      "inputs": [
        {
          "internalType": "address",
          "name": "from",
          "type": "address"
        },
        {
          "internalType": "address",
          "name": "to",
          "type": "address"
        },
        {
          "internalType": "uint256",
          "name": "tokenId",
          "type": "uint256"
        }
      ],
      "name": "transferFrom",
      "outputs": [],
      "stateMutability": "nonpayable",
      "type": "function"
    },
    {
      "inputs": [
        {
          "internalType": "address",
          "name": "newOwner",
          "type": "address"
        }
      ],
      "name": "transferOwnership",
      "outputs": [],
      "stateMutability": "nonpayable",
      "type": "function"
    },
    {
      "inputs": [
        {
          "internalType": "string",
          "name": "name",
          "type": "string"
        },
        {
          "internalType": "string",
          "name": "nationality",
          "type": "string"
        },
        {
          "internalType": "uint256",
          "name": "age",
          "type": "uint256"
        },
        {
          "internalType": "string",
          "name": "crime",
          "type": "string"
        },
        {
          "internalType": "uint256",
          "name": "amount",
          "type": "uint256"
        },
        {
          "internalType": "string",
          "name": "discriptors",
          "type": "string"
        }
      ],
      "name": "processRequest",
      "outputs": [
        {
          "internalType": "bytes32",
          "name": "",
          "type": "bytes32"
        }
      ],
      "stateMutability": "nonpayable",
      "type": "function"
    },
    {
      "inputs": [
        {
          "internalType": "bytes32",
          "name": "requestId",
          "type": "bytes32"
        }
      ],
      "name": "issueRedNotice",
      "outputs": [],
      "stateMutability": "nonpayable",
      "type": "function"
    },
    {
      "inputs": [
        {
          "internalType": "uint256",
          "name": "tokenId",
          "type": "uint256"
        }
      ],
      "name": "getCriminal",
      "outputs": [
        {
          "internalType": "string",
          "name": "",
          "type": "string"
        },
        {
          "internalType": "string",
          "name": "",
          "type": "string"
        },
        {
          "internalType": "uint256",
          "name": "",
          "type": "uint256"
        },
        {
          "internalType": "string",
          "name": "",
          "type": "string"
        },
        {
          "internalType": "bool",
          "name": "",
          "type": "bool"
        },
        {
          "internalType": "string",
          "name": "",
          "type": "string"
        },
        {
          "internalType": "uint256",
          "name": "",
          "type": "uint256"
        }
      ],
      "stateMutability": "view",
      "type": "function"
    },
    {
      "inputs": [
        {
          "internalType": "uint256",
          "name": "tokenId",
          "type": "uint256"
        }
      ],
      "name": "withdrawRedNotice",
      "outputs": [],
      "stateMutability": "nonpayable",
      "type": "function"
    }
  ],
  "bytecode": "0x60806040523480156200001157600080fd5b506040518060400160405280600a81526020017f526564204e6f74696365000000000000000000000000000000000000000000008152506040518060400160405280600281526020017f524e000000000000000000000000000000000000000000000000000000000000815250816000908051906020019062000096929190620001a6565b508060019080519060200190620000af929190620001a6565b505050620000d2620000c6620000d860201b60201c565b620000e060201b60201c565b620002ba565b600033905090565b6000600660009054906101000a900473ffffffffffffffffffffffffffffffffffffffff16905081600660006101000a81548173ffffffffffffffffffffffffffffffffffffffff021916908373ffffffffffffffffffffffffffffffffffffffff1602179055508173ffffffffffffffffffffffffffffffffffffffff168173ffffffffffffffffffffffffffffffffffffffff167f8be0079c531659141344cd1fd0a4f28419497f9722a3daafe3b4186f6b6457e060405160405180910390a35050565b828054620001b49062000285565b90600052602060002090601f016020900481019282620001d8576000855562000224565b82601f10620001f357805160ff191683800117855562000224565b8280016001018555821562000224579182015b828111156200022357825182559160200191906001019062000206565b5b50905062000233919062000237565b5090565b5b808211156200025257600081600090555060010162000238565b5090565b7f4e487b7100000000000000000000000000000000000000000000000000000000600052602260045260246000fd5b600060028204905060018216806200029e57607f821691505b602082108103620002b457620002b362000256565b5b50919050565b6146d880620002ca6000396000f3fe608060405234801561001057600080fd5b50600436106101585760003560e01c80638da5cb5b116100c3578063c57413fe1161007c578063c57413fe14610418578063c73bdb7f14610448578063c87b56dd14610464578063d663db4114610494578063e985e9c5146104b0578063f2fde38b146104e057610158565b80638da5cb5b1461033657806395d89b4114610354578063972c98a214610372578063a0eea03e146103a9578063a22cb465146103e0578063b88d4fde146103fc57610158565b806342842e0e1161011557806342842e0e1461024357806360aa24c81461025f5780636352211e14610296578063654c0046146102c657806370a08231146102fc578063715018a61461032c57610158565b806301ffc9a71461015d57806306fdde031461018d578063081812fc146101ab578063095ea7b3146101db57806323b872dd146101f75780633dba9d3614610213575b600080fd5b61017760048036038101906101729190613148565b6104fc565b6040516101849190613190565b60405180910390f35b6101956105de565b6040516101a29190613244565b60405180910390f35b6101c560048036038101906101c0919061329c565b610670565b6040516101d2919061330a565b60405180910390f35b6101f560048036038101906101f09190613351565b6106b6565b005b610211600480360381019061020c9190613391565b6107cd565b005b61022d60048036038101906102289190613519565b61082d565b60405161023a919061362f565b60405180910390f35b61025d60048036038101906102589190613391565b6109bd565b005b6102796004803603810190610274919061329c565b6109dd565b60405161028d989796959493929190613659565b60405180910390f35b6102b060048036038101906102ab919061329c565b610c52565b6040516102bd919061330a565b60405180910390f35b6102e060048036038101906102db919061329c565b610d03565b6040516102f397969594939291906136f3565b60405180910390f35b6103166004803603810190610311919061377e565b61105b565b60405161032391906137ab565b60405180910390f35b610334611112565b005b61033e611126565b60405161034b919061330a565b60405180910390f35b61035c611150565b6040516103699190613244565b60405180910390f35b61038c600480360381019061038791906137f2565b6111e2565b6040516103a0989796959493929190613659565b60405180910390f35b6103c360048036038101906103be919061329c565b611457565b6040516103d7989796959493929190613659565b60405180910390f35b6103fa60048036038101906103f5919061384b565b6116dc565b005b6104166004803603810190610411919061392c565b6116f2565b005b610432600480360381019061042d919061329c565b611754565b60405161043f919061362f565b60405180910390f35b610462600480360381019061045d919061329c565b61176c565b005b61047e6004803603810190610479919061329c565b6117d1565b60405161048b9190613244565b60405180910390f35b6104ae60048036038101906104a991906137f2565b611839565b005b6104ca60048036038101906104c591906139af565b611dbd565b6040516104d79190613190565b60405180910390f35b6104fa60048036038101906104f5919061377e565b611e51565b005b60007f80ac58cd000000000000000000000000000000000000000000000000000000007bffffffffffffffffffffffffffffffffffffffffffffffffffffffff1916827bffffffffffffffffffffffffffffffffffffffffffffffffffffffff191614806105c757507f5b5e139f000000000000000000000000000000000000000000000000000000007bffffffffffffffffffffffffffffffffffffffffffffffffffffffff1916827bffffffffffffffffffffffffffffffffffffffffffffffffffffffff1916145b806105d757506105d682611ed4565b5b9050919050565b6060600080546105ed90613a1e565b80601f016020809104026020016040519081016040528092919081815260200182805461061990613a1e565b80156106665780601f1061063b57610100808354040283529160200191610666565b820191906000526020600020905b81548152906001019060200180831161064957829003601f168201915b5050505050905090565b600061067b82611f3e565b6004600083815260200190815260200160002060009054906101000a900473ffffffffffffffffffffffffffffffffffffffff169050919050565b60006106c182610c52565b90508073ffffffffffffffffffffffffffffffffffffffff168373ffffffffffffffffffffffffffffffffffffffff1603610731576040517f08c379a000000000000000000000000000000000000000000000000000000000815260040161072890613ac1565b60405180910390fd5b8073ffffffffffffffffffffffffffffffffffffffff16610750611f89565b73ffffffffffffffffffffffffffffffffffffffff16148061077f575061077e81610779611f89565b611dbd565b5b6107be576040517f08c379a00000000000000000000000000000000000000000000000000000000081526004016107b590613b53565b60405180910390fd5b6107c88383611f91565b505050565b6107de6107d8611f89565b8261204a565b61081d576040517f08c379a000000000000000000000000000000000000000000000000000000000815260040161081490613be5565b60405180910390fd5b6108288383836120df565b505050565b60008087878787874260405160200161084b96959493929190613c62565b60405160208183030381529060405280519060200120905060006040518061010001604052808a815260200189815260200188815260200187815260200186815260200160001515815260200185815260200160008152509050806008600084815260200190815260200160002060008201518160000190805190602001906108d5929190613039565b5060208201518160010190805190602001906108f2929190613039565b50604082015181600201556060820151816003019080519060200190610919929190613039565b506080820151816004015560a08201518160050160006101000a81548160ff02191690831515021790555060c0820151816006019080519060200190610960929190613039565b5060e08201518160070155905050817f0c2a3c692a36243fbfb8dbbfcd316f82cb02a0c9788feb351d17e4e44a5dba698a8a8a8a8a6040516109a6959493929190613cc6565b60405180910390a281925050509695505050505050565b6109d8838383604051806020016040528060008152506116f2565b505050565b600a602052806000526040600020600091509050806000018054610a0090613a1e565b80601f0160208091040260200160405190810160405280929190818152602001828054610a2c90613a1e565b8015610a795780601f10610a4e57610100808354040283529160200191610a79565b820191906000526020600020905b815481529060010190602001808311610a5c57829003601f168201915b505050505090806001018054610a8e90613a1e565b80601f0160208091040260200160405190810160405280929190818152602001828054610aba90613a1e565b8015610b075780601f10610adc57610100808354040283529160200191610b07565b820191906000526020600020905b815481529060010190602001808311610aea57829003601f168201915b505050505090806002015490806003018054610b2290613a1e565b80601f0160208091040260200160405190810160405280929190818152602001828054610b4e90613a1e565b8015610b9b5780601f10610b7057610100808354040283529160200191610b9b565b820191906000526020600020905b815481529060010190602001808311610b7e57829003601f168201915b5050505050908060040154908060050160009054906101000a900460ff1690806006018054610bc990613a1e565b80601f0160208091040260200160405190810160405280929190818152602001828054610bf590613a1e565b8015610c425780601f10610c1757610100808354040283529160200191610c42565b820191906000526020600020905b815481529060010190602001808311610c2557829003601f168201915b5050505050908060070154905088565b6000806002600084815260200190815260200160002060009054906101000a900473ffffffffffffffffffffffffffffffffffffffff169050600073ffffffffffffffffffffffffffffffffffffffff168173ffffffffffffffffffffffffffffffffffffffff1603610cfa576040517f08c379a0000000000000000000000000000000000000000000000000000000008152600401610cf190613d7a565b60405180910390fd5b80915050919050565b6060806000606060006060600080600a60008a81526020019081526020016000206007015403610d68576040517f08c379a0000000000000000000000000000000000000000000000000000000008152600401610d5f90613e0c565b60405180910390fd5b600a6000898152602001908152602001600020600001600a60008a8152602001908152602001600020600101600a60008b815260200190815260200160002060020154600a60008c8152602001908152602001600020600301600a60008d815260200190815260200160002060050160009054906101000a900460ff16600a60008e8152602001908152602001600020600601600a60008f815260200190815260200160002060070154868054610e1e90613a1e565b80601f0160208091040260200160405190810160405280929190818152602001828054610e4a90613a1e565b8015610e975780601f10610e6c57610100808354040283529160200191610e97565b820191906000526020600020905b815481529060010190602001808311610e7a57829003601f168201915b50505050509650858054610eaa90613a1e565b80601f0160208091040260200160405190810160405280929190818152602001828054610ed690613a1e565b8015610f235780601f10610ef857610100808354040283529160200191610f23565b820191906000526020600020905b815481529060010190602001808311610f0657829003601f168201915b50505050509550838054610f3690613a1e565b80601f0160208091040260200160405190810160405280929190818152602001828054610f6290613a1e565b8015610faf5780601f10610f8457610100808354040283529160200191610faf565b820191906000526020600020905b815481529060010190602001808311610f9257829003601f168201915b50505050509350818054610fc290613a1e565b80601f0160208091040260200160405190810160405280929190818152602001828054610fee90613a1e565b801561103b5780601f106110105761010080835404028352916020019161103b565b820191906000526020600020905b81548152906001019060200180831161101e57829003601f168201915b505050505091509650965096509650965096509650919395979092949650565b60008073ffffffffffffffffffffffffffffffffffffffff168273ffffffffffffffffffffffffffffffffffffffff16036110cb576040517f08c379a00000000000000000000000000000000000000000000000000000000081526004016110c290613e9e565b60405180910390fd5b600360008373ffffffffffffffffffffffffffffffffffffffff1673ffffffffffffffffffffffffffffffffffffffff168152602001908152602001600020549050919050565b61111a612345565b61112460006123c3565b565b6000600660009054906101000a900473ffffffffffffffffffffffffffffffffffffffff16905090565b60606001805461115f90613a1e565b80601f016020809104026020016040519081016040528092919081815260200182805461118b90613a1e565b80156111d85780601f106111ad576101008083540402835291602001916111d8565b820191906000526020600020905b8154815290600101906020018083116111bb57829003601f168201915b5050505050905090565b600860205280600052604060002060009150905080600001805461120590613a1e565b80601f016020809104026020016040519081016040528092919081815260200182805461123190613a1e565b801561127e5780601f106112535761010080835404028352916020019161127e565b820191906000526020600020905b81548152906001019060200180831161126157829003601f168201915b50505050509080600101805461129390613a1e565b80601f01602080910402602001604051908101604052809291908181526020018280546112bf90613a1e565b801561130c5780601f106112e15761010080835404028352916020019161130c565b820191906000526020600020905b8154815290600101906020018083116112ef57829003601f168201915b50505050509080600201549080600301805461132790613a1e565b80601f016020809104026020016040519081016040528092919081815260200182805461135390613a1e565b80156113a05780601f10611375576101008083540402835291602001916113a0565b820191906000526020600020905b81548152906001019060200180831161138357829003601f168201915b5050505050908060040154908060050160009054906101000a900460ff16908060060180546113ce90613a1e565b80601f01602080910402602001604051908101604052809291908181526020018280546113fa90613a1e565b80156114475780601f1061141c57610100808354040283529160200191611447565b820191906000526020600020905b81548152906001019060200180831161142a57829003601f168201915b5050505050908060070154905088565b600b818154811061146757600080fd5b906000526020600020906008020160009150905080600001805461148a90613a1e565b80601f01602080910402602001604051908101604052809291908181526020018280546114b690613a1e565b80156115035780601f106114d857610100808354040283529160200191611503565b820191906000526020600020905b8154815290600101906020018083116114e657829003601f168201915b50505050509080600101805461151890613a1e565b80601f016020809104026020016040519081016040528092919081815260200182805461154490613a1e565b80156115915780601f1061156657610100808354040283529160200191611591565b820191906000526020600020905b81548152906001019060200180831161157457829003601f168201915b5050505050908060020154908060030180546115ac90613a1e565b80601f01602080910402602001604051908101604052809291908181526020018280546115d890613a1e565b80156116255780601f106115fa57610100808354040283529160200191611625565b820191906000526020600020905b81548152906001019060200180831161160857829003601f168201915b5050505050908060040154908060050160009054906101000a900460ff169080600601805461165390613a1e565b80601f016020809104026020016040519081016040528092919081815260200182805461167f90613a1e565b80156116cc5780601f106116a1576101008083540402835291602001916116cc565b820191906000526020600020905b8154815290600101906020018083116116af57829003601f168201915b5050505050908060070154905088565b6116ee6116e7611f89565b8383612489565b5050565b6117036116fd611f89565b8361204a565b611742576040517f08c379a000000000000000000000000000000000000000000000000000000000815260040161173990613be5565b60405180910390fd5b61174e848484846125f5565b50505050565b60096020528060005260406000206000915090505481565b6000600a600083815260200190815260200160002060070154036117c5576040517f08c379a00000000000000000000000000000000000000000000000000000000081526004016117bc90613e0c565b60405180910390fd5b6117ce81612651565b50565b60606117dc82611f3e565b60006117e661276e565b905060008151116118065760405180602001604052806000815250611831565b8061181084612785565b604051602001611821929190613ebe565b6040516020818303038152906040525b915050919050565b60006008600083815260200190815260200160002090506000816002015411801561187357508060050160009054906101000a900460ff16155b6118b2576040517f08c379a00000000000000000000000000000000000000000000000000000000081526004016118a990613f54565b60405180910390fd5b60006119e08260010180546118c690613a1e565b80601f01602080910402602001604051908101604052809291908181526020018280546118f290613a1e565b801561193f5780601f106119145761010080835404028352916020019161193f565b820191906000526020600020905b81548152906001019060200180831161192257829003601f168201915b5050505050836002015484600301805461195890613a1e565b80601f016020809104026020016040519081016040528092919081815260200182805461198490613a1e565b80156119d15780601f106119a6576101008083540402835291602001916119d1565b820191906000526020600020905b8154815290600101906020018083116119b457829003601f168201915b505050505085600401546128e5565b905060148111611a25576040517f08c379a0000000000000000000000000000000000000000000000000000000008152600401611a1c90613fe6565b60405180910390fd5b6000611a316007612ba3565b9050611a3d6007612bb1565b6000604051806101000160405280856000018054611a5a90613a1e565b80601f0160208091040260200160405190810160405280929190818152602001828054611a8690613a1e565b8015611ad35780601f10611aa857610100808354040283529160200191611ad3565b820191906000526020600020905b815481529060010190602001808311611ab657829003601f168201915b50505050508152602001856001018054611aec90613a1e565b80601f0160208091040260200160405190810160405280929190818152602001828054611b1890613a1e565b8015611b655780601f10611b3a57610100808354040283529160200191611b65565b820191906000526020600020905b815481529060010190602001808311611b4857829003601f168201915b5050505050815260200185600201548152602001856003018054611b8890613a1e565b80601f0160208091040260200160405190810160405280929190818152602001828054611bb490613a1e565b8015611c015780601f10611bd657610100808354040283529160200191611c01565b820191906000526020600020905b815481529060010190602001808311611be457829003601f168201915b5050505050815260200185600401548152602001600115158152602001856006018054611c2d90613a1e565b80601f0160208091040260200160405190810160405280929190818152602001828054611c5990613a1e565b8015611ca65780601f10611c7b57610100808354040283529160200191611ca6565b820191906000526020600020905b815481529060010190602001808311611c8957829003601f168201915b5050505050815260200183815250905080600a60008481526020019081526020016000206000820151816000019080519060200190611ce6929190613039565b506020820151816001019080519060200190611d03929190613039565b50604082015181600201556060820151816003019080519060200190611d2a929190613039565b506080820151816004015560a08201518160050160006101000a81548160ff02191690831515021790555060c0820151816006019080519060200190611d71929190613039565b5060e08201518160070155905050611d893383612bc7565b847f4da4b094916dab66f9cd7c17d3993e239945c0d845cadff512f5613e1e76b5b660405160405180910390a25050505050565b6000600560008473ffffffffffffffffffffffffffffffffffffffff1673ffffffffffffffffffffffffffffffffffffffff16815260200190815260200160002060008373ffffffffffffffffffffffffffffffffffffffff1673ffffffffffffffffffffffffffffffffffffffff16815260200190815260200160002060009054906101000a900460ff16905092915050565b611e59612345565b600073ffffffffffffffffffffffffffffffffffffffff168173ffffffffffffffffffffffffffffffffffffffff1603611ec8576040517f08c379a0000000000000000000000000000000000000000000000000000000008152600401611ebf90614078565b60405180910390fd5b611ed1816123c3565b50565b60007f01ffc9a7000000000000000000000000000000000000000000000000000000007bffffffffffffffffffffffffffffffffffffffffffffffffffffffff1916827bffffffffffffffffffffffffffffffffffffffffffffffffffffffff1916149050919050565b611f4781612be5565b611f86576040517f08c379a0000000000000000000000000000000000000000000000000000000008152600401611f7d90613d7a565b60405180910390fd5b50565b600033905090565b816004600083815260200190815260200160002060006101000a81548173ffffffffffffffffffffffffffffffffffffffff021916908373ffffffffffffffffffffffffffffffffffffffff160217905550808273ffffffffffffffffffffffffffffffffffffffff1661200483610c52565b73ffffffffffffffffffffffffffffffffffffffff167f8c5be1e5ebec7d5bd14f71427d1e84f3dd0314c0f7b2291e5b200ac8c7c3b92560405160405180910390a45050565b60008061205683610c52565b90508073ffffffffffffffffffffffffffffffffffffffff168473ffffffffffffffffffffffffffffffffffffffff16148061209857506120978185611dbd565b5b806120d657508373ffffffffffffffffffffffffffffffffffffffff166120be84610670565b73ffffffffffffffffffffffffffffffffffffffff16145b91505092915050565b8273ffffffffffffffffffffffffffffffffffffffff166120ff82610c52565b73ffffffffffffffffffffffffffffffffffffffff1614612155576040517f08c379a000000000000000000000000000000000000000000000000000000000815260040161214c9061410a565b60405180910390fd5b600073ffffffffffffffffffffffffffffffffffffffff168273ffffffffffffffffffffffffffffffffffffffff16036121c4576040517f08c379a00000000000000000000000000000000000000000000000000000000081526004016121bb9061419c565b60405180910390fd5b6121cf838383612c51565b6121da600082611f91565b6001600360008573ffffffffffffffffffffffffffffffffffffffff1673ffffffffffffffffffffffffffffffffffffffff168152602001908152602001600020600082825461222a91906141eb565b925050819055506001600360008473ffffffffffffffffffffffffffffffffffffffff1673ffffffffffffffffffffffffffffffffffffffff1681526020019081526020016000206000828254612281919061421f565b92505081905550816002600083815260200190815260200160002060006101000a81548173ffffffffffffffffffffffffffffffffffffffff021916908373ffffffffffffffffffffffffffffffffffffffff160217905550808273ffffffffffffffffffffffffffffffffffffffff168473ffffffffffffffffffffffffffffffffffffffff167fddf252ad1be2c89b69c2b068fc378daa952ba7f163c4a11628f55a4df523b3ef60405160405180910390a4612340838383612c56565b505050565b61234d611f89565b73ffffffffffffffffffffffffffffffffffffffff1661236b611126565b73ffffffffffffffffffffffffffffffffffffffff16146123c1576040517f08c379a00000000000000000000000000000000000000000000000000000000081526004016123b8906142c1565b60405180910390fd5b565b6000600660009054906101000a900473ffffffffffffffffffffffffffffffffffffffff16905081600660006101000a81548173ffffffffffffffffffffffffffffffffffffffff021916908373ffffffffffffffffffffffffffffffffffffffff1602179055508173ffffffffffffffffffffffffffffffffffffffff168173ffffffffffffffffffffffffffffffffffffffff167f8be0079c531659141344cd1fd0a4f28419497f9722a3daafe3b4186f6b6457e060405160405180910390a35050565b8173ffffffffffffffffffffffffffffffffffffffff168373ffffffffffffffffffffffffffffffffffffffff16036124f7576040517f08c379a00000000000000000000000000000000000000000000000000000000081526004016124ee9061432d565b60405180910390fd5b80600560008573ffffffffffffffffffffffffffffffffffffffff1673ffffffffffffffffffffffffffffffffffffffff16815260200190815260200160002060008473ffffffffffffffffffffffffffffffffffffffff1673ffffffffffffffffffffffffffffffffffffffff16815260200190815260200160002060006101000a81548160ff0219169083151502179055508173ffffffffffffffffffffffffffffffffffffffff168373ffffffffffffffffffffffffffffffffffffffff167f17307eab39ab6107e8899845ad3d59bd9653f200f220920489ca2b5937696c31836040516125e89190613190565b60405180910390a3505050565b6126008484846120df565b61260c84848484612c5b565b61264b576040517f08c379a0000000000000000000000000000000000000000000000000000000008152600401612642906143bf565b60405180910390fd5b50505050565b600061265c82610c52565b905061266a81600084612c51565b612675600083611f91565b6001600360008373ffffffffffffffffffffffffffffffffffffffff1673ffffffffffffffffffffffffffffffffffffffff16815260200190815260200160002060008282546126c591906141eb565b925050819055506002600083815260200190815260200160002060006101000a81549073ffffffffffffffffffffffffffffffffffffffff021916905581600073ffffffffffffffffffffffffffffffffffffffff168273ffffffffffffffffffffffffffffffffffffffff167fddf252ad1be2c89b69c2b068fc378daa952ba7f163c4a11628f55a4df523b3ef60405160405180910390a461276a81600084612c56565b5050565b606060405180602001604052806000815250905090565b6060600082036127cc576040518060400160405280600181526020017f300000000000000000000000000000000000000000000000000000000000000081525090506128e0565b600082905060005b600082146127fe5780806127e7906143df565b915050600a826127f79190614456565b91506127d4565b60008167ffffffffffffffff81111561281a576128196133ee565b5b6040519080825280601f01601f19166020018201604052801561284c5781602001600182028036833780820191505090505b5090505b600085146128d95760018261286591906141eb565b9150600a856128749190614487565b6030612880919061421f565b60f81b818381518110612896576128956144b8565b5b60200101907effffffffffffffffffffffffffffffffffffffffffffffffffffffffffffff1916908160001a905350600a856128d29190614456565b9450612850565b8093505050505b919050565b6000806040518060400160405280600d81526020017f556e6974656420537461746573000000000000000000000000000000000000008152508051906020012086805190602001200361293b57600590506129e8565b6040518060400160405280600681526020017f52757373696100000000000000000000000000000000000000000000000000008152508051906020012086805190602001200361298e57600a90506129e7565b6040518060400160405280600581526020017f4368696e61000000000000000000000000000000000000000000000000000000815250805190602001208680519060200120036129e157600f90506129e6565b601490505b5b5b600060148610156129fc5760059050612a27565b601e861015612a0e57600a9050612a26565b6028861015612a2057600f9050612a25565b601490505b5b5b60006040518060400160405280601081526020017f4d6f6e6579204c61756e646572696e670000000000000000000000000000000081525080519060200120868051906020012003612a7c5760059050612b29565b6040518060400160405280600581526020017f467261756400000000000000000000000000000000000000000000000000000081525080519060200120868051906020012003612acf57600a9050612b28565b6040518060400160405280601081526020017f4472756720547261666669636b696e670000000000000000000000000000000081525080519060200120868051906020012003612b2257600f9050612b27565b601490505b5b5b6000612710861015612b3e5760059050612b6d565b620186a0861015612b5257600a9050612b6c565b620f4240861015612b6657600f9050612b6b565b601490505b5b5b600081838587612b7d919061421f565b612b87919061421f565b612b91919061421f565b90508095505050505050949350505050565b600081600001549050919050565b6001816000016000828254019250508190555050565b612be1828260405180602001604052806000815250612de2565b5050565b60008073ffffffffffffffffffffffffffffffffffffffff166002600084815260200190815260200160002060009054906101000a900473ffffffffffffffffffffffffffffffffffffffff1673ffffffffffffffffffffffffffffffffffffffff1614159050919050565b505050565b505050565b6000612c7c8473ffffffffffffffffffffffffffffffffffffffff16612e3d565b15612dd5578373ffffffffffffffffffffffffffffffffffffffff1663150b7a02612ca5611f89565b8786866040518563ffffffff1660e01b8152600401612cc7949392919061453c565b6020604051808303816000875af1925050508015612d0357506040513d601f19601f82011682018060405250810190612d00919061459d565b60015b612d85573d8060008114612d33576040519150601f19603f3d011682016040523d82523d6000602084013e612d38565b606091505b506000815103612d7d576040517f08c379a0000000000000000000000000000000000000000000000000000000008152600401612d74906143bf565b60405180910390fd5b805181602001fd5b63150b7a0260e01b7bffffffffffffffffffffffffffffffffffffffffffffffffffffffff1916817bffffffffffffffffffffffffffffffffffffffffffffffffffffffff191614915050612dda565b600190505b949350505050565b612dec8383612e60565b612df96000848484612c5b565b612e38576040517f08c379a0000000000000000000000000000000000000000000000000000000008152600401612e2f906143bf565b60405180910390fd5b505050565b6000808273ffffffffffffffffffffffffffffffffffffffff163b119050919050565b600073ffffffffffffffffffffffffffffffffffffffff168273ffffffffffffffffffffffffffffffffffffffff1603612ecf576040517f08c379a0000000000000000000000000000000000000000000000000000000008152600401612ec690614616565b60405180910390fd5b612ed881612be5565b15612f18576040517f08c379a0000000000000000000000000000000000000000000000000000000008152600401612f0f90614682565b60405180910390fd5b612f2460008383612c51565b6001600360008473ffffffffffffffffffffffffffffffffffffffff1673ffffffffffffffffffffffffffffffffffffffff1681526020019081526020016000206000828254612f74919061421f565b92505081905550816002600083815260200190815260200160002060006101000a81548173ffffffffffffffffffffffffffffffffffffffff021916908373ffffffffffffffffffffffffffffffffffffffff160217905550808273ffffffffffffffffffffffffffffffffffffffff16600073ffffffffffffffffffffffffffffffffffffffff167fddf252ad1be2c89b69c2b068fc378daa952ba7f163c4a11628f55a4df523b3ef60405160405180910390a461303560008383612c56565b5050565b82805461304590613a1e565b90600052602060002090601f01602090048101928261306757600085556130ae565b82601f1061308057805160ff19168380011785556130ae565b828001600101855582156130ae579182015b828111156130ad578251825591602001919060010190613092565b5b5090506130bb91906130bf565b5090565b5b808211156130d85760008160009055506001016130c0565b5090565b6000604051905090565b600080fd5b600080fd5b60007fffffffff0000000000000000000000000000000000000000000000000000000082169050919050565b613125816130f0565b811461313057600080fd5b50565b6000813590506131428161311c565b92915050565b60006020828403121561315e5761315d6130e6565b5b600061316c84828501613133565b91505092915050565b60008115159050919050565b61318a81613175565b82525050565b60006020820190506131a56000830184613181565b92915050565b600081519050919050565b600082825260208201905092915050565b60005b838110156131e55780820151818401526020810190506131ca565b838111156131f4576000848401525b50505050565b6000601f19601f8301169050919050565b6000613216826131ab565b61322081856131b6565b93506132308185602086016131c7565b613239816131fa565b840191505092915050565b6000602082019050818103600083015261325e818461320b565b905092915050565b6000819050919050565b61327981613266565b811461328457600080fd5b50565b60008135905061329681613270565b92915050565b6000602082840312156132b2576132b16130e6565b5b60006132c084828501613287565b91505092915050565b600073ffffffffffffffffffffffffffffffffffffffff82169050919050565b60006132f4826132c9565b9050919050565b613304816132e9565b82525050565b600060208201905061331f60008301846132fb565b92915050565b61332e816132e9565b811461333957600080fd5b50565b60008135905061334b81613325565b92915050565b60008060408385031215613368576133676130e6565b5b60006133768582860161333c565b925050602061338785828601613287565b9150509250929050565b6000806000606084860312156133aa576133a96130e6565b5b60006133b88682870161333c565b93505060206133c98682870161333c565b92505060406133da86828701613287565b9150509250925092565b600080fd5b600080fd5b7f4e487b7100000000000000000000000000000000000000000000000000000000600052604160045260246000fd5b613426826131fa565b810181811067ffffffffffffffff82111715613445576134446133ee565b5b80604052505050565b60006134586130dc565b9050613464828261341d565b919050565b600067ffffffffffffffff821115613484576134836133ee565b5b61348d826131fa565b9050602081019050919050565b82818337600083830152505050565b60006134bc6134b784613469565b61344e565b9050828152602081018484840111156134d8576134d76133e9565b5b6134e384828561349a565b509392505050565b600082601f830112613500576134ff6133e4565b5b81356135108482602086016134a9565b91505092915050565b60008060008060008060c08789031215613536576135356130e6565b5b600087013567ffffffffffffffff811115613554576135536130eb565b5b61356089828a016134eb565b965050602087013567ffffffffffffffff811115613581576135806130eb565b5b61358d89828a016134eb565b955050604061359e89828a01613287565b945050606087013567ffffffffffffffff8111156135bf576135be6130eb565b5b6135cb89828a016134eb565b93505060806135dc89828a01613287565b92505060a087013567ffffffffffffffff8111156135fd576135fc6130eb565b5b61360989828a016134eb565b9150509295509295509295565b6000819050919050565b61362981613616565b82525050565b60006020820190506136446000830184613620565b92915050565b61365381613266565b82525050565b6000610100820190508181036000830152613674818b61320b565b90508181036020830152613688818a61320b565b9050613697604083018961364a565b81810360608301526136a9818861320b565b90506136b8608083018761364a565b6136c560a0830186613181565b81810360c08301526136d7818561320b565b90506136e660e083018461364a565b9998505050505050505050565b600060e082019050818103600083015261370d818a61320b565b90508181036020830152613721818961320b565b9050613730604083018861364a565b8181036060830152613742818761320b565b90506137516080830186613181565b81810360a0830152613763818561320b565b905061377260c083018461364a565b98975050505050505050565b600060208284031215613794576137936130e6565b5b60006137a28482850161333c565b91505092915050565b60006020820190506137c0600083018461364a565b92915050565b6137cf81613616565b81146137da57600080fd5b50565b6000813590506137ec816137c6565b92915050565b600060208284031215613808576138076130e6565b5b6000613816848285016137dd565b91505092915050565b61382881613175565b811461383357600080fd5b50565b6000813590506138458161381f565b92915050565b60008060408385031215613862576138616130e6565b5b60006138708582860161333c565b925050602061388185828601613836565b9150509250929050565b600067ffffffffffffffff8211156138a6576138a56133ee565b5b6138af826131fa565b9050602081019050919050565b60006138cf6138ca8461388b565b61344e565b9050828152602081018484840111156138eb576138ea6133e9565b5b6138f684828561349a565b509392505050565b600082601f830112613913576139126133e4565b5b81356139238482602086016138bc565b91505092915050565b60008060008060808587031215613946576139456130e6565b5b60006139548782880161333c565b94505060206139658782880161333c565b935050604061397687828801613287565b925050606085013567ffffffffffffffff811115613997576139966130eb565b5b6139a3878288016138fe565b91505092959194509250565b600080604083850312156139c6576139c56130e6565b5b60006139d48582860161333c565b92505060206139e58582860161333c565b9150509250929050565b7f4e487b7100000000000000000000000000000000000000000000000000000000600052602260045260246000fd5b60006002820490506001821680613a3657607f821691505b602082108103613a4957613a486139ef565b5b50919050565b7f4552433732313a20617070726f76616c20746f2063757272656e74206f776e6560008201527f7200000000000000000000000000000000000000000000000000000000000000602082015250565b6000613aab6021836131b6565b9150613ab682613a4f565b604082019050919050565b60006020820190508181036000830152613ada81613a9e565b9050919050565b7f4552433732313a20617070726f76652063616c6c6572206973206e6f7420746f60008201527f6b656e206f776e6572206e6f7220617070726f76656420666f7220616c6c0000602082015250565b6000613b3d603e836131b6565b9150613b4882613ae1565b604082019050919050565b60006020820190508181036000830152613b6c81613b30565b9050919050565b7f4552433732313a2063616c6c6572206973206e6f7420746f6b656e206f776e6560008201527f72206e6f7220617070726f766564000000000000000000000000000000000000602082015250565b6000613bcf602e836131b6565b9150613bda82613b73565b604082019050919050565b60006020820190508181036000830152613bfe81613bc2565b9050919050565b600081905092915050565b6000613c1b826131ab565b613c258185613c05565b9350613c358185602086016131c7565b80840191505092915050565b6000819050919050565b613c5c613c5782613266565b613c41565b82525050565b6000613c6e8289613c10565b9150613c7a8288613c10565b9150613c868287613c4b565b602082019150613c968286613c10565b9150613ca28285613c4b565b602082019150613cb28284613c4b565b602082019150819050979650505050505050565b600060a0820190508181036000830152613ce0818861320b565b90508181036020830152613cf4818761320b565b9050613d03604083018661364a565b8181036060830152613d15818561320b565b9050613d24608083018461364a565b9695505050505050565b7f4552433732313a20696e76616c696420746f6b656e2049440000000000000000600082015250565b6000613d646018836131b6565b9150613d6f82613d2e565b602082019050919050565b60006020820190508181036000830152613d9381613d57565b9050919050565b7f697420646f65736e2774206d6174636820616e79206372696d696e616c20696e60008201527f666f000000000000000000000000000000000000000000000000000000000000602082015250565b6000613df66022836131b6565b9150613e0182613d9a565b604082019050919050565b60006020820190508181036000830152613e2581613de9565b9050919050565b7f4552433732313a2061646472657373207a65726f206973206e6f74206120766160008201527f6c6964206f776e65720000000000000000000000000000000000000000000000602082015250565b6000613e886029836131b6565b9150613e9382613e2c565b604082019050919050565b60006020820190508181036000830152613eb781613e7b565b9050919050565b6000613eca8285613c10565b9150613ed68284613c10565b91508190509392505050565b7f496e76616c69642072657175657374204944206f7220726564206e6f7469636560008201527f20616c7265616479206973737565640000000000000000000000000000000000602082015250565b6000613f3e602f836131b6565b9150613f4982613ee2565b604082019050919050565b60006020820190508181036000830152613f6d81613f31565b9050919050565b7f466c6565696e67207269736b20697320746f6f206c6f7720746f20697373756560008201527f206120726564206e6f7469636500000000000000000000000000000000000000602082015250565b6000613fd0602d836131b6565b9150613fdb82613f74565b604082019050919050565b60006020820190508181036000830152613fff81613fc3565b9050919050565b7f4f776e61626c653a206e6577206f776e657220697320746865207a65726f206160008201527f6464726573730000000000000000000000000000000000000000000000000000602082015250565b60006140626026836131b6565b915061406d82614006565b604082019050919050565b6000602082019050818103600083015261409181614055565b9050919050565b7f4552433732313a207472616e736665722066726f6d20696e636f72726563742060008201527f6f776e6572000000000000000000000000000000000000000000000000000000602082015250565b60006140f46025836131b6565b91506140ff82614098565b604082019050919050565b60006020820190508181036000830152614123816140e7565b9050919050565b7f4552433732313a207472616e7366657220746f20746865207a65726f2061646460008201527f7265737300000000000000000000000000000000000000000000000000000000602082015250565b60006141866024836131b6565b91506141918261412a565b604082019050919050565b600060208201905081810360008301526141b581614179565b9050919050565b7f4e487b7100000000000000000000000000000000000000000000000000000000600052601160045260246000fd5b60006141f682613266565b915061420183613266565b925082821015614214576142136141bc565b5b828203905092915050565b600061422a82613266565b915061423583613266565b9250827fffffffffffffffffffffffffffffffffffffffffffffffffffffffffffffffff0382111561426a576142696141bc565b5b828201905092915050565b7f4f776e61626c653a2063616c6c6572206973206e6f7420746865206f776e6572600082015250565b60006142ab6020836131b6565b91506142b682614275565b602082019050919050565b600060208201905081810360008301526142da8161429e565b9050919050565b7f4552433732313a20617070726f766520746f2063616c6c657200000000000000600082015250565b60006143176019836131b6565b9150614322826142e1565b602082019050919050565b600060208201905081810360008301526143468161430a565b9050919050565b7f4552433732313a207472616e7366657220746f206e6f6e20455243373231526560008201527f63656976657220696d706c656d656e7465720000000000000000000000000000602082015250565b60006143a96032836131b6565b91506143b48261434d565b604082019050919050565b600060208201905081810360008301526143d88161439c565b9050919050565b60006143ea82613266565b91507fffffffffffffffffffffffffffffffffffffffffffffffffffffffffffffffff820361441c5761441b6141bc565b5b600182019050919050565b7f4e487b7100000000000000000000000000000000000000000000000000000000600052601260045260246000fd5b600061446182613266565b915061446c83613266565b92508261447c5761447b614427565b5b828204905092915050565b600061449282613266565b915061449d83613266565b9250826144ad576144ac614427565b5b828206905092915050565b7f4e487b7100000000000000000000000000000000000000000000000000000000600052603260045260246000fd5b600081519050919050565b600082825260208201905092915050565b600061450e826144e7565b61451881856144f2565b93506145288185602086016131c7565b614531816131fa565b840191505092915050565b600060808201905061455160008301876132fb565b61455e60208301866132fb565b61456b604083018561364a565b818103606083015261457d8184614503565b905095945050505050565b6000815190506145978161311c565b92915050565b6000602082840312156145b3576145b26130e6565b5b60006145c184828501614588565b91505092915050565b7f4552433732313a206d696e7420746f20746865207a65726f2061646472657373600082015250565b60006146006020836131b6565b915061460b826145ca565b602082019050919050565b6000602082019050818103600083015261462f816145f3565b9050919050565b7f4552433732313a20746f6b656e20616c7265616479206d696e74656400000000600082015250565b600061466c601c836131b6565b915061467782614636565b602082019050919050565b6000602082019050818103600083015261469b8161465f565b905091905056fea26469706673582212201b5bf7945942c2940ed1352edd6acad75a9c0403b4745ac5603fbdcb2e38d3ea64736f6c634300080e0033",
  "immutableReferences": {},
  "source": "// SPDX-License-Identifier: MIT\r\npragma solidity ^0.8.0;\r\nimport \"./token/ERC721/ERC721.sol\";\r\nimport \"./access/Ownable.sol\";\r\nimport \"./utils/Counters.sol\";\r\n\r\ncontract RedNotice is ERC721, Ownable {\r\n    using Counters for Counters.Counter;\r\n\r\n    Counters.Counter private _tokenIdCounter;\r\n\r\n    //   \r\n    struct Criminal {\r\n        string name;\r\n        string nationality;\r\n        uint256 age;\r\n        string crime;\r\n        uint256 amount;\r\n        bool redNoticeIssued;\r\n        string discriptors;\r\n        uint256 tokenId; // token ID \r\n    }\r\n\r\n    //   \r\n    mapping(bytes32 => Criminal) public criminals;\r\n\r\n    // token ID     ()\r\n    mapping(uint256 => bytes32) public tokenIdToRequest;\r\n\r\n    //   \r\n    event RequestReceived(\r\n        bytes32 indexed requestId,\r\n        string name,\r\n        string nationality,\r\n        uint256 age,\r\n        string crime,\r\n        uint256 amount\r\n    );\r\n\r\n    //   \r\n    event RedNoticeIssued(bytes32 indexed requestId);\r\n\r\n    constructor() ERC721(\"Red Notice\", \"RN\") {}\r\n\r\n    mapping(uint256 => Criminal) public _criminalInfoList;\r\n    //    ()\r\n    Criminal[] public criminalList; //  \r\n\r\n    //    \r\n    function processRequest(\r\n        string memory name,\r\n        string memory nationality,\r\n        uint256 age,\r\n        string memory crime,\r\n        uint256 amount,\r\n        string memory discriptors\r\n    ) public returns (bytes32) {\r\n        //  ID \r\n        bytes32 requestId = keccak256(\r\n            abi.encodePacked(\r\n                name,\r\n                nationality,\r\n                age,\r\n                crime,\r\n                amount,\r\n                block.timestamp\r\n            )\r\n        );\r\n        //   \r\n        Criminal memory newCriminal = Criminal(\r\n            name,\r\n            nationality,\r\n            age,\r\n            crime,\r\n            amount,\r\n            false,\r\n            discriptors,\r\n            0\r\n        ); // token ID 0 \r\n        criminals[requestId] = newCriminal;\r\n        //  \r\n        emit RequestReceived(requestId, name, nationality, age, crime, amount);\r\n        //  ID \r\n        return requestId;\r\n    }\r\n\r\n    function calculateFleeingRisk(\r\n        string memory nationality,\r\n        uint256 age,\r\n        string memory crime,\r\n        uint256 amount\r\n    ) internal pure returns (uint) {\r\n        //    \r\n        uint nationalRiskFactor;\r\n        if (\r\n            keccak256(bytes(nationality)) == keccak256(bytes(\"United States\"))\r\n        ) {\r\n            nationalRiskFactor = 5;\r\n        } else if (\r\n            keccak256(bytes(nationality)) == keccak256(bytes(\"Russia\"))\r\n        ) {\r\n            nationalRiskFactor = 10;\r\n        } else if (keccak256(bytes(nationality)) == keccak256(bytes(\"China\"))) {\r\n            nationalRiskFactor = 15;\r\n        } else {\r\n            nationalRiskFactor = 20;\r\n        }\r\n\r\n        //    \r\n        uint256 ageRiskFactor;\r\n        if (age < 20) {\r\n            ageRiskFactor = 5;\r\n        } else if (age < 30) {\r\n            ageRiskFactor = 10;\r\n        } else if (age < 40) {\r\n            ageRiskFactor = 15;\r\n        } else {\r\n            ageRiskFactor = 20;\r\n        }\r\n\r\n        //     \r\n        uint256 crimeRiskFactor;\r\n        if (keccak256(bytes(crime)) == keccak256(bytes(\"Money Laundering\"))) {\r\n            crimeRiskFactor = 5;\r\n        } else if (keccak256(bytes(crime)) == keccak256(bytes(\"Fraud\"))) {\r\n            crimeRiskFactor = 10;\r\n        } else if (\r\n            keccak256(bytes(crime)) == keccak256(bytes(\"Drug Trafficking\"))\r\n        ) {\r\n            crimeRiskFactor = 15;\r\n        } else {\r\n            crimeRiskFactor = 20;\r\n        }\r\n\r\n        //     \r\n        uint256 amountRiskFactor;\r\n        if (amount < 10000) {\r\n            amountRiskFactor = 5;\r\n        } else if (amount < 100000) {\r\n            amountRiskFactor = 10;\r\n        } else if (amount < 1000000) {\r\n            amountRiskFactor = 15;\r\n        } else {\r\n            amountRiskFactor = 20;\r\n        }\r\n\r\n        //    \r\n        uint256 totalRisk = nationalRiskFactor +\r\n            ageRiskFactor +\r\n            crimeRiskFactor +\r\n            amountRiskFactor;\r\n        return totalRisk;\r\n    }\r\n\r\n    //   \r\n    function issueRedNotice(bytes32 requestId) public {\r\n        //     \r\n        Criminal storage criminal = criminals[requestId];\r\n        //      \r\n        require(\r\n            criminal.age > 0 && !criminal.redNoticeIssued,\r\n            \"Invalid request ID or red notice already issued\"\r\n        );\r\n\r\n        //   \r\n        uint256 fleeingRisk = calculateFleeingRisk(\r\n            criminal.nationality,\r\n            criminal.age,\r\n            criminal.crime,\r\n            criminal.amount\r\n        );\r\n        //     \r\n        require(\r\n            fleeingRisk > 20,\r\n            \"Fleeing risk is too low to issue a red notice\"\r\n        );\r\n\r\n        //     \r\n        uint256 tokenId = _tokenIdCounter.current();\r\n        _tokenIdCounter.increment();\r\n\r\n        Criminal memory newCriminal = Criminal({\r\n            name: criminal.name,\r\n            nationality: criminal.nationality,\r\n            age: criminal.age,\r\n            crime: criminal.crime,\r\n            amount: criminal.amount,\r\n            redNoticeIssued: true,\r\n            discriptors:criminal.discriptors,\r\n            tokenId: tokenId\r\n        }); // token ID 0 \r\n        // criminals[requestId] = newCriminal;\r\n        _criminalInfoList[tokenId] = newCriminal;\r\n        //  \r\n        _safeMint(msg.sender, tokenId);\r\n        //  \r\n        emit RedNoticeIssued(requestId);\r\n    }\r\n\r\n    //  ID    \r\n    function getCriminal(\r\n        uint256 tokenId\r\n    )\r\n        public view\r\n        returns (\r\n            string memory,\r\n            string memory,\r\n            uint256,\r\n            string memory,\r\n            bool,\r\n            string memory,\r\n            uint256\r\n        )\r\n    {\r\n        // tokenId bytes32     \r\n        // bytes32 requestId = bytes32(tokenId);\r\n        // Criminal storage criminal = criminals[requestId];\r\n        require(\r\n            _criminalInfoList[tokenId].tokenId != 0,\r\n            \"it doesn't match any criminal info\"\r\n        );\r\n\r\n        //   \r\n        return (\r\n            _criminalInfoList[tokenId].name,\r\n            _criminalInfoList[tokenId].nationality,\r\n            _criminalInfoList[tokenId].age,\r\n            _criminalInfoList[tokenId].crime,\r\n            _criminalInfoList[tokenId].redNoticeIssued,\r\n            _criminalInfoList[tokenId].discriptors,\r\n            _criminalInfoList[tokenId].tokenId\r\n        );\r\n    }\r\n\r\n    //   \r\n    function withdrawRedNotice(uint tokenId) public {\r\n        // tokenId bytes32     \r\n        // bytes32 requestId = bytes32(tokenId);\r\n        // Criminal storage criminal = criminals[requestId];\r\n        //     \r\n        require(\r\n            _criminalInfoList[tokenId].tokenId != 0,\r\n            \"it doesn't match any criminal info\"\r\n        );\r\n\r\n        //  \r\n        // criminal.redNoticeIssued = false;\r\n        //  \r\n        _burn(tokenId);\r\n    }\r\n}\r\n",
  "sourcePath": "C:\\Users\\paete\\CapstonPro\\truffle\\contracts\\RedNotice.sol",
  "compiler": {
    "name": "solc",
    "version": "0.8.14+commit.80d49f37.Emscripten.clang"
  },
  "schemaVersion": "3.4.13",
  "updatedAt": "2023-05-03T08:44:13.006Z",
  "devdoc": {
    "kind": "dev",
    "methods": {
      "approve(address,uint256)": {
        "details": "See {IERC721-approve}."
      },
      "balanceOf(address)": {
        "details": "See {IERC721-balanceOf}."
      },
      "getApproved(uint256)": {
        "details": "See {IERC721-getApproved}."
      },
      "isApprovedForAll(address,address)": {
        "details": "See {IERC721-isApprovedForAll}."
      },
      "name()": {
        "details": "See {IERC721Metadata-name}."
      },
      "owner()": {
        "details": "Returns the address of the current owner."
      },
      "ownerOf(uint256)": {
        "details": "See {IERC721-ownerOf}."
      },
      "renounceOwnership()": {
        "details": "Leaves the contract without owner. It will not be possible to call `onlyOwner` functions anymore. Can only be called by the current owner. NOTE: Renouncing ownership will leave the contract without an owner, thereby removing any functionality that is only available to the owner."
      },
      "safeTransferFrom(address,address,uint256)": {
        "details": "See {IERC721-safeTransferFrom}."
      },
      "safeTransferFrom(address,address,uint256,bytes)": {
        "details": "See {IERC721-safeTransferFrom}."
      },
      "setApprovalForAll(address,bool)": {
        "details": "See {IERC721-setApprovalForAll}."
      },
      "supportsInterface(bytes4)": {
        "details": "See {IERC165-supportsInterface}."
      },
      "symbol()": {
        "details": "See {IERC721Metadata-symbol}."
      },
      "tokenURI(uint256)": {
        "details": "See {IERC721Metadata-tokenURI}."
      },
      "transferFrom(address,address,uint256)": {
        "details": "See {IERC721-transferFrom}."
      },
      "transferOwnership(address)": {
        "details": "Transfers ownership of the contract to a new account (`newOwner`). Can only be called by the current owner."
      }
    },
    "version": 1
  },
  "userdoc": {
    "kind": "user",
    "methods": {},
    "version": 1
  }
}