{
  "contractName": "RedNotice",
  "abi": [
    {
      "inputs": [],
      "stateMutability": "nonpayable",
      "type": "constructor"
    },
    {
      "anonymous": false,
      "inputs": [
        {
          "indexed": true,
          "internalType": "address",
          "name": "owner",
          "type": "address"
        },
        {
          "indexed": true,
          "internalType": "address",
          "name": "approved",
          "type": "address"
        },
        {
          "indexed": true,
          "internalType": "uint256",
          "name": "tokenId",
          "type": "uint256"
        }
      ],
      "name": "Approval",
      "type": "event"
    },
    {
      "anonymous": false,
      "inputs": [
        {
          "indexed": true,
          "internalType": "address",
          "name": "owner",
          "type": "address"
        },
        {
          "indexed": true,
          "internalType": "address",
          "name": "operator",
          "type": "address"
        },
        {
          "indexed": false,
          "internalType": "bool",
          "name": "approved",
          "type": "bool"
        }
      ],
      "name": "ApprovalForAll",
      "type": "event"
    },
    {
      "anonymous": false,
      "inputs": [
        {
          "indexed": true,
          "internalType": "address",
          "name": "previousOwner",
          "type": "address"
        },
        {
          "indexed": true,
          "internalType": "address",
          "name": "newOwner",
          "type": "address"
        }
      ],
      "name": "OwnershipTransferred",
      "type": "event"
    },
    {
      "anonymous": false,
      "inputs": [
        {
          "indexed": true,
          "internalType": "bytes32",
          "name": "requestId",
          "type": "bytes32"
        }
      ],
      "name": "RedNoticeIssued",
      "type": "event"
    },
    {
      "anonymous": false,
      "inputs": [
        {
          "indexed": true,
          "internalType": "bytes32",
          "name": "requestId",
          "type": "bytes32"
        },
        {
          "indexed": false,
          "internalType": "string",
          "name": "name",
          "type": "string"
        },
        {
          "indexed": false,
          "internalType": "string",
          "name": "nationality",
          "type": "string"
        },
        {
          "indexed": false,
          "internalType": "uint256",
          "name": "age",
          "type": "uint256"
        },
        {
          "indexed": false,
          "internalType": "string",
          "name": "crime",
          "type": "string"
        },
        {
          "indexed": false,
          "internalType": "uint256",
          "name": "amount",
          "type": "uint256"
        }
      ],
      "name": "RequestReceived",
      "type": "event"
    },
    {
      "anonymous": false,
      "inputs": [
        {
          "indexed": true,
          "internalType": "address",
          "name": "from",
          "type": "address"
        },
        {
          "indexed": true,
          "internalType": "address",
          "name": "to",
          "type": "address"
        },
        {
          "indexed": true,
          "internalType": "uint256",
          "name": "tokenId",
          "type": "uint256"
        }
      ],
      "name": "Transfer",
      "type": "event"
    },
    {
      "inputs": [
        {
          "internalType": "uint256",
          "name": "",
          "type": "uint256"
        }
      ],
      "name": "_criminalInfoList",
      "outputs": [
        {
          "internalType": "string",
          "name": "name",
          "type": "string"
        },
        {
          "internalType": "string",
          "name": "nationality",
          "type": "string"
        },
        {
          "internalType": "uint256",
          "name": "age",
          "type": "uint256"
        },
        {
          "internalType": "string",
          "name": "crime",
          "type": "string"
        },
        {
          "internalType": "uint256",
          "name": "amount",
          "type": "uint256"
        },
        {
          "internalType": "bool",
          "name": "redNoticeIssued",
          "type": "bool"
        },
        {
          "internalType": "string",
          "name": "discriptors",
          "type": "string"
        },
        {
          "internalType": "uint256",
          "name": "tokenId",
          "type": "uint256"
        }
      ],
      "stateMutability": "view",
      "type": "function"
    },
    {
      "inputs": [
        {
          "internalType": "address",
          "name": "to",
          "type": "address"
        },
        {
          "internalType": "uint256",
          "name": "tokenId",
          "type": "uint256"
        }
      ],
      "name": "approve",
      "outputs": [],
      "stateMutability": "nonpayable",
      "type": "function"
    },
    {
      "inputs": [
        {
          "internalType": "address",
          "name": "owner",
          "type": "address"
        }
      ],
      "name": "balanceOf",
      "outputs": [
        {
          "internalType": "uint256",
          "name": "",
          "type": "uint256"
        }
      ],
      "stateMutability": "view",
      "type": "function"
    },
    {
      "inputs": [
        {
          "internalType": "uint256",
          "name": "",
          "type": "uint256"
        }
      ],
      "name": "criminalList",
      "outputs": [
        {
          "internalType": "string",
          "name": "name",
          "type": "string"
        },
        {
          "internalType": "string",
          "name": "nationality",
          "type": "string"
        },
        {
          "internalType": "uint256",
          "name": "age",
          "type": "uint256"
        },
        {
          "internalType": "string",
          "name": "crime",
          "type": "string"
        },
        {
          "internalType": "uint256",
          "name": "amount",
          "type": "uint256"
        },
        {
          "internalType": "bool",
          "name": "redNoticeIssued",
          "type": "bool"
        },
        {
          "internalType": "string",
          "name": "discriptors",
          "type": "string"
        },
        {
          "internalType": "uint256",
          "name": "tokenId",
          "type": "uint256"
        }
      ],
      "stateMutability": "view",
      "type": "function"
    },
    {
      "inputs": [
        {
          "internalType": "bytes32",
          "name": "",
          "type": "bytes32"
        }
      ],
      "name": "criminals",
      "outputs": [
        {
          "internalType": "string",
          "name": "name",
          "type": "string"
        },
        {
          "internalType": "string",
          "name": "nationality",
          "type": "string"
        },
        {
          "internalType": "uint256",
          "name": "age",
          "type": "uint256"
        },
        {
          "internalType": "string",
          "name": "crime",
          "type": "string"
        },
        {
          "internalType": "uint256",
          "name": "amount",
          "type": "uint256"
        },
        {
          "internalType": "bool",
          "name": "redNoticeIssued",
          "type": "bool"
        },
        {
          "internalType": "string",
          "name": "discriptors",
          "type": "string"
        },
        {
          "internalType": "uint256",
          "name": "tokenId",
          "type": "uint256"
        }
      ],
      "stateMutability": "view",
      "type": "function"
    },
    {
      "inputs": [
        {
          "internalType": "uint256",
          "name": "tokenId",
          "type": "uint256"
        }
      ],
      "name": "getApproved",
      "outputs": [
        {
          "internalType": "address",
          "name": "",
          "type": "address"
        }
      ],
      "stateMutability": "view",
      "type": "function"
    },
    {
      "inputs": [
        {
          "internalType": "address",
          "name": "owner",
          "type": "address"
        },
        {
          "internalType": "address",
          "name": "operator",
          "type": "address"
        }
      ],
      "name": "isApprovedForAll",
      "outputs": [
        {
          "internalType": "bool",
          "name": "",
          "type": "bool"
        }
      ],
      "stateMutability": "view",
      "type": "function"
    },
    {
      "inputs": [],
      "name": "name",
      "outputs": [
        {
          "internalType": "string",
          "name": "",
          "type": "string"
        }
      ],
      "stateMutability": "view",
      "type": "function"
    },
    {
      "inputs": [],
      "name": "owner",
      "outputs": [
        {
          "internalType": "address",
          "name": "",
          "type": "address"
        }
      ],
      "stateMutability": "view",
      "type": "function"
    },
    {
      "inputs": [
        {
          "internalType": "uint256",
          "name": "tokenId",
          "type": "uint256"
        }
      ],
      "name": "ownerOf",
      "outputs": [
        {
          "internalType": "address",
          "name": "",
          "type": "address"
        }
      ],
      "stateMutability": "view",
      "type": "function"
    },
    {
      "inputs": [],
      "name": "renounceOwnership",
      "outputs": [],
      "stateMutability": "nonpayable",
      "type": "function"
    },
    {
      "inputs": [
        {
          "internalType": "address",
          "name": "from",
          "type": "address"
        },
        {
          "internalType": "address",
          "name": "to",
          "type": "address"
        },
        {
          "internalType": "uint256",
          "name": "tokenId",
          "type": "uint256"
        }
      ],
      "name": "safeTransferFrom",
      "outputs": [],
      "stateMutability": "nonpayable",
      "type": "function"
    },
    {
      "inputs": [
        {
          "internalType": "address",
          "name": "from",
          "type": "address"
        },
        {
          "internalType": "address",
          "name": "to",
          "type": "address"
        },
        {
          "internalType": "uint256",
          "name": "tokenId",
          "type": "uint256"
        },
        {
          "internalType": "bytes",
          "name": "data",
          "type": "bytes"
        }
      ],
      "name": "safeTransferFrom",
      "outputs": [],
      "stateMutability": "nonpayable",
      "type": "function"
    },
    {
      "inputs": [
        {
          "internalType": "address",
          "name": "operator",
          "type": "address"
        },
        {
          "internalType": "bool",
          "name": "approved",
          "type": "bool"
        }
      ],
      "name": "setApprovalForAll",
      "outputs": [],
      "stateMutability": "nonpayable",
      "type": "function"
    },
    {
      "inputs": [],
      "name": "symbol",
      "outputs": [
        {
          "internalType": "string",
          "name": "",
          "type": "string"
        }
      ],
      "stateMutability": "view",
      "type": "function"
    },
    {
      "inputs": [
        {
          "internalType": "uint256",
          "name": "index",
          "type": "uint256"
        }
      ],
      "name": "tokenByIndex",
      "outputs": [
        {
          "internalType": "uint256",
          "name": "",
          "type": "uint256"
        }
      ],
      "stateMutability": "view",
      "type": "function"
    },
    {
      "inputs": [
        {
          "internalType": "uint256",
          "name": "",
          "type": "uint256"
        }
      ],
      "name": "tokenIdToRequest",
      "outputs": [
        {
          "internalType": "bytes32",
          "name": "",
          "type": "bytes32"
        }
      ],
      "stateMutability": "view",
      "type": "function"
    },
    {
      "inputs": [
        {
          "internalType": "address",
          "name": "owner",
          "type": "address"
        },
        {
          "internalType": "uint256",
          "name": "index",
          "type": "uint256"
        }
      ],
      "name": "tokenOfOwnerByIndex",
      "outputs": [
        {
          "internalType": "uint256",
          "name": "",
          "type": "uint256"
        }
      ],
      "stateMutability": "view",
      "type": "function"
    },
    {
      "inputs": [
        {
          "internalType": "uint256",
          "name": "tokenId",
          "type": "uint256"
        }
      ],
      "name": "tokenURI",
      "outputs": [
        {
          "internalType": "string",
          "name": "",
          "type": "string"
        }
      ],
      "stateMutability": "view",
      "type": "function"
    },
    {
      "inputs": [],
      "name": "totalSupply",
      "outputs": [
        {
          "internalType": "uint256",
          "name": "",
          "type": "uint256"
        }
      ],
      "stateMutability": "view",
      "type": "function"
    },
    {
      "inputs": [
        {
          "internalType": "address",
          "name": "from",
          "type": "address"
        },
        {
          "internalType": "address",
          "name": "to",
          "type": "address"
        },
        {
          "internalType": "uint256",
          "name": "tokenId",
          "type": "uint256"
        }
      ],
      "name": "transferFrom",
      "outputs": [],
      "stateMutability": "nonpayable",
      "type": "function"
    },
    {
      "inputs": [
        {
          "internalType": "address",
          "name": "newOwner",
          "type": "address"
        }
      ],
      "name": "transferOwnership",
      "outputs": [],
      "stateMutability": "nonpayable",
      "type": "function"
    },
    {
      "inputs": [
        {
          "internalType": "address",
          "name": "user",
          "type": "address"
        }
      ],
      "name": "addAllowedUser",
      "outputs": [],
      "stateMutability": "nonpayable",
      "type": "function"
    },
    {
      "inputs": [
        {
          "internalType": "address",
          "name": "user",
          "type": "address"
        }
      ],
      "name": "removeAllowedUser",
      "outputs": [],
      "stateMutability": "nonpayable",
      "type": "function"
    },
    {
      "inputs": [
        {
          "internalType": "bytes4",
          "name": "interfaceId",
          "type": "bytes4"
        }
      ],
      "name": "supportsInterface",
      "outputs": [
        {
          "internalType": "bool",
          "name": "",
          "type": "bool"
        }
      ],
      "stateMutability": "view",
      "type": "function"
    },
    {
      "inputs": [
        {
          "internalType": "string",
          "name": "name",
          "type": "string"
        },
        {
          "internalType": "string",
          "name": "nationality",
          "type": "string"
        },
        {
          "internalType": "uint256",
          "name": "age",
          "type": "uint256"
        },
        {
          "internalType": "string",
          "name": "crime",
          "type": "string"
        },
        {
          "internalType": "uint256",
          "name": "amount",
          "type": "uint256"
        },
        {
          "internalType": "string",
          "name": "discriptors",
          "type": "string"
        }
      ],
      "name": "processRequest",
      "outputs": [
        {
          "internalType": "bytes32",
          "name": "",
          "type": "bytes32"
        }
      ],
      "stateMutability": "nonpayable",
      "type": "function"
    },
    {
      "inputs": [
        {
          "internalType": "bytes32",
          "name": "requestId",
          "type": "bytes32"
        }
      ],
      "name": "issueRedNotice",
      "outputs": [],
      "stateMutability": "nonpayable",
      "type": "function"
    },
    {
      "inputs": [
        {
          "internalType": "uint256",
          "name": "tokenId",
          "type": "uint256"
        }
      ],
      "name": "getCriminal",
      "outputs": [
        {
          "internalType": "string",
          "name": "",
          "type": "string"
        },
        {
          "internalType": "string",
          "name": "",
          "type": "string"
        },
        {
          "internalType": "uint256",
          "name": "",
          "type": "uint256"
        },
        {
          "internalType": "string",
          "name": "",
          "type": "string"
        },
        {
          "internalType": "bool",
          "name": "",
          "type": "bool"
        },
        {
          "internalType": "string",
          "name": "",
          "type": "string"
        },
        {
          "internalType": "uint256",
          "name": "",
          "type": "uint256"
        }
      ],
      "stateMutability": "view",
      "type": "function"
    },
    {
      "inputs": [
        {
          "internalType": "uint256",
          "name": "tokenId",
          "type": "uint256"
        }
      ],
      "name": "withdrawRedNotice",
      "outputs": [],
      "stateMutability": "nonpayable",
      "type": "function"
    }
  ],
  "bytecode": "0x60806040523480156200001157600080fd5b506040518060400160405280600a81526020017f526564204e6f74696365000000000000000000000000000000000000000000008152506040518060400160405280600281526020017f524e000000000000000000000000000000000000000000000000000000000000815250816000908051906020019062000096929190620001a6565b508060019080519060200190620000af929190620001a6565b505050620000d2620000c6620000d860201b60201c565b620000e060201b60201c565b620002ba565b600033905090565b6000600a60009054906101000a900473ffffffffffffffffffffffffffffffffffffffff16905081600a60006101000a81548173ffffffffffffffffffffffffffffffffffffffff021916908373ffffffffffffffffffffffffffffffffffffffff1602179055508173ffffffffffffffffffffffffffffffffffffffff168173ffffffffffffffffffffffffffffffffffffffff167f8be0079c531659141344cd1fd0a4f28419497f9722a3daafe3b4186f6b6457e060405160405180910390a35050565b828054620001b49062000285565b90600052602060002090601f016020900481019282620001d8576000855562000224565b82601f10620001f357805160ff191683800117855562000224565b8280016001018555821562000224579182015b828111156200022357825182559160200191906001019062000206565b5b50905062000233919062000237565b5090565b5b808211156200025257600081600090555060010162000238565b5090565b7f4e487b7100000000000000000000000000000000000000000000000000000000600052602260045260246000fd5b600060028204905060018216806200029e57607f821691505b602082108103620002b457620002b362000256565b5b50919050565b61522b80620002ca6000396000f3fe608060405234801561001057600080fd5b50600436106101cf5760003560e01c806370a0823111610104578063b88d4fde116100a2578063cafd890411610071578063cafd8904146105a5578063d663db41146105c1578063e985e9c5146105dd578063f2fde38b1461060d576101cf565b8063b88d4fde1461050d578063c57413fe14610529578063c73bdb7f14610559578063c87b56dd14610575576101cf565b806395d89b41116100de57806395d89b4114610465578063972c98a214610483578063a0eea03e146104ba578063a22cb465146104f1576101cf565b806370a082311461040d578063715018a61461043d5780638da5cb5b14610447576101cf565b80632f745c59116101715780634f6ccce71161014b5780634f6ccce71461034057806360aa24c8146103705780636352211e146103a7578063654c0046146103d7576101cf565b80632f745c59146102c45780633dba9d36146102f457806342842e0e14610324576101cf565b8063095ea7b3116101ad578063095ea7b31461025257806318160ddd1461026e57806321b384ed1461028c57806323b872dd146102a8576101cf565b806301ffc9a7146101d457806306fdde0314610204578063081812fc14610222575b600080fd5b6101ee60048036038101906101e99190613ab6565b610629565b6040516101fb9190613afe565b60405180910390f35b61020c61063b565b6040516102199190613bb2565b60405180910390f35b61023c60048036038101906102379190613c0a565b6106cd565b6040516102499190613c78565b60405180910390f35b61026c60048036038101906102679190613cbf565b610713565b005b61027661082a565b6040516102839190613d0e565b60405180910390f35b6102a660048036038101906102a19190613d29565b610837565b005b6102c260048036038101906102bd9190613d56565b61089a565b005b6102de60048036038101906102d99190613cbf565b6108fa565b6040516102eb9190613d0e565b60405180910390f35b61030e60048036038101906103099190613ede565b61099f565b60405161031b9190613ff4565b60405180910390f35b61033e60048036038101906103399190613d56565b610bbc565b005b61035a60048036038101906103559190613c0a565b610bdc565b6040516103679190613d0e565b60405180910390f35b61038a60048036038101906103859190613c0a565b610c4d565b60405161039e98979695949392919061400f565b60405180910390f35b6103c160048036038101906103bc9190613c0a565b610ec2565b6040516103ce9190613c78565b60405180910390f35b6103f160048036038101906103ec9190613c0a565b610f73565b60405161040497969594939291906140a9565b60405180910390f35b61042760048036038101906104229190613d29565b6112cb565b6040516104349190613d0e565b60405180910390f35b610445611382565b005b61044f611396565b60405161045c9190613c78565b60405180910390f35b61046d6113c0565b60405161047a9190613bb2565b60405180910390f35b61049d60048036038101906104989190614160565b611452565b6040516104b198979695949392919061400f565b60405180910390f35b6104d460048036038101906104cf9190613c0a565b6116c7565b6040516104e898979695949392919061400f565b60405180910390f35b61050b600480360381019061050691906141b9565b61194c565b005b6105276004803603810190610522919061429a565b611962565b005b610543600480360381019061053e9190613c0a565b6119c4565b6040516105509190613ff4565b60405180910390f35b610573600480360381019061056e9190613c0a565b6119dc565b005b61058f600480360381019061058a9190613c0a565b611acc565b60405161059c9190613bb2565b60405180910390f35b6105bf60048036038101906105ba9190613d29565b611b34565b005b6105db60048036038101906105d69190614160565b611b97565b005b6105f760048036038101906105f2919061431d565b6121a7565b6040516106049190613afe565b60405180910390f35b61062760048036038101906106229190613d29565b61223b565b005b6000610634826122be565b9050919050565b60606000805461064a9061438c565b80601f01602080910402602001604051908101604052809291908181526020018280546106769061438c565b80156106c35780601f10610698576101008083540402835291602001916106c3565b820191906000526020600020905b8154815290600101906020018083116106a657829003601f168201915b5050505050905090565b60006106d882612338565b6004600083815260200190815260200160002060009054906101000a900473ffffffffffffffffffffffffffffffffffffffff169050919050565b600061071e82610ec2565b90508073ffffffffffffffffffffffffffffffffffffffff168373ffffffffffffffffffffffffffffffffffffffff160361078e576040517f08c379a00000000000000000000000000000000000000000000000000000000081526004016107859061442f565b60405180910390fd5b8073ffffffffffffffffffffffffffffffffffffffff166107ad612383565b73ffffffffffffffffffffffffffffffffffffffff1614806107dc57506107db816107d6612383565b6121a7565b5b61081b576040517f08c379a0000000000000000000000000000000000000000000000000000000008152600401610812906144c1565b60405180910390fd5b610825838361238b565b505050565b6000600880549050905090565b61083f612444565b6001600e60008373ffffffffffffffffffffffffffffffffffffffff1673ffffffffffffffffffffffffffffffffffffffff16815260200190815260200160002060006101000a81548160ff02191690831515021790555050565b6108ab6108a5612383565b826124c2565b6108ea576040517f08c379a00000000000000000000000000000000000000000000000000000000081526004016108e190614553565b60405180910390fd5b6108f5838383612557565b505050565b6000610905836112cb565b8210610946576040517f08c379a000000000000000000000000000000000000000000000000000000000815260040161093d906145e5565b60405180910390fd5b600660008473ffffffffffffffffffffffffffffffffffffffff1673ffffffffffffffffffffffffffffffffffffffff168152602001908152602001600020600083815260200190815260200160002054905092915050565b6000600e60003373ffffffffffffffffffffffffffffffffffffffff1673ffffffffffffffffffffffffffffffffffffffff16815260200190815260200160002060009054906101000a900460ff16610a2d576040517f08c379a0000000000000000000000000000000000000000000000000000000008152600401610a2490614677565b60405180910390fd5b6000878787878742604051602001610a4a969594939291906146f4565b60405160208183030381529060405280519060200120905060006040518061010001604052808a81526020018981526020018881526020018781526020018681526020016000151581526020018581526020016000815250905080600c60008481526020019081526020016000206000820151816000019080519060200190610ad49291906139a7565b506020820151816001019080519060200190610af19291906139a7565b50604082015181600201556060820151816003019080519060200190610b189291906139a7565b506080820151816004015560a08201518160050160006101000a81548160ff02191690831515021790555060c0820151816006019080519060200190610b5f9291906139a7565b5060e08201518160070155905050817f0c2a3c692a36243fbfb8dbbfcd316f82cb02a0c9788feb351d17e4e44a5dba698a8a8a8a8a604051610ba5959493929190614758565b60405180910390a281925050509695505050505050565b610bd783838360405180602001604052806000815250611962565b505050565b6000610be661082a565b8210610c27576040517f08c379a0000000000000000000000000000000000000000000000000000000008152600401610c1e90614832565b60405180910390fd5b60088281548110610c3b57610c3a614852565b5b90600052602060002001549050919050565b600f602052806000526040600020600091509050806000018054610c709061438c565b80601f0160208091040260200160405190810160405280929190818152602001828054610c9c9061438c565b8015610ce95780601f10610cbe57610100808354040283529160200191610ce9565b820191906000526020600020905b815481529060010190602001808311610ccc57829003601f168201915b505050505090806001018054610cfe9061438c565b80601f0160208091040260200160405190810160405280929190818152602001828054610d2a9061438c565b8015610d775780601f10610d4c57610100808354040283529160200191610d77565b820191906000526020600020905b815481529060010190602001808311610d5a57829003601f168201915b505050505090806002015490806003018054610d929061438c565b80601f0160208091040260200160405190810160405280929190818152602001828054610dbe9061438c565b8015610e0b5780601f10610de057610100808354040283529160200191610e0b565b820191906000526020600020905b815481529060010190602001808311610dee57829003601f168201915b5050505050908060040154908060050160009054906101000a900460ff1690806006018054610e399061438c565b80601f0160208091040260200160405190810160405280929190818152602001828054610e659061438c565b8015610eb25780601f10610e8757610100808354040283529160200191610eb2565b820191906000526020600020905b815481529060010190602001808311610e9557829003601f168201915b5050505050908060070154905088565b6000806002600084815260200190815260200160002060009054906101000a900473ffffffffffffffffffffffffffffffffffffffff169050600073ffffffffffffffffffffffffffffffffffffffff168173ffffffffffffffffffffffffffffffffffffffff1603610f6a576040517f08c379a0000000000000000000000000000000000000000000000000000000008152600401610f61906148cd565b60405180910390fd5b80915050919050565b6060806000606060006060600087600f60008a81526020019081526020016000206007015414610fd8576040517f08c379a0000000000000000000000000000000000000000000000000000000008152600401610fcf9061495f565b60405180910390fd5b600f6000898152602001908152602001600020600001600f60008a8152602001908152602001600020600101600f60008b815260200190815260200160002060020154600f60008c8152602001908152602001600020600301600f60008d815260200190815260200160002060050160009054906101000a900460ff16600f60008e8152602001908152602001600020600601600f60008f81526020019081526020016000206007015486805461108e9061438c565b80601f01602080910402602001604051908101604052809291908181526020018280546110ba9061438c565b80156111075780601f106110dc57610100808354040283529160200191611107565b820191906000526020600020905b8154815290600101906020018083116110ea57829003601f168201915b5050505050965085805461111a9061438c565b80601f01602080910402602001604051908101604052809291908181526020018280546111469061438c565b80156111935780601f1061116857610100808354040283529160200191611193565b820191906000526020600020905b81548152906001019060200180831161117657829003601f168201915b505050505095508380546111a69061438c565b80601f01602080910402602001604051908101604052809291908181526020018280546111d29061438c565b801561121f5780601f106111f45761010080835404028352916020019161121f565b820191906000526020600020905b81548152906001019060200180831161120257829003601f168201915b505050505093508180546112329061438c565b80601f016020809104026020016040519081016040528092919081815260200182805461125e9061438c565b80156112ab5780601f10611280576101008083540402835291602001916112ab565b820191906000526020600020905b81548152906001019060200180831161128e57829003601f168201915b505050505091509650965096509650965096509650919395979092949650565b60008073ffffffffffffffffffffffffffffffffffffffff168273ffffffffffffffffffffffffffffffffffffffff160361133b576040517f08c379a0000000000000000000000000000000000000000000000000000000008152600401611332906149f1565b60405180910390fd5b600360008373ffffffffffffffffffffffffffffffffffffffff1673ffffffffffffffffffffffffffffffffffffffff168152602001908152602001600020549050919050565b61138a612444565b61139460006127bd565b565b6000600a60009054906101000a900473ffffffffffffffffffffffffffffffffffffffff16905090565b6060600180546113cf9061438c565b80601f01602080910402602001604051908101604052809291908181526020018280546113fb9061438c565b80156114485780601f1061141d57610100808354040283529160200191611448565b820191906000526020600020905b81548152906001019060200180831161142b57829003601f168201915b5050505050905090565b600c6020528060005260406000206000915090508060000180546114759061438c565b80601f01602080910402602001604051908101604052809291908181526020018280546114a19061438c565b80156114ee5780601f106114c3576101008083540402835291602001916114ee565b820191906000526020600020905b8154815290600101906020018083116114d157829003601f168201915b5050505050908060010180546115039061438c565b80601f016020809104026020016040519081016040528092919081815260200182805461152f9061438c565b801561157c5780601f106115515761010080835404028352916020019161157c565b820191906000526020600020905b81548152906001019060200180831161155f57829003601f168201915b5050505050908060020154908060030180546115979061438c565b80601f01602080910402602001604051908101604052809291908181526020018280546115c39061438c565b80156116105780601f106115e557610100808354040283529160200191611610565b820191906000526020600020905b8154815290600101906020018083116115f357829003601f168201915b5050505050908060040154908060050160009054906101000a900460ff169080600601805461163e9061438c565b80601f016020809104026020016040519081016040528092919081815260200182805461166a9061438c565b80156116b75780601f1061168c576101008083540402835291602001916116b7565b820191906000526020600020905b81548152906001019060200180831161169a57829003601f168201915b5050505050908060070154905088565b601081815481106116d757600080fd5b90600052602060002090600802016000915090508060000180546116fa9061438c565b80601f01602080910402602001604051908101604052809291908181526020018280546117269061438c565b80156117735780601f1061174857610100808354040283529160200191611773565b820191906000526020600020905b81548152906001019060200180831161175657829003601f168201915b5050505050908060010180546117889061438c565b80601f01602080910402602001604051908101604052809291908181526020018280546117b49061438c565b80156118015780601f106117d657610100808354040283529160200191611801565b820191906000526020600020905b8154815290600101906020018083116117e457829003601f168201915b50505050509080600201549080600301805461181c9061438c565b80601f01602080910402602001604051908101604052809291908181526020018280546118489061438c565b80156118955780601f1061186a57610100808354040283529160200191611895565b820191906000526020600020905b81548152906001019060200180831161187857829003601f168201915b5050505050908060040154908060050160009054906101000a900460ff16908060060180546118c39061438c565b80601f01602080910402602001604051908101604052809291908181526020018280546118ef9061438c565b801561193c5780601f106119115761010080835404028352916020019161193c565b820191906000526020600020905b81548152906001019060200180831161191f57829003601f168201915b5050505050908060070154905088565b61195e611957612383565b8383612883565b5050565b61197361196d612383565b836124c2565b6119b2576040517f08c379a00000000000000000000000000000000000000000000000000000000081526004016119a990614553565b60405180910390fd5b6119be848484846129ef565b50505050565b600d6020528060005260406000206000915090505481565b600e60003373ffffffffffffffffffffffffffffffffffffffff1673ffffffffffffffffffffffffffffffffffffffff16815260200190815260200160002060009054906101000a900460ff16611a68576040517f08c379a0000000000000000000000000000000000000000000000000000000008152600401611a5f90614677565b60405180910390fd5b80600f60008381526020019081526020016000206007015414611ac0576040517f08c379a0000000000000000000000000000000000000000000000000000000008152600401611ab79061495f565b60405180910390fd5b611ac981612a4b565b50565b6060611ad782612338565b6000611ae1612b68565b90506000815111611b015760405180602001604052806000815250611b2c565b80611b0b84612b7f565b604051602001611b1c929190614a11565b6040516020818303038152906040525b915050919050565b611b3c612444565b6000600e60008373ffffffffffffffffffffffffffffffffffffffff1673ffffffffffffffffffffffffffffffffffffffff16815260200190815260200160002060006101000a81548160ff02191690831515021790555050565b600e60003373ffffffffffffffffffffffffffffffffffffffff1673ffffffffffffffffffffffffffffffffffffffff16815260200190815260200160002060009054906101000a900460ff16611c23576040517f08c379a0000000000000000000000000000000000000000000000000000000008152600401611c1a90614677565b60405180910390fd5b6000600c6000838152602001908152602001600020905060008160020154118015611c5d57508060050160009054906101000a900460ff16155b611c9c576040517f08c379a0000000000000000000000000000000000000000000000000000000008152600401611c9390614aa7565b60405180910390fd5b6000611dca826001018054611cb09061438c565b80601f0160208091040260200160405190810160405280929190818152602001828054611cdc9061438c565b8015611d295780601f10611cfe57610100808354040283529160200191611d29565b820191906000526020600020905b815481529060010190602001808311611d0c57829003601f168201915b50505050508360020154846003018054611d429061438c565b80601f0160208091040260200160405190810160405280929190818152602001828054611d6e9061438c565b8015611dbb5780601f10611d9057610100808354040283529160200191611dbb565b820191906000526020600020905b815481529060010190602001808311611d9e57829003601f168201915b50505050508560040154612cdf565b905060148111611e0f576040517f08c379a0000000000000000000000000000000000000000000000000000000008152600401611e0690614b39565b60405180910390fd5b6000611e1b600b612f9d565b9050611e27600b612fab565b6000604051806101000160405280856000018054611e449061438c565b80601f0160208091040260200160405190810160405280929190818152602001828054611e709061438c565b8015611ebd5780601f10611e9257610100808354040283529160200191611ebd565b820191906000526020600020905b815481529060010190602001808311611ea057829003601f168201915b50505050508152602001856001018054611ed69061438c565b80601f0160208091040260200160405190810160405280929190818152602001828054611f029061438c565b8015611f4f5780601f10611f2457610100808354040283529160200191611f4f565b820191906000526020600020905b815481529060010190602001808311611f3257829003601f168201915b5050505050815260200185600201548152602001856003018054611f729061438c565b80601f0160208091040260200160405190810160405280929190818152602001828054611f9e9061438c565b8015611feb5780601f10611fc057610100808354040283529160200191611feb565b820191906000526020600020905b815481529060010190602001808311611fce57829003601f168201915b50505050508152602001856004015481526020016001151581526020018560060180546120179061438c565b80601f01602080910402602001604051908101604052809291908181526020018280546120439061438c565b80156120905780601f1061206557610100808354040283529160200191612090565b820191906000526020600020905b81548152906001019060200180831161207357829003601f168201915b5050505050815260200183815250905080600f600084815260200190815260200160002060008201518160000190805190602001906120d09291906139a7565b5060208201518160010190805190602001906120ed9291906139a7565b506040820151816002015560608201518160030190805190602001906121149291906139a7565b506080820151816004015560a08201518160050160006101000a81548160ff02191690831515021790555060c082015181600601908051906020019061215b9291906139a7565b5060e082015181600701559050506121733383612fc1565b847f4da4b094916dab66f9cd7c17d3993e239945c0d845cadff512f5613e1e76b5b660405160405180910390a25050505050565b6000600560008473ffffffffffffffffffffffffffffffffffffffff1673ffffffffffffffffffffffffffffffffffffffff16815260200190815260200160002060008373ffffffffffffffffffffffffffffffffffffffff1673ffffffffffffffffffffffffffffffffffffffff16815260200190815260200160002060009054906101000a900460ff16905092915050565b612243612444565b600073ffffffffffffffffffffffffffffffffffffffff168173ffffffffffffffffffffffffffffffffffffffff16036122b2576040517f08c379a00000000000000000000000000000000000000000000000000000000081526004016122a990614bcb565b60405180910390fd5b6122bb816127bd565b50565b60007f780e9d63000000000000000000000000000000000000000000000000000000007bffffffffffffffffffffffffffffffffffffffffffffffffffffffff1916827bffffffffffffffffffffffffffffffffffffffffffffffffffffffff19161480612331575061233082612fdf565b5b9050919050565b612341816130c1565b612380576040517f08c379a0000000000000000000000000000000000000000000000000000000008152600401612377906148cd565b60405180910390fd5b50565b600033905090565b816004600083815260200190815260200160002060006101000a81548173ffffffffffffffffffffffffffffffffffffffff021916908373ffffffffffffffffffffffffffffffffffffffff160217905550808273ffffffffffffffffffffffffffffffffffffffff166123fe83610ec2565b73ffffffffffffffffffffffffffffffffffffffff167f8c5be1e5ebec7d5bd14f71427d1e84f3dd0314c0f7b2291e5b200ac8c7c3b92560405160405180910390a45050565b61244c612383565b73ffffffffffffffffffffffffffffffffffffffff1661246a611396565b73ffffffffffffffffffffffffffffffffffffffff16146124c0576040517f08c379a00000000000000000000000000000000000000000000000000000000081526004016124b790614c37565b60405180910390fd5b565b6000806124ce83610ec2565b90508073ffffffffffffffffffffffffffffffffffffffff168473ffffffffffffffffffffffffffffffffffffffff161480612510575061250f81856121a7565b5b8061254e57508373ffffffffffffffffffffffffffffffffffffffff16612536846106cd565b73ffffffffffffffffffffffffffffffffffffffff16145b91505092915050565b8273ffffffffffffffffffffffffffffffffffffffff1661257782610ec2565b73ffffffffffffffffffffffffffffffffffffffff16146125cd576040517f08c379a00000000000000000000000000000000000000000000000000000000081526004016125c490614cc9565b60405180910390fd5b600073ffffffffffffffffffffffffffffffffffffffff168273ffffffffffffffffffffffffffffffffffffffff160361263c576040517f08c379a000000000000000000000000000000000000000000000000000000000815260040161263390614d5b565b60405180910390fd5b61264783838361312d565b61265260008261238b565b6001600360008573ffffffffffffffffffffffffffffffffffffffff1673ffffffffffffffffffffffffffffffffffffffff16815260200190815260200160002060008282546126a29190614daa565b925050819055506001600360008473ffffffffffffffffffffffffffffffffffffffff1673ffffffffffffffffffffffffffffffffffffffff16815260200190815260200160002060008282546126f99190614dde565b92505081905550816002600083815260200190815260200160002060006101000a81548173ffffffffffffffffffffffffffffffffffffffff021916908373ffffffffffffffffffffffffffffffffffffffff160217905550808273ffffffffffffffffffffffffffffffffffffffff168473ffffffffffffffffffffffffffffffffffffffff167fddf252ad1be2c89b69c2b068fc378daa952ba7f163c4a11628f55a4df523b3ef60405160405180910390a46127b883838361313d565b505050565b6000600a60009054906101000a900473ffffffffffffffffffffffffffffffffffffffff16905081600a60006101000a81548173ffffffffffffffffffffffffffffffffffffffff021916908373ffffffffffffffffffffffffffffffffffffffff1602179055508173ffffffffffffffffffffffffffffffffffffffff168173ffffffffffffffffffffffffffffffffffffffff167f8be0079c531659141344cd1fd0a4f28419497f9722a3daafe3b4186f6b6457e060405160405180910390a35050565b8173ffffffffffffffffffffffffffffffffffffffff168373ffffffffffffffffffffffffffffffffffffffff16036128f1576040517f08c379a00000000000000000000000000000000000000000000000000000000081526004016128e890614e80565b60405180910390fd5b80600560008573ffffffffffffffffffffffffffffffffffffffff1673ffffffffffffffffffffffffffffffffffffffff16815260200190815260200160002060008473ffffffffffffffffffffffffffffffffffffffff1673ffffffffffffffffffffffffffffffffffffffff16815260200190815260200160002060006101000a81548160ff0219169083151502179055508173ffffffffffffffffffffffffffffffffffffffff168373ffffffffffffffffffffffffffffffffffffffff167f17307eab39ab6107e8899845ad3d59bd9653f200f220920489ca2b5937696c31836040516129e29190613afe565b60405180910390a3505050565b6129fa848484612557565b612a0684848484613142565b612a45576040517f08c379a0000000000000000000000000000000000000000000000000000000008152600401612a3c90614f12565b60405180910390fd5b50505050565b6000612a5682610ec2565b9050612a648160008461312d565b612a6f60008361238b565b6001600360008373ffffffffffffffffffffffffffffffffffffffff1673ffffffffffffffffffffffffffffffffffffffff1681526020019081526020016000206000828254612abf9190614daa565b925050819055506002600083815260200190815260200160002060006101000a81549073ffffffffffffffffffffffffffffffffffffffff021916905581600073ffffffffffffffffffffffffffffffffffffffff168273ffffffffffffffffffffffffffffffffffffffff167fddf252ad1be2c89b69c2b068fc378daa952ba7f163c4a11628f55a4df523b3ef60405160405180910390a4612b648160008461313d565b5050565b606060405180602001604052806000815250905090565b606060008203612bc6576040518060400160405280600181526020017f30000000000000000000000000000000000000000000000000000000000000008152509050612cda565b600082905060005b60008214612bf8578080612be190614f32565b915050600a82612bf19190614fa9565b9150612bce565b60008167ffffffffffffffff811115612c1457612c13613db3565b5b6040519080825280601f01601f191660200182016040528015612c465781602001600182028036833780820191505090505b5090505b60008514612cd357600182612c5f9190614daa565b9150600a85612c6e9190614fda565b6030612c7a9190614dde565b60f81b818381518110612c9057612c8f614852565b5b60200101907effffffffffffffffffffffffffffffffffffffffffffffffffffffffffffff1916908160001a905350600a85612ccc9190614fa9565b9450612c4a565b8093505050505b919050565b6000806040518060400160405280600d81526020017f556e69746564205374617465730000000000000000000000000000000000000081525080519060200120868051906020012003612d355760059050612de2565b6040518060400160405280600681526020017f527573736961000000000000000000000000000000000000000000000000000081525080519060200120868051906020012003612d8857600a9050612de1565b6040518060400160405280600581526020017f4368696e6100000000000000000000000000000000000000000000000000000081525080519060200120868051906020012003612ddb57600f9050612de0565b601490505b5b5b60006014861015612df65760059050612e21565b601e861015612e0857600a9050612e20565b6028861015612e1a57600f9050612e1f565b601490505b5b5b60006040518060400160405280601081526020017f4d6f6e6579204c61756e646572696e670000000000000000000000000000000081525080519060200120868051906020012003612e765760059050612f23565b6040518060400160405280600581526020017f467261756400000000000000000000000000000000000000000000000000000081525080519060200120868051906020012003612ec957600a9050612f22565b6040518060400160405280601081526020017f4472756720547261666669636b696e670000000000000000000000000000000081525080519060200120868051906020012003612f1c57600f9050612f21565b601490505b5b5b6000612710861015612f385760059050612f67565b620186a0861015612f4c57600a9050612f66565b620f4240861015612f6057600f9050612f65565b601490505b5b5b600081838587612f779190614dde565b612f819190614dde565b612f8b9190614dde565b90508095505050505050949350505050565b600081600001549050919050565b6001816000016000828254019250508190555050565b612fdb8282604051806020016040528060008152506132c9565b5050565b60007f80ac58cd000000000000000000000000000000000000000000000000000000007bffffffffffffffffffffffffffffffffffffffffffffffffffffffff1916827bffffffffffffffffffffffffffffffffffffffffffffffffffffffff191614806130aa57507f5b5e139f000000000000000000000000000000000000000000000000000000007bffffffffffffffffffffffffffffffffffffffffffffffffffffffff1916827bffffffffffffffffffffffffffffffffffffffffffffffffffffffff1916145b806130ba57506130b982613324565b5b9050919050565b60008073ffffffffffffffffffffffffffffffffffffffff166002600084815260200190815260200160002060009054906101000a900473ffffffffffffffffffffffffffffffffffffffff1673ffffffffffffffffffffffffffffffffffffffff1614159050919050565b61313883838361338e565b505050565b505050565b60006131638473ffffffffffffffffffffffffffffffffffffffff166134a0565b156132bc578373ffffffffffffffffffffffffffffffffffffffff1663150b7a0261318c612383565b8786866040518563ffffffff1660e01b81526004016131ae9493929190615060565b6020604051808303816000875af19250505080156131ea57506040513d601f19601f820116820180604052508101906131e791906150c1565b60015b61326c573d806000811461321a576040519150601f19603f3d011682016040523d82523d6000602084013e61321f565b606091505b506000815103613264576040517f08c379a000000000000000000000000000000000000000000000000000000000815260040161325b90614f12565b60405180910390fd5b805181602001fd5b63150b7a0260e01b7bffffffffffffffffffffffffffffffffffffffffffffffffffffffff1916817bffffffffffffffffffffffffffffffffffffffffffffffffffffffff1916149150506132c1565b600190505b949350505050565b6132d383836134c3565b6132e06000848484613142565b61331f576040517f08c379a000000000000000000000000000000000000000000000000000000000815260040161331690614f12565b60405180910390fd5b505050565b60007f01ffc9a7000000000000000000000000000000000000000000000000000000007bffffffffffffffffffffffffffffffffffffffffffffffffffffffff1916827bffffffffffffffffffffffffffffffffffffffffffffffffffffffff1916149050919050565b61339983838361369c565b600073ffffffffffffffffffffffffffffffffffffffff168373ffffffffffffffffffffffffffffffffffffffff16036133db576133d6816136a1565b61341a565b8173ffffffffffffffffffffffffffffffffffffffff168373ffffffffffffffffffffffffffffffffffffffff16146134195761341883826136ea565b5b5b600073ffffffffffffffffffffffffffffffffffffffff168273ffffffffffffffffffffffffffffffffffffffff160361345c5761345781613857565b61349b565b8273ffffffffffffffffffffffffffffffffffffffff168273ffffffffffffffffffffffffffffffffffffffff161461349a576134998282613928565b5b5b505050565b6000808273ffffffffffffffffffffffffffffffffffffffff163b119050919050565b600073ffffffffffffffffffffffffffffffffffffffff168273ffffffffffffffffffffffffffffffffffffffff1603613532576040517f08c379a00000000000000000000000000000000000000000000000000000000081526004016135299061513a565b60405180910390fd5b61353b816130c1565b1561357b576040517f08c379a0000000000000000000000000000000000000000000000000000000008152600401613572906151a6565b60405180910390fd5b6135876000838361312d565b6001600360008473ffffffffffffffffffffffffffffffffffffffff1673ffffffffffffffffffffffffffffffffffffffff16815260200190815260200160002060008282546135d79190614dde565b92505081905550816002600083815260200190815260200160002060006101000a81548173ffffffffffffffffffffffffffffffffffffffff021916908373ffffffffffffffffffffffffffffffffffffffff160217905550808273ffffffffffffffffffffffffffffffffffffffff16600073ffffffffffffffffffffffffffffffffffffffff167fddf252ad1be2c89b69c2b068fc378daa952ba7f163c4a11628f55a4df523b3ef60405160405180910390a46136986000838361313d565b5050565b505050565b6008805490506009600083815260200190815260200160002081905550600881908060018154018082558091505060019003906000526020600020016000909190919091505550565b600060016136f7846112cb565b6137019190614daa565b90506000600760008481526020019081526020016000205490508181146137e6576000600660008673ffffffffffffffffffffffffffffffffffffffff1673ffffffffffffffffffffffffffffffffffffffff168152602001908152602001600020600084815260200190815260200160002054905080600660008773ffffffffffffffffffffffffffffffffffffffff1673ffffffffffffffffffffffffffffffffffffffff168152602001908152602001600020600084815260200190815260200160002081905550816007600083815260200190815260200160002081905550505b6007600084815260200190815260200160002060009055600660008573ffffffffffffffffffffffffffffffffffffffff1673ffffffffffffffffffffffffffffffffffffffff16815260200190815260200160002060008381526020019081526020016000206000905550505050565b6000600160088054905061386b9190614daa565b905060006009600084815260200190815260200160002054905060006008838154811061389b5761389a614852565b5b9060005260206000200154905080600883815481106138bd576138bc614852565b5b90600052602060002001819055508160096000838152602001908152602001600020819055506009600085815260200190815260200160002060009055600880548061390c5761390b6151c6565b5b6001900381819060005260206000200160009055905550505050565b6000613933836112cb565b905081600660008573ffffffffffffffffffffffffffffffffffffffff1673ffffffffffffffffffffffffffffffffffffffff168152602001908152602001600020600083815260200190815260200160002081905550806007600084815260200190815260200160002081905550505050565b8280546139b39061438c565b90600052602060002090601f0160209004810192826139d55760008555613a1c565b82601f106139ee57805160ff1916838001178555613a1c565b82800160010185558215613a1c579182015b82811115613a1b578251825591602001919060010190613a00565b5b509050613a299190613a2d565b5090565b5b80821115613a46576000816000905550600101613a2e565b5090565b6000604051905090565b600080fd5b600080fd5b60007fffffffff0000000000000000000000000000000000000000000000000000000082169050919050565b613a9381613a5e565b8114613a9e57600080fd5b50565b600081359050613ab081613a8a565b92915050565b600060208284031215613acc57613acb613a54565b5b6000613ada84828501613aa1565b91505092915050565b60008115159050919050565b613af881613ae3565b82525050565b6000602082019050613b136000830184613aef565b92915050565b600081519050919050565b600082825260208201905092915050565b60005b83811015613b53578082015181840152602081019050613b38565b83811115613b62576000848401525b50505050565b6000601f19601f8301169050919050565b6000613b8482613b19565b613b8e8185613b24565b9350613b9e818560208601613b35565b613ba781613b68565b840191505092915050565b60006020820190508181036000830152613bcc8184613b79565b905092915050565b6000819050919050565b613be781613bd4565b8114613bf257600080fd5b50565b600081359050613c0481613bde565b92915050565b600060208284031215613c2057613c1f613a54565b5b6000613c2e84828501613bf5565b91505092915050565b600073ffffffffffffffffffffffffffffffffffffffff82169050919050565b6000613c6282613c37565b9050919050565b613c7281613c57565b82525050565b6000602082019050613c8d6000830184613c69565b92915050565b613c9c81613c57565b8114613ca757600080fd5b50565b600081359050613cb981613c93565b92915050565b60008060408385031215613cd657613cd5613a54565b5b6000613ce485828601613caa565b9250506020613cf585828601613bf5565b9150509250929050565b613d0881613bd4565b82525050565b6000602082019050613d236000830184613cff565b92915050565b600060208284031215613d3f57613d3e613a54565b5b6000613d4d84828501613caa565b91505092915050565b600080600060608486031215613d6f57613d6e613a54565b5b6000613d7d86828701613caa565b9350506020613d8e86828701613caa565b9250506040613d9f86828701613bf5565b9150509250925092565b600080fd5b600080fd5b7f4e487b7100000000000000000000000000000000000000000000000000000000600052604160045260246000fd5b613deb82613b68565b810181811067ffffffffffffffff82111715613e0a57613e09613db3565b5b80604052505050565b6000613e1d613a4a565b9050613e298282613de2565b919050565b600067ffffffffffffffff821115613e4957613e48613db3565b5b613e5282613b68565b9050602081019050919050565b82818337600083830152505050565b6000613e81613e7c84613e2e565b613e13565b905082815260208101848484011115613e9d57613e9c613dae565b5b613ea8848285613e5f565b509392505050565b600082601f830112613ec557613ec4613da9565b5b8135613ed5848260208601613e6e565b91505092915050565b60008060008060008060c08789031215613efb57613efa613a54565b5b600087013567ffffffffffffffff811115613f1957613f18613a59565b5b613f2589828a01613eb0565b965050602087013567ffffffffffffffff811115613f4657613f45613a59565b5b613f5289828a01613eb0565b9550506040613f6389828a01613bf5565b945050606087013567ffffffffffffffff811115613f8457613f83613a59565b5b613f9089828a01613eb0565b9350506080613fa189828a01613bf5565b92505060a087013567ffffffffffffffff811115613fc257613fc1613a59565b5b613fce89828a01613eb0565b9150509295509295509295565b6000819050919050565b613fee81613fdb565b82525050565b60006020820190506140096000830184613fe5565b92915050565b600061010082019050818103600083015261402a818b613b79565b9050818103602083015261403e818a613b79565b905061404d6040830189613cff565b818103606083015261405f8188613b79565b905061406e6080830187613cff565b61407b60a0830186613aef565b81810360c083015261408d8185613b79565b905061409c60e0830184613cff565b9998505050505050505050565b600060e08201905081810360008301526140c3818a613b79565b905081810360208301526140d78189613b79565b90506140e66040830188613cff565b81810360608301526140f88187613b79565b90506141076080830186613aef565b81810360a08301526141198185613b79565b905061412860c0830184613cff565b98975050505050505050565b61413d81613fdb565b811461414857600080fd5b50565b60008135905061415a81614134565b92915050565b60006020828403121561417657614175613a54565b5b60006141848482850161414b565b91505092915050565b61419681613ae3565b81146141a157600080fd5b50565b6000813590506141b38161418d565b92915050565b600080604083850312156141d0576141cf613a54565b5b60006141de85828601613caa565b92505060206141ef858286016141a4565b9150509250929050565b600067ffffffffffffffff82111561421457614213613db3565b5b61421d82613b68565b9050602081019050919050565b600061423d614238846141f9565b613e13565b90508281526020810184848401111561425957614258613dae565b5b614264848285613e5f565b509392505050565b600082601f83011261428157614280613da9565b5b813561429184826020860161422a565b91505092915050565b600080600080608085870312156142b4576142b3613a54565b5b60006142c287828801613caa565b94505060206142d387828801613caa565b93505060406142e487828801613bf5565b925050606085013567ffffffffffffffff81111561430557614304613a59565b5b6143118782880161426c565b91505092959194509250565b6000806040838503121561433457614333613a54565b5b600061434285828601613caa565b925050602061435385828601613caa565b9150509250929050565b7f4e487b7100000000000000000000000000000000000000000000000000000000600052602260045260246000fd5b600060028204905060018216806143a457607f821691505b6020821081036143b7576143b661435d565b5b50919050565b7f4552433732313a20617070726f76616c20746f2063757272656e74206f776e6560008201527f7200000000000000000000000000000000000000000000000000000000000000602082015250565b6000614419602183613b24565b9150614424826143bd565b604082019050919050565b600060208201905081810360008301526144488161440c565b9050919050565b7f4552433732313a20617070726f76652063616c6c6572206973206e6f7420746f60008201527f6b656e206f776e6572206e6f7220617070726f76656420666f7220616c6c0000602082015250565b60006144ab603e83613b24565b91506144b68261444f565b604082019050919050565b600060208201905081810360008301526144da8161449e565b9050919050565b7f4552433732313a2063616c6c6572206973206e6f7420746f6b656e206f776e6560008201527f72206e6f7220617070726f766564000000000000000000000000000000000000602082015250565b600061453d602e83613b24565b9150614548826144e1565b604082019050919050565b6000602082019050818103600083015261456c81614530565b9050919050565b7f455243373231456e756d657261626c653a206f776e657220696e646578206f7560008201527f74206f6620626f756e6473000000000000000000000000000000000000000000602082015250565b60006145cf602b83613b24565b91506145da82614573565b604082019050919050565b600060208201905081810360008301526145fe816145c2565b9050919050565b7f4f6e6c7920616c6c6f77656420696e7665737469676174697665206167656e6360008201527f792063616e2063616c6c20746869732066756e6374696f6e0000000000000000602082015250565b6000614661603883613b24565b915061466c82614605565b604082019050919050565b6000602082019050818103600083015261469081614654565b9050919050565b600081905092915050565b60006146ad82613b19565b6146b78185614697565b93506146c7818560208601613b35565b80840191505092915050565b6000819050919050565b6146ee6146e982613bd4565b6146d3565b82525050565b600061470082896146a2565b915061470c82886146a2565b915061471882876146dd565b60208201915061472882866146a2565b915061473482856146dd565b60208201915061474482846146dd565b602082019150819050979650505050505050565b600060a08201905081810360008301526147728188613b79565b905081810360208301526147868187613b79565b90506147956040830186613cff565b81810360608301526147a78185613b79565b90506147b66080830184613cff565b9695505050505050565b7f455243373231456e756d657261626c653a20676c6f62616c20696e646578206f60008201527f7574206f6620626f756e64730000000000000000000000000000000000000000602082015250565b600061481c602c83613b24565b9150614827826147c0565b604082019050919050565b6000602082019050818103600083015261484b8161480f565b9050919050565b7f4e487b7100000000000000000000000000000000000000000000000000000000600052603260045260246000fd5b7f4552433732313a20696e76616c696420746f6b656e2049440000000000000000600082015250565b60006148b7601883613b24565b91506148c282614881565b602082019050919050565b600060208201905081810360008301526148e6816148aa565b9050919050565b7f697420646f65736e2774206d6174636820616e79206372696d696e616c20696e60008201527f666f000000000000000000000000000000000000000000000000000000000000602082015250565b6000614949602283613b24565b9150614954826148ed565b604082019050919050565b600060208201905081810360008301526149788161493c565b9050919050565b7f4552433732313a2061646472657373207a65726f206973206e6f74206120766160008201527f6c6964206f776e65720000000000000000000000000000000000000000000000602082015250565b60006149db602983613b24565b91506149e68261497f565b604082019050919050565b60006020820190508181036000830152614a0a816149ce565b9050919050565b6000614a1d82856146a2565b9150614a2982846146a2565b91508190509392505050565b7f496e76616c69642072657175657374204944206f7220726564206e6f7469636560008201527f20616c7265616479206973737565640000000000000000000000000000000000602082015250565b6000614a91602f83613b24565b9150614a9c82614a35565b604082019050919050565b60006020820190508181036000830152614ac081614a84565b9050919050565b7f466c6565696e67207269736b20697320746f6f206c6f7720746f20697373756560008201527f206120726564206e6f7469636500000000000000000000000000000000000000602082015250565b6000614b23602d83613b24565b9150614b2e82614ac7565b604082019050919050565b60006020820190508181036000830152614b5281614b16565b9050919050565b7f4f776e61626c653a206e6577206f776e657220697320746865207a65726f206160008201527f6464726573730000000000000000000000000000000000000000000000000000602082015250565b6000614bb5602683613b24565b9150614bc082614b59565b604082019050919050565b60006020820190508181036000830152614be481614ba8565b9050919050565b7f4f776e61626c653a2063616c6c6572206973206e6f7420746865206f776e6572600082015250565b6000614c21602083613b24565b9150614c2c82614beb565b602082019050919050565b60006020820190508181036000830152614c5081614c14565b9050919050565b7f4552433732313a207472616e736665722066726f6d20696e636f72726563742060008201527f6f776e6572000000000000000000000000000000000000000000000000000000602082015250565b6000614cb3602583613b24565b9150614cbe82614c57565b604082019050919050565b60006020820190508181036000830152614ce281614ca6565b9050919050565b7f4552433732313a207472616e7366657220746f20746865207a65726f2061646460008201527f7265737300000000000000000000000000000000000000000000000000000000602082015250565b6000614d45602483613b24565b9150614d5082614ce9565b604082019050919050565b60006020820190508181036000830152614d7481614d38565b9050919050565b7f4e487b7100000000000000000000000000000000000000000000000000000000600052601160045260246000fd5b6000614db582613bd4565b9150614dc083613bd4565b925082821015614dd357614dd2614d7b565b5b828203905092915050565b6000614de982613bd4565b9150614df483613bd4565b9250827fffffffffffffffffffffffffffffffffffffffffffffffffffffffffffffffff03821115614e2957614e28614d7b565b5b828201905092915050565b7f4552433732313a20617070726f766520746f2063616c6c657200000000000000600082015250565b6000614e6a601983613b24565b9150614e7582614e34565b602082019050919050565b60006020820190508181036000830152614e9981614e5d565b9050919050565b7f4552433732313a207472616e7366657220746f206e6f6e20455243373231526560008201527f63656976657220696d706c656d656e7465720000000000000000000000000000602082015250565b6000614efc603283613b24565b9150614f0782614ea0565b604082019050919050565b60006020820190508181036000830152614f2b81614eef565b9050919050565b6000614f3d82613bd4565b91507fffffffffffffffffffffffffffffffffffffffffffffffffffffffffffffffff8203614f6f57614f6e614d7b565b5b600182019050919050565b7f4e487b7100000000000000000000000000000000000000000000000000000000600052601260045260246000fd5b6000614fb482613bd4565b9150614fbf83613bd4565b925082614fcf57614fce614f7a565b5b828204905092915050565b6000614fe582613bd4565b9150614ff083613bd4565b92508261500057614fff614f7a565b5b828206905092915050565b600081519050919050565b600082825260208201905092915050565b60006150328261500b565b61503c8185615016565b935061504c818560208601613b35565b61505581613b68565b840191505092915050565b60006080820190506150756000830187613c69565b6150826020830186613c69565b61508f6040830185613cff565b81810360608301526150a18184615027565b905095945050505050565b6000815190506150bb81613a8a565b92915050565b6000602082840312156150d7576150d6613a54565b5b60006150e5848285016150ac565b91505092915050565b7f4552433732313a206d696e7420746f20746865207a65726f2061646472657373600082015250565b6000615124602083613b24565b915061512f826150ee565b602082019050919050565b6000602082019050818103600083015261515381615117565b9050919050565b7f4552433732313a20746f6b656e20616c7265616479206d696e74656400000000600082015250565b6000615190601c83613b24565b915061519b8261515a565b602082019050919050565b600060208201905081810360008301526151bf81615183565b9050919050565b7f4e487b7100000000000000000000000000000000000000000000000000000000600052603160045260246000fdfea2646970667358221220198d610c3651225d02b58ed0a9ca1c4b3865aa2ea3dae0c3113d041ed88853cf64736f6c634300080e0033",
  "immutableReferences": {},
  "source": "// SPDX-License-Identifier: MIT\npragma solidity ^0.8.0;\nimport \"./token/ERC721/ERC721.sol\";\nimport \"./access/Ownable.sol\";\nimport \"./utils/Counters.sol\";\nimport \"./token/ERC721/extensions/ERC721Enumerable.sol\";\n\n\ncontract RedNotice is ERC721,ERC721Enumerable,Ownable {\n    using Counters for Counters.Counter;\n\n    Counters.Counter private _tokenIdCounter;\n\n    //   \n    struct Criminal {\n        string name;\n        string nationality;\n        uint256 age;\n        string crime;\n        uint256 amount;\n        bool redNoticeIssued;\n        string discriptors;\n        uint256 tokenId; // token ID \n    }\n\n    //   \n    mapping(bytes32 => Criminal) public criminals;\n\n    // token ID     ()\n    mapping(uint256 => bytes32) public tokenIdToRequest;\n\n    mapping(address => bool) allowed;\n\n    modifier onlyAllowed() {\n        require(allowed[msg.sender], \"Only allowed investigative agency can call this function\");\n        _;\n    }\n\n    function addAllowedUser(address user) public onlyOwner {\n        allowed[user] = true;\n    }\n\n    function removeAllowedUser(address user) public onlyOwner {\n        allowed[user] = false;\n    }\n    function _beforeTokenTransfer(address from, address to, uint256 tokenId)\n        internal\n        override(ERC721, ERC721Enumerable)\n    {\n        super._beforeTokenTransfer(from, to, tokenId);\n    }\n    function supportsInterface(bytes4 interfaceId)\n        public\n        view\n        override(ERC721, ERC721Enumerable)\n        returns (bool)\n    {\n        return super.supportsInterface(interfaceId);\n    }\n\n\n    //   \n    event RequestReceived(\n        bytes32 indexed requestId,\n        string name,\n        string nationality,\n        uint256 age,\n        string crime,\n        uint256 amount\n    );\n\n    //   \n    event RedNoticeIssued(bytes32 indexed requestId);\n\n    constructor() ERC721(\"Red Notice\", \"RN\") {}\n\n    mapping(uint256 => Criminal) public _criminalInfoList;\n    //    ()\n    Criminal[] public criminalList; //  \n\n    //    \n    function processRequest (\n        string memory name,\n        string memory nationality,\n        uint256 age,\n        string memory crime,\n        uint256 amount,\n        string memory discriptors\n    ) public onlyAllowed returns (bytes32) {\n        //  ID \n        bytes32 requestId = keccak256(\n            abi.encodePacked(\n                name,\n                nationality,\n                age,\n                crime,\n                amount,\n                block.timestamp\n            )\n        );\n        //   \n        Criminal memory newCriminal = Criminal(\n            name,\n            nationality,\n            age,\n            crime,\n            amount,\n            false,\n            discriptors,\n            0\n        ); // token ID 0 \n        criminals[requestId] = newCriminal;\n        //  \n        emit RequestReceived(requestId, name, nationality, age, crime, amount);\n        //  ID \n        return requestId;\n    }\n\n    function calculateFleeingRisk(\n        string memory nationality,\n        uint256 age,\n        string memory crime,\n        uint256 amount\n    ) internal pure returns (uint) {\n        //    \n        uint nationalRiskFactor;\n        if (\n            keccak256(bytes(nationality)) == keccak256(bytes(\"United States\"))\n        ) {\n            nationalRiskFactor = 5;\n        } else if (\n            keccak256(bytes(nationality)) == keccak256(bytes(\"Russia\"))\n        ) {\n            nationalRiskFactor = 10;\n        } else if (keccak256(bytes(nationality)) == keccak256(bytes(\"China\"))) {\n            nationalRiskFactor = 15;\n        } else {\n            nationalRiskFactor = 20;\n        }\n\n        //    \n        uint256 ageRiskFactor;\n        if (age < 20) {\n            ageRiskFactor = 5;\n        } else if (age < 30) {\n            ageRiskFactor = 10;\n        } else if (age < 40) {\n            ageRiskFactor = 15;\n        } else {\n            ageRiskFactor = 20;\n        } \n\n        //     \n        uint256 crimeRiskFactor;\n        if (keccak256(bytes(crime)) == keccak256(bytes(\"Money Laundering\"))) {\n            crimeRiskFactor = 5;\n        } else if (keccak256(bytes(crime)) == keccak256(bytes(\"Fraud\"))) {\n            crimeRiskFactor = 10;\n        } else if (\n            keccak256(bytes(crime)) == keccak256(bytes(\"Drug Trafficking\"))\n        ) {\n            crimeRiskFactor = 15;\n        } else {\n            crimeRiskFactor = 20;\n        }\n\n        //     \n        //    \n        uint256 amountRiskFactor;\n        if (amount < 10000) {\n            amountRiskFactor = 5;\n        } else if (amount < 100000) {\n            amountRiskFactor = 10;\n        } else if (amount < 1000000) {\n            amountRiskFactor = 15;\n        } else {\n            amountRiskFactor = 20;\n        }\n\n        //    \n        uint256 totalRisk = nationalRiskFactor +\n            ageRiskFactor +\n            crimeRiskFactor +\n            amountRiskFactor;\n        return totalRisk;\n    }\n\n    //   \n    function issueRedNotice(bytes32 requestId) public onlyAllowed{\n        //     \n        Criminal storage criminal = criminals[requestId];\n        //      \n        require(\n            criminal.age > 0 && !criminal.redNoticeIssued,\n            \"Invalid request ID or red notice already issued\"\n        );\n\n        //   \n        uint256 fleeingRisk = calculateFleeingRisk(\n            criminal.nationality,\n            criminal.age,\n            criminal.crime,\n            criminal.amount\n        );\n        //     \n        require(\n            fleeingRisk > 20,\n            \"Fleeing risk is too low to issue a red notice\"\n        );\n\n        //     \n        uint256 tokenId = _tokenIdCounter.current();\n        _tokenIdCounter.increment();\n\n        Criminal memory newCriminal = Criminal({\n            name: criminal.name,\n            nationality: criminal.nationality,\n            age: criminal.age,\n            crime: criminal.crime,\n            amount: criminal.amount,\n            redNoticeIssued: true,\n            discriptors:criminal.discriptors,\n            tokenId: tokenId\n        }); // token ID 0 \n        // criminals[requestId] = newCriminal;\n        _criminalInfoList[tokenId] = newCriminal;\n        //  \n        _safeMint(msg.sender, tokenId);\n        //  \n        emit RedNoticeIssued(requestId);\n    }\n\n    //  ID    \n    function getCriminal(\n        uint256 tokenId\n    )\n        public view\n        returns (\n            string memory,\n            string memory,\n            uint256,\n            string memory,\n            bool,\n            string memory,\n            uint256\n        )\n    {\n        // tokenId bytes32     \n        // bytes32 requestId = bytes32(tokenId);\n        // Criminal storage criminal = criminals[requestId];\n        require(\n            _criminalInfoList[tokenId].tokenId == tokenId,\n            \"it doesn't match any criminal info\"\n        );\n\n        //   \n        return (\n            _criminalInfoList[tokenId].name,\n            _criminalInfoList[tokenId].nationality,\n            _criminalInfoList[tokenId].age,\n            _criminalInfoList[tokenId].crime,\n            _criminalInfoList[tokenId].redNoticeIssued,\n            _criminalInfoList[tokenId].discriptors,\n            _criminalInfoList[tokenId].tokenId\n        );\n    }\n\n    //   \n    function withdrawRedNotice(uint tokenId) public onlyAllowed{\n        // tokenId bytes32     \n        // bytes32 requestId = bytes32(tokenId);\n        // Criminal storage criminal = criminals[requestId];\n        //     \n        require(\n            _criminalInfoList[tokenId].tokenId == tokenId,\n            \"it doesn't match any criminal info\"\n        );\n\n        //  \n        // criminal.redNoticeIssued = false;\n        //  \n        _burn(tokenId);\n    }\n}\n",
  "sourcePath": "/Users/gujaeug/Desktop/capstonpro/truffle/contracts/RedNotice.sol",
  "compiler": {
    "name": "solc",
    "version": "0.8.14+commit.80d49f37.Emscripten.clang"
  },
  "schemaVersion": "3.4.13",
  "updatedAt": "2023-05-18T13:22:07.592Z",
  "devdoc": {
    "kind": "dev",
    "methods": {
      "approve(address,uint256)": {
        "details": "See {IERC721-approve}."
      },
      "balanceOf(address)": {
        "details": "See {IERC721-balanceOf}."
      },
      "getApproved(uint256)": {
        "details": "See {IERC721-getApproved}."
      },
      "isApprovedForAll(address,address)": {
        "details": "See {IERC721-isApprovedForAll}."
      },
      "name()": {
        "details": "See {IERC721Metadata-name}."
      },
      "owner()": {
        "details": "Returns the address of the current owner."
      },
      "ownerOf(uint256)": {
        "details": "See {IERC721-ownerOf}."
      },
      "renounceOwnership()": {
        "details": "Leaves the contract without owner. It will not be possible to call `onlyOwner` functions anymore. Can only be called by the current owner. NOTE: Renouncing ownership will leave the contract without an owner, thereby removing any functionality that is only available to the owner."
      },
      "safeTransferFrom(address,address,uint256)": {
        "details": "See {IERC721-safeTransferFrom}."
      },
      "safeTransferFrom(address,address,uint256,bytes)": {
        "details": "See {IERC721-safeTransferFrom}."
      },
      "setApprovalForAll(address,bool)": {
        "details": "See {IERC721-setApprovalForAll}."
      },
      "symbol()": {
        "details": "See {IERC721Metadata-symbol}."
      },
      "tokenByIndex(uint256)": {
        "details": "See {IERC721Enumerable-tokenByIndex}."
      },
      "tokenOfOwnerByIndex(address,uint256)": {
        "details": "See {IERC721Enumerable-tokenOfOwnerByIndex}."
      },
      "tokenURI(uint256)": {
        "details": "See {IERC721Metadata-tokenURI}."
      },
      "totalSupply()": {
        "details": "See {IERC721Enumerable-totalSupply}."
      },
      "transferFrom(address,address,uint256)": {
        "details": "See {IERC721-transferFrom}."
      },
      "transferOwnership(address)": {
        "details": "Transfers ownership of the contract to a new account (`newOwner`). Can only be called by the current owner."
      }
    },
    "version": 1
  },
  "userdoc": {
    "kind": "user",
    "methods": {},
    "version": 1
  }
}