{
  "contractName": "TimelockController",
  "abi": [
    {
      "inputs": [
        {
          "internalType": "uint256",
          "name": "minDelay",
          "type": "uint256"
        },
        {
          "internalType": "address[]",
          "name": "proposers",
          "type": "address[]"
        },
        {
          "internalType": "address[]",
          "name": "executors",
          "type": "address[]"
        }
      ],
      "stateMutability": "nonpayable",
      "type": "constructor"
    },
    {
      "anonymous": false,
      "inputs": [
        {
          "indexed": true,
          "internalType": "bytes32",
          "name": "id",
          "type": "bytes32"
        },
        {
          "indexed": true,
          "internalType": "uint256",
          "name": "index",
          "type": "uint256"
        },
        {
          "indexed": false,
          "internalType": "address",
          "name": "target",
          "type": "address"
        },
        {
          "indexed": false,
          "internalType": "uint256",
          "name": "value",
          "type": "uint256"
        },
        {
          "indexed": false,
          "internalType": "bytes",
          "name": "data",
          "type": "bytes"
        }
      ],
      "name": "CallExecuted",
      "type": "event"
    },
    {
      "anonymous": false,
      "inputs": [
        {
          "indexed": true,
          "internalType": "bytes32",
          "name": "id",
          "type": "bytes32"
        },
        {
          "indexed": true,
          "internalType": "uint256",
          "name": "index",
          "type": "uint256"
        },
        {
          "indexed": false,
          "internalType": "address",
          "name": "target",
          "type": "address"
        },
        {
          "indexed": false,
          "internalType": "uint256",
          "name": "value",
          "type": "uint256"
        },
        {
          "indexed": false,
          "internalType": "bytes",
          "name": "data",
          "type": "bytes"
        },
        {
          "indexed": false,
          "internalType": "bytes32",
          "name": "predecessor",
          "type": "bytes32"
        },
        {
          "indexed": false,
          "internalType": "uint256",
          "name": "delay",
          "type": "uint256"
        }
      ],
      "name": "CallScheduled",
      "type": "event"
    },
    {
      "anonymous": false,
      "inputs": [
        {
          "indexed": true,
          "internalType": "bytes32",
          "name": "id",
          "type": "bytes32"
        }
      ],
      "name": "Cancelled",
      "type": "event"
    },
    {
      "anonymous": false,
      "inputs": [
        {
          "indexed": false,
          "internalType": "uint256",
          "name": "oldDuration",
          "type": "uint256"
        },
        {
          "indexed": false,
          "internalType": "uint256",
          "name": "newDuration",
          "type": "uint256"
        }
      ],
      "name": "MinDelayChange",
      "type": "event"
    },
    {
      "anonymous": false,
      "inputs": [
        {
          "indexed": true,
          "internalType": "bytes32",
          "name": "role",
          "type": "bytes32"
        },
        {
          "indexed": true,
          "internalType": "bytes32",
          "name": "previousAdminRole",
          "type": "bytes32"
        },
        {
          "indexed": true,
          "internalType": "bytes32",
          "name": "newAdminRole",
          "type": "bytes32"
        }
      ],
      "name": "RoleAdminChanged",
      "type": "event"
    },
    {
      "anonymous": false,
      "inputs": [
        {
          "indexed": true,
          "internalType": "bytes32",
          "name": "role",
          "type": "bytes32"
        },
        {
          "indexed": true,
          "internalType": "address",
          "name": "account",
          "type": "address"
        },
        {
          "indexed": true,
          "internalType": "address",
          "name": "sender",
          "type": "address"
        }
      ],
      "name": "RoleGranted",
      "type": "event"
    },
    {
      "anonymous": false,
      "inputs": [
        {
          "indexed": true,
          "internalType": "bytes32",
          "name": "role",
          "type": "bytes32"
        },
        {
          "indexed": true,
          "internalType": "address",
          "name": "account",
          "type": "address"
        },
        {
          "indexed": true,
          "internalType": "address",
          "name": "sender",
          "type": "address"
        }
      ],
      "name": "RoleRevoked",
      "type": "event"
    },
    {
      "inputs": [],
      "name": "CANCELLER_ROLE",
      "outputs": [
        {
          "internalType": "bytes32",
          "name": "",
          "type": "bytes32"
        }
      ],
      "stateMutability": "view",
      "type": "function"
    },
    {
      "inputs": [],
      "name": "DEFAULT_ADMIN_ROLE",
      "outputs": [
        {
          "internalType": "bytes32",
          "name": "",
          "type": "bytes32"
        }
      ],
      "stateMutability": "view",
      "type": "function"
    },
    {
      "inputs": [],
      "name": "EXECUTOR_ROLE",
      "outputs": [
        {
          "internalType": "bytes32",
          "name": "",
          "type": "bytes32"
        }
      ],
      "stateMutability": "view",
      "type": "function"
    },
    {
      "inputs": [],
      "name": "PROPOSER_ROLE",
      "outputs": [
        {
          "internalType": "bytes32",
          "name": "",
          "type": "bytes32"
        }
      ],
      "stateMutability": "view",
      "type": "function"
    },
    {
      "inputs": [],
      "name": "TIMELOCK_ADMIN_ROLE",
      "outputs": [
        {
          "internalType": "bytes32",
          "name": "",
          "type": "bytes32"
        }
      ],
      "stateMutability": "view",
      "type": "function"
    },
    {
      "inputs": [
        {
          "internalType": "bytes32",
          "name": "role",
          "type": "bytes32"
        }
      ],
      "name": "getRoleAdmin",
      "outputs": [
        {
          "internalType": "bytes32",
          "name": "",
          "type": "bytes32"
        }
      ],
      "stateMutability": "view",
      "type": "function"
    },
    {
      "inputs": [
        {
          "internalType": "bytes32",
          "name": "role",
          "type": "bytes32"
        },
        {
          "internalType": "address",
          "name": "account",
          "type": "address"
        }
      ],
      "name": "grantRole",
      "outputs": [],
      "stateMutability": "nonpayable",
      "type": "function"
    },
    {
      "inputs": [
        {
          "internalType": "bytes32",
          "name": "role",
          "type": "bytes32"
        },
        {
          "internalType": "address",
          "name": "account",
          "type": "address"
        }
      ],
      "name": "hasRole",
      "outputs": [
        {
          "internalType": "bool",
          "name": "",
          "type": "bool"
        }
      ],
      "stateMutability": "view",
      "type": "function"
    },
    {
      "inputs": [
        {
          "internalType": "bytes32",
          "name": "role",
          "type": "bytes32"
        },
        {
          "internalType": "address",
          "name": "account",
          "type": "address"
        }
      ],
      "name": "renounceRole",
      "outputs": [],
      "stateMutability": "nonpayable",
      "type": "function"
    },
    {
      "inputs": [
        {
          "internalType": "bytes32",
          "name": "role",
          "type": "bytes32"
        },
        {
          "internalType": "address",
          "name": "account",
          "type": "address"
        }
      ],
      "name": "revokeRole",
      "outputs": [],
      "stateMutability": "nonpayable",
      "type": "function"
    },
    {
      "stateMutability": "payable",
      "type": "receive"
    },
    {
      "inputs": [
        {
          "internalType": "bytes4",
          "name": "interfaceId",
          "type": "bytes4"
        }
      ],
      "name": "supportsInterface",
      "outputs": [
        {
          "internalType": "bool",
          "name": "",
          "type": "bool"
        }
      ],
      "stateMutability": "view",
      "type": "function"
    },
    {
      "inputs": [
        {
          "internalType": "bytes32",
          "name": "id",
          "type": "bytes32"
        }
      ],
      "name": "isOperation",
      "outputs": [
        {
          "internalType": "bool",
          "name": "registered",
          "type": "bool"
        }
      ],
      "stateMutability": "view",
      "type": "function"
    },
    {
      "inputs": [
        {
          "internalType": "bytes32",
          "name": "id",
          "type": "bytes32"
        }
      ],
      "name": "isOperationPending",
      "outputs": [
        {
          "internalType": "bool",
          "name": "pending",
          "type": "bool"
        }
      ],
      "stateMutability": "view",
      "type": "function"
    },
    {
      "inputs": [
        {
          "internalType": "bytes32",
          "name": "id",
          "type": "bytes32"
        }
      ],
      "name": "isOperationReady",
      "outputs": [
        {
          "internalType": "bool",
          "name": "ready",
          "type": "bool"
        }
      ],
      "stateMutability": "view",
      "type": "function"
    },
    {
      "inputs": [
        {
          "internalType": "bytes32",
          "name": "id",
          "type": "bytes32"
        }
      ],
      "name": "isOperationDone",
      "outputs": [
        {
          "internalType": "bool",
          "name": "done",
          "type": "bool"
        }
      ],
      "stateMutability": "view",
      "type": "function"
    },
    {
      "inputs": [
        {
          "internalType": "bytes32",
          "name": "id",
          "type": "bytes32"
        }
      ],
      "name": "getTimestamp",
      "outputs": [
        {
          "internalType": "uint256",
          "name": "timestamp",
          "type": "uint256"
        }
      ],
      "stateMutability": "view",
      "type": "function"
    },
    {
      "inputs": [],
      "name": "getMinDelay",
      "outputs": [
        {
          "internalType": "uint256",
          "name": "duration",
          "type": "uint256"
        }
      ],
      "stateMutability": "view",
      "type": "function"
    },
    {
      "inputs": [
        {
          "internalType": "address",
          "name": "target",
          "type": "address"
        },
        {
          "internalType": "uint256",
          "name": "value",
          "type": "uint256"
        },
        {
          "internalType": "bytes",
          "name": "data",
          "type": "bytes"
        },
        {
          "internalType": "bytes32",
          "name": "predecessor",
          "type": "bytes32"
        },
        {
          "internalType": "bytes32",
          "name": "salt",
          "type": "bytes32"
        }
      ],
      "name": "hashOperation",
      "outputs": [
        {
          "internalType": "bytes32",
          "name": "hash",
          "type": "bytes32"
        }
      ],
      "stateMutability": "pure",
      "type": "function"
    },
    {
      "inputs": [
        {
          "internalType": "address[]",
          "name": "targets",
          "type": "address[]"
        },
        {
          "internalType": "uint256[]",
          "name": "values",
          "type": "uint256[]"
        },
        {
          "internalType": "bytes[]",
          "name": "payloads",
          "type": "bytes[]"
        },
        {
          "internalType": "bytes32",
          "name": "predecessor",
          "type": "bytes32"
        },
        {
          "internalType": "bytes32",
          "name": "salt",
          "type": "bytes32"
        }
      ],
      "name": "hashOperationBatch",
      "outputs": [
        {
          "internalType": "bytes32",
          "name": "hash",
          "type": "bytes32"
        }
      ],
      "stateMutability": "pure",
      "type": "function"
    },
    {
      "inputs": [
        {
          "internalType": "address",
          "name": "target",
          "type": "address"
        },
        {
          "internalType": "uint256",
          "name": "value",
          "type": "uint256"
        },
        {
          "internalType": "bytes",
          "name": "data",
          "type": "bytes"
        },
        {
          "internalType": "bytes32",
          "name": "predecessor",
          "type": "bytes32"
        },
        {
          "internalType": "bytes32",
          "name": "salt",
          "type": "bytes32"
        },
        {
          "internalType": "uint256",
          "name": "delay",
          "type": "uint256"
        }
      ],
      "name": "schedule",
      "outputs": [],
      "stateMutability": "nonpayable",
      "type": "function"
    },
    {
      "inputs": [
        {
          "internalType": "address[]",
          "name": "targets",
          "type": "address[]"
        },
        {
          "internalType": "uint256[]",
          "name": "values",
          "type": "uint256[]"
        },
        {
          "internalType": "bytes[]",
          "name": "payloads",
          "type": "bytes[]"
        },
        {
          "internalType": "bytes32",
          "name": "predecessor",
          "type": "bytes32"
        },
        {
          "internalType": "bytes32",
          "name": "salt",
          "type": "bytes32"
        },
        {
          "internalType": "uint256",
          "name": "delay",
          "type": "uint256"
        }
      ],
      "name": "scheduleBatch",
      "outputs": [],
      "stateMutability": "nonpayable",
      "type": "function"
    },
    {
      "inputs": [
        {
          "internalType": "bytes32",
          "name": "id",
          "type": "bytes32"
        }
      ],
      "name": "cancel",
      "outputs": [],
      "stateMutability": "nonpayable",
      "type": "function"
    },
    {
      "inputs": [
        {
          "internalType": "address",
          "name": "target",
          "type": "address"
        },
        {
          "internalType": "uint256",
          "name": "value",
          "type": "uint256"
        },
        {
          "internalType": "bytes",
          "name": "payload",
          "type": "bytes"
        },
        {
          "internalType": "bytes32",
          "name": "predecessor",
          "type": "bytes32"
        },
        {
          "internalType": "bytes32",
          "name": "salt",
          "type": "bytes32"
        }
      ],
      "name": "execute",
      "outputs": [],
      "stateMutability": "payable",
      "type": "function"
    },
    {
      "inputs": [
        {
          "internalType": "address[]",
          "name": "targets",
          "type": "address[]"
        },
        {
          "internalType": "uint256[]",
          "name": "values",
          "type": "uint256[]"
        },
        {
          "internalType": "bytes[]",
          "name": "payloads",
          "type": "bytes[]"
        },
        {
          "internalType": "bytes32",
          "name": "predecessor",
          "type": "bytes32"
        },
        {
          "internalType": "bytes32",
          "name": "salt",
          "type": "bytes32"
        }
      ],
      "name": "executeBatch",
      "outputs": [],
      "stateMutability": "payable",
      "type": "function"
    },
    {
      "inputs": [
        {
          "internalType": "uint256",
          "name": "newDelay",
          "type": "uint256"
        }
      ],
      "name": "updateDelay",
      "outputs": [],
      "stateMutability": "nonpayable",
      "type": "function"
    },
    {
      "inputs": [
        {
          "internalType": "address",
          "name": "",
          "type": "address"
        },
        {
          "internalType": "address",
          "name": "",
          "type": "address"
        },
        {
          "internalType": "uint256",
          "name": "",
          "type": "uint256"
        },
        {
          "internalType": "bytes",
          "name": "",
          "type": "bytes"
        }
      ],
      "name": "onERC721Received",
      "outputs": [
        {
          "internalType": "bytes4",
          "name": "",
          "type": "bytes4"
        }
      ],
      "stateMutability": "nonpayable",
      "type": "function"
    },
    {
      "inputs": [
        {
          "internalType": "address",
          "name": "",
          "type": "address"
        },
        {
          "internalType": "address",
          "name": "",
          "type": "address"
        },
        {
          "internalType": "uint256",
          "name": "",
          "type": "uint256"
        },
        {
          "internalType": "uint256",
          "name": "",
          "type": "uint256"
        },
        {
          "internalType": "bytes",
          "name": "",
          "type": "bytes"
        }
      ],
      "name": "onERC1155Received",
      "outputs": [
        {
          "internalType": "bytes4",
          "name": "",
          "type": "bytes4"
        }
      ],
      "stateMutability": "nonpayable",
      "type": "function"
    },
    {
      "inputs": [
        {
          "internalType": "address",
          "name": "",
          "type": "address"
        },
        {
          "internalType": "address",
          "name": "",
          "type": "address"
        },
        {
          "internalType": "uint256[]",
          "name": "",
          "type": "uint256[]"
        },
        {
          "internalType": "uint256[]",
          "name": "",
          "type": "uint256[]"
        },
        {
          "internalType": "bytes",
          "name": "",
          "type": "bytes"
        }
      ],
      "name": "onERC1155BatchReceived",
      "outputs": [
        {
          "internalType": "bytes4",
          "name": "",
          "type": "bytes4"
        }
      ],
      "stateMutability": "nonpayable",
      "type": "function"
    }
  ],
  "bytecode": "0x60806040523480156200001157600080fd5b5060405162003c0c38038062003c0c833981810160405281019062000037919062000773565b620000697f5f58e3a2316349923ce3780f8d587db2d72378aed66a8261c916544fa6846ca5806200034f60201b60201c565b620000bb7fb09aa5aeb3702cfd50b6b62bc4532604938f21248a27a1d5ca736082b6819cc17f5f58e3a2316349923ce3780f8d587db2d72378aed66a8261c916544fa6846ca56200034f60201b60201c565b6200010d7fd8aa0f3194971a2a116679f7c2090f6939c8d4e01a2a8d7e41d55e5351469e637f5f58e3a2316349923ce3780f8d587db2d72378aed66a8261c916544fa6846ca56200034f60201b60201c565b6200015f7ffd643c72710c63c0180259aba6b2d05451e3591a24e58b62239378085726f7837f5f58e3a2316349923ce3780f8d587db2d72378aed66a8261c916544fa6846ca56200034f60201b60201c565b620001a07f5f58e3a2316349923ce3780f8d587db2d72378aed66a8261c916544fa6846ca562000194620003b260201b60201c565b620003ba60201b60201c565b620001d27f5f58e3a2316349923ce3780f8d587db2d72378aed66a8261c916544fa6846ca530620003ba60201b60201c565b60005b825181101562000291576200022e7fb09aa5aeb3702cfd50b6b62bc4532604938f21248a27a1d5ca736082b6819cc18483815181106200021a57620002196200080d565b5b6020026020010151620003ba60201b60201c565b6200027d7ffd643c72710c63c0180259aba6b2d05451e3591a24e58b62239378085726f7838483815181106200026957620002686200080d565b5b6020026020010151620003ba60201b60201c565b8062000289906200086b565b9050620001d5565b5060005b81518110156200030257620002ee7fd8aa0f3194971a2a116679f7c2090f6939c8d4e01a2a8d7e41d55e5351469e63838381518110620002da57620002d96200080d565b5b6020026020010151620003ba60201b60201c565b80620002fa906200086b565b905062000295565b50826002819055507f11c24f4ead16507c69ac467fbd5e4eed5fb5c699626d2cc6d66421df253886d56000846040516200033e92919062000916565b60405180910390a150505062000943565b60006200036283620003d060201b60201c565b905081600080858152602001908152602001600020600101819055508181847fbd79b86ffe0ab8e8776151514217cd7cacd52c909f66475c3af44e129f0b00ff60405160405180910390a4505050565b600033905090565b620003cc8282620003ef60201b60201c565b5050565b6000806000838152602001908152602001600020600101549050919050565b620004018282620004e060201b60201c565b620004dc57600160008084815260200190815260200160002060000160008373ffffffffffffffffffffffffffffffffffffffff1673ffffffffffffffffffffffffffffffffffffffff16815260200190815260200160002060006101000a81548160ff02191690831515021790555062000481620003b260201b60201c565b73ffffffffffffffffffffffffffffffffffffffff168173ffffffffffffffffffffffffffffffffffffffff16837f2f8788117e7eff1d82e926ec794901d17c78024a50270940304540a733656f0d60405160405180910390a45b5050565b600080600084815260200190815260200160002060000160008373ffffffffffffffffffffffffffffffffffffffff1673ffffffffffffffffffffffffffffffffffffffff16815260200190815260200160002060009054906101000a900460ff16905092915050565b6000604051905090565b600080fd5b600080fd5b6000819050919050565b62000573816200055e565b81146200057f57600080fd5b50565b600081519050620005938162000568565b92915050565b600080fd5b6000601f19601f8301169050919050565b7f4e487b7100000000000000000000000000000000000000000000000000000000600052604160045260246000fd5b620005e9826200059e565b810181811067ffffffffffffffff821117156200060b576200060a620005af565b5b80604052505050565b6000620006206200054a565b90506200062e8282620005de565b919050565b600067ffffffffffffffff821115620006515762000650620005af565b5b602082029050602081019050919050565b600080fd5b600073ffffffffffffffffffffffffffffffffffffffff82169050919050565b6000620006948262000667565b9050919050565b620006a68162000687565b8114620006b257600080fd5b50565b600081519050620006c6816200069b565b92915050565b6000620006e3620006dd8462000633565b62000614565b9050808382526020820190506020840283018581111562000709576200070862000662565b5b835b81811015620007365780620007218882620006b5565b8452602084019350506020810190506200070b565b5050509392505050565b600082601f83011262000758576200075762000599565b5b81516200076a848260208601620006cc565b91505092915050565b6000806000606084860312156200078f576200078e62000554565b5b60006200079f8682870162000582565b935050602084015167ffffffffffffffff811115620007c357620007c262000559565b5b620007d18682870162000740565b925050604084015167ffffffffffffffff811115620007f557620007f462000559565b5b620008038682870162000740565b9150509250925092565b7f4e487b7100000000000000000000000000000000000000000000000000000000600052603260045260246000fd5b7f4e487b7100000000000000000000000000000000000000000000000000000000600052601160045260246000fd5b600062000878826200055e565b91507fffffffffffffffffffffffffffffffffffffffffffffffffffffffffffffffff8203620008ad57620008ac6200083c565b5b600182019050919050565b6000819050919050565b6000819050919050565b6000620008ed620008e7620008e184620008b8565b620008c2565b6200055e565b9050919050565b620008ff81620008cc565b82525050565b62000910816200055e565b82525050565b60006040820190506200092d6000830185620008f4565b6200093c602083018462000905565b9392505050565b6132b980620009536000396000f3fe6080604052600436106101bb5760003560e01c80638065657f116100ec578063bc197c811161008a578063d547741f11610064578063d547741f1461068c578063e38335e5146106b5578063f23a6e61146106d1578063f27a0c921461070e576101c2565b8063bc197c81146105e9578063c4d252f514610626578063d45c44351461064f576101c2565b806391d14854116100c657806391d1485414610519578063a217fddf14610556578063b08e51c014610581578063b1c5f427146105ac576101c2565b80638065657f146104885780638f2a0bb0146104c55780638f61f4f5146104ee576101c2565b8063248a9ca31161015957806331d507501161013357806331d50750146103bc57806336568abe146103f9578063584b153e1461042257806364d623531461045f576101c2565b8063248a9ca3146103195780632ab0f529146103565780632f2ff15d14610393576101c2565b80630d3cf6fc116101955780630d3cf6fc14610258578063134008d31461028357806313bc9f201461029f578063150b7a02146102dc576101c2565b806301d5062a146101c757806301ffc9a7146101f057806307bd02651461022d576101c2565b366101c257005b600080fd5b3480156101d357600080fd5b506101ee60048036038101906101e99190611a8b565b610739565b005b3480156101fc57600080fd5b5061021760048036038101906102129190611b92565b6107ce565b6040516102249190611bda565b60405180910390f35b34801561023957600080fd5b50610242610848565b60405161024f9190611c04565b60405180910390f35b34801561026457600080fd5b5061026d61086c565b60405161027a9190611c04565b60405180910390f35b61029d60048036038101906102989190611c1f565b610890565b005b3480156102ab57600080fd5b506102c660048036038101906102c19190611cb9565b61094d565b6040516102d39190611bda565b60405180910390f35b3480156102e857600080fd5b5061030360048036038101906102fe9190611e27565b610973565b6040516103109190611eb9565b60405180910390f35b34801561032557600080fd5b50610340600480360381019061033b9190611cb9565b610987565b60405161034d9190611c04565b60405180910390f35b34801561036257600080fd5b5061037d60048036038101906103789190611cb9565b6109a6565b60405161038a9190611bda565b60405180910390f35b34801561039f57600080fd5b506103ba60048036038101906103b59190611ed4565b6109bb565b005b3480156103c857600080fd5b506103e360048036038101906103de9190611cb9565b6109dc565b6040516103f09190611bda565b60405180910390f35b34801561040557600080fd5b50610420600480360381019061041b9190611ed4565b6109f0565b005b34801561042e57600080fd5b5061044960048036038101906104449190611cb9565b610a73565b6040516104569190611bda565b60405180910390f35b34801561046b57600080fd5b5061048660048036038101906104819190611f14565b610a88565b005b34801561049457600080fd5b506104af60048036038101906104aa9190611c1f565b610b3b565b6040516104bc9190611c04565b60405180910390f35b3480156104d157600080fd5b506104ec60048036038101906104e79190612043565b610b7a565b005b3480156104fa57600080fd5b50610503610d25565b6040516105109190611c04565b60405180910390f35b34801561052557600080fd5b50610540600480360381019061053b9190611ed4565b610d49565b60405161054d9190611bda565b60405180910390f35b34801561056257600080fd5b5061056b610db3565b6040516105789190611c04565b60405180910390f35b34801561058d57600080fd5b50610596610dba565b6040516105a39190611c04565b60405180910390f35b3480156105b857600080fd5b506105d360048036038101906105ce9190612132565b610dde565b6040516105e09190611c04565b60405180910390f35b3480156105f557600080fd5b50610610600480360381019061060b91906122d1565b610e23565b60405161061d9190611eb9565b60405180910390f35b34801561063257600080fd5b5061064d60048036038101906106489190611cb9565b610e38565b005b34801561065b57600080fd5b5061067660048036038101906106719190611cb9565b610ef2565b60405161068391906123af565b60405180910390f35b34801561069857600080fd5b506106b360048036038101906106ae9190611ed4565b610f0f565b005b6106cf60048036038101906106ca9190612132565b610f30565b005b3480156106dd57600080fd5b506106f860048036038101906106f391906123ca565b61111a565b6040516107059190611eb9565b60405180910390f35b34801561071a57600080fd5b5061072361112f565b60405161073091906123af565b60405180910390f35b7fb09aa5aeb3702cfd50b6b62bc4532604938f21248a27a1d5ca736082b6819cc161076381611139565b6000610773898989898989610b3b565b905061077f818461114d565b6000817f4cf4410cc57040e44862ef0f45f3dd5a5e02db8eb8add648d4b0e236f1d07dca8b8b8b8b8b8a6040516107bb969594939291906124ae565b60405180910390a3505050505050505050565b60007f4e2312e0000000000000000000000000000000000000000000000000000000007bffffffffffffffffffffffffffffffffffffffffffffffffffffffff1916827bffffffffffffffffffffffffffffffffffffffffffffffffffffffff19161480610841575061084082611207565b5b9050919050565b7fd8aa0f3194971a2a116679f7c2090f6939c8d4e01a2a8d7e41d55e5351469e6381565b7f5f58e3a2316349923ce3780f8d587db2d72378aed66a8261c916544fa6846ca581565b7fd8aa0f3194971a2a116679f7c2090f6939c8d4e01a2a8d7e41d55e5351469e636108bc816000610d49565b6108d2576108d1816108cc611281565b611289565b5b60006108e2888888888888610b3b565b90506108ee8185611326565b6108fa888888886113c7565b6000817fc2617efa69bab66782fa219543714338489c4e9e178271560a91b82c3f612b588a8a8a8a604051610932949392919061250a565b60405180910390a36109438161147e565b5050505050505050565b60008061095983610ef2565b905060018111801561096b5750428111155b915050919050565b600063150b7a0260e01b9050949350505050565b6000806000838152602001908152602001600020600101549050919050565b600060016109b383610ef2565b149050919050565b6109c482610987565b6109cd81611139565b6109d783836114e1565b505050565b6000806109e883610ef2565b119050919050565b6109f8611281565b73ffffffffffffffffffffffffffffffffffffffff168173ffffffffffffffffffffffffffffffffffffffff1614610a65576040517f08c379a0000000000000000000000000000000000000000000000000000000008152600401610a5c906125cd565b60405180910390fd5b610a6f82826115c1565b5050565b60006001610a8083610ef2565b119050919050565b3073ffffffffffffffffffffffffffffffffffffffff163373ffffffffffffffffffffffffffffffffffffffff1614610af6576040517f08c379a0000000000000000000000000000000000000000000000000000000008152600401610aed9061265f565b60405180910390fd5b7f11c24f4ead16507c69ac467fbd5e4eed5fb5c699626d2cc6d66421df253886d560025482604051610b2992919061267f565b60405180910390a18060028190555050565b6000868686868686604051602001610b58969594939291906126a8565b6040516020818303038152906040528051906020012090509695505050505050565b7fb09aa5aeb3702cfd50b6b62bc4532604938f21248a27a1d5ca736082b6819cc1610ba481611139565b878790508a8a905014610bec576040517f08c379a0000000000000000000000000000000000000000000000000000000008152600401610be390612776565b60405180910390fd5b858590508a8a905014610c34576040517f08c379a0000000000000000000000000000000000000000000000000000000008152600401610c2b90612776565b60405180910390fd5b6000610c468b8b8b8b8b8b8b8b610dde565b9050610c52818461114d565b60005b8b8b9050811015610d175780827f4cf4410cc57040e44862ef0f45f3dd5a5e02db8eb8add648d4b0e236f1d07dca8e8e85818110610c9657610c95612796565b5b9050602002016020810190610cab91906127c5565b8d8d86818110610cbe57610cbd612796565b5b905060200201358c8c87818110610cd857610cd7612796565b5b9050602002810190610cea9190612801565b8c8b604051610cfe969594939291906124ae565b60405180910390a380610d1090612893565b9050610c55565b505050505050505050505050565b7fb09aa5aeb3702cfd50b6b62bc4532604938f21248a27a1d5ca736082b6819cc181565b600080600084815260200190815260200160002060000160008373ffffffffffffffffffffffffffffffffffffffff1673ffffffffffffffffffffffffffffffffffffffff16815260200190815260200160002060009054906101000a900460ff16905092915050565b6000801b81565b7ffd643c72710c63c0180259aba6b2d05451e3591a24e58b62239378085726f78381565b60008888888888888888604051602001610dff989796959493929190612b74565b60405160208183030381529060405280519060200120905098975050505050505050565b600063bc197c8160e01b905095945050505050565b7ffd643c72710c63c0180259aba6b2d05451e3591a24e58b62239378085726f783610e6281611139565b610e6b82610a73565b610eaa576040517f08c379a0000000000000000000000000000000000000000000000000000000008152600401610ea190612c54565b60405180910390fd5b6001600083815260200190815260200160002060009055817fbaa1eb22f2a492ba1a5fea61b8df4d27c6c8b5f3971e63bb58fa14ff72eedb7060405160405180910390a25050565b600060016000838152602001908152602001600020549050919050565b610f1882610987565b610f2181611139565b610f2b83836115c1565b505050565b7fd8aa0f3194971a2a116679f7c2090f6939c8d4e01a2a8d7e41d55e5351469e63610f5c816000610d49565b610f7257610f7181610f6c611281565b611289565b5b868690508989905014610fba576040517f08c379a0000000000000000000000000000000000000000000000000000000008152600401610fb190612776565b60405180910390fd5b848490508989905014611002576040517f08c379a0000000000000000000000000000000000000000000000000000000008152600401610ff990612776565b60405180910390fd5b60006110148a8a8a8a8a8a8a8a610dde565b90506110208185611326565b60005b8a8a90508110156111045760008b8b8381811061104357611042612796565b5b905060200201602081019061105891906127c5565b905060008a8a8481811061106f5761106e612796565b5b9050602002013590503660008a8a8681811061108e5761108d612796565b5b90506020028101906110a09190612801565b915091506110b0848484846113c7565b84867fc2617efa69bab66782fa219543714338489c4e9e178271560a91b82c3f612b58868686866040516110e7949392919061250a565b60405180910390a350505050806110fd90612893565b9050611023565b5061110e8161147e565b50505050505050505050565b600063f23a6e6160e01b905095945050505050565b6000600254905090565b61114a81611145611281565b611289565b50565b611156826109dc565b15611196576040517f08c379a000000000000000000000000000000000000000000000000000000000815260040161118d90612ce6565b60405180910390fd5b61119e61112f565b8110156111e0576040517f08c379a00000000000000000000000000000000000000000000000000000000081526004016111d790612d78565b60405180910390fd5b80426111ec9190612d98565b60016000848152602001908152602001600020819055505050565b60007f7965db0b000000000000000000000000000000000000000000000000000000007bffffffffffffffffffffffffffffffffffffffffffffffffffffffff1916827bffffffffffffffffffffffffffffffffffffffffffffffffffffffff1916148061127a5750611279826116a2565b5b9050919050565b600033905090565b6112938282610d49565b611322576112b88173ffffffffffffffffffffffffffffffffffffffff16601461170c565b6112c68360001c602061170c565b6040516020016112d7929190612f00565b6040516020818303038152906040526040517f08c379a00000000000000000000000000000000000000000000000000000000081526004016113199190612f73565b60405180910390fd5b5050565b61132f8261094d565b61136e576040517f08c379a000000000000000000000000000000000000000000000000000000000815260040161136590613007565b60405180910390fd5b6000801b8114806113845750611383816109a6565b5b6113c3576040517f08c379a00000000000000000000000000000000000000000000000000000000081526004016113ba90613099565b60405180910390fd5b5050565b60008473ffffffffffffffffffffffffffffffffffffffff168484846040516113f19291906130e9565b60006040518083038185875af1925050503d806000811461142e576040519150601f19603f3d011682016040523d82523d6000602084013e611433565b606091505b5050905080611477576040517f08c379a000000000000000000000000000000000000000000000000000000000815260040161146e90613174565b60405180910390fd5b5050505050565b6114878161094d565b6114c6576040517f08c379a00000000000000000000000000000000000000000000000000000000081526004016114bd90613007565b60405180910390fd5b60018060008381526020019081526020016000208190555050565b6114eb8282610d49565b6115bd57600160008084815260200190815260200160002060000160008373ffffffffffffffffffffffffffffffffffffffff1673ffffffffffffffffffffffffffffffffffffffff16815260200190815260200160002060006101000a81548160ff021916908315150217905550611562611281565b73ffffffffffffffffffffffffffffffffffffffff168173ffffffffffffffffffffffffffffffffffffffff16837f2f8788117e7eff1d82e926ec794901d17c78024a50270940304540a733656f0d60405160405180910390a45b5050565b6115cb8282610d49565b1561169e57600080600084815260200190815260200160002060000160008373ffffffffffffffffffffffffffffffffffffffff1673ffffffffffffffffffffffffffffffffffffffff16815260200190815260200160002060006101000a81548160ff021916908315150217905550611643611281565b73ffffffffffffffffffffffffffffffffffffffff168173ffffffffffffffffffffffffffffffffffffffff16837ff6391f5c32d9c69d2a47ea670b442974b53935d1edc7fd64eb21e047a839171b60405160405180910390a45b5050565b60007f01ffc9a7000000000000000000000000000000000000000000000000000000007bffffffffffffffffffffffffffffffffffffffffffffffffffffffff1916827bffffffffffffffffffffffffffffffffffffffffffffffffffffffff1916149050919050565b60606000600283600261171f9190613194565b6117299190612d98565b67ffffffffffffffff81111561174257611741611cfc565b5b6040519080825280601f01601f1916602001820160405280156117745781602001600182028036833780820191505090505b5090507f3000000000000000000000000000000000000000000000000000000000000000816000815181106117ac576117ab612796565b5b60200101907effffffffffffffffffffffffffffffffffffffffffffffffffffffffffffff1916908160001a9053507f7800000000000000000000000000000000000000000000000000000000000000816001815181106118105761180f612796565b5b60200101907effffffffffffffffffffffffffffffffffffffffffffffffffffffffffffff1916908160001a905350600060018460026118509190613194565b61185a9190612d98565b90505b60018111156118fa577f3031323334353637383961626364656600000000000000000000000000000000600f86166010811061189c5761189b612796565b5b1a60f81b8282815181106118b3576118b2612796565b5b60200101907effffffffffffffffffffffffffffffffffffffffffffffffffffffffffffff1916908160001a905350600485901c9450806118f3906131ee565b905061185d565b506000841461193e576040517f08c379a000000000000000000000000000000000000000000000000000000000815260040161193590613263565b60405180910390fd5b8091505092915050565b6000604051905090565b600080fd5b600080fd5b600073ffffffffffffffffffffffffffffffffffffffff82169050919050565b60006119878261195c565b9050919050565b6119978161197c565b81146119a257600080fd5b50565b6000813590506119b48161198e565b92915050565b6000819050919050565b6119cd816119ba565b81146119d857600080fd5b50565b6000813590506119ea816119c4565b92915050565b600080fd5b600080fd5b600080fd5b60008083601f840112611a1557611a146119f0565b5b8235905067ffffffffffffffff811115611a3257611a316119f5565b5b602083019150836001820283011115611a4e57611a4d6119fa565b5b9250929050565b6000819050919050565b611a6881611a55565b8114611a7357600080fd5b50565b600081359050611a8581611a5f565b92915050565b600080600080600080600060c0888a031215611aaa57611aa9611952565b5b6000611ab88a828b016119a5565b9750506020611ac98a828b016119db565b965050604088013567ffffffffffffffff811115611aea57611ae9611957565b5b611af68a828b016119ff565b95509550506060611b098a828b01611a76565b9350506080611b1a8a828b01611a76565b92505060a0611b2b8a828b016119db565b91505092959891949750929550565b60007fffffffff0000000000000000000000000000000000000000000000000000000082169050919050565b611b6f81611b3a565b8114611b7a57600080fd5b50565b600081359050611b8c81611b66565b92915050565b600060208284031215611ba857611ba7611952565b5b6000611bb684828501611b7d565b91505092915050565b60008115159050919050565b611bd481611bbf565b82525050565b6000602082019050611bef6000830184611bcb565b92915050565b611bfe81611a55565b82525050565b6000602082019050611c196000830184611bf5565b92915050565b60008060008060008060a08789031215611c3c57611c3b611952565b5b6000611c4a89828a016119a5565b9650506020611c5b89828a016119db565b955050604087013567ffffffffffffffff811115611c7c57611c7b611957565b5b611c8889828a016119ff565b94509450506060611c9b89828a01611a76565b9250506080611cac89828a01611a76565b9150509295509295509295565b600060208284031215611ccf57611cce611952565b5b6000611cdd84828501611a76565b91505092915050565b600080fd5b6000601f19601f8301169050919050565b7f4e487b7100000000000000000000000000000000000000000000000000000000600052604160045260246000fd5b611d3482611ceb565b810181811067ffffffffffffffff82111715611d5357611d52611cfc565b5b80604052505050565b6000611d66611948565b9050611d728282611d2b565b919050565b600067ffffffffffffffff821115611d9257611d91611cfc565b5b611d9b82611ceb565b9050602081019050919050565b82818337600083830152505050565b6000611dca611dc584611d77565b611d5c565b905082815260208101848484011115611de657611de5611ce6565b5b611df1848285611da8565b509392505050565b600082601f830112611e0e57611e0d6119f0565b5b8135611e1e848260208601611db7565b91505092915050565b60008060008060808587031215611e4157611e40611952565b5b6000611e4f878288016119a5565b9450506020611e60878288016119a5565b9350506040611e71878288016119db565b925050606085013567ffffffffffffffff811115611e9257611e91611957565b5b611e9e87828801611df9565b91505092959194509250565b611eb381611b3a565b82525050565b6000602082019050611ece6000830184611eaa565b92915050565b60008060408385031215611eeb57611eea611952565b5b6000611ef985828601611a76565b9250506020611f0a858286016119a5565b9150509250929050565b600060208284031215611f2a57611f29611952565b5b6000611f38848285016119db565b91505092915050565b60008083601f840112611f5757611f566119f0565b5b8235905067ffffffffffffffff811115611f7457611f736119f5565b5b602083019150836020820283011115611f9057611f8f6119fa565b5b9250929050565b60008083601f840112611fad57611fac6119f0565b5b8235905067ffffffffffffffff811115611fca57611fc96119f5565b5b602083019150836020820283011115611fe657611fe56119fa565b5b9250929050565b60008083601f840112612003576120026119f0565b5b8235905067ffffffffffffffff8111156120205761201f6119f5565b5b60208301915083602082028301111561203c5761203b6119fa565b5b9250929050565b600080600080600080600080600060c08a8c03121561206557612064611952565b5b60008a013567ffffffffffffffff81111561208357612082611957565b5b61208f8c828d01611f41565b995099505060208a013567ffffffffffffffff8111156120b2576120b1611957565b5b6120be8c828d01611f97565b975097505060408a013567ffffffffffffffff8111156120e1576120e0611957565b5b6120ed8c828d01611fed565b955095505060606121008c828d01611a76565b93505060806121118c828d01611a76565b92505060a06121228c828d016119db565b9150509295985092959850929598565b60008060008060008060008060a0898b03121561215257612151611952565b5b600089013567ffffffffffffffff8111156121705761216f611957565b5b61217c8b828c01611f41565b9850985050602089013567ffffffffffffffff81111561219f5761219e611957565b5b6121ab8b828c01611f97565b9650965050604089013567ffffffffffffffff8111156121ce576121cd611957565b5b6121da8b828c01611fed565b945094505060606121ed8b828c01611a76565b92505060806121fe8b828c01611a76565b9150509295985092959890939650565b600067ffffffffffffffff82111561222957612228611cfc565b5b602082029050602081019050919050565b600061224d6122488461220e565b611d5c565b905080838252602082019050602084028301858111156122705761226f6119fa565b5b835b81811015612299578061228588826119db565b845260208401935050602081019050612272565b5050509392505050565b600082601f8301126122b8576122b76119f0565b5b81356122c884826020860161223a565b91505092915050565b600080600080600060a086880312156122ed576122ec611952565b5b60006122fb888289016119a5565b955050602061230c888289016119a5565b945050604086013567ffffffffffffffff81111561232d5761232c611957565b5b612339888289016122a3565b935050606086013567ffffffffffffffff81111561235a57612359611957565b5b612366888289016122a3565b925050608086013567ffffffffffffffff81111561238757612386611957565b5b61239388828901611df9565b9150509295509295909350565b6123a9816119ba565b82525050565b60006020820190506123c460008301846123a0565b92915050565b600080600080600060a086880312156123e6576123e5611952565b5b60006123f4888289016119a5565b9550506020612405888289016119a5565b9450506040612416888289016119db565b9350506060612427888289016119db565b925050608086013567ffffffffffffffff81111561244857612447611957565b5b61245488828901611df9565b9150509295509295909350565b61246a8161197c565b82525050565b600082825260208201905092915050565b600061248d8385612470565b935061249a838584611da8565b6124a383611ceb565b840190509392505050565b600060a0820190506124c36000830189612461565b6124d060208301886123a0565b81810360408301526124e3818688612481565b90506124f26060830185611bf5565b6124ff60808301846123a0565b979650505050505050565b600060608201905061251f6000830187612461565b61252c60208301866123a0565b818103604083015261253f818486612481565b905095945050505050565b600082825260208201905092915050565b7f416363657373436f6e74726f6c3a2063616e206f6e6c792072656e6f756e636560008201527f20726f6c657320666f722073656c660000000000000000000000000000000000602082015250565b60006125b7602f8361254a565b91506125c28261255b565b604082019050919050565b600060208201905081810360008301526125e6816125aa565b9050919050565b7f54696d656c6f636b436f6e74726f6c6c65723a2063616c6c6572206d7573742060008201527f62652074696d656c6f636b000000000000000000000000000000000000000000602082015250565b6000612649602b8361254a565b9150612654826125ed565b604082019050919050565b600060208201905081810360008301526126788161263c565b9050919050565b600060408201905061269460008301856123a0565b6126a160208301846123a0565b9392505050565b600060a0820190506126bd6000830189612461565b6126ca60208301886123a0565b81810360408301526126dd818688612481565b90506126ec6060830185611bf5565b6126f96080830184611bf5565b979650505050505050565b7f54696d656c6f636b436f6e74726f6c6c65723a206c656e677468206d69736d6160008201527f7463680000000000000000000000000000000000000000000000000000000000602082015250565b600061276060238361254a565b915061276b82612704565b604082019050919050565b6000602082019050818103600083015261278f81612753565b9050919050565b7f4e487b7100000000000000000000000000000000000000000000000000000000600052603260045260246000fd5b6000602082840312156127db576127da611952565b5b60006127e9848285016119a5565b91505092915050565b600080fd5b600080fd5b600080fd5b6000808335600160200384360303811261281e5761281d6127f2565b5b80840192508235915067ffffffffffffffff8211156128405761283f6127f7565b5b60208301925060018202360383131561285c5761285b6127fc565b5b509250929050565b7f4e487b7100000000000000000000000000000000000000000000000000000000600052601160045260246000fd5b600061289e826119ba565b91507fffffffffffffffffffffffffffffffffffffffffffffffffffffffffffffffff82036128d0576128cf612864565b5b600182019050919050565b600082825260208201905092915050565b6000819050919050565b6128ff8161197c565b82525050565b600061291183836128f6565b60208301905092915050565b600061292c60208401846119a5565b905092915050565b6000602082019050919050565b600061294d83856128db565b9350612958826128ec565b8060005b858110156129915761296e828461291d565b6129788882612905565b975061298383612934565b92505060018101905061295c565b5085925050509392505050565b600082825260208201905092915050565b600080fd5b60006129c0838561299e565b93507f07ffffffffffffffffffffffffffffffffffffffffffffffffffffffffffffff8311156129f3576129f26129af565b5b602083029250612a04838584611da8565b82840190509392505050565b600082825260208201905092915050565b6000819050919050565b600082825260208201905092915050565b6000612a488385612a2b565b9350612a55838584611da8565b612a5e83611ceb565b840190509392505050565b6000612a76848484612a3c565b90509392505050565b600080fd5b600080fd5b600080fd5b60008083356001602003843603038112612aab57612aaa612a89565b5b83810192508235915060208301925067ffffffffffffffff821115612ad357612ad2612a7f565b5b600182023603831315612ae957612ae8612a84565b5b509250929050565b6000602082019050919050565b6000612b0a8385612a10565b935083602084028501612b1c84612a21565b8060005b87811015612b62578484038952612b378284612a8e565b612b42868284612a69565b9550612b4d84612af1565b935060208b019a505050600181019050612b20565b50829750879450505050509392505050565b600060a0820190508181036000830152612b8f818a8c612941565b90508181036020830152612ba481888a6129b4565b90508181036040830152612bb9818688612afe565b9050612bc86060830185611bf5565b612bd56080830184611bf5565b9998505050505050505050565b7f54696d656c6f636b436f6e74726f6c6c65723a206f7065726174696f6e20636160008201527f6e6e6f742062652063616e63656c6c6564000000000000000000000000000000602082015250565b6000612c3e60318361254a565b9150612c4982612be2565b604082019050919050565b60006020820190508181036000830152612c6d81612c31565b9050919050565b7f54696d656c6f636b436f6e74726f6c6c65723a206f7065726174696f6e20616c60008201527f7265616479207363686564756c65640000000000000000000000000000000000602082015250565b6000612cd0602f8361254a565b9150612cdb82612c74565b604082019050919050565b60006020820190508181036000830152612cff81612cc3565b9050919050565b7f54696d656c6f636b436f6e74726f6c6c65723a20696e73756666696369656e7460008201527f2064656c61790000000000000000000000000000000000000000000000000000602082015250565b6000612d6260268361254a565b9150612d6d82612d06565b604082019050919050565b60006020820190508181036000830152612d9181612d55565b9050919050565b6000612da3826119ba565b9150612dae836119ba565b9250827fffffffffffffffffffffffffffffffffffffffffffffffffffffffffffffffff03821115612de357612de2612864565b5b828201905092915050565b600081905092915050565b7f416363657373436f6e74726f6c3a206163636f756e7420000000000000000000600082015250565b6000612e2f601783612dee565b9150612e3a82612df9565b601782019050919050565b600081519050919050565b60005b83811015612e6e578082015181840152602081019050612e53565b83811115612e7d576000848401525b50505050565b6000612e8e82612e45565b612e988185612dee565b9350612ea8818560208601612e50565b80840191505092915050565b7f206973206d697373696e6720726f6c6520000000000000000000000000000000600082015250565b6000612eea601183612dee565b9150612ef582612eb4565b601182019050919050565b6000612f0b82612e22565b9150612f178285612e83565b9150612f2282612edd565b9150612f2e8284612e83565b91508190509392505050565b6000612f4582612e45565b612f4f818561254a565b9350612f5f818560208601612e50565b612f6881611ceb565b840191505092915050565b60006020820190508181036000830152612f8d8184612f3a565b905092915050565b7f54696d656c6f636b436f6e74726f6c6c65723a206f7065726174696f6e20697360008201527f206e6f7420726561647900000000000000000000000000000000000000000000602082015250565b6000612ff1602a8361254a565b9150612ffc82612f95565b604082019050919050565b6000602082019050818103600083015261302081612fe4565b9050919050565b7f54696d656c6f636b436f6e74726f6c6c65723a206d697373696e67206465706560008201527f6e64656e63790000000000000000000000000000000000000000000000000000602082015250565b600061308360268361254a565b915061308e82613027565b604082019050919050565b600060208201905081810360008301526130b281613076565b9050919050565b600081905092915050565b60006130d083856130b9565b93506130dd838584611da8565b82840190509392505050565b60006130f68284866130c4565b91508190509392505050565b7f54696d656c6f636b436f6e74726f6c6c65723a20756e6465726c79696e67207460008201527f72616e73616374696f6e20726576657274656400000000000000000000000000602082015250565b600061315e60338361254a565b915061316982613102565b604082019050919050565b6000602082019050818103600083015261318d81613151565b9050919050565b600061319f826119ba565b91506131aa836119ba565b9250817fffffffffffffffffffffffffffffffffffffffffffffffffffffffffffffffff04831182151516156131e3576131e2612864565b5b828202905092915050565b60006131f9826119ba565b91506000820361320c5761320b612864565b5b600182039050919050565b7f537472696e67733a20686578206c656e67746820696e73756666696369656e74600082015250565b600061324d60208361254a565b915061325882613217565b602082019050919050565b6000602082019050818103600083015261327c81613240565b905091905056fea264697066735822122050773f21b60267ecefcfe8642781c4ba7c64623a30678d8753944d8c32fbbe0164736f6c634300080e0033",
  "immutableReferences": {},
  "source": "// SPDX-License-Identifier: MIT\n// OpenZeppelin Contracts (last updated v4.7.0) (governance/TimelockController.sol)\n\npragma solidity ^0.8.0;\n\nimport \"../access/AccessControl.sol\";\nimport \"../token/ERC721/IERC721Receiver.sol\";\nimport \"../token/ERC1155/IERC1155Receiver.sol\";\nimport \"../utils/Address.sol\";\n\n/**\n * @dev Contract module which acts as a timelocked controller. When set as the\n * owner of an `Ownable` smart contract, it enforces a timelock on all\n * `onlyOwner` maintenance operations. This gives time for users of the\n * controlled contract to exit before a potentially dangerous maintenance\n * operation is applied.\n *\n * By default, this contract is self administered, meaning administration tasks\n * have to go through the timelock process. The proposer (resp executor) role\n * is in charge of proposing (resp executing) operations. A common use case is\n * to position this {TimelockController} as the owner of a smart contract, with\n * a multisig or a DAO as the sole proposer.\n *\n * _Available since v3.3._\n */\ncontract TimelockController is AccessControl, IERC721Receiver, IERC1155Receiver {\n    bytes32 public constant TIMELOCK_ADMIN_ROLE = keccak256(\"TIMELOCK_ADMIN_ROLE\");\n    bytes32 public constant PROPOSER_ROLE = keccak256(\"PROPOSER_ROLE\");\n    bytes32 public constant EXECUTOR_ROLE = keccak256(\"EXECUTOR_ROLE\");\n    bytes32 public constant CANCELLER_ROLE = keccak256(\"CANCELLER_ROLE\");\n    uint256 internal constant _DONE_TIMESTAMP = uint256(1);\n\n    mapping(bytes32 => uint256) private _timestamps;\n    uint256 private _minDelay;\n\n    /**\n     * @dev Emitted when a call is scheduled as part of operation `id`.\n     */\n    event CallScheduled(\n        bytes32 indexed id,\n        uint256 indexed index,\n        address target,\n        uint256 value,\n        bytes data,\n        bytes32 predecessor,\n        uint256 delay\n    );\n\n    /**\n     * @dev Emitted when a call is performed as part of operation `id`.\n     */\n    event CallExecuted(bytes32 indexed id, uint256 indexed index, address target, uint256 value, bytes data);\n\n    /**\n     * @dev Emitted when operation `id` is cancelled.\n     */\n    event Cancelled(bytes32 indexed id);\n\n    /**\n     * @dev Emitted when the minimum delay for future operations is modified.\n     */\n    event MinDelayChange(uint256 oldDuration, uint256 newDuration);\n\n    /**\n     * @dev Initializes the contract with a given `minDelay`, and a list of\n     * initial proposers and executors. The proposers receive both the\n     * proposer and the canceller role (for backward compatibility). The\n     * executors receive the executor role.\n     *\n     * NOTE: At construction, both the deployer and the timelock itself are\n     * administrators. This helps further configuration of the timelock by the\n     * deployer. After configuration is done, it is recommended that the\n     * deployer renounces its admin position and relies on timelocked\n     * operations to perform future maintenance.\n     */\n    constructor(\n        uint256 minDelay,\n        address[] memory proposers,\n        address[] memory executors\n    ) {\n        _setRoleAdmin(TIMELOCK_ADMIN_ROLE, TIMELOCK_ADMIN_ROLE);\n        _setRoleAdmin(PROPOSER_ROLE, TIMELOCK_ADMIN_ROLE);\n        _setRoleAdmin(EXECUTOR_ROLE, TIMELOCK_ADMIN_ROLE);\n        _setRoleAdmin(CANCELLER_ROLE, TIMELOCK_ADMIN_ROLE);\n\n        // deployer + self administration\n        _setupRole(TIMELOCK_ADMIN_ROLE, _msgSender());\n        _setupRole(TIMELOCK_ADMIN_ROLE, address(this));\n\n        // register proposers and cancellers\n        for (uint256 i = 0; i < proposers.length; ++i) {\n            _setupRole(PROPOSER_ROLE, proposers[i]);\n            _setupRole(CANCELLER_ROLE, proposers[i]);\n        }\n\n        // register executors\n        for (uint256 i = 0; i < executors.length; ++i) {\n            _setupRole(EXECUTOR_ROLE, executors[i]);\n        }\n\n        _minDelay = minDelay;\n        emit MinDelayChange(0, minDelay);\n    }\n\n    /**\n     * @dev Modifier to make a function callable only by a certain role. In\n     * addition to checking the sender's role, `address(0)` 's role is also\n     * considered. Granting a role to `address(0)` is equivalent to enabling\n     * this role for everyone.\n     */\n    modifier onlyRoleOrOpenRole(bytes32 role) {\n        if (!hasRole(role, address(0))) {\n            _checkRole(role, _msgSender());\n        }\n        _;\n    }\n\n    /**\n     * @dev Contract might receive/hold ETH as part of the maintenance process.\n     */\n    receive() external payable {}\n\n    /**\n     * @dev See {IERC165-supportsInterface}.\n     */\n    function supportsInterface(bytes4 interfaceId) public view virtual override(IERC165, AccessControl) returns (bool) {\n        return interfaceId == type(IERC1155Receiver).interfaceId || super.supportsInterface(interfaceId);\n    }\n\n    /**\n     * @dev Returns whether an id correspond to a registered operation. This\n     * includes both Pending, Ready and Done operations.\n     */\n    function isOperation(bytes32 id) public view virtual returns (bool registered) {\n        return getTimestamp(id) > 0;\n    }\n\n    /**\n     * @dev Returns whether an operation is pending or not.\n     */\n    function isOperationPending(bytes32 id) public view virtual returns (bool pending) {\n        return getTimestamp(id) > _DONE_TIMESTAMP;\n    }\n\n    /**\n     * @dev Returns whether an operation is ready or not.\n     */\n    function isOperationReady(bytes32 id) public view virtual returns (bool ready) {\n        uint256 timestamp = getTimestamp(id);\n        return timestamp > _DONE_TIMESTAMP && timestamp <= block.timestamp;\n    }\n\n    /**\n     * @dev Returns whether an operation is done or not.\n     */\n    function isOperationDone(bytes32 id) public view virtual returns (bool done) {\n        return getTimestamp(id) == _DONE_TIMESTAMP;\n    }\n\n    /**\n     * @dev Returns the timestamp at with an operation becomes ready (0 for\n     * unset operations, 1 for done operations).\n     */\n    function getTimestamp(bytes32 id) public view virtual returns (uint256 timestamp) {\n        return _timestamps[id];\n    }\n\n    /**\n     * @dev Returns the minimum delay for an operation to become valid.\n     *\n     * This value can be changed by executing an operation that calls `updateDelay`.\n     */\n    function getMinDelay() public view virtual returns (uint256 duration) {\n        return _minDelay;\n    }\n\n    /**\n     * @dev Returns the identifier of an operation containing a single\n     * transaction.\n     */\n    function hashOperation(\n        address target,\n        uint256 value,\n        bytes calldata data,\n        bytes32 predecessor,\n        bytes32 salt\n    ) public pure virtual returns (bytes32 hash) {\n        return keccak256(abi.encode(target, value, data, predecessor, salt));\n    }\n\n    /**\n     * @dev Returns the identifier of an operation containing a batch of\n     * transactions.\n     */\n    function hashOperationBatch(\n        address[] calldata targets,\n        uint256[] calldata values,\n        bytes[] calldata payloads,\n        bytes32 predecessor,\n        bytes32 salt\n    ) public pure virtual returns (bytes32 hash) {\n        return keccak256(abi.encode(targets, values, payloads, predecessor, salt));\n    }\n\n    /**\n     * @dev Schedule an operation containing a single transaction.\n     *\n     * Emits a {CallScheduled} event.\n     *\n     * Requirements:\n     *\n     * - the caller must have the 'proposer' role.\n     */\n    function schedule(\n        address target,\n        uint256 value,\n        bytes calldata data,\n        bytes32 predecessor,\n        bytes32 salt,\n        uint256 delay\n    ) public virtual onlyRole(PROPOSER_ROLE) {\n        bytes32 id = hashOperation(target, value, data, predecessor, salt);\n        _schedule(id, delay);\n        emit CallScheduled(id, 0, target, value, data, predecessor, delay);\n    }\n\n    /**\n     * @dev Schedule an operation containing a batch of transactions.\n     *\n     * Emits one {CallScheduled} event per transaction in the batch.\n     *\n     * Requirements:\n     *\n     * - the caller must have the 'proposer' role.\n     */\n    function scheduleBatch(\n        address[] calldata targets,\n        uint256[] calldata values,\n        bytes[] calldata payloads,\n        bytes32 predecessor,\n        bytes32 salt,\n        uint256 delay\n    ) public virtual onlyRole(PROPOSER_ROLE) {\n        require(targets.length == values.length, \"TimelockController: length mismatch\");\n        require(targets.length == payloads.length, \"TimelockController: length mismatch\");\n\n        bytes32 id = hashOperationBatch(targets, values, payloads, predecessor, salt);\n        _schedule(id, delay);\n        for (uint256 i = 0; i < targets.length; ++i) {\n            emit CallScheduled(id, i, targets[i], values[i], payloads[i], predecessor, delay);\n        }\n    }\n\n    /**\n     * @dev Schedule an operation that is to becomes valid after a given delay.\n     */\n    function _schedule(bytes32 id, uint256 delay) private {\n        require(!isOperation(id), \"TimelockController: operation already scheduled\");\n        require(delay >= getMinDelay(), \"TimelockController: insufficient delay\");\n        _timestamps[id] = block.timestamp + delay;\n    }\n\n    /**\n     * @dev Cancel an operation.\n     *\n     * Requirements:\n     *\n     * - the caller must have the 'canceller' role.\n     */\n    function cancel(bytes32 id) public virtual onlyRole(CANCELLER_ROLE) {\n        require(isOperationPending(id), \"TimelockController: operation cannot be cancelled\");\n        delete _timestamps[id];\n\n        emit Cancelled(id);\n    }\n\n    /**\n     * @dev Execute an (ready) operation containing a single transaction.\n     *\n     * Emits a {CallExecuted} event.\n     *\n     * Requirements:\n     *\n     * - the caller must have the 'executor' role.\n     */\n    // This function can reenter, but it doesn't pose a risk because _afterCall checks that the proposal is pending,\n    // thus any modifications to the operation during reentrancy should be caught.\n    // slither-disable-next-line reentrancy-eth\n    function execute(\n        address target,\n        uint256 value,\n        bytes calldata payload,\n        bytes32 predecessor,\n        bytes32 salt\n    ) public payable virtual onlyRoleOrOpenRole(EXECUTOR_ROLE) {\n        bytes32 id = hashOperation(target, value, payload, predecessor, salt);\n\n        _beforeCall(id, predecessor);\n        _execute(target, value, payload);\n        emit CallExecuted(id, 0, target, value, payload);\n        _afterCall(id);\n    }\n\n    /**\n     * @dev Execute an (ready) operation containing a batch of transactions.\n     *\n     * Emits one {CallExecuted} event per transaction in the batch.\n     *\n     * Requirements:\n     *\n     * - the caller must have the 'executor' role.\n     */\n    function executeBatch(\n        address[] calldata targets,\n        uint256[] calldata values,\n        bytes[] calldata payloads,\n        bytes32 predecessor,\n        bytes32 salt\n    ) public payable virtual onlyRoleOrOpenRole(EXECUTOR_ROLE) {\n        require(targets.length == values.length, \"TimelockController: length mismatch\");\n        require(targets.length == payloads.length, \"TimelockController: length mismatch\");\n\n        bytes32 id = hashOperationBatch(targets, values, payloads, predecessor, salt);\n\n        _beforeCall(id, predecessor);\n        for (uint256 i = 0; i < targets.length; ++i) {\n            address target = targets[i];\n            uint256 value = values[i];\n            bytes calldata payload = payloads[i];\n            _execute(target, value, payload);\n            emit CallExecuted(id, i, target, value, payload);\n        }\n        _afterCall(id);\n    }\n\n    /**\n     * @dev Execute an operation's call.\n     */\n    function _execute(\n        address target,\n        uint256 value,\n        bytes calldata data\n    ) internal virtual {\n        (bool success, ) = target.call{value: value}(data);\n        require(success, \"TimelockController: underlying transaction reverted\");\n    }\n\n    /**\n     * @dev Checks before execution of an operation's calls.\n     */\n    function _beforeCall(bytes32 id, bytes32 predecessor) private view {\n        require(isOperationReady(id), \"TimelockController: operation is not ready\");\n        require(predecessor == bytes32(0) || isOperationDone(predecessor), \"TimelockController: missing dependency\");\n    }\n\n    /**\n     * @dev Checks after execution of an operation's calls.\n     */\n    function _afterCall(bytes32 id) private {\n        require(isOperationReady(id), \"TimelockController: operation is not ready\");\n        _timestamps[id] = _DONE_TIMESTAMP;\n    }\n\n    /**\n     * @dev Changes the minimum timelock duration for future operations.\n     *\n     * Emits a {MinDelayChange} event.\n     *\n     * Requirements:\n     *\n     * - the caller must be the timelock itself. This can only be achieved by scheduling and later executing\n     * an operation where the timelock is the target and the data is the ABI-encoded call to this function.\n     */\n    function updateDelay(uint256 newDelay) external virtual {\n        require(msg.sender == address(this), \"TimelockController: caller must be timelock\");\n        emit MinDelayChange(_minDelay, newDelay);\n        _minDelay = newDelay;\n    }\n\n    /**\n     * @dev See {IERC721Receiver-onERC721Received}.\n     */\n    function onERC721Received(\n        address,\n        address,\n        uint256,\n        bytes memory\n    ) public virtual override returns (bytes4) {\n        return this.onERC721Received.selector;\n    }\n\n    /**\n     * @dev See {IERC1155Receiver-onERC1155Received}.\n     */\n    function onERC1155Received(\n        address,\n        address,\n        uint256,\n        uint256,\n        bytes memory\n    ) public virtual override returns (bytes4) {\n        return this.onERC1155Received.selector;\n    }\n\n    /**\n     * @dev See {IERC1155Receiver-onERC1155BatchReceived}.\n     */\n    function onERC1155BatchReceived(\n        address,\n        address,\n        uint256[] memory,\n        uint256[] memory,\n        bytes memory\n    ) public virtual override returns (bytes4) {\n        return this.onERC1155BatchReceived.selector;\n    }\n}\n",
  "sourcePath": "C:\\Users\\paete\\Prototype\\nftmusicProtoCopy\\truffle\\contracts\\governance\\TimelockController.sol",
  "compiler": {
    "name": "solc",
    "version": "0.8.14+commit.80d49f37.Emscripten.clang"
  },
  "schemaVersion": "3.4.11",
  "updatedAt": "2023-01-29T11:57:47.866Z",
  "devdoc": {
    "details": "Contract module which acts as a timelocked controller. When set as the owner of an `Ownable` smart contract, it enforces a timelock on all `onlyOwner` maintenance operations. This gives time for users of the controlled contract to exit before a potentially dangerous maintenance operation is applied. By default, this contract is self administered, meaning administration tasks have to go through the timelock process. The proposer (resp executor) role is in charge of proposing (resp executing) operations. A common use case is to position this {TimelockController} as the owner of a smart contract, with a multisig or a DAO as the sole proposer. _Available since v3.3._",
    "events": {
      "CallExecuted(bytes32,uint256,address,uint256,bytes)": {
        "details": "Emitted when a call is performed as part of operation `id`."
      },
      "CallScheduled(bytes32,uint256,address,uint256,bytes,bytes32,uint256)": {
        "details": "Emitted when a call is scheduled as part of operation `id`."
      },
      "Cancelled(bytes32)": {
        "details": "Emitted when operation `id` is cancelled."
      },
      "MinDelayChange(uint256,uint256)": {
        "details": "Emitted when the minimum delay for future operations is modified."
      }
    },
    "kind": "dev",
    "methods": {
      "cancel(bytes32)": {
        "details": "Cancel an operation. Requirements: - the caller must have the 'canceller' role."
      },
      "constructor": {
        "details": "Initializes the contract with a given `minDelay`, and a list of initial proposers and executors. The proposers receive both the proposer and the canceller role (for backward compatibility). The executors receive the executor role. NOTE: At construction, both the deployer and the timelock itself are administrators. This helps further configuration of the timelock by the deployer. After configuration is done, it is recommended that the deployer renounces its admin position and relies on timelocked operations to perform future maintenance."
      },
      "execute(address,uint256,bytes,bytes32,bytes32)": {
        "details": "Execute an (ready) operation containing a single transaction. Emits a {CallExecuted} event. Requirements: - the caller must have the 'executor' role."
      },
      "executeBatch(address[],uint256[],bytes[],bytes32,bytes32)": {
        "details": "Execute an (ready) operation containing a batch of transactions. Emits one {CallExecuted} event per transaction in the batch. Requirements: - the caller must have the 'executor' role."
      },
      "getMinDelay()": {
        "details": "Returns the minimum delay for an operation to become valid. This value can be changed by executing an operation that calls `updateDelay`."
      },
      "getRoleAdmin(bytes32)": {
        "details": "Returns the admin role that controls `role`. See {grantRole} and {revokeRole}. To change a role's admin, use {_setRoleAdmin}."
      },
      "getTimestamp(bytes32)": {
        "details": "Returns the timestamp at with an operation becomes ready (0 for unset operations, 1 for done operations)."
      },
      "grantRole(bytes32,address)": {
        "details": "Grants `role` to `account`. If `account` had not been already granted `role`, emits a {RoleGranted} event. Requirements: - the caller must have ``role``'s admin role. May emit a {RoleGranted} event."
      },
      "hasRole(bytes32,address)": {
        "details": "Returns `true` if `account` has been granted `role`."
      },
      "hashOperation(address,uint256,bytes,bytes32,bytes32)": {
        "details": "Returns the identifier of an operation containing a single transaction."
      },
      "hashOperationBatch(address[],uint256[],bytes[],bytes32,bytes32)": {
        "details": "Returns the identifier of an operation containing a batch of transactions."
      },
      "isOperation(bytes32)": {
        "details": "Returns whether an id correspond to a registered operation. This includes both Pending, Ready and Done operations."
      },
      "isOperationDone(bytes32)": {
        "details": "Returns whether an operation is done or not."
      },
      "isOperationPending(bytes32)": {
        "details": "Returns whether an operation is pending or not."
      },
      "isOperationReady(bytes32)": {
        "details": "Returns whether an operation is ready or not."
      },
      "onERC1155BatchReceived(address,address,uint256[],uint256[],bytes)": {
        "details": "See {IERC1155Receiver-onERC1155BatchReceived}."
      },
      "onERC1155Received(address,address,uint256,uint256,bytes)": {
        "details": "See {IERC1155Receiver-onERC1155Received}."
      },
      "onERC721Received(address,address,uint256,bytes)": {
        "details": "See {IERC721Receiver-onERC721Received}."
      },
      "renounceRole(bytes32,address)": {
        "details": "Revokes `role` from the calling account. Roles are often managed via {grantRole} and {revokeRole}: this function's purpose is to provide a mechanism for accounts to lose their privileges if they are compromised (such as when a trusted device is misplaced). If the calling account had been revoked `role`, emits a {RoleRevoked} event. Requirements: - the caller must be `account`. May emit a {RoleRevoked} event."
      },
      "revokeRole(bytes32,address)": {
        "details": "Revokes `role` from `account`. If `account` had been granted `role`, emits a {RoleRevoked} event. Requirements: - the caller must have ``role``'s admin role. May emit a {RoleRevoked} event."
      },
      "schedule(address,uint256,bytes,bytes32,bytes32,uint256)": {
        "details": "Schedule an operation containing a single transaction. Emits a {CallScheduled} event. Requirements: - the caller must have the 'proposer' role."
      },
      "scheduleBatch(address[],uint256[],bytes[],bytes32,bytes32,uint256)": {
        "details": "Schedule an operation containing a batch of transactions. Emits one {CallScheduled} event per transaction in the batch. Requirements: - the caller must have the 'proposer' role."
      },
      "supportsInterface(bytes4)": {
        "details": "See {IERC165-supportsInterface}."
      },
      "updateDelay(uint256)": {
        "details": "Changes the minimum timelock duration for future operations. Emits a {MinDelayChange} event. Requirements: - the caller must be the timelock itself. This can only be achieved by scheduling and later executing an operation where the timelock is the target and the data is the ABI-encoded call to this function."
      }
    },
    "version": 1
  },
  "userdoc": {
    "kind": "user",
    "methods": {},
    "version": 1
  }
}